{
  "contractName": "KaziKrypto",
  "abi": [
    {
      "inputs": [],
      "stateMutability": "payable",
      "type": "constructor"
    },
    {
      "inputs": [
        {
          "internalType": "string",
          "name": "_fullName",
          "type": "string"
        },
        {
          "internalType": "string",
          "name": "_profileImage",
          "type": "string"
        },
        {
          "internalType": "uint256",
          "name": "_hourlyRate",
          "type": "uint256"
        },
        {
          "internalType": "string",
          "name": "_profession",
          "type": "string"
        },
        {
          "internalType": "string",
          "name": "_preferredPayment",
          "type": "string"
        },
        {
          "internalType": "string[]",
          "name": "_skill",
          "type": "string[]"
        },
        {
          "internalType": "bool",
          "name": "_isProfilePublic",
          "type": "bool"
        }
      ],
      "name": "addNewFreelancer",
      "outputs": [],
      "stateMutability": "nonpayable",
      "type": "function"
    },
    {
      "inputs": [
        {
          "internalType": "string",
          "name": "_fullName",
          "type": "string"
        },
        {
          "internalType": "uint256",
          "name": "_hourlyRate",
          "type": "uint256"
        },
        {
          "internalType": "string",
          "name": "_profession",
          "type": "string"
        },
        {
          "internalType": "string",
          "name": "_preferredPayment",
          "type": "string"
        },
        {
          "internalType": "string[]",
          "name": "_skills",
          "type": "string[]"
        }
      ],
      "name": "editFreelancerProfile",
      "outputs": [],
      "stateMutability": "nonpayable",
      "type": "function"
    },
    {
      "inputs": [
        {
          "internalType": "bool",
          "name": "_isProfilePublic",
          "type": "bool"
        }
      ],
      "name": "setProfileVisibility",
      "outputs": [],
      "stateMutability": "nonpayable",
      "type": "function"
    },
    {
      "inputs": [
        {
          "internalType": "address",
          "name": "_freelancerAddress",
          "type": "address"
        }
      ],
      "name": "getFreelancer",
      "outputs": [
        {
          "components": [
            {
              "internalType": "address payable",
              "name": "accountId",
              "type": "address"
            },
            {
              "internalType": "string",
              "name": "profileImage",
              "type": "string"
            },
            {
              "internalType": "string",
              "name": "fullName",
              "type": "string"
            },
            {
              "internalType": "uint256",
              "name": "hourlyRate",
              "type": "uint256"
            },
            {
              "internalType": "string",
              "name": "profession",
              "type": "string"
            },
            {
              "internalType": "string",
              "name": "paymentPreference",
              "type": "string"
            },
            {
              "internalType": "string[]",
              "name": "skills",
              "type": "string[]"
            },
            {
              "internalType": "uint256",
              "name": "profileRating",
              "type": "uint256"
            },
            {
              "internalType": "bool",
              "name": "isProfilePublic",
              "type": "bool"
            }
          ],
          "internalType": "struct KaziKrypto.Freelancer",
          "name": "",
          "type": "tuple"
        }
      ],
      "stateMutability": "view",
      "type": "function"
    },
    {
      "inputs": [
        {
          "internalType": "string[]",
          "name": "_images",
          "type": "string[]"
        },
        {
          "internalType": "string[]",
          "name": "_videos",
          "type": "string[]"
        },
        {
          "internalType": "string",
          "name": "_taskurl",
          "type": "string"
        },
        {
          "internalType": "string",
          "name": "_description",
          "type": "string"
        }
      ],
      "name": "addPortfolio",
      "outputs": [],
      "stateMutability": "nonpayable",
      "type": "function"
    },
    {
      "inputs": [
        {
          "internalType": "address",
          "name": "_freelancerAddress",
          "type": "address"
        },
        {
          "internalType": "uint256",
          "name": "_index",
          "type": "uint256"
        }
      ],
      "name": "getPortfolio",
      "outputs": [
        {
          "components": [
            {
              "internalType": "address",
              "name": "accountId",
              "type": "address"
            },
            {
              "internalType": "string[]",
              "name": "images",
              "type": "string[]"
            },
            {
              "internalType": "string[]",
              "name": "videos",
              "type": "string[]"
            },
            {
              "internalType": "string",
              "name": "taskUrl",
              "type": "string"
            },
            {
              "internalType": "string",
              "name": "description",
              "type": "string"
            }
          ],
          "internalType": "struct KaziKrypto.FreelancerPortfolio",
          "name": "",
          "type": "tuple"
        }
      ],
      "stateMutability": "view",
      "type": "function"
    },
    {
      "inputs": [
        {
          "internalType": "string",
          "name": "_fromDate",
          "type": "string"
        },
        {
          "internalType": "string",
          "name": "_toDate",
          "type": "string"
        },
        {
          "internalType": "string",
          "name": "_jobTitle",
          "type": "string"
        },
        {
          "internalType": "string",
          "name": "_jobDescription",
          "type": "string"
        }
      ],
      "name": "addFreelancerExperience",
      "outputs": [],
      "stateMutability": "nonpayable",
      "type": "function"
    },
    {
      "inputs": [
        {
          "internalType": "address",
          "name": "_freelancerAddress",
          "type": "address"
        },
        {
          "internalType": "uint256",
          "name": "_index",
          "type": "uint256"
        }
      ],
      "name": "getExperience",
      "outputs": [
        {
          "components": [
            {
              "internalType": "address",
              "name": "accountId",
              "type": "address"
            },
            {
              "internalType": "string",
              "name": "fromDate",
              "type": "string"
            },
            {
              "internalType": "string",
              "name": "toDate",
              "type": "string"
            },
            {
              "internalType": "string",
              "name": "jobTitle",
              "type": "string"
            },
            {
              "internalType": "string",
              "name": "jobDescription",
              "type": "string"
            }
          ],
          "internalType": "struct KaziKrypto.FreelancerExperience",
          "name": "",
          "type": "tuple"
        }
      ],
      "stateMutability": "view",
      "type": "function"
    },
    {
      "inputs": [
        {
          "internalType": "string",
          "name": "_projectTitle",
          "type": "string"
        },
        {
          "internalType": "string",
          "name": "_projectDescription",
          "type": "string"
        },
        {
          "internalType": "string",
          "name": "_projectDuration",
          "type": "string"
        },
        {
          "internalType": "uint256",
          "name": "_projectBudget",
          "type": "uint256"
        },
        {
          "internalType": "string[]",
          "name": "_skillRequirements",
          "type": "string[]"
        },
        {
          "internalType": "string[]",
          "name": "_images",
          "type": "string[]"
        }
      ],
      "name": "postAClientJob",
      "outputs": [],
      "stateMutability": "payable",
      "type": "function"
    },
    {
      "inputs": [
        {
          "internalType": "uint256",
          "name": "_jobId",
          "type": "uint256"
        }
      ],
      "name": "getClientJob",
      "outputs": [
        {
          "components": [
            {
              "internalType": "uint256",
              "name": "jobId",
              "type": "uint256"
            },
            {
              "internalType": "address",
              "name": "accountId",
              "type": "address"
            },
            {
              "internalType": "string",
              "name": "projectTitle",
              "type": "string"
            },
            {
              "internalType": "string",
              "name": "projectDescription",
              "type": "string"
            },
            {
              "internalType": "string",
              "name": "projectDuration",
              "type": "string"
            },
            {
              "internalType": "uint256",
              "name": "projectBudget",
              "type": "uint256"
            },
            {
              "internalType": "string[]",
              "name": "skillRequirements",
              "type": "string[]"
            },
            {
              "internalType": "string[]",
              "name": "images",
              "type": "string[]"
            },
            {
              "internalType": "bool",
              "name": "bidAvailable",
              "type": "bool"
            }
          ],
          "internalType": "struct KaziKrypto.ClientJobs",
          "name": "",
          "type": "tuple"
        }
      ],
      "stateMutability": "view",
      "type": "function"
    },
    {
      "inputs": [
        {
          "internalType": "uint256",
          "name": "_jobid",
          "type": "uint256"
        },
        {
          "internalType": "string",
          "name": "_bidDescription",
          "type": "string"
        },
        {
          "internalType": "uint256",
          "name": "_budget",
          "type": "uint256"
        },
        {
          "internalType": "string[]",
          "name": "_relevantFiles",
          "type": "string[]"
        }
      ],
      "name": "makeABidding",
      "outputs": [],
      "stateMutability": "nonpayable",
      "type": "function"
    },
    {
      "inputs": [
        {
          "internalType": "uint256",
          "name": "_jobid",
          "type": "uint256"
        },
        {
          "internalType": "uint256",
          "name": "_bidId",
          "type": "uint256"
        }
      ],
      "name": "getBid",
      "outputs": [
        {
          "components": [
            {
              "internalType": "uint256",
              "name": "jobId",
              "type": "uint256"
            },
            {
              "internalType": "uint256",
              "name": "bidId",
              "type": "uint256"
            },
            {
              "internalType": "address",
              "name": "accountId",
              "type": "address"
            },
            {
              "internalType": "string",
              "name": "bidDescription",
              "type": "string"
            },
            {
              "internalType": "uint256",
              "name": "budget",
              "type": "uint256"
            },
            {
              "internalType": "string[]",
              "name": "relevantFiles",
              "type": "string[]"
            },
            {
              "internalType": "bool",
              "name": "bidApproved",
              "type": "bool"
            }
          ],
          "internalType": "struct KaziKrypto.FreelancerBids",
          "name": "",
          "type": "tuple"
        }
      ],
      "stateMutability": "view",
      "type": "function"
    },
    {
      "inputs": [
        {
          "internalType": "uint256",
          "name": "_jobid",
          "type": "uint256"
        }
      ],
      "name": "getBids",
      "outputs": [
        {
          "components": [
            {
              "internalType": "uint256",
              "name": "jobId",
              "type": "uint256"
            },
            {
              "internalType": "uint256",
              "name": "bidId",
              "type": "uint256"
            },
            {
              "internalType": "address",
              "name": "accountId",
              "type": "address"
            },
            {
              "internalType": "string",
              "name": "bidDescription",
              "type": "string"
            },
            {
              "internalType": "uint256",
              "name": "budget",
              "type": "uint256"
            },
            {
              "internalType": "string[]",
              "name": "relevantFiles",
              "type": "string[]"
            },
            {
              "internalType": "bool",
              "name": "bidApproved",
              "type": "bool"
            }
          ],
          "internalType": "struct KaziKrypto.FreelancerBids[]",
          "name": "",
          "type": "tuple[]"
        }
      ],
      "stateMutability": "view",
      "type": "function"
    },
    {
      "inputs": [
        {
          "internalType": "address",
          "name": "_receiver",
          "type": "address"
        },
        {
          "internalType": "string",
          "name": "_message",
          "type": "string"
        },
        {
          "internalType": "string[]",
          "name": "_attachedFiles",
          "type": "string[]"
        }
      ],
      "name": "chat",
      "outputs": [],
      "stateMutability": "nonpayable",
      "type": "function"
    },
    {
      "inputs": [
        {
          "internalType": "address",
          "name": "_receiver",
          "type": "address"
        }
      ],
      "name": "markAsRead",
      "outputs": [],
      "stateMutability": "nonpayable",
      "type": "function"
    },
    {
      "inputs": [
        {
          "internalType": "address",
          "name": "_receiver",
          "type": "address"
        },
        {
          "internalType": "uint256",
          "name": "_index",
          "type": "uint256"
        }
      ],
      "name": "getChat",
      "outputs": [
        {
          "internalType": "uint256",
          "name": "timestamp",
          "type": "uint256"
        },
        {
          "internalType": "address",
          "name": "sender",
          "type": "address"
        },
        {
          "internalType": "address",
          "name": "receiver",
          "type": "address"
        },
        {
          "internalType": "string",
          "name": "message",
          "type": "string"
        },
        {
          "internalType": "string[]",
          "name": "attachedFiles",
          "type": "string[]"
        },
        {
          "internalType": "bool",
          "name": "seen",
          "type": "bool"
        }
      ],
      "stateMutability": "view",
      "type": "function"
    },
    {
      "inputs": [
        {
          "internalType": "address",
          "name": "_receiver",
          "type": "address"
        }
      ],
      "name": "getChats",
      "outputs": [
        {
          "components": [
            {
              "internalType": "uint256",
              "name": "timestamp",
              "type": "uint256"
            },
            {
              "internalType": "address",
              "name": "sender",
              "type": "address"
            },
            {
              "internalType": "address",
              "name": "receiver",
              "type": "address"
            },
            {
              "internalType": "string",
              "name": "message",
              "type": "string"
            },
            {
              "internalType": "string[]",
              "name": "attachedFiles",
              "type": "string[]"
            },
            {
              "internalType": "bool",
              "name": "seen",
              "type": "bool"
            }
          ],
          "internalType": "struct KaziKrypto.Chats[]",
          "name": "",
          "type": "tuple[]"
        }
      ],
      "stateMutability": "view",
      "type": "function"
    },
    {
      "inputs": [
        {
          "internalType": "uint256",
          "name": "_jobId",
          "type": "uint256"
        },
        {
          "internalType": "uint256",
          "name": "_bidId",
          "type": "uint256"
        }
      ],
      "name": "acceptBid",
      "outputs": [],
      "stateMutability": "nonpayable",
      "type": "function"
    },
    {
      "inputs": [
        {
          "internalType": "uint256",
          "name": "_jobId",
          "type": "uint256"
        },
        {
          "internalType": "uint256",
          "name": "_bidId",
          "type": "uint256"
        },
        {
          "internalType": "string",
          "name": "_milestoneName",
          "type": "string"
        },
        {
          "internalType": "string",
          "name": "_mileStoneDescription",
          "type": "string"
        },
        {
          "internalType": "uint256",
          "name": "_mileStoneBudget",
          "type": "uint256"
        },
        {
          "internalType": "uint256",
          "name": "_mileStoneDuration",
          "type": "uint256"
        }
      ],
      "name": "addProjectMileStone",
      "outputs": [],
      "stateMutability": "nonpayable",
      "type": "function"
    },
    {
      "inputs": [
        {
          "internalType": "address payable",
          "name": "_freelancer",
          "type": "address"
        },
        {
          "internalType": "uint256",
          "name": "_mileStoneId",
          "type": "uint256"
        }
      ],
      "name": "approveProjectMilestone",
      "outputs": [],
      "stateMutability": "nonpayable",
      "type": "function"
    },
    {
      "inputs": [
        {
          "internalType": "address",
          "name": "_accountId",
          "type": "address"
        }
      ],
      "name": "getFreelancerMileStones",
      "outputs": [
        {
          "components": [
            {
              "internalType": "uint256",
              "name": "bidId",
              "type": "uint256"
            },
            {
              "internalType": "uint256",
              "name": "mileStoneId",
              "type": "uint256"
            },
            {
              "internalType": "string",
              "name": "milestoneName",
              "type": "string"
            },
            {
              "internalType": "string",
              "name": "milestoneDescription",
              "type": "string"
            },
            {
              "internalType": "uint256",
              "name": "milestoneBudget",
              "type": "uint256"
            },
            {
              "internalType": "uint256",
              "name": "milestoneDuration",
              "type": "uint256"
            },
            {
              "internalType": "bool",
              "name": "milestoneWorkApproved",
              "type": "bool"
            }
          ],
          "internalType": "struct KaziKrypto.ProjectMilestones[]",
          "name": "",
          "type": "tuple[]"
        }
      ],
      "stateMutability": "view",
      "type": "function"
    },
    {
      "inputs": [
        {
          "internalType": "uint256",
          "name": "_bidId",
          "type": "uint256"
        }
      ],
      "name": "getProjectMileStones",
      "outputs": [
        {
          "components": [
            {
              "internalType": "uint256",
              "name": "bidId",
              "type": "uint256"
            },
            {
              "internalType": "uint256",
              "name": "mileStoneId",
              "type": "uint256"
            },
            {
              "internalType": "string",
              "name": "milestoneName",
              "type": "string"
            },
            {
              "internalType": "string",
              "name": "milestoneDescription",
              "type": "string"
            },
            {
              "internalType": "uint256",
              "name": "milestoneBudget",
              "type": "uint256"
            },
            {
              "internalType": "uint256",
              "name": "milestoneDuration",
              "type": "uint256"
            },
            {
              "internalType": "bool",
              "name": "milestoneWorkApproved",
              "type": "bool"
            }
          ],
          "internalType": "struct KaziKrypto.ProjectMilestones[]",
          "name": "",
          "type": "tuple[]"
        }
      ],
      "stateMutability": "view",
      "type": "function"
    },
    {
      "inputs": [
        {
          "internalType": "address",
          "name": "_accountId",
          "type": "address"
        }
      ],
      "name": "getFreelancerTransactions",
      "outputs": [
        {
          "components": [
            {
              "internalType": "address payable",
              "name": "from",
              "type": "address"
            },
            {
              "internalType": "address payable",
              "name": "to",
              "type": "address"
            },
            {
              "internalType": "string",
              "name": "transactionPurpose",
              "type": "string"
            },
            {
              "internalType": "uint256",
              "name": "transactionAmount",
              "type": "uint256"
            },
            {
              "internalType": "uint256",
              "name": "timestamp",
              "type": "uint256"
            },
            {
              "internalType": "string",
              "name": "transactionStatus",
              "type": "string"
            }
          ],
          "internalType": "struct KaziKrypto.Transaction[]",
          "name": "",
          "type": "tuple[]"
        }
      ],
      "stateMutability": "view",
      "type": "function"
    },
    {
      "inputs": [
        {
          "internalType": "address",
          "name": "_accountId",
          "type": "address"
        },
        {
          "internalType": "uint256",
          "name": "_bidId",
          "type": "uint256"
        }
      ],
      "name": "rateAfreelancer",
      "outputs": [],
      "stateMutability": "nonpayable",
      "type": "function"
    },
    {
      "inputs": [
        {
          "internalType": "address",
          "name": "_accountId",
          "type": "address"
        }
      ],
      "name": "viewFreelancerRating",
      "outputs": [
        {
          "internalType": "uint256",
          "name": "",
          "type": "uint256"
        }
      ],
      "stateMutability": "view",
      "type": "function"
    }
  ],
  "bytecode": "0x60806040526145e5806100136000396000f3fe6080604052600436106101665760003560e01c8063582c7ffd116100d1578063aa1e85411161008a578063d3999d7911610064578063d3999d79146104aa578063d9c83670146104ca578063f1bf5313146104ea578063f99ca8b61461050a57600080fd5b8063aa1e854114610431578063b0c77c5614610450578063ce1d47831461047d57600080fd5b8063582c7ffd146103485780635b0500981461037557806364df6ab114610395578063876ec70b146103c2578063a713a048146103e2578063a91b95d91461040257600080fd5b806335e684b41161012357806335e684b4146102435780634027b297146102635780634104823e1461029057806343ca1737146102bd5780634455c835146102dd57806349cbc79d1461031b57600080fd5b806302e9d5e41461016b5780630e357a6e1461018d578063131d9a27146101c35780631f07b399146101f057806325dfc14014610210578063349ae58a14610223575b600080fd5b34801561017757600080fd5b5061018b61018636600461370f565b61053c565b005b34801561019957600080fd5b506101ad6101a8366004613746565b610762565b6040516101ba9190613817565b60405180910390f35b3480156101cf57600080fd5b506101e36101de3660046138a7565b610ace565b6040516101ba9190613937565b3480156101fc57600080fd5b5061018b61020b366004613a50565b610cf2565b61018b61021e366004613b78565b611090565b34801561022f57600080fd5b5061018b61023e366004613c52565b6113ab565b34801561024f57600080fd5b5061018b61025e366004613cc8565b61148f565b34801561026f57600080fd5b5061028361027e366004613746565b611508565b6040516101ba9190613d7f565b34801561029c57600080fd5b506102b06102ab3660046138a7565b6116d1565b6040516101ba9190613dcb565b3480156102c957600080fd5b5061018b6102d8366004613eb1565b611b73565b3480156102e957600080fd5b5061018b6102f8366004613f73565b336000908152600360205260409020600801805460ff1916911515919091179055565b34801561032757600080fd5b5061033b610336366004613f95565b611c49565b6040516101ba9190613fb2565b34801561035457600080fd5b5061036861036336600461370f565b611e0e565b6040516101ba9190614071565b34801561038157600080fd5b5061018b610390366004614084565b61215d565b3480156103a157600080fd5b506103b56103b0366004613f95565b6123ae565b6040516101ba91906140ef565b3480156103ce57600080fd5b5061018b6103dd3660046141ca565b612787565b3480156103ee57600080fd5b5061018b6103fd366004614226565b612824565b34801561040e57600080fd5b5061042361041d366004613f95565b50600090565b6040519081526020016101ba565b34801561043d57600080fd5b5061018b61044c366004613746565b5050565b34801561045c57600080fd5b5061047061046b3660046138a7565b612956565b6040516101ba9190614312565b34801561048957600080fd5b5061049d610498366004613f95565b612b1e565b6040516101ba91906143c0565b3480156104b657600080fd5b5061018b6104c5366004613746565b612d35565b3480156104d657600080fd5b5061018b6104e5366004613f95565b6130e8565b3480156104f657600080fd5b50610470610505366004613f95565b6131be565b34801561051657600080fd5b5061052a610525366004613746565b613389565b6040516101ba96959493929190614475565b60005b6000838152600a602052604090205481101561066f576000838152600a6020526040902080548391908390811061057857610578614516565b906000526020600020906007020160010154141561065d576000838152600a602052604090208054829081106105b0576105b0614516565b600091825260209091206006600790920201015460ff161515600114156106165760405162461bcd60e51b8152602060048201526015602482015274189a5917d85b1b1c9958591e57d85c1c1c9bdd9959605a1b60448201526064015b60405180910390fd5b6000838152600a602052604090208054600191908390811061063a5761063a614516565b60009182526020909120600790910201600601805460ff19169115159190911790555b8061066781614542565b91505061053f565b5060005b60095481101561075d57826009828154811061069157610691614516565b906000526020600020906009020160000154141561074b57600981815481106106bc576106bc614516565b600091825260209091206008600990920201015460ff166107135760405162461bcd60e51b8152602060048201526011602482015270626964206e6f7420617661696c61626c6560781b604482015260640161060d565b60006009828154811061072857610728614516565b60009182526020909120600990910201600801805460ff19169115159190911790555b8061075581614542565b915050610673565b505050565b61079d6040518060a0016040528060006001600160a01b03168152602001606081526020016060815260200160608152602001606081525090565b6001600160a01b03831660009081526004602052604090208054839081106107c7576107c7614516565b600091825260208083206040805160a081018252600590940290910180546001600160a01b0316845260018101805483518186028101860190945280845294959194868501949192909184015b828210156108c05783829060005260206000200180546108339061455d565b80601f016020809104026020016040519081016040528092919081815260200182805461085f9061455d565b80156108ac5780601f10610881576101008083540402835291602001916108ac565b820191906000526020600020905b81548152906001019060200180831161088f57829003601f168201915b505050505081526020019060010190610814565b50505050815260200160028201805480602002602001604051908101604052809291908181526020016000905b8282101561099957838290600052602060002001805461090c9061455d565b80601f01602080910402602001604051908101604052809291908181526020018280546109389061455d565b80156109855780601f1061095a57610100808354040283529160200191610985565b820191906000526020600020905b81548152906001019060200180831161096857829003601f168201915b5050505050815260200190600101906108ed565b5050505081526020016003820180546109b19061455d565b80601f01602080910402602001604051908101604052809291908181526020018280546109dd9061455d565b8015610a2a5780601f106109ff57610100808354040283529160200191610a2a565b820191906000526020600020905b815481529060010190602001808311610a0d57829003601f168201915b50505050508152602001600482018054610a439061455d565b80601f0160208091040260200160405190810160405280929190818152602001828054610a6f9061455d565b8015610abc5780601f10610a9157610100808354040283529160200191610abc565b820191906000526020600020905b815481529060010190602001808311610a9f57829003601f168201915b50505050508152505090505b92915050565b6060600a6000838152602001908152602001600020805480602002602001604051908101604052809291908181526020016000905b82821015610ce75760008481526020908190206040805160e081018252600786029092018054835260018101549383019390935260028301546001600160a01b031690820152600382018054919291606084019190610b619061455d565b80601f0160208091040260200160405190810160405280929190818152602001828054610b8d9061455d565b8015610bda5780601f10610baf57610100808354040283529160200191610bda565b820191906000526020600020905b815481529060010190602001808311610bbd57829003601f168201915b505050505081526020016004820154815260200160058201805480602002602001604051908101604052809291908181526020016000905b82821015610cbe578382906000526020600020018054610c319061455d565b80601f0160208091040260200160405190810160405280929190818152602001828054610c5d9061455d565b8015610caa5780601f10610c7f57610100808354040283529160200191610caa565b820191906000526020600020905b815481529060010190602001808311610c8d57829003601f168201915b505050505081526020019060010190610c12565b505050908252506006919091015460ff1615156020918201529082526001929092019101610b03565b505050509050919050565b60008060005b6000898152600a6020526040902054811015610dd7576000898152600a60205260409020805489919083908110610d3157610d31614516565b906000526020600020906007020160010154148015610d8857506000898152600a60205260409020805482908110610d6b57610d6b614516565b600091825260209091206006600790920201015460ff1615156001145b15610dc5576000898152600a60205260409020805482908110610dad57610dad614516565b90600052602060002090600702016004015492508091505b80610dcf81614542565b915050610cf8565b5083821015610e1c5760405162461bcd60e51b8152602060048201526011602482015270189d5919d95d17dbdd995c9c1c9a58d959607a1b604482015260640161060d565b6000888152600a60205260409020805482908110610e3c57610e3c614516565b600091825260209091206006600790920201015460ff16610e925760405162461bcd60e51b815260206004820152601060248201526f189a5917db9bdd17d85c1c1c9bdd995960821b604482015260640161060d565b60018054906000610ea283614542565b90915550506000888152600a60205260409020805485919083908110610eca57610eca614516565b90600052602060002090600702016004016000828254610eea9190614598565b9091555050336000908152600760208181526040808420815160e0810183528c8152600180548286019081529382018d8152606083018d9052608083018c905260a083018b905260c08301889052835480830185559388529685902082519390960290950191825591519381019390935592518051610f6f92600285019201906135c3565b5060608201518051610f8b9160038401916020909101906135c3565b50608082810151600483015560a080840151600584015560c0938401516006909301805460ff19169315159390931790925560008a8152600b60209081526040808320815160e0810183528e8152600180548286019081529382018f8152606083018f90529682018d90529681018b905296870184905280548087018255908452928290208651600790940201928355519382019390935590518051919261103b926002850192909101906135c3565b50606082015180516110579160038401916020909101906135c3565b506080820151600482015560a0820151600582015560c0909101516006909101805460ff19169115159190911790555050505050505050565b60405130906000908190839034908381818185875af1925050503d80600081146110d6576040519150601f19603f3d011682016040523d82523d6000602084013e6110db565b606091505b506008805492945090925060006110f183614542565b9091555050604080516101208101825260085481523360208083019182529282018c8152606083018c9052608083018b905260a083018a905260c0830189905260e08301889052600161010084018190526009805491820181556000819052845191027f6e1540171b6c0c960b71a7020d9f60077f6af931a8bbf590da0223dacf75c7af810191825592517f6e1540171b6c0c960b71a7020d9f60077f6af931a8bbf590da0223dacf75c7b0840180546001600160a01b03929092166001600160a01b031990921691909117905590518051939491936111f8937f6e1540171b6c0c960b71a7020d9f60077f6af931a8bbf590da0223dacf75c7b1019291909101906135c3565b50606082015180516112149160038401916020909101906135c3565b50608082015180516112309160048401916020909101906135c3565b5060a0820151600582015560c08201518051611256916006840191602090910190613647565b5060e08201518051611272916007840191602090910190613647565b5061010091909101516008909101805491151560ff19909216919091179055336000818152600260208181526040808420815160c0810183529586526001600160a01b0389811687850190815283518085018552600f81526e50726f6a65637420706f7374696e6760881b818701528885019081523460608a01524260808a0152845180860190955260098552686f6e5f657363726f7760b81b8587015260a089019490945282546001818101855593885296859020885160069098020180549783166001600160a01b031998891617815590519281018054939092169290961691909117905551805161136d9385019291909101906135c3565b50606082015160038201556080820151600482015560a0820151805161139d9160058401916020909101906135c3565b505050505050505050505050565b6001600160a01b038084166000818152600c60209081526040808320815160c08101835242815233818501908152928101958652606081018981526080820189905260a08201869052825460018181018555938752958590208251600690970201958655925191850180549288166001600160a01b0319938416179055945160028501805491909716911617909455925180519293919261145292600385019201906135c3565b506080820151805161146e916004840191602090910190613647565b5060a091909101516005909101805460ff1916911515919091179055505050565b336000908152600360209081526040909120865190916114b69160028401918901906135c3565b506003810185905583516114d390600483019060208701906135c3565b5082516114e990600583019060208601906135c3565b5081516114ff9060068301906020850190613647565b50505050505050565b6115436040518060a0016040528060006001600160a01b03168152602001606081526020016060815260200160608152602001606081525090565b6001600160a01b038316600090815260056020526040902080548390811061156d5761156d614516565b60009182526020918290206040805160a0810190915260059092020180546001600160a01b0316825260018101805492939192918401916115ad9061455d565b80601f01602080910402602001604051908101604052809291908181526020018280546115d99061455d565b80156116265780601f106115fb57610100808354040283529160200191611626565b820191906000526020600020905b81548152906001019060200180831161160957829003601f168201915b5050505050815260200160028201805461163f9061455d565b80601f016020809104026020016040519081016040528092919081815260200182805461166b9061455d565b80156116b85780601f1061168d576101008083540402835291602001916116b8565b820191906000526020600020905b81548152906001019060200180831161169b57829003601f168201915b505050505081526020016003820180546109b19061455d565b61172b6040518061012001604052806000815260200160006001600160a01b031681526020016060815260200160608152602001606081526020016000815260200160608152602001606081526020016000151581525090565b60008211801561173d57506008548211155b61177a5760405162461bcd60e51b815260206004820152600e60248201526d125b9d985b1a59081a9bd888125160921b604482015260640161060d565b6009611787600184614598565b8154811061179757611797614516565b906000526020600020906009020160405180610120016040529081600082015481526020016001820160009054906101000a90046001600160a01b03166001600160a01b03166001600160a01b031681526020016002820180546117fa9061455d565b80601f01602080910402602001604051908101604052809291908181526020018280546118269061455d565b80156118735780601f1061184857610100808354040283529160200191611873565b820191906000526020600020905b81548152906001019060200180831161185657829003601f168201915b5050505050815260200160038201805461188c9061455d565b80601f01602080910402602001604051908101604052809291908181526020018280546118b89061455d565b80156119055780601f106118da57610100808354040283529160200191611905565b820191906000526020600020905b8154815290600101906020018083116118e857829003601f168201915b5050505050815260200160048201805461191e9061455d565b80601f016020809104026020016040519081016040528092919081815260200182805461194a9061455d565b80156119975780601f1061196c57610100808354040283529160200191611997565b820191906000526020600020905b81548152906001019060200180831161197a57829003601f168201915b505050505081526020016005820154815260200160068201805480602002602001604051908101604052809291908181526020016000905b82821015611a7b5783829060005260206000200180546119ee9061455d565b80601f0160208091040260200160405190810160405280929190818152602001828054611a1a9061455d565b8015611a675780601f10611a3c57610100808354040283529160200191611a67565b820191906000526020600020905b815481529060010190602001808311611a4a57829003601f168201915b5050505050815260200190600101906119cf565b50505050815260200160078201805480602002602001604051908101604052809291908181526020016000905b82821015611b54578382906000526020600020018054611ac79061455d565b80601f0160208091040260200160405190810160405280929190818152602001828054611af39061455d565b8015611b405780601f10611b1557610100808354040283529160200191611b40565b820191906000526020600020905b815481529060010190602001808311611b2357829003601f168201915b505050505081526020019060010190611aa8565b505050908252506008919091015460ff16151560209091015292915050565b336000818152600460209081526040808320815160a081018352948552848301898152918501889052606085018790526080850186905280546001808201835591855293839020855160059095020180546001600160a01b0319166001600160a01b0390951694909417845590518051611bf593928501929190910190613647565b5060408201518051611c11916002840191602090910190613647565b5060608201518051611c2d9160038401916020909101906135c3565b50608082015180516114ff9160048401916020909101906135c3565b6001600160a01b0381166000908152600260209081526040808320805482518185028101850190935280835260609492939192909184015b82821015610ce75760008481526020908190206040805160c0810182526006860290920180546001600160a01b0390811684526001820154169383019390935260028301805492939291840191611cd79061455d565b80601f0160208091040260200160405190810160405280929190818152602001828054611d039061455d565b8015611d505780601f10611d2557610100808354040283529160200191611d50565b820191906000526020600020905b815481529060010190602001808311611d3357829003601f168201915b505050505081526020016003820154815260200160048201548152602001600582018054611d7d9061455d565b80601f0160208091040260200160405190810160405280929190818152602001828054611da99061455d565b8015611df65780601f10611dcb57610100808354040283529160200191611df6565b820191906000526020600020905b815481529060010190602001808311611dd957829003601f168201915b50505050508152505081526020019060010190611c81565b611e596040518060e00160405280600081526020016000815260200160006001600160a01b031681526020016060815260200160008152602001606081526020016000151581525090565b600082118015611e6b57506000548211155b611ea85760405162461bcd60e51b815260206004820152600e60248201526d125b9d985b1a5908189a5908125160921b604482015260640161060d565b6000838152600a6020908152604080832080548251818502810185019093528083529192909190849084015b828210156120b85760008481526020908190206040805160e081018252600786029092018054835260018101549383019390935260028301546001600160a01b031690820152600382018054919291606084019190611f329061455d565b80601f0160208091040260200160405190810160405280929190818152602001828054611f5e9061455d565b8015611fab5780601f10611f8057610100808354040283529160200191611fab565b820191906000526020600020905b815481529060010190602001808311611f8e57829003601f168201915b505050505081526020016004820154815260200160058201805480602002602001604051908101604052809291908181526020016000905b8282101561208f5783829060005260206000200180546120029061455d565b80601f016020809104026020016040519081016040528092919081815260200182805461202e9061455d565b801561207b5780601f106120505761010080835404028352916020019161207b565b820191906000526020600020905b81548152906001019060200180831161205e57829003601f168201915b505050505081526020019060010190611fe3565b505050908252506006919091015460ff1615156020918201529082526001929092019101611ed4565b50505050905060005b815181101561212457838282815181106120dd576120dd614516565b60200260200101516020015114156121125781818151811061210157612101614516565b602002602001015192505050610ac8565b8061211c81614542565b9150506120c1565b5060405162461bcd60e51b815260206004820152600d60248201526c109a59081b9bdd08199bdd5b99609a1b604482015260640161060d565b6000805b6000868152600a602052604090205481101561220b576000868152600a6020526040902080543391908390811061219a5761219a614516565b60009182526020909120600260079092020101546001600160a01b031614156121f95760405162461bcd60e51b8152602060048201526011602482015270185b1b1c9958591e57db58591957d89a59607a1b604482015260640161060d565b8061220381614542565b915050612161565b5060005b60095481101561236257856009828154811061222d5761222d614516565b90600052602060002090600902016000015414156123505760008054908061225483614542565b9190505550818061226490614542565b6000888152600a60209081526040808320815160e0810183528c8152845481850190815233938201938452606082018d8152608083018d905260a083018c905260c0830187905283546001808201865594885296869020835160079098020196875590519286019290925591516002850180546001600160a01b0319166001600160a01b03909216919091179055518051949750909450919261230d92600385019201906135c3565b506080820151600482015560a08201518051612333916005840191602090910190613647565b5060c091909101516006909101805460ff19169115159190911790555b8061235a81614542565b91505061220f565b5060018110156123a75760405162461bcd60e51b815260206004820152601060248201526f189a5917d91bd95cdb9d17d95e1a5cdd60821b604482015260640161060d565b5050505050565b61240860405180610120016040528060006001600160a01b03168152602001606081526020016060815260200160008152602001606081526020016060815260200160608152602001600081526020016000151581525090565b6001600160a01b0380831660009081526003602090815260409182902082516101208101909352805490931682526001830180549293929184019161244c9061455d565b80601f01602080910402602001604051908101604052809291908181526020018280546124789061455d565b80156124c55780601f1061249a576101008083540402835291602001916124c5565b820191906000526020600020905b8154815290600101906020018083116124a857829003601f168201915b505050505081526020016002820180546124de9061455d565b80601f016020809104026020016040519081016040528092919081815260200182805461250a9061455d565b80156125575780601f1061252c57610100808354040283529160200191612557565b820191906000526020600020905b81548152906001019060200180831161253a57829003601f168201915b505050505081526020016003820154815260200160048201805461257a9061455d565b80601f01602080910402602001604051908101604052809291908181526020018280546125a69061455d565b80156125f35780601f106125c8576101008083540402835291602001916125f3565b820191906000526020600020905b8154815290600101906020018083116125d657829003601f168201915b5050505050815260200160058201805461260c9061455d565b80601f01602080910402602001604051908101604052809291908181526020018280546126389061455d565b80156126855780601f1061265a57610100808354040283529160200191612685565b820191906000526020600020905b81548152906001019060200180831161266857829003601f168201915b5050505050815260200160068201805480602002602001604051908101604052809291908181526020016000905b8282101561275f5783829060005260206000200180546126d29061455d565b80601f01602080910402602001604051908101604052809291908181526020018280546126fe9061455d565b801561274b5780601f106127205761010080835404028352916020019161274b565b820191906000526020600020905b81548152906001019060200180831161272e57829003601f168201915b5050505050815260200190600101906126b3565b505050908252506007820154602082015260089091015460ff16151560409091015292915050565b336000818152600560208181526040808420815160a0810183529586528583018a815291860189905260608601889052608086018790528054600180820183559186529483902086519590940290930180546001600160a01b0319166001600160a01b039095169490941784555180516128089385019291909101906135c3565b5060408201518051611c119160028401916020909101906135c3565b60408051610120810182523380825260208083018a81528385018c9052606084018a90526080840189905260a0840188905260c08401879052600060e085018190528615156101008601529283526003825293909120825181546001600160a01b0319166001600160a01b03909116178155925180519293926128ad92600185019201906135c3565b50604082015180516128c99160028401916020909101906135c3565b5060608201516003820155608082015180516128ef9160048401916020909101906135c3565b5060a0820151805161290b9160058401916020909101906135c3565b5060c08201518051612927916006840191602090910190613647565b5060e08201516007820155610100909101516008909101805460ff191691151591909117905550505050505050565b6060600b6000838152602001908152602001600020805480602002602001604051908101604052809291908181526020016000905b82821015610ce757838290600052602060002090600702016040518060e001604052908160008201548152602001600182015481526020016002820180546129d29061455d565b80601f01602080910402602001604051908101604052809291908181526020018280546129fe9061455d565b8015612a4b5780601f10612a2057610100808354040283529160200191612a4b565b820191906000526020600020905b815481529060010190602001808311612a2e57829003601f168201915b50505050508152602001600382018054612a649061455d565b80601f0160208091040260200160405190810160405280929190818152602001828054612a909061455d565b8015612add5780601f10612ab257610100808354040283529160200191612add565b820191906000526020600020905b815481529060010190602001808311612ac057829003601f168201915b505050918352505060048201546020808301919091526005830154604083015260069092015460ff161515606090910152908252600192909201910161298b565b6001600160a01b0381166000908152600c60209081526040808320805482518185028101850190935280835260609492939192909184015b82821015610ce75760008481526020908190206040805160c081018252600686029092018054835260018101546001600160a01b0390811694840194909452600281015490931690820152600382018054919291606084019190612bb99061455d565b80601f0160208091040260200160405190810160405280929190818152602001828054612be59061455d565b8015612c325780601f10612c0757610100808354040283529160200191612c32565b820191906000526020600020905b815481529060010190602001808311612c1557829003601f168201915b5050505050815260200160048201805480602002602001604051908101604052809291908181526020016000905b82821015612d0c578382906000526020600020018054612c7f9061455d565b80601f0160208091040260200160405190810160405280929190818152602001828054612cab9061455d565b8015612cf85780601f10612ccd57610100808354040283529160200191612cf8565b820191906000526020600020905b815481529060010190602001808311612cdb57829003601f168201915b505050505081526020019060010190612c60565b505050908252506005919091015460ff1615156020918201529082526001929092019101612b56565b6000805b6001600160a01b038416600090815260076020526040902054811015613034576001600160a01b0384166000908152600760205260409020805484919083908110612d8657612d86614516565b906000526020600020906007020160010154148015612de357506001600160a01b0384166000908152600760205260409020805482908110612dca57612dca614516565b600091825260209091206006600790920201015460ff16155b15613022576001600160a01b0384166000908152600760205260409020805482908110612e1257612e12614516565b60009182526020808320600792830201546001600160a01b03881684529190526040909120805491935030916001919084908110612e5257612e52614516565b60009182526020808320600792830201600601805460ff1916941515949094179093556001600160a01b03881680835292526040902080546108fc919085908110612e9f57612e9f614516565b9060005260206000209060070201600401549081150290604051600060405180830381858888f19350505050158015612edc573d6000803e3d6000fd5b50306000908152600260209081526040808320815160c0810183526001600160a01b0386811682528a16818501819052835180850185526008815267105c1c1c9bdd985b60c21b8187015282850152855260079093529220805460608301919086908110612f4c57612f4c614516565b600091825260208083206007928302016004015484524284820152604080518082018252928352661cd95d1d1b195960ca1b838301529384019190915284546001808201875595835291819020845160069093020180546001600160a01b03199081166001600160a01b039485161782558583015196820180549091169690931695909517909155908201518051929392612fed92600285019201906135c3565b50606082015160038201556080820151600482015560a0820151805161301d9160058401916020909101906135c3565b505050505b8061302c81614542565b915050612d39565b5060005b6000828152600b60205260409020548110156130e2576000828152600b6020526040902080548491908390811061307157613071614516565b90600052602060002090600702016001015414156130d0576000828152600b60205260409020805460019190839081106130ad576130ad614516565b60009182526020909120600790910201600601805460ff19169115159190911790555b806130da81614542565b915050613038565b50505050565b60005b6001600160a01b0382166000908152600c602052604090205481101561044c576001600160a01b0382166000908152600c6020526040902080543391908390811061313857613138614516565b60009182526020909120600160069092020101546001600160a01b031614156131ac576001600160a01b0382166000908152600c602052604090208054600191908390811061318957613189614516565b60009182526020909120600690910201600501805460ff19169115159190911790555b806131b681614542565b9150506130eb565b6001600160a01b0381166000908152600760209081526040808320805482518185028101850190935280835260609492939192909184015b82821015610ce757838290600052602060002090600702016040518060e0016040529081600082015481526020016001820154815260200160028201805461323d9061455d565b80601f01602080910402602001604051908101604052809291908181526020018280546132699061455d565b80156132b65780601f1061328b576101008083540402835291602001916132b6565b820191906000526020600020905b81548152906001019060200180831161329957829003601f168201915b505050505081526020016003820180546132cf9061455d565b80601f01602080910402602001604051908101604052809291908181526020018280546132fb9061455d565b80156133485780601f1061331d57610100808354040283529160200191613348565b820191906000526020600020905b81548152906001019060200180831161332b57829003601f168201915b505050918352505060048201546020808301919091526005830154604083015260069092015460ff16151560609091015290825260019290920191016131f6565b6000806000606080600080600c60008a6001600160a01b03166001600160a01b0316815260200190815260200160002088815481106133ca576133ca614516565b60009182526020918290206040805160c08101825260069093029091018054835260018101546001600160a01b03908116948401949094526002810154909316908201526003820180549192916060840191906134269061455d565b80601f01602080910402602001604051908101604052809291908181526020018280546134529061455d565b801561349f5780601f106134745761010080835404028352916020019161349f565b820191906000526020600020905b81548152906001019060200180831161348257829003601f168201915b5050505050815260200160048201805480602002602001604051908101604052809291908181526020016000905b828210156135795783829060005260206000200180546134ec9061455d565b80601f01602080910402602001604051908101604052809291908181526020018280546135189061455d565b80156135655780601f1061353a57610100808354040283529160200191613565565b820191906000526020600020905b81548152906001019060200180831161354857829003601f168201915b5050505050815260200190600101906134cd565b505050908252506005919091015460ff16151560209182015281519082015160408301516060840151608085015160a090950151939e929d50909b50995091975095509350505050565b8280546135cf9061455d565b90600052602060002090601f0160209004810192826135f15760008555613637565b82601f1061360a57805160ff1916838001178555613637565b82800160010185558215613637579182015b8281111561363757825182559160200191906001019061361c565b506136439291506136a0565b5090565b828054828255906000526020600020908101928215613694579160200282015b8281111561369457825180516136849184916020909101906135c3565b5091602001919060010190613667565b506136439291506136b5565b5b8082111561364357600081556001016136a1565b808211156136435760006136c982826136d2565b506001016136b5565b5080546136de9061455d565b6000825580601f106136ee575050565b601f01602090049060005260206000209081019061370c91906136a0565b50565b6000806040838503121561372257600080fd5b50508035926020909101359150565b6001600160a01b038116811461370c57600080fd5b6000806040838503121561375957600080fd5b823561376481613731565b946020939093013593505050565b6000815180845260005b818110156137985760208185018101518683018201520161377c565b818111156137aa576000602083870101525b50601f01601f19169290920160200192915050565b600082825180855260208086019550808260051b84010181860160005b8481101561380a57601f198684030189526137f8838351613772565b988401989250908301906001016137dc565b5090979650505050505050565b602080825282516001600160a01b03168282015282015160a0604083015260009061384560c08401826137bf565b90506040840151601f198085840301606086015261386383836137bf565b925060608601519150808584030160808601526138808383613772565b925060808601519150808584030160a08601525061389e8282613772565b95945050505050565b6000602082840312156138b957600080fd5b5035919050565b805182526020810151602083015260018060a01b0360408201511660408301526000606082015160e060608501526138fb60e0850182613772565b90506080830151608085015260a083015184820360a086015261391e82826137bf565b91505060c0830151151560c08501528091505092915050565b6000602080830181845280855180835260408601915060408160051b870101925083870160005b8281101561398c57603f1988860301845261397a8583516138c0565b9450928501929085019060010161395e565b5092979650505050505050565b634e487b7160e01b600052604160045260246000fd5b604051601f8201601f1916810167ffffffffffffffff811182821017156139d8576139d8613999565b604052919050565b600082601f8301126139f157600080fd5b813567ffffffffffffffff811115613a0b57613a0b613999565b613a1e601f8201601f19166020016139af565b818152846020838601011115613a3357600080fd5b816020850160208301376000918101602001919091529392505050565b60008060008060008060c08789031215613a6957600080fd5b8635955060208701359450604087013567ffffffffffffffff80821115613a8f57600080fd5b613a9b8a838b016139e0565b95506060890135915080821115613ab157600080fd5b50613abe89828a016139e0565b9350506080870135915060a087013590509295509295509295565b600082601f830112613aea57600080fd5b8135602067ffffffffffffffff80831115613b0757613b07613999565b8260051b613b168382016139af565b9384528581018301938381019088861115613b3057600080fd5b84880192505b85831015613b6c57823584811115613b4e5760008081fd5b613b5c8a87838c01016139e0565b8352509184019190840190613b36565b98975050505050505050565b60008060008060008060c08789031215613b9157600080fd5b863567ffffffffffffffff80821115613ba957600080fd5b613bb58a838b016139e0565b97506020890135915080821115613bcb57600080fd5b613bd78a838b016139e0565b96506040890135915080821115613bed57600080fd5b613bf98a838b016139e0565b9550606089013594506080890135915080821115613c1657600080fd5b613c228a838b01613ad9565b935060a0890135915080821115613c3857600080fd5b50613c4589828a01613ad9565b9150509295509295509295565b600080600060608486031215613c6757600080fd5b8335613c7281613731565b9250602084013567ffffffffffffffff80821115613c8f57600080fd5b613c9b878388016139e0565b93506040860135915080821115613cb157600080fd5b50613cbe86828701613ad9565b9150509250925092565b600080600080600060a08688031215613ce057600080fd5b853567ffffffffffffffff80821115613cf857600080fd5b613d0489838a016139e0565b9650602088013595506040880135915080821115613d2157600080fd5b613d2d89838a016139e0565b94506060880135915080821115613d4357600080fd5b613d4f89838a016139e0565b93506080880135915080821115613d6557600080fd5b50613d7288828901613ad9565b9150509295509295909350565b602080825282516001600160a01b03168282015282015160a06040830152600090613dad60c0840182613772565b90506040840151601f19808584030160608601526138638383613772565b602081528151602082015260006020830151613df260408401826001600160a01b03169052565b506040830151610120806060850152613e0f610140850183613772565b91506060850151601f1980868503016080870152613e2d8483613772565b935060808701519150808685030160a0870152613e4a8483613772565b935060a087015160c087015260c08701519150808685030160e0870152613e7184836137bf565b935060e08701519150610100818786030181880152613e9085846137bf565b94508088015192505050613ea78286018215159052565b5090949350505050565b60008060008060808587031215613ec757600080fd5b843567ffffffffffffffff80821115613edf57600080fd5b613eeb88838901613ad9565b95506020870135915080821115613f0157600080fd5b613f0d88838901613ad9565b94506040870135915080821115613f2357600080fd5b613f2f888389016139e0565b93506060870135915080821115613f4557600080fd5b50613f52878288016139e0565b91505092959194509250565b80358015158114613f6e57600080fd5b919050565b600060208284031215613f8557600080fd5b613f8e82613f5e565b9392505050565b600060208284031215613fa757600080fd5b8135613f8e81613731565b60006020808301818452808551808352604092508286019150828160051b87010184880160005b8381101561406357888303603f19018552815180516001600160a01b0390811685528882015116888501528681015160c08886018190529061401d82870182613772565b606084810151908801526080808501519088015260a09384015187820394880194909452915061404f90508183613772565b968901969450505090860190600101613fd9565b509098975050505050505050565b602081526000613f8e60208301846138c0565b6000806000806080858703121561409a57600080fd5b84359350602085013567ffffffffffffffff808211156140b957600080fd5b6140c5888389016139e0565b94506040870135935060608701359150808211156140e257600080fd5b50613f5287828801613ad9565b602081526141096020820183516001600160a01b03169052565b60006020830151610120806040850152614127610140850183613772565b91506040850151601f19808685030160608701526141458483613772565b93506060870151608087015260808701519150808685030160a087015261416c8483613772565b935060a08701519150808685030160c08701526141898483613772565b935060c08701519150808685030160e0870152506141a783826137bf565b60e087015161010087810191909152870151801515848801529093509050613ea7565b600080600080608085870312156141e057600080fd5b843567ffffffffffffffff808211156141f857600080fd5b614204888389016139e0565b9550602087013591508082111561421a57600080fd5b613f0d888389016139e0565b600080600080600080600060e0888a03121561424157600080fd5b873567ffffffffffffffff8082111561425957600080fd5b6142658b838c016139e0565b985060208a013591508082111561427b57600080fd5b6142878b838c016139e0565b975060408a0135965060608a01359150808211156142a457600080fd5b6142b08b838c016139e0565b955060808a01359150808211156142c657600080fd5b6142d28b838c016139e0565b945060a08a01359150808211156142e857600080fd5b506142f58a828b01613ad9565b92505061430460c08901613f5e565b905092959891949750929550565b60006020808301818452808551808352604092508286019150828160051b87010184880160005b8381101561406357603f19898403018552815160e081518552888201518986015287820151818987015261436f82870182613772565b915050606080830151868303828801526143898382613772565b6080858101519089015260a0808601519089015260c094850151151594909701939093525050509386019390860190600101614339565b60006020808301818452808551808352604092508286019150828160051b87010184880160005b8381101561406357888303603f19018552815180518452878101516001600160a01b039081168986015287820151168785015260608082015160c0828701819052919061443683880182613772565b925050506080808301518683038288015261445183826137bf565b60a094850151151597909401969096525050948701949250908601906001016143e7565b8681526000602060018060a01b038089168285015280881660408501525060c060608401526144a760c0840187613772565b8381036080850152855180825282820190600581901b8301840184890160005b838110156144f557601f198684030185526144e3838351613772565b948701949250908601906001016144c7565b505087151560a0880152945061450b9350505050565b979650505050505050565b634e487b7160e01b600052603260045260246000fd5b634e487b7160e01b600052601160045260246000fd5b60006000198214156145565761455661452c565b5060010190565b600181811c9082168061457157607f821691505b6020821081141561459257634e487b7160e01b600052602260045260246000fd5b50919050565b6000828210156145aa576145aa61452c565b50039056fea2646970667358221220aed240bb6f71fa3b5c93d6566f483b8a211dda0f89531f5be4b6eebb7c4238c964736f6c634300080b0033",
  "immutableReferences": {},
  "source": "// SPDX-License-Identifier: MIT\r\npragma solidity >=0.4.1 < 0.9.0;\r\n\r\n/**\r\n* @title Kazi Krypto\r\n* @notice The contract a freelancing platform on the Ethereum blockchain\r\n* @notice The platform aims to connect freelancers and clients, facilitating secure and\r\ntransparent transactions while leveraging the benefits of blockchain technology\r\n\r\n* @dev user Registration and profiles\r\n* @dev Job posting and bidding\r\n* @dev Smart contract escrow\r\n* @dev messaging and collaboration\r\n* @dev reputation and reviews\r\n* @dev payment and escrow release\r\n* @dev transaction history and analytics\r\n* @dev conflict resolution\r\n */\r\n \r\n\r\ncontract KaziKrypto {\r\n\r\n    /**\r\n    * @dev allow smart contract to receive payments\r\n    */\r\n    constructor() public payable{\r\n\r\n    }\r\n\r\n\r\n    /// @title Freelancer Profile\r\n    /// @dev Struct to store user profile\r\n    struct Freelancer {\r\n        address payable accountId;\r\n        string profileImage;\r\n        string fullName;\r\n        uint hourlyRate;\r\n        string profession;\r\n        string paymentPreference;\r\n        string[] skills;\r\n        uint profileRating;\r\n        bool isProfilePublic;\r\n    }\r\n\r\n    /// @title freelancer portfolio\r\n    /// @notice all portfolios mapped to the specific freelancer Id\r\n    struct FreelancerPortfolio {\r\n        address accountId;\r\n        string[] images; /// @dev optional\r\n        string[] videos; /// @dev optional\r\n        string taskUrl;\r\n        string description;\r\n    }\r\n\r\n    /// @title freelancer experience\r\n    /// @dev store freelancer experience\r\n    struct FreelancerExperience {\r\n        address accountId;\r\n        string fromDate;\r\n        string toDate;\r\n        string jobTitle;\r\n        string jobDescription;\r\n    }\r\n\r\n    /// @title Job posting and bidding\r\n    /// @dev struct to store job requirements\r\n    struct ClientJobs {\r\n        uint jobId;\r\n        address accountId;\r\n        string projectTitle;\r\n        string projectDescription;\r\n        string projectDuration;\r\n        uint projectBudget;\r\n        string[] skillRequirements;\r\n        string[] images; ///@dev optional\r\n        bool bidAvailable;\r\n    }\r\n\r\n    /// @title FreelancerBids;\r\n    /// @dev store each freelancerBid\r\n    /// @dev make a reference to the account Id of the freelancer\r\n    struct FreelancerBids {\r\n        uint jobId;\r\n        uint bidId;\r\n        address accountId;\r\n        string bidDescription;\r\n        uint budget;\r\n        string[] relevantFiles; /// @dev optional\r\n        bool bidApproved;\r\n    }\r\n\r\n    uint private clientBidId;\r\n\r\n    /// @title Milestones\r\n    /// @dev allow frelancer to bid in form of milestones\r\n    /// @dev optional\r\n\r\n    struct ProjectMilestones {\r\n        uint bidId;\r\n        uint mileStoneId;\r\n        string milestoneName;\r\n        string milestoneDescription;\r\n        uint milestoneBudget;\r\n        uint milestoneDuration;\r\n        bool milestoneWorkApproved;\r\n    }\r\n\r\n    uint private mileStoneId;\r\n\r\n    /// @title Chats\r\n    /// @dev chat from intended sender to intended receiver\r\n\r\n    struct Chats {\r\n        uint timestamp;\r\n        address sender;\r\n        address receiver;\r\n        string message;\r\n        string[] attachedFiles; /// @dev optional\r\n        bool seen;\r\n    }\r\n\r\n    /// @title client ratings\r\n    /// @dev single client Rating\r\n    /// @dev done by the freelancer\r\n\r\n    struct ClientRatings {\r\n        uint bidId;\r\n        string ProjectName; /// @dev optional\r\n        address accountId;\r\n        string feedback; /// @dev optional\r\n        uint ratingForTimelyPayments; /// @dev maximum 5\r\n        uint ratingForTimelyFeedbacks; /// @dev maximum 5\r\n    }\r\n\r\n    /// @title freelancerr Ratings\r\n    /// @dev single freelancer Rating\r\n\r\n    struct FreelancerRatings {\r\n        uint bidId;\r\n        string ProjectName; /// @dev optional;\r\n        address accountId; \r\n        string feedback; /// @dev optional;\r\n        uint ratingForCompletedProjects; /// @dev max 5;\r\n        uint ratingForCommunicationSkills; /// @dev max 5;\r\n    }\r\n\r\n    /// @title Transaction History\r\n    /// @dev store transaction history\r\n    struct Transaction {\r\n        address payable from;\r\n        address payable to;\r\n        string transactionPurpose;\r\n        uint transactionAmount;\r\n        uint timestamp;\r\n        string transactionStatus;\r\n    }\r\n\r\n    mapping(address => Transaction[]) transactions;\r\n\r\n    /// @dev freelancer detail storage\r\n    /// @dev store personal details\r\n    /// @dev store each freelancer portfolio\r\n    /// @dev store freelancer experience\r\n    /// @dev store freelancer ratings;\r\n    /// @dev everybody is a freelancer \r\n    /// @dev current project milestones\r\n    mapping(address => Freelancer) freelancers;\r\n    mapping(address => FreelancerPortfolio[]) freelancerPortfolios;\r\n    mapping(address => FreelancerExperience[]) freelancerExperiences;\r\n    mapping(address => FreelancerRatings[]) freelancerRatings;\r\n    mapping(address => ProjectMilestones[]) milestonesInAccount;\r\n\r\n    /// @dev client detail storage\r\n    /// @dev store Client Jobs\r\n    /// @dev not everybody is a client\r\n    uint internal clientJobId;\r\n    ClientJobs[] allClientJobs;\r\n    mapping(uint => FreelancerBids[]) allBidsForClientJobs;\r\n\r\n    /// @dev acceptedBidDetail\r\n    /// @dev storage done here if the data stored above has been validated\r\n    mapping(uint => ProjectMilestones[]) projectMilestonesForAcceptedBids;\r\n\r\n\r\n    /// @dev Chat storage;\r\n    mapping(address => Chats[]) freelancerChats;\r\n\r\n    /**\r\n    * @param _fullName full names for freelancer\r\n    * @param _profession he inputs his profession\r\n    * @param _preferredPayment he fills his preferred payment\r\n    * @param _skill he fills in his skills\r\n    * @dev rating is automatically filled for the first time as 0\r\n    * @notice after logging in for the first time update details here\r\n     */\r\n\r\n    function addNewFreelancer(string memory _fullName,string memory _profileImage, uint _hourlyRate,string memory _profession, string memory _preferredPayment, string[] memory _skill, bool _isProfilePublic)public{\r\n        /// @dev validate inputs\r\n        // require(_fullName.length > 0, \"enter_name\");\r\n        // require(_profession.length > 0, \"enter_profession\");\r\n        // require(_preferredPayment.length > 0, \"enter_preferred_payment\");\r\n        // require(_skill.length > 0, \"enter_one_skill\");\r\n\r\n        /// @dev make the storage\r\n        freelancers[msg.sender] = Freelancer(payable(msg.sender),_profileImage, _fullName,_hourlyRate,  _profession, _preferredPayment, _skill, 0, _isProfilePublic); \r\n    }\r\n\r\n    /**\r\n     * @notice Allows freelancers to update their profile information\r\n     * @param _fullName Updated full names for freelancer\r\n     * @param _hourlyRate Updated hourly rate\r\n     * @param _profession Updated profession\r\n     * @param _preferredPayment Updated preferred payment\r\n     * @param _skills Updated skills\r\n     */\r\n    function editFreelancerProfile(string memory _fullName, uint _hourlyRate, string memory _profession, string memory _preferredPayment, string[] memory _skills) public {\r\n        Freelancer storage freelancer = freelancers[msg.sender];\r\n        freelancer.fullName = _fullName;\r\n        freelancer.hourlyRate = _hourlyRate;\r\n        freelancer.profession = _profession;\r\n        freelancer.paymentPreference = _preferredPayment;\r\n        freelancer.skills = _skills;\r\n    }\r\n\r\n    /**\r\n     * @notice Allows freelancers to set their profile visibility status\r\n     * @param _isProfilePublic Boolean indicating if the profile is public (true) or private (false)\r\n     */\r\n    function setProfileVisibility(bool _isProfilePublic) public {\r\n        freelancers[msg.sender].isProfilePublic = _isProfilePublic;\r\n    }\r\n\r\n    function getFreelancer(address _freelancerAddress) public view returns (Freelancer memory) {\r\n        return freelancers[_freelancerAddress];\r\n    }\r\n\r\n    /**\r\n    * @notice adds portfolio to an existing freelancer profile\r\n    * @param _images images involved\r\n    * @param _description description involved | optional\r\n    * @param _taskurl url to the task | optional\r\n    * @param _videos videos involved if any\r\n    * \r\n     */\r\n\r\n     function addPortfolio(string[] memory _images, string[] memory _videos, string memory _taskurl, string memory _description) public {\r\n        freelancerPortfolios[msg.sender].push(FreelancerPortfolio(msg.sender, _images, _videos, _taskurl, _description));\r\n     }\r\n\r\n\r\n    function getPortfolio(address _freelancerAddress, uint256 _index) public view returns (FreelancerPortfolio memory) {\r\n        return freelancerPortfolios[_freelancerAddress][_index];\r\n    }\r\n     /**\r\n     * @notice adds experiences to a freelancer account\r\n     * @param _fromDate date started\r\n     * @param _toDate date ended, // optional if still working\r\n     * @param _jobTitle role of the freelancer\r\n     * @param _jobDescription description of the job\r\n     */\r\n\r\n     function addFreelancerExperience(string memory _fromDate, string memory _toDate, string memory _jobTitle, string memory _jobDescription)public{\r\n        freelancerExperiences[msg.sender].push(FreelancerExperience(msg.sender, _fromDate, _toDate, _jobTitle, _jobDescription));\r\n     }\r\n\r\n    function getExperience(address _freelancerAddress, uint256 _index) public view returns (FreelancerExperience memory) {\r\n        return freelancerExperiences[_freelancerAddress][_index];\r\n    }\r\n\r\n\r\n    /**\r\n    * @dev anyone can do this\r\n    * @dev one has to fully pay for the task when posting to ensure integrity of the DAPP\r\n    * @param _projectTitle title of the task\r\n    * @param _projectDescription description of the project\r\n    * @param _projectDuration should be in range of dates\r\n    * @param _projectBudget should be more than 0\r\n    * @param _skillRequirements at least one\r\n    * @param _images if any*/\r\n     function postAClientJob(string memory _projectTitle, string memory _projectDescription, string memory _projectDuration, uint _projectBudget, string[] memory _skillRequirements, string[] memory _images) public payable {\r\n        address payable contractAddress = payable(address(this));\r\n        (bool sent, bytes memory data) = contractAddress.call{value: msg.value}(\"\");\r\n        clientJobId++;\r\n        allClientJobs.push(ClientJobs(clientJobId, msg.sender, _projectTitle, _projectDescription, _projectDuration, _projectBudget, _skillRequirements, _images, true));\r\n        transactions[msg.sender].push(Transaction(payable(msg.sender), contractAddress, \"Project posting\", msg.value, block.timestamp, \"on_escrow\"));\r\n     }\r\n\r\n\r\n    function getClientJob(uint256 _jobId) public view returns (ClientJobs memory) {\r\n        require(_jobId > 0 && _jobId <= clientJobId, \"Invalid job ID\");\r\n        return allClientJobs[_jobId - 1];\r\n    }\r\n\r\n    /**\r\n    * @dev makeAbidding\r\n    * @dev only occurs on existing project id\r\n    * @param _jobid id for  the job description\r\n    * @param _bidDescription auto generated id for bid description\r\n    * @param _budget freelancer budget for bid description\r\n    * @param _relevantFiles if the freelancer needs to upload relevant files to justify his bidding */\r\n     function makeABidding(uint _jobid, string memory _bidDescription, uint _budget, string[] memory _relevantFiles) public {\r\n        uint internalBidCounter;\r\n        for(uint i = 0; i < allBidsForClientJobs[_jobid].length; i++){\r\n            if(allBidsForClientJobs[_jobid][i].accountId == msg.sender){\r\n                revert(\"allready_made_bid\");\r\n            }\r\n        }\r\n\r\n        for (uint i = 0; i < allClientJobs.length; i++) {\r\n            if(allClientJobs[i].jobId == _jobid){\r\n                clientBidId++;\r\n                internalBidCounter++;\r\n                allBidsForClientJobs[_jobid].push(FreelancerBids(_jobid, clientBidId, msg.sender, _bidDescription, _budget, _relevantFiles, false));\r\n            }\r\n        }\r\n\r\n        if(internalBidCounter < 1){\r\n            revert(\"bid_doesnt_exist\");\r\n        }\r\n     }\r\n\r\n    function getBid(uint256 _jobid, uint256 _bidId) public view returns (FreelancerBids memory) {\r\n        require(_bidId > 0 && _bidId <= clientBidId, \"Invalid bid ID\");\r\n        FreelancerBids[] memory bids = allBidsForClientJobs[_jobid];\r\n        for (uint256 i = 0; i < bids.length; i++) {\r\n            if (bids[i].bidId == _bidId) {\r\n                return bids[i];\r\n            }\r\n        }\r\n        revert(\"Bid not found\");\r\n    }\r\n\r\n    function getBids(uint256 _jobid) public view returns (FreelancerBids[] memory) {\r\n        return allBidsForClientJobs[_jobid];\r\n    }\r\n\r\n\r\n     function chat(address _receiver, string memory _message, string[] memory _attachedFiles) public {\r\n        freelancerChats[_receiver].push(Chats(block.timestamp, msg.sender, _receiver, _message, _attachedFiles, false));\r\n     }\r\n\r\n     function markAsRead(address _receiver)public{\r\n        for(uint i = 0; i < freelancerChats[_receiver].length; i++){\r\n            if(freelancerChats[_receiver][i].sender == msg.sender){\r\n                freelancerChats[_receiver][i].seen = true;\r\n            }\r\n        }\r\n     }\r\n\r\n    function getChat(address _receiver, uint _index) public view returns (\r\n        uint timestamp,\r\n        address sender,\r\n        address receiver,\r\n        string memory message,\r\n        string[] memory attachedFiles,\r\n        bool seen\r\n    ) {\r\n        Chats memory chat = freelancerChats[_receiver][_index];\r\n        return (\r\n            chat.timestamp,\r\n            chat.sender,\r\n            chat.receiver,\r\n            chat.message,\r\n            chat.attachedFiles,\r\n            chat.seen\r\n        );\r\n    }\r\n\r\n    function getChats(address _receiver) public view returns (Chats[] memory) {\r\n        return freelancerChats[_receiver];\r\n    }\r\n\r\n    function acceptBid(uint _jobId, uint _bidId) public {\r\n        for(uint i = 0; i < allBidsForClientJobs[_jobId].length; i++){\r\n            if(allBidsForClientJobs[_jobId][i].bidId  == _bidId){\r\n                if(allBidsForClientJobs[_jobId][i].bidApproved == true){\r\n                    revert(\"bid_allready_approved\");\r\n                }else{\r\n                    allBidsForClientJobs[_jobId][i].bidApproved = true;\r\n                }\r\n            }\r\n        }\r\n        for(uint i = 0; i < allClientJobs.length; i++){\r\n            if(allClientJobs[i].jobId == _jobId){\r\n\r\n                if(allClientJobs[i].bidAvailable == false){\r\n                    revert(\"bid not available\");\r\n                }else{\r\n                    allClientJobs[i].bidAvailable = false;\r\n                }\r\n            }\r\n        }\r\n    }\r\n\r\n    function addProjectMileStone(uint _jobId, uint _bidId, string memory _milestoneName, string memory _mileStoneDescription, uint _mileStoneBudget, uint _mileStoneDuration) public {\r\n        uint remaining_budget;\r\n        uint dataPosition;\r\n         for(uint i = 0; i < allBidsForClientJobs[_jobId].length; i++){\r\n           if(allBidsForClientJobs[_jobId][i].bidId == _bidId && allBidsForClientJobs[_jobId][i].bidApproved == true){\r\n            remaining_budget = allBidsForClientJobs[_jobId][i].budget;\r\n            dataPosition = i;\r\n           }\r\n        }\r\n\r\n        if(remaining_budget < _mileStoneBudget){\r\n            revert('budget_overpriced');\r\n        }else if(allBidsForClientJobs[_jobId][dataPosition].bidApproved == false){\r\n            revert('bid_not_approved');\r\n        }\r\n        else{\r\n            mileStoneId++;\r\n            allBidsForClientJobs[_jobId][dataPosition].budget -= _mileStoneBudget;\r\n            ///@dev will be used for freelancer rating purposes\r\n            milestonesInAccount[msg.sender].push(ProjectMilestones(_bidId,mileStoneId, _milestoneName, _mileStoneDescription, _mileStoneBudget, _mileStoneDuration, false));\r\n\r\n            ///@dev will be used for client project management\r\n            projectMilestonesForAcceptedBids[_bidId].push(ProjectMilestones(_bidId,mileStoneId, _milestoneName, _mileStoneDescription, _mileStoneBudget, _mileStoneDuration, false));\r\n        }\r\n    }\r\n\r\n    function approveProjectMilestone(address payable _freelancer, uint _mileStoneId)public {\r\n        uint bidId;\r\n        for(uint i = 0; i < milestonesInAccount[_freelancer].length; i++){\r\n            if(milestonesInAccount[_freelancer][i].mileStoneId == _mileStoneId && milestonesInAccount[_freelancer][i].milestoneWorkApproved == false) {\r\n                bidId = milestonesInAccount[_freelancer][i].bidId;\r\n                address payable contractAddress = payable(address(this));\r\n                milestonesInAccount[_freelancer][i].milestoneWorkApproved = true;\r\n                _freelancer.transfer(milestonesInAccount[_freelancer][i].milestoneBudget);\r\n                transactions[address(this)].push(Transaction(contractAddress, _freelancer, \"Approval\",milestonesInAccount[_freelancer][i].milestoneBudget , block.timestamp, \"settled\"));\r\n            }\r\n        }\r\n\r\n        for(uint i = 0; i < projectMilestonesForAcceptedBids[bidId].length; i++){\r\n            if(projectMilestonesForAcceptedBids[bidId][i].mileStoneId == _mileStoneId){\r\n                projectMilestonesForAcceptedBids[bidId][i].milestoneWorkApproved = true;\r\n            }\r\n        } \r\n    }\r\n\r\n    /// @dev displays a freelancer milestone at profile Mode\r\n    function getFreelancerMileStones(address _accountId) public view returns(ProjectMilestones[] memory){\r\n        return milestonesInAccount[_accountId];\r\n    }\r\n\r\n    /// @dev displays freelancer milestone in Project mode\r\n    function getProjectMileStones(uint _bidId) public view returns (ProjectMilestones[] memory){\r\n        return projectMilestonesForAcceptedBids[_bidId];\r\n    }\r\n\r\n    /// @dev display freelancer transaction at profile Mode\r\n    function getFreelancerTransactions(address _accountId) public view returns(Transaction[] memory){\r\n        return transactions[_accountId];\r\n    }\r\n\r\n    /// @dev rate a freelancer\r\n    function rateAfreelancer(address _accountId, uint _bidId) public {\r\n\r\n    }\r\n    /// @dev view freelancer rating\r\n\r\n    function viewFreelancerRating(address _accountId) public view returns(uint){\r\n        \r\n    }\r\n}",
  "sourcePath": "C:\\Users\\pc\\Desktop\\ethprojects\\kazikrypto\\contract\\contracts\\KaziKrypto.sol",
  "compiler": {
    "name": "solc",
    "version": "0.8.11+commit.d7f03943.Emscripten.clang"
  },
  "schemaVersion": "3.4.14",
  "updatedAt": "2023-07-26T00:54:11.676Z",
  "devdoc": {
    "details": "user Registration and profilesJob posting and biddingSmart contract escrowmessaging and collaborationreputation and reviewspayment and escrow releasetransaction history and analyticsconflict resolution",
    "kind": "dev",
    "methods": {
      "addFreelancerExperience(string,string,string,string)": {
        "params": {
          "_fromDate": "date started",
          "_jobDescription": "description of the job",
          "_jobTitle": "role of the freelancer",
          "_toDate": "date ended, // optional if still working"
        }
      },
      "addNewFreelancer(string,string,uint256,string,string,string[],bool)": {
        "details": "rating is automatically filled for the first time as 0",
        "params": {
          "_fullName": "full names for freelancer",
          "_preferredPayment": "he fills his preferred payment",
          "_profession": "he inputs his profession",
          "_skill": "he fills in his skills"
        }
      },
      "addPortfolio(string[],string[],string,string)": {
        "params": {
          "_description": "description involved | optional",
          "_images": "images involved",
          "_taskurl": "url to the task | optional",
          "_videos": "videos involved if any "
        }
      },
      "constructor": {
        "details": "allow smart contract to receive payments"
      },
      "editFreelancerProfile(string,uint256,string,string,string[])": {
        "params": {
          "_fullName": "Updated full names for freelancer",
          "_hourlyRate": "Updated hourly rate",
          "_preferredPayment": "Updated preferred payment",
          "_profession": "Updated profession",
          "_skills": "Updated skills"
        }
      },
      "getFreelancerMileStones(address)": {
        "details": "displays a freelancer milestone at profile Mode"
      },
      "getFreelancerTransactions(address)": {
        "details": "display freelancer transaction at profile Mode"
      },
      "getProjectMileStones(uint256)": {
        "details": "displays freelancer milestone in Project mode"
      },
      "makeABidding(uint256,string,uint256,string[])": {
        "details": "makeAbiddingonly occurs on existing project id",
        "params": {
          "_bidDescription": "auto generated id for bid description",
          "_budget": "freelancer budget for bid description",
          "_jobid": "id for  the job description",
          "_relevantFiles": "if the freelancer needs to upload relevant files to justify his bidding "
        }
      },
      "postAClientJob(string,string,string,uint256,string[],string[])": {
        "details": "anyone can do thisone has to fully pay for the task when posting to ensure integrity of the DAPP",
        "params": {
          "_images": "if any",
          "_projectBudget": "should be more than 0",
          "_projectDescription": "description of the project",
          "_projectDuration": "should be in range of dates",
          "_projectTitle": "title of the task",
          "_skillRequirements": "at least one"
        }
      },
      "rateAfreelancer(address,uint256)": {
        "details": "rate a freelancer"
      },
      "setProfileVisibility(bool)": {
        "params": {
          "_isProfilePublic": "Boolean indicating if the profile is public (true) or private (false)"
        }
      },
      "viewFreelancerRating(address)": {
        "details": "view freelancer rating"
      }
    },
    "stateVariables": {
      "clientJobId": {
        "details": "client detail storagestore Client Jobsnot everybody is a client"
      },
      "freelancerChats": {
        "details": "Chat storage;"
      },
      "freelancers": {
        "details": "freelancer detail storagestore personal detailsstore each freelancer portfoliostore freelancer experiencestore freelancer ratings;everybody is a freelancer current project milestones"
      },
      "projectMilestonesForAcceptedBids": {
        "details": "acceptedBidDetailstorage done here if the data stored above has been validated"
      }
    },
    "title": "Kazi Krypto",
    "version": 1
  },
  "userdoc": {
    "kind": "user",
    "methods": {
      "addFreelancerExperience(string,string,string,string)": {
        "notice": "adds experiences to a freelancer account"
      },
      "addNewFreelancer(string,string,uint256,string,string,string[],bool)": {
        "notice": "after logging in for the first time update details here"
      },
      "addPortfolio(string[],string[],string,string)": {
        "notice": "adds portfolio to an existing freelancer profile"
      },
      "editFreelancerProfile(string,uint256,string,string,string[])": {
        "notice": "Allows freelancers to update their profile information"
      },
      "setProfileVisibility(bool)": {
        "notice": "Allows freelancers to set their profile visibility status"
      }
    },
    "notice": "The contract a freelancing platform on the Ethereum blockchainThe platform aims to connect freelancers and clients, facilitating secure and transparent transactions while leveraging the benefits of blockchain technology",
    "version": 1
  }
}