{
  "contractName": "KaziKrypto",
  "abi": [
    {
      "inputs": [],
      "stateMutability": "payable",
      "type": "constructor"
    },
    {
      "inputs": [
        {
          "internalType": "string",
          "name": "_fullName",
          "type": "string"
        },
        {
          "internalType": "uint256",
          "name": "_hourlyRate",
          "type": "uint256"
        },
        {
          "internalType": "string",
          "name": "_profession",
          "type": "string"
        },
        {
          "internalType": "string",
          "name": "_preferredPayment",
          "type": "string"
        },
        {
          "internalType": "string[]",
          "name": "_skill",
          "type": "string[]"
        }
      ],
      "name": "addNewFreelancer",
      "outputs": [],
      "stateMutability": "nonpayable",
      "type": "function"
    },
    {
      "inputs": [
        {
          "internalType": "string[]",
          "name": "_images",
          "type": "string[]"
        },
        {
          "internalType": "string[]",
          "name": "_videos",
          "type": "string[]"
        },
        {
          "internalType": "string",
          "name": "_taskurl",
          "type": "string"
        },
        {
          "internalType": "string",
          "name": "_description",
          "type": "string"
        }
      ],
      "name": "addPortfolio",
      "outputs": [],
      "stateMutability": "nonpayable",
      "type": "function"
    },
    {
      "inputs": [
        {
          "internalType": "string",
          "name": "_fromDate",
          "type": "string"
        },
        {
          "internalType": "string",
          "name": "_toDate",
          "type": "string"
        },
        {
          "internalType": "string",
          "name": "_jobTitle",
          "type": "string"
        },
        {
          "internalType": "string",
          "name": "_jobDescription",
          "type": "string"
        }
      ],
      "name": "addFreelancerExperience",
      "outputs": [],
      "stateMutability": "nonpayable",
      "type": "function"
    },
    {
      "inputs": [
        {
          "internalType": "string",
          "name": "_projectTitle",
          "type": "string"
        },
        {
          "internalType": "string",
          "name": "_projectDescription",
          "type": "string"
        },
        {
          "internalType": "string",
          "name": "_projectDuration",
          "type": "string"
        },
        {
          "internalType": "uint256",
          "name": "_projectBudget",
          "type": "uint256"
        },
        {
          "internalType": "string[]",
          "name": "_skillRequirements",
          "type": "string[]"
        },
        {
          "internalType": "string[]",
          "name": "_images",
          "type": "string[]"
        }
      ],
      "name": "postAClientJob",
      "outputs": [],
      "stateMutability": "payable",
      "type": "function"
    },
    {
      "inputs": [
        {
          "internalType": "uint256",
          "name": "_jobid",
          "type": "uint256"
        },
        {
          "internalType": "string",
          "name": "_bidDescription",
          "type": "string"
        },
        {
          "internalType": "uint256",
          "name": "_budget",
          "type": "uint256"
        },
        {
          "internalType": "string[]",
          "name": "_relevantFiles",
          "type": "string[]"
        }
      ],
      "name": "makeABidding",
      "outputs": [],
      "stateMutability": "nonpayable",
      "type": "function"
    },
    {
      "inputs": [
        {
          "internalType": "address",
          "name": "_receiver",
          "type": "address"
        },
        {
          "internalType": "string",
          "name": "_message",
          "type": "string"
        },
        {
          "internalType": "string[]",
          "name": "_attachedFiles",
          "type": "string[]"
        }
      ],
      "name": "chat",
      "outputs": [],
      "stateMutability": "nonpayable",
      "type": "function"
    },
    {
      "inputs": [
        {
          "internalType": "address",
          "name": "_receiver",
          "type": "address"
        }
      ],
      "name": "markAsRead",
      "outputs": [],
      "stateMutability": "nonpayable",
      "type": "function"
    }
  ],
  "bytecode": "0x6080604052611bf8806100136000396000f3fe6080604052600436106100705760003560e01c80635b0500981161004e5780635b050098146100e35780635e70e5e71461010c578063876ec70b14610135578063d9c836701461015e57610070565b806325dfc14014610075578063349ae58a1461009157806343ca1737146100ba575b600080fd5b61008f600480360381019061008a9190611426565b610187565b005b34801561009d57600080fd5b506100b860048036038101906100b3919061159d565b6105bb565b005b3480156100c657600080fd5b506100e160048036038101906100dc9190611628565b610778565b005b3480156100ef57600080fd5b5061010a600480360381019061010591906116ff565b6108e0565b005b34801561011857600080fd5b50610133600480360381019061012e919061179e565b610bea565b005b34801561014157600080fd5b5061015c60048036038101906101579190611889565b610d4c565b005b34801561016a57600080fd5b5061018560048036038101906101809190611960565b610eb4565b005b60003090506000808273ffffffffffffffffffffffffffffffffffffffff16346040516101b3906119be565b60006040518083038185875af1925050503d80600081146101f0576040519150601f19603f3d011682016040523d82523d6000602084013e6101f5565b606091505b50915091506007600081548092919061020d90611a02565b9190505550600860405180610120016040528060075481526020013373ffffffffffffffffffffffffffffffffffffffff1681526020018b81526020018a81526020018981526020018881526020018781526020018681526020016001151581525090806001815401808255809150506001900390600052602060002090600902016000909190919091506000820151816000015560208201518160010160006101000a81548173ffffffffffffffffffffffffffffffffffffffff021916908373ffffffffffffffffffffffffffffffffffffffff1602179055506040820151816002019080519060200190610305929190611049565b506060820151816003019080519060200190610322929190611049565b50608082015181600401908051906020019061033f929190611049565b5060a0820151816005015560c08201518160060190805190602001906103669291906110cf565b5060e08201518160070190805190602001906103839291906110cf565b506101008201518160080160006101000a81548160ff0219169083151502179055505050600160003373ffffffffffffffffffffffffffffffffffffffff1673ffffffffffffffffffffffffffffffffffffffff1681526020019081526020016000206040518060c001604052803373ffffffffffffffffffffffffffffffffffffffff1681526020018573ffffffffffffffffffffffffffffffffffffffff1681526020016040518060400160405280600f81526020017f50726f6a65637420706f7374696e67000000000000000000000000000000000081525081526020013481526020014281526020016040518060400160405280600981526020017f6f6e5f657363726f770000000000000000000000000000000000000000000000815250815250908060018154018082558091505060019003906000526020600020906006020160009091909190915060008201518160000160006101000a81548173ffffffffffffffffffffffffffffffffffffffff021916908373ffffffffffffffffffffffffffffffffffffffff16021790555060208201518160010160006101000a81548173ffffffffffffffffffffffffffffffffffffffff021916908373ffffffffffffffffffffffffffffffffffffffff160217905550604082015181600201908051906020019061057c929190611049565b50606082015181600301556080820151816004015560a08201518160050190805190602001906105ad929190611049565b505050505050505050505050565b600b60008473ffffffffffffffffffffffffffffffffffffffff1673ffffffffffffffffffffffffffffffffffffffff1681526020019081526020016000206040518060c001604052804281526020013373ffffffffffffffffffffffffffffffffffffffff1681526020018573ffffffffffffffffffffffffffffffffffffffff1681526020018481526020018381526020016000151581525090806001815401808255809150506001900390600052602060002090600602016000909190919091506000820151816000015560208201518160010160006101000a81548173ffffffffffffffffffffffffffffffffffffffff021916908373ffffffffffffffffffffffffffffffffffffffff16021790555060408201518160020160006101000a81548173ffffffffffffffffffffffffffffffffffffffff021916908373ffffffffffffffffffffffffffffffffffffffff1602179055506060820151816003019080519060200190610733929190611049565b5060808201518160040190805190602001906107509291906110cf565b5060a08201518160050160006101000a81548160ff0219169083151502179055505050505050565b600360003373ffffffffffffffffffffffffffffffffffffffff1673ffffffffffffffffffffffffffffffffffffffff1681526020019081526020016000206040518060a001604052803373ffffffffffffffffffffffffffffffffffffffff16815260200186815260200185815260200184815260200183815250908060018154018082558091505060019003906000526020600020906005020160009091909190915060008201518160000160006101000a81548173ffffffffffffffffffffffffffffffffffffffff021916908373ffffffffffffffffffffffffffffffffffffffff16021790555060208201518160010190805190602001906108809291906110cf565b50604082015181600201908051906020019061089d9291906110cf565b5060608201518160030190805190602001906108ba929190611049565b5060808201518160040190805190602001906108d7929190611049565b50505050505050565b600080600090505b60096000878152602001908152602001600020805490508110156109dd573373ffffffffffffffffffffffffffffffffffffffff1660096000888152602001908152602001600020828154811061094257610941611a4a565b5b906000526020600020906007020160020160009054906101000a900473ffffffffffffffffffffffffffffffffffffffff1673ffffffffffffffffffffffffffffffffffffffff16036109ca576040517f08c379a00000000000000000000000000000000000000000000000000000000081526004016109c190611ad6565b60405180910390fd5b80806109d590611a02565b9150506108e8565b5060005b600880549050811015610b9e578560088281548110610a0357610a02611a4a565b5b90600052602060002090600902016000015403610b8b57600080815480929190610a2c90611a02565b91905055508180610a3c90611a02565b925050600960008781526020019081526020016000206040518060e0016040528088815260200160005481526020013373ffffffffffffffffffffffffffffffffffffffff168152602001878152602001868152602001858152602001600015158152509080600181540180825580915050600190039060005260206000209060070201600090919091909150600082015181600001556020820151816001015560408201518160020160006101000a81548173ffffffffffffffffffffffffffffffffffffffff021916908373ffffffffffffffffffffffffffffffffffffffff1602179055506060820151816003019080519060200190610b40929190611049565b506080820151816004015560a0820151816005019080519060200190610b679291906110cf565b5060c08201518160060160006101000a81548160ff02191690831515021790555050505b8080610b9690611a02565b9150506109e1565b506001811015610be3576040517f08c379a0000000000000000000000000000000000000000000000000000000008152600401610bda90611b42565b60405180910390fd5b5050505050565b6040518060e001604052803373ffffffffffffffffffffffffffffffffffffffff1681526020018681526020018581526020018481526020018381526020018281526020016000815250600260003373ffffffffffffffffffffffffffffffffffffffff1673ffffffffffffffffffffffffffffffffffffffff16815260200190815260200160002060008201518160000160006101000a81548173ffffffffffffffffffffffffffffffffffffffff021916908373ffffffffffffffffffffffffffffffffffffffff1602179055506020820151816001019080519060200190610cd6929190611049565b50604082015181600201556060820151816003019080519060200190610cfd929190611049565b506080820151816004019080519060200190610d1a929190611049565b5060a0820151816005019080519060200190610d379291906110cf565b5060c082015181600601559050505050505050565b600460003373ffffffffffffffffffffffffffffffffffffffff1673ffffffffffffffffffffffffffffffffffffffff1681526020019081526020016000206040518060a001604052803373ffffffffffffffffffffffffffffffffffffffff16815260200186815260200185815260200184815260200183815250908060018154018082558091505060019003906000526020600020906005020160009091909190915060008201518160000160006101000a81548173ffffffffffffffffffffffffffffffffffffffff021916908373ffffffffffffffffffffffffffffffffffffffff1602179055506020820151816001019080519060200190610e54929190611049565b506040820151816002019080519060200190610e71929190611049565b506060820151816003019080519060200190610e8e929190611049565b506080820151816004019080519060200190610eab929190611049565b50505050505050565b60005b600b60008373ffffffffffffffffffffffffffffffffffffffff1673ffffffffffffffffffffffffffffffffffffffff16815260200190815260200160002080549050811015611045573373ffffffffffffffffffffffffffffffffffffffff16600b60008473ffffffffffffffffffffffffffffffffffffffff1673ffffffffffffffffffffffffffffffffffffffff1681526020019081526020016000208281548110610f6957610f68611a4a565b5b906000526020600020906006020160010160009054906101000a900473ffffffffffffffffffffffffffffffffffffffff1673ffffffffffffffffffffffffffffffffffffffff1603611032576001600b60008473ffffffffffffffffffffffffffffffffffffffff1673ffffffffffffffffffffffffffffffffffffffff168152602001908152602001600020828154811061100957611008611a4a565b5b906000526020600020906006020160050160006101000a81548160ff0219169083151502179055505b808061103d90611a02565b915050610eb7565b5050565b82805461105590611b91565b90600052602060002090601f01602090048101928261107757600085556110be565b82601f1061109057805160ff19168380011785556110be565b828001600101855582156110be579182015b828111156110bd5782518255916020019190600101906110a2565b5b5090506110cb919061112f565b5090565b82805482825590600052602060002090810192821561111e579160200282015b8281111561111d57825182908051906020019061110d929190611049565b50916020019190600101906110ef565b5b50905061112b919061114c565b5090565b5b80821115611148576000816000905550600101611130565b5090565b5b8082111561116c57600081816111639190611170565b5060010161114d565b5090565b50805461117c90611b91565b6000825580601f1061118e57506111ad565b601f0160209004906000526020600020908101906111ac919061112f565b5b50565b6000604051905090565b600080fd5b600080fd5b600080fd5b600080fd5b6000601f19601f8301169050919050565b7f4e487b7100000000000000000000000000000000000000000000000000000000600052604160045260246000fd5b611217826111ce565b810181811067ffffffffffffffff82111715611236576112356111df565b5b80604052505050565b60006112496111b0565b9050611255828261120e565b919050565b600067ffffffffffffffff821115611275576112746111df565b5b61127e826111ce565b9050602081019050919050565b82818337600083830152505050565b60006112ad6112a88461125a565b61123f565b9050828152602081018484840111156112c9576112c86111c9565b5b6112d484828561128b565b509392505050565b600082601f8301126112f1576112f06111c4565b5b813561130184826020860161129a565b91505092915050565b6000819050919050565b61131d8161130a565b811461132857600080fd5b50565b60008135905061133a81611314565b92915050565b600067ffffffffffffffff82111561135b5761135a6111df565b5b602082029050602081019050919050565b600080fd5b600061138461137f84611340565b61123f565b905080838252602082019050602084028301858111156113a7576113a661136c565b5b835b818110156113ee57803567ffffffffffffffff8111156113cc576113cb6111c4565b5b8086016113d989826112dc565b855260208501945050506020810190506113a9565b5050509392505050565b600082601f83011261140d5761140c6111c4565b5b813561141d848260208601611371565b91505092915050565b60008060008060008060c08789031215611443576114426111ba565b5b600087013567ffffffffffffffff811115611461576114606111bf565b5b61146d89828a016112dc565b965050602087013567ffffffffffffffff81111561148e5761148d6111bf565b5b61149a89828a016112dc565b955050604087013567ffffffffffffffff8111156114bb576114ba6111bf565b5b6114c789828a016112dc565b94505060606114d889828a0161132b565b935050608087013567ffffffffffffffff8111156114f9576114f86111bf565b5b61150589828a016113f8565b92505060a087013567ffffffffffffffff811115611526576115256111bf565b5b61153289828a016113f8565b9150509295509295509295565b600073ffffffffffffffffffffffffffffffffffffffff82169050919050565b600061156a8261153f565b9050919050565b61157a8161155f565b811461158557600080fd5b50565b60008135905061159781611571565b92915050565b6000806000606084860312156115b6576115b56111ba565b5b60006115c486828701611588565b935050602084013567ffffffffffffffff8111156115e5576115e46111bf565b5b6115f1868287016112dc565b925050604084013567ffffffffffffffff811115611612576116116111bf565b5b61161e868287016113f8565b9150509250925092565b60008060008060808587031215611642576116416111ba565b5b600085013567ffffffffffffffff8111156116605761165f6111bf565b5b61166c878288016113f8565b945050602085013567ffffffffffffffff81111561168d5761168c6111bf565b5b611699878288016113f8565b935050604085013567ffffffffffffffff8111156116ba576116b96111bf565b5b6116c6878288016112dc565b925050606085013567ffffffffffffffff8111156116e7576116e66111bf565b5b6116f3878288016112dc565b91505092959194509250565b60008060008060808587031215611719576117186111ba565b5b60006117278782880161132b565b945050602085013567ffffffffffffffff811115611748576117476111bf565b5b611754878288016112dc565b93505060406117658782880161132b565b925050606085013567ffffffffffffffff811115611786576117856111bf565b5b611792878288016113f8565b91505092959194509250565b600080600080600060a086880312156117ba576117b96111ba565b5b600086013567ffffffffffffffff8111156117d8576117d76111bf565b5b6117e4888289016112dc565b95505060206117f58882890161132b565b945050604086013567ffffffffffffffff811115611816576118156111bf565b5b611822888289016112dc565b935050606086013567ffffffffffffffff811115611843576118426111bf565b5b61184f888289016112dc565b925050608086013567ffffffffffffffff8111156118705761186f6111bf565b5b61187c888289016113f8565b9150509295509295909350565b600080600080608085870312156118a3576118a26111ba565b5b600085013567ffffffffffffffff8111156118c1576118c06111bf565b5b6118cd878288016112dc565b945050602085013567ffffffffffffffff8111156118ee576118ed6111bf565b5b6118fa878288016112dc565b935050604085013567ffffffffffffffff81111561191b5761191a6111bf565b5b611927878288016112dc565b925050606085013567ffffffffffffffff811115611948576119476111bf565b5b611954878288016112dc565b91505092959194509250565b600060208284031215611976576119756111ba565b5b600061198484828501611588565b91505092915050565b600081905092915050565b50565b60006119a860008361198d565b91506119b382611998565b600082019050919050565b60006119c98261199b565b9150819050919050565b7f4e487b7100000000000000000000000000000000000000000000000000000000600052601160045260246000fd5b6000611a0d8261130a565b91507fffffffffffffffffffffffffffffffffffffffffffffffffffffffffffffffff8203611a3f57611a3e6119d3565b5b600182019050919050565b7f4e487b7100000000000000000000000000000000000000000000000000000000600052603260045260246000fd5b600082825260208201905092915050565b7f616c6c72656164795f6d6164655f626964000000000000000000000000000000600082015250565b6000611ac0601183611a79565b9150611acb82611a8a565b602082019050919050565b60006020820190508181036000830152611aef81611ab3565b9050919050565b7f6269645f646f65736e745f657869737400000000000000000000000000000000600082015250565b6000611b2c601083611a79565b9150611b3782611af6565b602082019050919050565b60006020820190508181036000830152611b5b81611b1f565b9050919050565b7f4e487b7100000000000000000000000000000000000000000000000000000000600052602260045260246000fd5b60006002820490506001821680611ba957607f821691505b602082108103611bbc57611bbb611b62565b5b5091905056fea2646970667358221220db160d2413b0c0c6637dd6f807193a41a9b1aeadba87dfca71a37fcf256c79e964736f6c634300080d0033",
  "immutableReferences": {},
  "source": "// SPDX-License-Identifier: MIT\r\npragma solidity >=0.4.1 < 0.9.0;\r\n\r\n/**\r\n* @title Kazi Krypto\r\n* @notice The contract a freelancing platform on the Ethereum blockchain\r\n* @notice The platform aims to connect freelancers and clients, facilitating secure and\r\ntransparent transactions while leveraging the benefits of blockchain technology\r\n\r\n* @dev user Registration and profiles\r\n* @dev Job posting and bidding\r\n* @dev Smart contract escrow\r\n* @dev messaging and collaboration\r\n* @dev reputation and reviews\r\n* @dev payment and escrow release\r\n* @dev transaction history and analytics\r\n* @dev conflict resolution\r\n */\r\n \r\n\r\ncontract KaziKrypto {\r\n\r\n    /**\r\n    * @dev allow smart contract to receive payments\r\n    */\r\n    constructor() public payable{\r\n\r\n    }\r\n\r\n\r\n    /// @title Freelancer Profile\r\n    /// @dev Struct to store user profile\r\n    struct Freelancer {\r\n        address payable accountId;\r\n        string fullName;\r\n        uint hourlyRate;\r\n        string profession;\r\n        string paymentPreference;\r\n        string[] skills;\r\n        uint profileRating;\r\n    }\r\n\r\n    /// @title freelancer portfolio\r\n    /// @notice all portfolios mapped to the specific freelancer Id\r\n    struct FreelancerPortfolio {\r\n        address accountId;\r\n        string[] images; /// @dev optional\r\n        string[] videos; /// @dev optional\r\n        string taskUrl;\r\n        string description;\r\n    }\r\n\r\n    /// @title freelancer experience\r\n    /// @dev store freelancer experience\r\n    struct FreelancerExperience {\r\n        address accountId;\r\n        string fromDate;\r\n        string toDate;\r\n        string jobTitle;\r\n        string jobDescription;\r\n    }\r\n\r\n    /// @title Job posting and bidding\r\n    /// @dev struct to store job requirements\r\n    struct ClientJobs {\r\n        uint jobId;\r\n        address accountId;\r\n        string projectTitle;\r\n        string projectDescription;\r\n        string projectDuration;\r\n        uint projectBudget;\r\n        string[] skillRequirements;\r\n        string[] images; ///@dev optional\r\n        bool bidAvailable;\r\n    }\r\n\r\n    /// @title FreelancerBids;\r\n    /// @dev store each freelancerBid\r\n    /// @dev make a reference to the account Id of the freelancer\r\n    struct FreelancerBids {\r\n        uint jobId;\r\n        uint bidId;\r\n        address accountId;\r\n        string bidDescription;\r\n        uint budget;\r\n        string[] relevantFiles; /// @dev optional\r\n        bool bidApproved;\r\n    }\r\n\r\n    uint private clientBidId;\r\n\r\n    /// @title Milestones\r\n    /// @dev allow frelancer to bid in form of milestones\r\n    /// @dev optional\r\n\r\n    struct ProjectMilestones {\r\n        uint bidId;\r\n        string milestoneName;\r\n        string milestoneDescription;\r\n        string milestoneBudget;\r\n        string milestoneDuration;\r\n        bool milestoneWorkApproved;\r\n    }\r\n\r\n    /// @title Chats\r\n    /// @dev chat from intended sender to intended receiver\r\n\r\n    struct Chats {\r\n        uint timestamp;\r\n        address sender;\r\n        address receiver;\r\n        string message;\r\n        string[] attachedFiles; /// @dev optional\r\n        bool seen;\r\n    }\r\n\r\n    /// @title client ratings\r\n    /// @dev single client Rating\r\n    /// @dev done by the freelancer\r\n\r\n    struct ClientRatings {\r\n        uint bidId;\r\n        string ProjectName; /// @dev optional\r\n        address accountId;\r\n        string feedback; /// @dev optional\r\n        uint ratingForTimelyPayments; /// @dev maximum 5\r\n        uint ratingForTimelyFeedbacks; /// @dev maximum 5\r\n    }\r\n\r\n    /// @title freelancerr Ratings\r\n    /// @dev single freelancer Rating\r\n\r\n    struct FreelancerRatings {\r\n        uint bidId;\r\n        string ProjectName; /// @dev optional;\r\n        address accountId; \r\n        string feedback; /// @dev optional;\r\n        uint ratingForCompletedProjects; /// @dev max 5;\r\n        uint ratingForCommunicationSkills; /// @dev max 5;\r\n    }\r\n\r\n    /// @title Transaction History\r\n    /// @dev store transaction history\r\n    struct Transaction {\r\n        address payable from;\r\n        address payable to;\r\n        string transactionPurpose;\r\n        uint transactionAmount;\r\n        uint timestamp;\r\n        string transactionStatus;\r\n    }\r\n\r\n    mapping(address => Transaction[]) transactions;\r\n\r\n    /// @dev freelancer detail storage\r\n    /// @dev store personal details\r\n    /// @dev store each freelancer portfolio\r\n    /// @dev store freelancer experience\r\n    /// @dev store freelancer ratings;\r\n    /// @dev everybody is a freelancer \r\n    /// @dev current project milestones\r\n    mapping(address => Freelancer) freelancers;\r\n    mapping(address => FreelancerPortfolio[]) freelancerPortfolios;\r\n    mapping(address => FreelancerExperience[]) freelancerExperiences;\r\n    mapping(address => FreelancerRatings[]) freelancerRatings;\r\n    mapping(address => ProjectMilestones[]) milestonesInAccount;\r\n\r\n    /// @dev client detail storage\r\n    /// @dev store Client Jobs\r\n    /// @dev not everybody is a client\r\n    uint internal clientJobId;\r\n    ClientJobs[] allClientJobs;\r\n    mapping(uint => FreelancerBids[]) allBidsForClientJobs;\r\n\r\n    /// @dev acceptedBidDetail\r\n    /// @dev storage done here if the data stored above has been validated\r\n    mapping(uint => ProjectMilestones[]) projectMilestonesForAcceptedBids;\r\n\r\n\r\n    /// @dev Chat storage;\r\n    mapping(address => Chats[]) freelancerChats;\r\n\r\n    /**\r\n    * @param _fullName full names for freelancer\r\n    * @param _profession he inputs his profession\r\n    * @param _preferredPayment he fills his preferred payment\r\n    * @param _skill he fills in his skills\r\n    * @dev rating is automatically filled for the first time as 0\r\n    * @notice after logging in for the first time update details here\r\n     */\r\n\r\n    function addNewFreelancer(string memory _fullName, uint _hourlyRate,string memory _profession, string memory _preferredPayment, string[] memory _skill)public{\r\n        /// @dev validate inputs\r\n        // require(_fullName.length > 0, \"enter_name\");\r\n        // require(_profession.length > 0, \"enter_profession\");\r\n        // require(_preferredPayment.length > 0, \"enter_preferred_payment\");\r\n        // require(_skill.length > 0, \"enter_one_skill\");\r\n\r\n        /// @dev make the storage\r\n        freelancers[msg.sender] = Freelancer(payable(msg.sender), _fullName,_hourlyRate,  _profession, _preferredPayment, _skill, 0); \r\n    }\r\n\r\n    /**\r\n    * @notice adds portfolio to an existing freelancer profile\r\n    * @param _images images involved\r\n    * @param _description description involved | optional\r\n    * @param _taskurl url to the task | optional\r\n    * @param _videos videos involved if any\r\n    * \r\n     */\r\n\r\n     function addPortfolio(string[] memory _images, string[] memory _videos, string memory _taskurl, string memory _description) public {\r\n        freelancerPortfolios[msg.sender].push(FreelancerPortfolio(msg.sender, _images, _videos, _taskurl, _description));\r\n     }\r\n\r\n     /**\r\n     * @notice adds experiences to a freelancer account\r\n     * @param _fromDate date started\r\n     * @param _toDate date ended, // optional if still working\r\n     * @param _jobTitle role of the freelancer\r\n     * @param _jobDescription description of the job\r\n     */\r\n\r\n     function addFreelancerExperience(string memory _fromDate, string memory _toDate, string memory _jobTitle, string memory _jobDescription)public{\r\n        freelancerExperiences[msg.sender].push(FreelancerExperience(msg.sender, _fromDate, _toDate, _jobTitle, _jobDescription));\r\n     }\r\n\r\n    /**\r\n    * @dev anyone can do this\r\n    * @dev one has to fully pay for the task when posting to ensure integrity of the DAPP\r\n    * @param _projectTitle title of the task\r\n    * @param _projectDescription description of the project\r\n    * @param _projectDuration should be in range of dates\r\n    * @param _projectBudget should be more than 0\r\n    * @param _skillRequirements at least one\r\n    * @param _images if any*/\r\n     function postAClientJob(string memory _projectTitle, string memory _projectDescription, string memory _projectDuration, uint _projectBudget, string[] memory _skillRequirements, string[] memory _images) public payable {\r\n        address payable contractAddress = payable(address(this));\r\n        (bool sent, bytes memory data) = contractAddress.call{value: msg.value}(\"\");\r\n        clientJobId++;\r\n        allClientJobs.push(ClientJobs(clientJobId, msg.sender, _projectTitle, _projectDescription, _projectDuration, _projectBudget, _skillRequirements, _images, true));\r\n        transactions[msg.sender].push(Transaction(payable(msg.sender), contractAddress, \"Project posting\", msg.value, block.timestamp, \"on_escrow\"));\r\n     }\r\n\r\n    /**\r\n    * @dev makeAbidding\r\n    * @dev only occurs on existing project id\r\n    * @param _jobid id for  the job description\r\n    * @param _bidDescription auto generated id for bid description\r\n    * @param _budget freelancer budget for bid description\r\n    * @param _relevantFiles if the freelancer needs to upload relevant files to justify his bidding */\r\n     function makeABidding(uint _jobid, string memory _bidDescription, uint _budget, string[] memory _relevantFiles) public {\r\n        uint internalBidCounter;\r\n        for(uint i = 0; i < allBidsForClientJobs[_jobid].length; i++){\r\n            if(allBidsForClientJobs[_jobid][i].accountId == msg.sender){\r\n                revert(\"allready_made_bid\");\r\n            }\r\n        }\r\n\r\n        for (uint i = 0; i < allClientJobs.length; i++) {\r\n            if(allClientJobs[i].jobId == _jobid){\r\n                clientBidId++;\r\n                internalBidCounter++;\r\n                allBidsForClientJobs[_jobid].push(FreelancerBids(_jobid, clientBidId, msg.sender, _bidDescription, _budget, _relevantFiles, false));\r\n            }\r\n        }\r\n\r\n        if(internalBidCounter < 1){\r\n            revert(\"bid_doesnt_exist\");\r\n        }\r\n     }\r\n\r\n     function chat(address _receiver, string memory _message, string[] memory _attachedFiles) public {\r\n        freelancerChats[_receiver].push(Chats(block.timestamp, msg.sender, _receiver, _message, _attachedFiles, false));\r\n     }\r\n\r\n     function markAsRead(address _receiver)public{\r\n        for(uint i = 0; i < freelancerChats[_receiver].length; i++){\r\n            if(freelancerChats[_receiver][i].sender == msg.sender){\r\n                freelancerChats[_receiver][i].seen = true;\r\n            }\r\n        }\r\n     }\r\n\r\n\r\n\r\n\r\n\r\n\r\n    \r\n\r\n\r\n    \r\n}",
  "sourcePath": "C:\\Users\\Felabs\\Desktop\\kazikrypto\\contract\\contracts\\KaziKrypto.sol",
  "compiler": {
    "name": "solc",
    "version": "0.8.13+commit.abaa5c0e.Emscripten.clang"
  },
  "schemaVersion": "3.4.13",
  "updatedAt": "2023-07-21T12:11:38.364Z",
  "devdoc": {
    "details": "user Registration and profilesJob posting and biddingSmart contract escrowmessaging and collaborationreputation and reviewspayment and escrow releasetransaction history and analyticsconflict resolution",
    "kind": "dev",
    "methods": {
      "addFreelancerExperience(string,string,string,string)": {
        "params": {
          "_fromDate": "date started",
          "_jobDescription": "description of the job",
          "_jobTitle": "role of the freelancer",
          "_toDate": "date ended, // optional if still working"
        }
      },
      "addNewFreelancer(string,uint256,string,string,string[])": {
        "details": "rating is automatically filled for the first time as 0",
        "params": {
          "_fullName": "full names for freelancer",
          "_preferredPayment": "he fills his preferred payment",
          "_profession": "he inputs his profession",
          "_skill": "he fills in his skills"
        }
      },
      "addPortfolio(string[],string[],string,string)": {
        "params": {
          "_description": "description involved | optional",
          "_images": "images involved",
          "_taskurl": "url to the task | optional",
          "_videos": "videos involved if any "
        }
      },
      "constructor": {
        "details": "allow smart contract to receive payments"
      },
      "makeABidding(uint256,string,uint256,string[])": {
        "details": "makeAbiddingonly occurs on existing project id",
        "params": {
          "_bidDescription": "auto generated id for bid description",
          "_budget": "freelancer budget for bid description",
          "_jobid": "id for  the job description",
          "_relevantFiles": "if the freelancer needs to upload relevant files to justify his bidding "
        }
      },
      "postAClientJob(string,string,string,uint256,string[],string[])": {
        "details": "anyone can do thisone has to fully pay for the task when posting to ensure integrity of the DAPP",
        "params": {
          "_images": "if any",
          "_projectBudget": "should be more than 0",
          "_projectDescription": "description of the project",
          "_projectDuration": "should be in range of dates",
          "_projectTitle": "title of the task",
          "_skillRequirements": "at least one"
        }
      }
    },
    "stateVariables": {
      "clientJobId": {
        "details": "client detail storagestore Client Jobsnot everybody is a client"
      },
      "freelancerChats": {
        "details": "Chat storage;"
      },
      "freelancers": {
        "details": "freelancer detail storagestore personal detailsstore each freelancer portfoliostore freelancer experiencestore freelancer ratings;everybody is a freelancer current project milestones"
      },
      "projectMilestonesForAcceptedBids": {
        "details": "acceptedBidDetailstorage done here if the data stored above has been validated"
      }
    },
    "title": "Kazi Krypto",
    "version": 1
  },
  "userdoc": {
    "kind": "user",
    "methods": {
      "addFreelancerExperience(string,string,string,string)": {
        "notice": "adds experiences to a freelancer account"
      },
      "addNewFreelancer(string,uint256,string,string,string[])": {
        "notice": "after logging in for the first time update details here"
      },
      "addPortfolio(string[],string[],string,string)": {
        "notice": "adds portfolio to an existing freelancer profile"
      }
    },
    "notice": "The contract a freelancing platform on the Ethereum blockchainThe platform aims to connect freelancers and clients, facilitating secure and transparent transactions while leveraging the benefits of blockchain technology",
    "version": 1
  }
}