{
  "contractName": "KaziKrypto",
  "abi": [
    {
      "inputs": [],
      "stateMutability": "payable",
      "type": "constructor"
    },
    {
      "inputs": [
        {
          "internalType": "uint256",
          "name": "",
          "type": "uint256"
        }
      ],
      "name": "allClientJobs",
      "outputs": [
        {
          "internalType": "uint256",
          "name": "jobId",
          "type": "uint256"
        },
        {
          "internalType": "address",
          "name": "accountId",
          "type": "address"
        },
        {
          "internalType": "string",
          "name": "projectTitle",
          "type": "string"
        },
        {
          "internalType": "string",
          "name": "projectDescription",
          "type": "string"
        },
        {
          "internalType": "string",
          "name": "projectDuration",
          "type": "string"
        },
        {
          "internalType": "uint256",
          "name": "projectBudget",
          "type": "uint256"
        },
        {
          "internalType": "bool",
          "name": "bidAvailable",
          "type": "bool"
        }
      ],
      "stateMutability": "view",
      "type": "function"
    },
    {
      "inputs": [
        {
          "internalType": "string",
          "name": "_fullName",
          "type": "string"
        },
        {
          "internalType": "string",
          "name": "_profileImage",
          "type": "string"
        },
        {
          "internalType": "uint256",
          "name": "_hourlyRate",
          "type": "uint256"
        },
        {
          "internalType": "string",
          "name": "_profession",
          "type": "string"
        },
        {
          "internalType": "string",
          "name": "_preferredPayment",
          "type": "string"
        },
        {
          "internalType": "string[]",
          "name": "_skill",
          "type": "string[]"
        },
        {
          "internalType": "bool",
          "name": "_isProfilePublic",
          "type": "bool"
        }
      ],
      "name": "addNewFreelancer",
      "outputs": [],
      "stateMutability": "nonpayable",
      "type": "function"
    },
    {
      "inputs": [
        {
          "internalType": "string",
          "name": "_fullName",
          "type": "string"
        },
        {
          "internalType": "uint256",
          "name": "_hourlyRate",
          "type": "uint256"
        },
        {
          "internalType": "string",
          "name": "_profession",
          "type": "string"
        },
        {
          "internalType": "string",
          "name": "_preferredPayment",
          "type": "string"
        },
        {
          "internalType": "string[]",
          "name": "_skills",
          "type": "string[]"
        }
      ],
      "name": "editFreelancerProfile",
      "outputs": [],
      "stateMutability": "nonpayable",
      "type": "function"
    },
    {
      "inputs": [
        {
          "internalType": "bool",
          "name": "_isProfilePublic",
          "type": "bool"
        }
      ],
      "name": "setProfileVisibility",
      "outputs": [],
      "stateMutability": "nonpayable",
      "type": "function"
    },
    {
      "inputs": [
        {
          "internalType": "address",
          "name": "_freelancerAddress",
          "type": "address"
        }
      ],
      "name": "getFreelancer",
      "outputs": [
        {
          "components": [
            {
              "internalType": "address payable",
              "name": "accountId",
              "type": "address"
            },
            {
              "internalType": "string",
              "name": "profileImage",
              "type": "string"
            },
            {
              "internalType": "string",
              "name": "fullName",
              "type": "string"
            },
            {
              "internalType": "uint256",
              "name": "hourlyRate",
              "type": "uint256"
            },
            {
              "internalType": "string",
              "name": "profession",
              "type": "string"
            },
            {
              "internalType": "string",
              "name": "paymentPreference",
              "type": "string"
            },
            {
              "internalType": "string[]",
              "name": "skills",
              "type": "string[]"
            },
            {
              "internalType": "uint256",
              "name": "profileRating",
              "type": "uint256"
            },
            {
              "internalType": "bool",
              "name": "isProfilePublic",
              "type": "bool"
            }
          ],
          "internalType": "struct KaziKrypto.Freelancer",
          "name": "",
          "type": "tuple"
        }
      ],
      "stateMutability": "view",
      "type": "function"
    },
    {
      "inputs": [
        {
          "internalType": "string[]",
          "name": "_images",
          "type": "string[]"
        },
        {
          "internalType": "string[]",
          "name": "_videos",
          "type": "string[]"
        },
        {
          "internalType": "string",
          "name": "_taskurl",
          "type": "string"
        },
        {
          "internalType": "string",
          "name": "_description",
          "type": "string"
        }
      ],
      "name": "addPortfolio",
      "outputs": [],
      "stateMutability": "nonpayable",
      "type": "function"
    },
    {
      "inputs": [
        {
          "internalType": "address",
          "name": "_freelancerAddress",
          "type": "address"
        },
        {
          "internalType": "uint256",
          "name": "_index",
          "type": "uint256"
        }
      ],
      "name": "getPortfolio",
      "outputs": [
        {
          "components": [
            {
              "internalType": "address",
              "name": "accountId",
              "type": "address"
            },
            {
              "internalType": "string[]",
              "name": "images",
              "type": "string[]"
            },
            {
              "internalType": "string[]",
              "name": "videos",
              "type": "string[]"
            },
            {
              "internalType": "string",
              "name": "taskUrl",
              "type": "string"
            },
            {
              "internalType": "string",
              "name": "description",
              "type": "string"
            }
          ],
          "internalType": "struct KaziKrypto.FreelancerPortfolio",
          "name": "",
          "type": "tuple"
        }
      ],
      "stateMutability": "view",
      "type": "function"
    },
    {
      "inputs": [
        {
          "internalType": "string",
          "name": "_fromDate",
          "type": "string"
        },
        {
          "internalType": "string",
          "name": "_toDate",
          "type": "string"
        },
        {
          "internalType": "string",
          "name": "_jobTitle",
          "type": "string"
        },
        {
          "internalType": "string",
          "name": "_jobDescription",
          "type": "string"
        }
      ],
      "name": "addFreelancerExperience",
      "outputs": [],
      "stateMutability": "nonpayable",
      "type": "function"
    },
    {
      "inputs": [
        {
          "internalType": "address",
          "name": "_freelancerAddress",
          "type": "address"
        },
        {
          "internalType": "uint256",
          "name": "_index",
          "type": "uint256"
        }
      ],
      "name": "getExperience",
      "outputs": [
        {
          "components": [
            {
              "internalType": "address",
              "name": "accountId",
              "type": "address"
            },
            {
              "internalType": "string",
              "name": "fromDate",
              "type": "string"
            },
            {
              "internalType": "string",
              "name": "toDate",
              "type": "string"
            },
            {
              "internalType": "string",
              "name": "jobTitle",
              "type": "string"
            },
            {
              "internalType": "string",
              "name": "jobDescription",
              "type": "string"
            }
          ],
          "internalType": "struct KaziKrypto.FreelancerExperience",
          "name": "",
          "type": "tuple"
        }
      ],
      "stateMutability": "view",
      "type": "function"
    },
    {
      "inputs": [
        {
          "internalType": "string",
          "name": "_projectTitle",
          "type": "string"
        },
        {
          "internalType": "string",
          "name": "_projectDescription",
          "type": "string"
        },
        {
          "internalType": "string",
          "name": "_projectDuration",
          "type": "string"
        },
        {
          "internalType": "uint256",
          "name": "_projectBudget",
          "type": "uint256"
        },
        {
          "internalType": "string[]",
          "name": "_skillRequirements",
          "type": "string[]"
        },
        {
          "internalType": "string[]",
          "name": "_images",
          "type": "string[]"
        }
      ],
      "name": "postAClientJob",
      "outputs": [],
      "stateMutability": "payable",
      "type": "function"
    },
    {
      "inputs": [],
      "name": "getClientJob",
      "outputs": [
        {
          "components": [
            {
              "internalType": "uint256",
              "name": "jobId",
              "type": "uint256"
            },
            {
              "internalType": "address",
              "name": "accountId",
              "type": "address"
            },
            {
              "internalType": "string",
              "name": "projectTitle",
              "type": "string"
            },
            {
              "internalType": "string",
              "name": "projectDescription",
              "type": "string"
            },
            {
              "internalType": "string",
              "name": "projectDuration",
              "type": "string"
            },
            {
              "internalType": "uint256",
              "name": "projectBudget",
              "type": "uint256"
            },
            {
              "internalType": "string[]",
              "name": "skillRequirements",
              "type": "string[]"
            },
            {
              "internalType": "string[]",
              "name": "images",
              "type": "string[]"
            },
            {
              "internalType": "bool",
              "name": "bidAvailable",
              "type": "bool"
            }
          ],
          "internalType": "struct KaziKrypto.ClientJobs[]",
          "name": "",
          "type": "tuple[]"
        }
      ],
      "stateMutability": "view",
      "type": "function"
    },
    {
      "inputs": [
        {
          "internalType": "uint256",
          "name": "_jobid",
          "type": "uint256"
        },
        {
          "internalType": "string",
          "name": "_bidDescription",
          "type": "string"
        },
        {
          "internalType": "uint256",
          "name": "_budget",
          "type": "uint256"
        },
        {
          "internalType": "string[]",
          "name": "_relevantFiles",
          "type": "string[]"
        }
      ],
      "name": "makeABidding",
      "outputs": [],
      "stateMutability": "nonpayable",
      "type": "function"
    },
    {
      "inputs": [
        {
          "internalType": "uint256",
          "name": "_jobid",
          "type": "uint256"
        },
        {
          "internalType": "uint256",
          "name": "_bidId",
          "type": "uint256"
        }
      ],
      "name": "getBid",
      "outputs": [
        {
          "components": [
            {
              "internalType": "uint256",
              "name": "jobId",
              "type": "uint256"
            },
            {
              "internalType": "uint256",
              "name": "bidId",
              "type": "uint256"
            },
            {
              "internalType": "address",
              "name": "accountId",
              "type": "address"
            },
            {
              "internalType": "string",
              "name": "bidDescription",
              "type": "string"
            },
            {
              "internalType": "uint256",
              "name": "budget",
              "type": "uint256"
            },
            {
              "internalType": "string[]",
              "name": "relevantFiles",
              "type": "string[]"
            },
            {
              "internalType": "bool",
              "name": "bidApproved",
              "type": "bool"
            }
          ],
          "internalType": "struct KaziKrypto.FreelancerBids",
          "name": "",
          "type": "tuple"
        }
      ],
      "stateMutability": "view",
      "type": "function"
    },
    {
      "inputs": [
        {
          "internalType": "uint256",
          "name": "_jobid",
          "type": "uint256"
        }
      ],
      "name": "getBids",
      "outputs": [
        {
          "components": [
            {
              "internalType": "uint256",
              "name": "jobId",
              "type": "uint256"
            },
            {
              "internalType": "uint256",
              "name": "bidId",
              "type": "uint256"
            },
            {
              "internalType": "address",
              "name": "accountId",
              "type": "address"
            },
            {
              "internalType": "string",
              "name": "bidDescription",
              "type": "string"
            },
            {
              "internalType": "uint256",
              "name": "budget",
              "type": "uint256"
            },
            {
              "internalType": "string[]",
              "name": "relevantFiles",
              "type": "string[]"
            },
            {
              "internalType": "bool",
              "name": "bidApproved",
              "type": "bool"
            }
          ],
          "internalType": "struct KaziKrypto.FreelancerBids[]",
          "name": "",
          "type": "tuple[]"
        }
      ],
      "stateMutability": "view",
      "type": "function"
    },
    {
      "inputs": [
        {
          "internalType": "address",
          "name": "_receiver",
          "type": "address"
        },
        {
          "internalType": "string",
          "name": "_message",
          "type": "string"
        },
        {
          "internalType": "string[]",
          "name": "_attachedFiles",
          "type": "string[]"
        }
      ],
      "name": "chat",
      "outputs": [],
      "stateMutability": "nonpayable",
      "type": "function"
    },
    {
      "inputs": [
        {
          "internalType": "address",
          "name": "_receiver",
          "type": "address"
        }
      ],
      "name": "markAsRead",
      "outputs": [],
      "stateMutability": "nonpayable",
      "type": "function"
    },
    {
      "inputs": [
        {
          "internalType": "address",
          "name": "_receiver",
          "type": "address"
        },
        {
          "internalType": "uint256",
          "name": "_index",
          "type": "uint256"
        }
      ],
      "name": "getChat",
      "outputs": [
        {
          "internalType": "uint256",
          "name": "timestamp",
          "type": "uint256"
        },
        {
          "internalType": "address",
          "name": "sender",
          "type": "address"
        },
        {
          "internalType": "address",
          "name": "receiver",
          "type": "address"
        },
        {
          "internalType": "string",
          "name": "message",
          "type": "string"
        },
        {
          "internalType": "string[]",
          "name": "attachedFiles",
          "type": "string[]"
        },
        {
          "internalType": "bool",
          "name": "seen",
          "type": "bool"
        }
      ],
      "stateMutability": "view",
      "type": "function"
    },
    {
      "inputs": [
        {
          "internalType": "address",
          "name": "_receiver",
          "type": "address"
        }
      ],
      "name": "getChats",
      "outputs": [
        {
          "components": [
            {
              "internalType": "uint256",
              "name": "timestamp",
              "type": "uint256"
            },
            {
              "internalType": "address",
              "name": "sender",
              "type": "address"
            },
            {
              "internalType": "address",
              "name": "receiver",
              "type": "address"
            },
            {
              "internalType": "string",
              "name": "message",
              "type": "string"
            },
            {
              "internalType": "string[]",
              "name": "attachedFiles",
              "type": "string[]"
            },
            {
              "internalType": "bool",
              "name": "seen",
              "type": "bool"
            }
          ],
          "internalType": "struct KaziKrypto.Chats[]",
          "name": "",
          "type": "tuple[]"
        }
      ],
      "stateMutability": "view",
      "type": "function"
    },
    {
      "inputs": [
        {
          "internalType": "uint256",
          "name": "_jobId",
          "type": "uint256"
        },
        {
          "internalType": "uint256",
          "name": "_bidId",
          "type": "uint256"
        }
      ],
      "name": "acceptBid",
      "outputs": [],
      "stateMutability": "nonpayable",
      "type": "function"
    },
    {
      "inputs": [
        {
          "internalType": "uint256",
          "name": "_jobId",
          "type": "uint256"
        },
        {
          "internalType": "uint256",
          "name": "_bidId",
          "type": "uint256"
        },
        {
          "internalType": "string",
          "name": "_milestoneName",
          "type": "string"
        },
        {
          "internalType": "string",
          "name": "_mileStoneDescription",
          "type": "string"
        },
        {
          "internalType": "uint256",
          "name": "_mileStoneBudget",
          "type": "uint256"
        },
        {
          "internalType": "uint256",
          "name": "_mileStoneDuration",
          "type": "uint256"
        }
      ],
      "name": "addProjectMileStone",
      "outputs": [],
      "stateMutability": "nonpayable",
      "type": "function"
    },
    {
      "inputs": [
        {
          "internalType": "address payable",
          "name": "_freelancer",
          "type": "address"
        },
        {
          "internalType": "uint256",
          "name": "_mileStoneId",
          "type": "uint256"
        }
      ],
      "name": "approveProjectMilestone",
      "outputs": [],
      "stateMutability": "nonpayable",
      "type": "function"
    },
    {
      "inputs": [
        {
          "internalType": "address",
          "name": "_accountId",
          "type": "address"
        }
      ],
      "name": "getFreelancerMileStones",
      "outputs": [
        {
          "components": [
            {
              "internalType": "uint256",
              "name": "bidId",
              "type": "uint256"
            },
            {
              "internalType": "uint256",
              "name": "mileStoneId",
              "type": "uint256"
            },
            {
              "internalType": "string",
              "name": "milestoneName",
              "type": "string"
            },
            {
              "internalType": "string",
              "name": "milestoneDescription",
              "type": "string"
            },
            {
              "internalType": "uint256",
              "name": "milestoneBudget",
              "type": "uint256"
            },
            {
              "internalType": "uint256",
              "name": "milestoneDuration",
              "type": "uint256"
            },
            {
              "internalType": "bool",
              "name": "milestoneWorkApproved",
              "type": "bool"
            }
          ],
          "internalType": "struct KaziKrypto.ProjectMilestones[]",
          "name": "",
          "type": "tuple[]"
        }
      ],
      "stateMutability": "view",
      "type": "function"
    },
    {
      "inputs": [
        {
          "internalType": "uint256",
          "name": "_bidId",
          "type": "uint256"
        }
      ],
      "name": "getProjectMileStones",
      "outputs": [
        {
          "components": [
            {
              "internalType": "uint256",
              "name": "bidId",
              "type": "uint256"
            },
            {
              "internalType": "uint256",
              "name": "mileStoneId",
              "type": "uint256"
            },
            {
              "internalType": "string",
              "name": "milestoneName",
              "type": "string"
            },
            {
              "internalType": "string",
              "name": "milestoneDescription",
              "type": "string"
            },
            {
              "internalType": "uint256",
              "name": "milestoneBudget",
              "type": "uint256"
            },
            {
              "internalType": "uint256",
              "name": "milestoneDuration",
              "type": "uint256"
            },
            {
              "internalType": "bool",
              "name": "milestoneWorkApproved",
              "type": "bool"
            }
          ],
          "internalType": "struct KaziKrypto.ProjectMilestones[]",
          "name": "",
          "type": "tuple[]"
        }
      ],
      "stateMutability": "view",
      "type": "function"
    },
    {
      "inputs": [
        {
          "internalType": "address",
          "name": "_accountId",
          "type": "address"
        }
      ],
      "name": "getFreelancerTransactions",
      "outputs": [
        {
          "components": [
            {
              "internalType": "address payable",
              "name": "from",
              "type": "address"
            },
            {
              "internalType": "address payable",
              "name": "to",
              "type": "address"
            },
            {
              "internalType": "string",
              "name": "transactionPurpose",
              "type": "string"
            },
            {
              "internalType": "uint256",
              "name": "transactionAmount",
              "type": "uint256"
            },
            {
              "internalType": "uint256",
              "name": "timestamp",
              "type": "uint256"
            },
            {
              "internalType": "string",
              "name": "transactionStatus",
              "type": "string"
            }
          ],
          "internalType": "struct KaziKrypto.Transaction[]",
          "name": "",
          "type": "tuple[]"
        }
      ],
      "stateMutability": "view",
      "type": "function"
    },
    {
      "inputs": [
        {
          "internalType": "address",
          "name": "_accountId",
          "type": "address"
        },
        {
          "internalType": "uint256",
          "name": "_bidId",
          "type": "uint256"
        },
        {
          "internalType": "string",
          "name": "_projectName",
          "type": "string"
        },
        {
          "internalType": "string",
          "name": "_feedBack",
          "type": "string"
        },
        {
          "internalType": "uint256",
          "name": "_ratingForCompletedProjects",
          "type": "uint256"
        },
        {
          "internalType": "uint256",
          "name": "_ratingForCommunicationSkills",
          "type": "uint256"
        }
      ],
      "name": "rateAfreelancer",
      "outputs": [],
      "stateMutability": "nonpayable",
      "type": "function"
    },
    {
      "inputs": [
        {
          "internalType": "address",
          "name": "_accountId",
          "type": "address"
        }
      ],
      "name": "viewFreelancerRating",
      "outputs": [
        {
          "components": [
            {
              "internalType": "uint256",
              "name": "bidId",
              "type": "uint256"
            },
            {
              "internalType": "string",
              "name": "ProjectName",
              "type": "string"
            },
            {
              "internalType": "address",
              "name": "accountId",
              "type": "address"
            },
            {
              "internalType": "string",
              "name": "feedback",
              "type": "string"
            },
            {
              "internalType": "uint256",
              "name": "ratingForCompletedProjects",
              "type": "uint256"
            },
            {
              "internalType": "uint256",
              "name": "ratingForCommunicationSkills",
              "type": "uint256"
            }
          ],
          "internalType": "struct KaziKrypto.FreelancerRatings[]",
          "name": "",
          "type": "tuple[]"
        }
      ],
      "stateMutability": "view",
      "type": "function"
    },
    {
      "inputs": [
        {
          "internalType": "string",
          "name": "_disputeName",
          "type": "string"
        },
        {
          "internalType": "string",
          "name": "_description",
          "type": "string"
        },
        {
          "internalType": "address",
          "name": "_clientInvolved",
          "type": "address"
        }
      ],
      "name": "createDispute",
      "outputs": [],
      "stateMutability": "nonpayable",
      "type": "function"
    },
    {
      "inputs": [
        {
          "internalType": "address",
          "name": "_disputor",
          "type": "address"
        }
      ],
      "name": "markDisputeAsResolved",
      "outputs": [],
      "stateMutability": "nonpayable",
      "type": "function"
    },
    {
      "inputs": [
        {
          "internalType": "uint256",
          "name": "index",
          "type": "uint256"
        }
      ],
      "name": "getDispute",
      "outputs": [
        {
          "components": [
            {
              "internalType": "string",
              "name": "disputeName",
              "type": "string"
            },
            {
              "internalType": "string",
              "name": "description",
              "type": "string"
            },
            {
              "internalType": "address",
              "name": "disputor",
              "type": "address"
            },
            {
              "internalType": "address",
              "name": "clientInvolved",
              "type": "address"
            },
            {
              "internalType": "bool",
              "name": "resolved",
              "type": "bool"
            }
          ],
          "internalType": "struct KaziKrypto.Disputes",
          "name": "",
          "type": "tuple"
        }
      ],
      "stateMutability": "view",
      "type": "function"
    },
    {
      "inputs": [],
      "name": "getAllDisputes",
      "outputs": [
        {
          "components": [
            {
              "internalType": "string",
              "name": "disputeName",
              "type": "string"
            },
            {
              "internalType": "string",
              "name": "description",
              "type": "string"
            },
            {
              "internalType": "address",
              "name": "disputor",
              "type": "address"
            },
            {
              "internalType": "address",
              "name": "clientInvolved",
              "type": "address"
            },
            {
              "internalType": "bool",
              "name": "resolved",
              "type": "bool"
            }
          ],
          "internalType": "struct KaziKrypto.Disputes[]",
          "name": "",
          "type": "tuple[]"
        }
      ],
      "stateMutability": "view",
      "type": "function"
    }
  ],
  "bytecode": "0x6080604052615617806100136000396000f3fe6080604052600436106101cd5760003560e01c80635b050098116100f7578063ce1d478311610095578063eeb2ba2f11610064578063eeb2ba2f146105b4578063f1bf5313146105d4578063f9162ee2146105f4578063f99ca8b61461062757600080fd5b8063ce1d47831461051a578063d3999d7914610547578063d9c8367014610567578063e3a96cbd1461058757600080fd5b8063a713a048116100d1578063a713a04814610480578063a77e9b35146104a0578063a91b95d9146104c0578063b0c77c56146104ed57600080fd5b80635b0500981461041357806364df6ab114610433578063876ec70b1461046057600080fd5b8063349ae58a1161016f57806343ca17371161013e57806343ca17371461035b5780634455c8351461037b57806349cbc79d146103b9578063582c7ffd146103e657600080fd5b8063349ae58a146102ce57806335e684b4146102ee5780633837cb2e1461030e5780634027b2971461032e57600080fd5b8063169c4c48116101ab578063169c4c48146102575780631dd9997f146102795780631f07b3991461029b57806325dfc140146102bb57600080fd5b806302e9d5e4146101d25780630e357a6e146101f4578063131d9a271461022a575b600080fd5b3480156101de57600080fd5b506101f26101ed366004614466565b610659565b005b34801561020057600080fd5b5061021461020f36600461449d565b61087f565b604051610221919061456e565b60405180910390f35b34801561023657600080fd5b5061024a6102453660046145fe565b610beb565b604051610221919061468e565b34801561026357600080fd5b5061026c610e0f565b60405161022191906146f0565b34801561028557600080fd5b5061028e611213565b6040516102219190614874565b3480156102a757600080fd5b506101f26102b636600461497e565b6113c6565b6101f26102c9366004614aa4565b61176a565b3480156102da57600080fd5b506101f26102e9366004614b7d565b611a85565b3480156102fa57600080fd5b506101f2610309366004614bf2565b611b69565b34801561031a57600080fd5b506101f2610329366004614ca8565b611be2565b34801561033a57600080fd5b5061034e61034936600461449d565b611d81565b6040516102219190614cef565b34801561036757600080fd5b506101f2610376366004614d3b565b611f4a565b34801561038757600080fd5b506101f2610396366004614dfc565b336000908152600560205260409020600801805460ff1916911515919091179055565b3480156103c557600080fd5b506103d96103d4366004614e1e565b612020565b6040516102219190614e3b565b3480156103f257600080fd5b50610406610401366004614466565b6121e5565b6040516102219190614eec565b34801561041f57600080fd5b506101f261042e366004614eff565b612534565b34801561043f57600080fd5b5061045361044e366004614e1e565b612788565b6040516102219190614f69565b34801561046c57600080fd5b506101f261047b366004615043565b612b61565b34801561048c57600080fd5b506101f261049b36600461509e565b612bff565b3480156104ac57600080fd5b506101f26104bb366004615189565b612d31565b3480156104cc57600080fd5b506104e06104db366004614e1e565b612f05565b6040516102219190615200565b3480156104f957600080fd5b5061050d6105083660046145fe565b6130c8565b60405161022191906152ad565b34801561052657600080fd5b5061053a610535366004614e1e565b613290565b604051610221919061535b565b34801561055357600080fd5b506101f261056236600461449d565b6134a7565b34801561057357600080fd5b506101f2610582366004614e1e565b613932565b34801561059357600080fd5b506105a76105a23660046145fe565b613a0c565b6040516102219190615410565b3480156105c057600080fd5b506101f26105cf366004614e1e565b613c03565b3480156105e057600080fd5b5061050d6105ef366004614e1e565b613d20565b34801561060057600080fd5b5061061461060f3660046145fe565b613eeb565b6040516102219796959493929190615423565b34801561063357600080fd5b5061064761064236600461449d565b6140e0565b6040516102219695949392919061548f565b60005b6000838152600c602052604090205481101561078c576000838152600c6020526040902080548391908390811061069557610695615530565b906000526020600020906007020160010154141561077a576000838152600c602052604090208054829081106106cd576106cd615530565b600091825260209091206006600790920201015460ff161515600114156107335760405162461bcd60e51b8152602060048201526015602482015274189a5917d85b1b1c9958591e57d85c1c1c9bdd9959605a1b60448201526064015b60405180910390fd5b6000838152600c602052604090208054600191908390811061075757610757615530565b60009182526020909120600790910201600601805460ff19169115159190911790555b806107848161555c565b91505061065c565b5060005b600b5481101561087a5782600b82815481106107ae576107ae615530565b906000526020600020906009020160000154141561086857600b81815481106107d9576107d9615530565b600091825260209091206008600990920201015460ff166108305760405162461bcd60e51b8152602060048201526011602482015270626964206e6f7420617661696c61626c6560781b604482015260640161072a565b6000600b828154811061084557610845615530565b60009182526020909120600990910201600801805460ff19169115159190911790555b806108728161555c565b915050610790565b505050565b6108ba6040518060a0016040528060006001600160a01b03168152602001606081526020016060815260200160608152602001606081525090565b6001600160a01b03831660009081526006602052604090208054839081106108e4576108e4615530565b600091825260208083206040805160a081018252600590940290910180546001600160a01b0316845260018101805483518186028101860190945280845294959194868501949192909184015b828210156109dd57838290600052602060002001805461095090615577565b80601f016020809104026020016040519081016040528092919081815260200182805461097c90615577565b80156109c95780601f1061099e576101008083540402835291602001916109c9565b820191906000526020600020905b8154815290600101906020018083116109ac57829003601f168201915b505050505081526020019060010190610931565b50505050815260200160028201805480602002602001604051908101604052809291908181526020016000905b82821015610ab6578382906000526020600020018054610a2990615577565b80601f0160208091040260200160405190810160405280929190818152602001828054610a5590615577565b8015610aa25780601f10610a7757610100808354040283529160200191610aa2565b820191906000526020600020905b815481529060010190602001808311610a8557829003601f168201915b505050505081526020019060010190610a0a565b505050508152602001600382018054610ace90615577565b80601f0160208091040260200160405190810160405280929190818152602001828054610afa90615577565b8015610b475780601f10610b1c57610100808354040283529160200191610b47565b820191906000526020600020905b815481529060010190602001808311610b2a57829003601f168201915b50505050508152602001600482018054610b6090615577565b80601f0160208091040260200160405190810160405280929190818152602001828054610b8c90615577565b8015610bd95780601f10610bae57610100808354040283529160200191610bd9565b820191906000526020600020905b815481529060010190602001808311610bbc57829003601f168201915b50505050508152505090505b92915050565b6060600c6000838152602001908152602001600020805480602002602001604051908101604052809291908181526020016000905b82821015610e045760008481526020908190206040805160e081018252600786029092018054835260018101549383019390935260028301546001600160a01b031690820152600382018054919291606084019190610c7e90615577565b80601f0160208091040260200160405190810160405280929190818152602001828054610caa90615577565b8015610cf75780601f10610ccc57610100808354040283529160200191610cf7565b820191906000526020600020905b815481529060010190602001808311610cda57829003601f168201915b505050505081526020016004820154815260200160058201805480602002602001604051908101604052809291908181526020016000905b82821015610ddb578382906000526020600020018054610d4e90615577565b80601f0160208091040260200160405190810160405280929190818152602001828054610d7a90615577565b8015610dc75780601f10610d9c57610100808354040283529160200191610dc7565b820191906000526020600020905b815481529060010190602001808311610daa57829003601f168201915b505050505081526020019060010190610d2f565b505050908252506006919091015460ff1615156020918201529082526001929092019101610c20565b505050509050919050565b6060600b805480602002602001604051908101604052809291908181526020016000905b8282101561120a5760008481526020908190206040805161012081018252600986029092018054835260018101546001600160a01b03169383019390935260028301805492939291840191610e8790615577565b80601f0160208091040260200160405190810160405280929190818152602001828054610eb390615577565b8015610f005780601f10610ed557610100808354040283529160200191610f00565b820191906000526020600020905b815481529060010190602001808311610ee357829003601f168201915b50505050508152602001600382018054610f1990615577565b80601f0160208091040260200160405190810160405280929190818152602001828054610f4590615577565b8015610f925780601f10610f6757610100808354040283529160200191610f92565b820191906000526020600020905b815481529060010190602001808311610f7557829003601f168201915b50505050508152602001600482018054610fab90615577565b80601f0160208091040260200160405190810160405280929190818152602001828054610fd790615577565b80156110245780601f10610ff957610100808354040283529160200191611024565b820191906000526020600020905b81548152906001019060200180831161100757829003601f168201915b505050505081526020016005820154815260200160068201805480602002602001604051908101604052809291908181526020016000905b8282101561110857838290600052602060002001805461107b90615577565b80601f01602080910402602001604051908101604052809291908181526020018280546110a790615577565b80156110f45780601f106110c9576101008083540402835291602001916110f4565b820191906000526020600020905b8154815290600101906020018083116110d757829003601f168201915b50505050508152602001906001019061105c565b50505050815260200160078201805480602002602001604051908101604052809291908181526020016000905b828210156111e157838290600052602060002001805461115490615577565b80601f016020809104026020016040519081016040528092919081815260200182805461118090615577565b80156111cd5780601f106111a2576101008083540402835291602001916111cd565b820191906000526020600020905b8154815290600101906020018083116111b057829003601f168201915b505050505081526020019060010190611135565b505050908252506008919091015460ff1615156020918201529082526001929092019101610e33565b50505050905090565b60606001805480602002602001604051908101604052809291908181526020016000905b8282101561120a57838290600052602060002090600402016040518060a001604052908160008201805461126a90615577565b80601f016020809104026020016040519081016040528092919081815260200182805461129690615577565b80156112e35780601f106112b8576101008083540402835291602001916112e3565b820191906000526020600020905b8154815290600101906020018083116112c657829003601f168201915b505050505081526020016001820180546112fc90615577565b80601f016020809104026020016040519081016040528092919081815260200182805461132890615577565b80156113755780601f1061134a57610100808354040283529160200191611375565b820191906000526020600020905b81548152906001019060200180831161135857829003601f168201915b505050918352505060028201546001600160a01b039081166020808401919091526003909301549081166040830152600160a01b900460ff1615156060909101529082526001929092019101611237565b60008060005b6000898152600c60205260409020548110156114ab576000898152600c6020526040902080548991908390811061140557611405615530565b90600052602060002090600702016001015414801561145c57506000898152600c6020526040902080548290811061143f5761143f615530565b600091825260209091206006600790920201015460ff1615156001145b15611499576000898152600c6020526040902080548290811061148157611481615530565b90600052602060002090600702016004015492508091505b806114a38161555c565b9150506113cc565b50838210156114f05760405162461bcd60e51b8152602060048201526011602482015270189d5919d95d17dbdd995c9c1c9a58d959607a1b604482015260640161072a565b6000888152600c6020526040902080548290811061151057611510615530565b600091825260209091206006600790920201015460ff166115665760405162461bcd60e51b815260206004820152601060248201526f189a5917db9bdd17d85c1c1c9bdd995960821b604482015260640161072a565b600380549060006115768361555c565b90915550506000888152600c6020526040902080548591908390811061159e5761159e615530565b906000526020600020906007020160040160008282546115be91906155b2565b9091555050336000908152600960209081526040808320815160e0810183528b81526003548185019081529281018b8152606082018b9052608082018a905260a0820189905260c08201869052825460018181018555938752958590208251600790970201958655925191850191909155905180519193926116489260028501929091019061431a565b506060820151805161166491600384019160209091019061431a565b50608082810151600483015560a080840151600584015560c0938401516006909301805460ff19169315159390931790925560008a8152600d60209081526040808320815160e0810183528e81526003548185019081529281018e8152606082018e90529581018c90529586018a905295850183905285546001818101885596845292829020855160079094020192835551948201949094559051805192939192611715926002850192019061431a565b506060820151805161173191600384019160209091019061431a565b506080820151600482015560a0820151600582015560c0909101516006909101805460ff19169115159190911790555050505050505050565b60405130906000908190839034908381818185875af1925050503d80600081146117b0576040519150601f19603f3d011682016040523d82523d6000602084013e6117b5565b606091505b50600a805492945090925060006117cb8361555c565b90915550506040805161012081018252600a5481523360208083019182529282018c8152606083018c9052608083018b905260a083018a905260c0830189905260e0830188905260016101008401819052600b80549182018155600052835160099091027f0175b7a638427703f0dbe7bb9bbf987a2551717b34e79f33b5b1008d1fa01db9810191825592517f0175b7a638427703f0dbe7bb9bbf987a2551717b34e79f33b5b1008d1fa01dba840180546001600160a01b03929092166001600160a01b031990921691909117905590518051939491936118d3937f0175b7a638427703f0dbe7bb9bbf987a2551717b34e79f33b5b1008d1fa01dbb0192919091019061431a565b50606082015180516118ef91600384019160209091019061431a565b506080820151805161190b91600484019160209091019061431a565b5060a0820151600582015560c0820151805161193191600684019160209091019061439e565b5060e0820151805161194d91600784019160209091019061439e565b5061010091909101516008909101805491151560ff19909216919091179055336000818152600460209081526040808320815160c0810183529485526001600160a01b0388811686850190815283518085018552600f81526e50726f6a65637420706f7374696e6760881b81870152878501908152346060890152426080890152845180860190955260098552686f6e5f657363726f7760b81b8587015260a088019490945282546001818101855593875295859020875160069097020180549683166001600160a01b0319978816178155905192810180549390921692909516919091179055518051611a47926002850192019061431a565b50606082015160038201556080820151600482015560a08201518051611a7791600584019160209091019061431a565b505050505050505050505050565b6001600160a01b038084166000818152600e60209081526040808320815160c08101835242815233818501908152928101958652606081018981526080820189905260a08201869052825460018181018555938752958590208251600690970201958655925191850180549288166001600160a01b03199384161790559451600285018054919097169116179094559251805192939192611b2c926003850192019061431a565b5060808201518051611b4891600484019160209091019061439e565b5060a091909101516005909101805460ff1916911515919091179055505050565b33600090815260056020908152604090912086519091611b9091600284019189019061431a565b50600381018590558351611bad906004830190602087019061431a565b508251611bc3906005830190602086019061431a565b508151611bd9906006830190602085019061439e565b50505050505050565b6000805b6001600160a01b038816600090815260086020526040902054811015611c6b576001600160a01b0388166000908152600860205260409020805488919083908110611c3357611c33615530565b9060005260206000209060060201600001541415611c5957611c566001836155c9565b91505b80611c638161555c565b915050611be6565b5080611d48576001600160a01b0387166000818152600860209081526040808320815160c0810183528b81528084018b815292810195909552606085018990526080850188905260a0850187905280546001818101835591855293839020855160069095020193845590518051611cea9392850192919091019061431a565b5060408201516002820180546001600160a01b0319166001600160a01b0390921691909117905560608201518051611d2c91600384019160209091019061431a565b506080820151816004015560a082015181600501555050611bd9565b60405162461bcd60e51b815260206004820152600e60248201526d185b1b1c9958591e481c985d195960921b604482015260640161072a565b611dbc6040518060a0016040528060006001600160a01b03168152602001606081526020016060815260200160608152602001606081525090565b6001600160a01b0383166000908152600760205260409020805483908110611de657611de6615530565b60009182526020918290206040805160a0810190915260059092020180546001600160a01b031682526001810180549293919291840191611e2690615577565b80601f0160208091040260200160405190810160405280929190818152602001828054611e5290615577565b8015611e9f5780601f10611e7457610100808354040283529160200191611e9f565b820191906000526020600020905b815481529060010190602001808311611e8257829003601f168201915b50505050508152602001600282018054611eb890615577565b80601f0160208091040260200160405190810160405280929190818152602001828054611ee490615577565b8015611f315780601f10611f0657610100808354040283529160200191611f31565b820191906000526020600020905b815481529060010190602001808311611f1457829003601f168201915b50505050508152602001600382018054610ace90615577565b336000818152600660209081526040808320815160a081018352948552848301898152918501889052606085018790526080850186905280546001808201835591855293839020855160059095020180546001600160a01b0319166001600160a01b0390951694909417845590518051611fcc9392850192919091019061439e565b5060408201518051611fe891600284019160209091019061439e565b506060820151805161200491600384019160209091019061431a565b5060808201518051611bd991600484019160209091019061431a565b6001600160a01b0381166000908152600460209081526040808320805482518185028101850190935280835260609492939192909184015b82821015610e045760008481526020908190206040805160c0810182526006860290920180546001600160a01b03908116845260018201541693830193909352600283018054929392918401916120ae90615577565b80601f01602080910402602001604051908101604052809291908181526020018280546120da90615577565b80156121275780601f106120fc57610100808354040283529160200191612127565b820191906000526020600020905b81548152906001019060200180831161210a57829003601f168201915b50505050508152602001600382015481526020016004820154815260200160058201805461215490615577565b80601f016020809104026020016040519081016040528092919081815260200182805461218090615577565b80156121cd5780601f106121a2576101008083540402835291602001916121cd565b820191906000526020600020905b8154815290600101906020018083116121b057829003601f168201915b50505050508152505081526020019060010190612058565b6122306040518060e00160405280600081526020016000815260200160006001600160a01b031681526020016060815260200160008152602001606081526020016000151581525090565b60008211801561224257506002548211155b61227f5760405162461bcd60e51b815260206004820152600e60248201526d125b9d985b1a5908189a5908125160921b604482015260640161072a565b6000838152600c6020908152604080832080548251818502810185019093528083529192909190849084015b8282101561248f5760008481526020908190206040805160e081018252600786029092018054835260018101549383019390935260028301546001600160a01b03169082015260038201805491929160608401919061230990615577565b80601f016020809104026020016040519081016040528092919081815260200182805461233590615577565b80156123825780601f1061235757610100808354040283529160200191612382565b820191906000526020600020905b81548152906001019060200180831161236557829003601f168201915b505050505081526020016004820154815260200160058201805480602002602001604051908101604052809291908181526020016000905b828210156124665783829060005260206000200180546123d990615577565b80601f016020809104026020016040519081016040528092919081815260200182805461240590615577565b80156124525780601f1061242757610100808354040283529160200191612452565b820191906000526020600020905b81548152906001019060200180831161243557829003601f168201915b5050505050815260200190600101906123ba565b505050908252506006919091015460ff16151560209182015290825260019290920191016122ab565b50505050905060005b81518110156124fb57838282815181106124b4576124b4615530565b60200260200101516020015114156124e9578181815181106124d8576124d8615530565b602002602001015192505050610be5565b806124f38161555c565b915050612498565b5060405162461bcd60e51b815260206004820152600d60248201526c109a59081b9bdd08199bdd5b99609a1b604482015260640161072a565b6000805b6000868152600c60205260409020548110156125e2576000868152600c6020526040902080543391908390811061257157612571615530565b60009182526020909120600260079092020101546001600160a01b031614156125d05760405162461bcd60e51b8152602060048201526011602482015270185b1b1c9958591e57db58591957d89a59607a1b604482015260640161072a565b806125da8161555c565b915050612538565b5060005b600b5481101561273c5785600b828154811061260457612604615530565b906000526020600020906009020160000154141561272a576002805490600061262c8361555c565b9190505550818061263c9061555c565b6000888152600c60209081526040808320815160e0810183528c81526002805482860190815233948301948552606083018e8152608084018e905260a084018d905260c08401889052845460018082018755958952978790208451600790990201978855905193870193909355925192850180546001600160a01b0319166001600160a01b039094169390931790925551805194975090945091926126e7926003850192019061431a565b506080820151600482015560a0820151805161270d91600584019160209091019061439e565b5060c091909101516006909101805460ff19169115159190911790555b806127348161555c565b9150506125e6565b5060018110156127815760405162461bcd60e51b815260206004820152601060248201526f189a5917d91bd95cdb9d17d95e1a5cdd60821b604482015260640161072a565b5050505050565b6127e260405180610120016040528060006001600160a01b03168152602001606081526020016060815260200160008152602001606081526020016060815260200160608152602001600081526020016000151581525090565b6001600160a01b0380831660009081526005602090815260409182902082516101208101909352805490931682526001830180549293929184019161282690615577565b80601f016020809104026020016040519081016040528092919081815260200182805461285290615577565b801561289f5780601f106128745761010080835404028352916020019161289f565b820191906000526020600020905b81548152906001019060200180831161288257829003601f168201915b505050505081526020016002820180546128b890615577565b80601f01602080910402602001604051908101604052809291908181526020018280546128e490615577565b80156129315780601f1061290657610100808354040283529160200191612931565b820191906000526020600020905b81548152906001019060200180831161291457829003601f168201915b505050505081526020016003820154815260200160048201805461295490615577565b80601f016020809104026020016040519081016040528092919081815260200182805461298090615577565b80156129cd5780601f106129a2576101008083540402835291602001916129cd565b820191906000526020600020905b8154815290600101906020018083116129b057829003601f168201915b505050505081526020016005820180546129e690615577565b80601f0160208091040260200160405190810160405280929190818152602001828054612a1290615577565b8015612a5f5780601f10612a3457610100808354040283529160200191612a5f565b820191906000526020600020905b815481529060010190602001808311612a4257829003601f168201915b5050505050815260200160068201805480602002602001604051908101604052809291908181526020016000905b82821015612b39578382906000526020600020018054612aac90615577565b80601f0160208091040260200160405190810160405280929190818152602001828054612ad890615577565b8015612b255780601f10612afa57610100808354040283529160200191612b25565b820191906000526020600020905b815481529060010190602001808311612b0857829003601f168201915b505050505081526020019060010190612a8d565b505050908252506007820154602082015260089091015460ff16151560409091015292915050565b336000818152600760209081526040808320815160a081018352948552848301898152918501889052606085018790526080850186905280546001808201835591855293839020855160059095020180546001600160a01b0319166001600160a01b0390951694909417845590518051612be39392850192919091019061431a565b5060408201518051611fe891600284019160209091019061431a565b60408051610120810182523380825260208083018a81528385018c9052606084018a90526080840189905260a0840188905260c08401879052600060e085018190528615156101008601529283526005825293909120825181546001600160a01b0319166001600160a01b0390911617815592518051929392612c88926001850192019061431a565b5060408201518051612ca491600284019160209091019061431a565b506060820151600382015560808201518051612cca91600484019160209091019061431a565b5060a08201518051612ce691600584019160209091019061431a565b5060c08201518051612d0291600684019160209091019061439e565b5060e08201516007820155610100909101516008909101805460ff191691151591909117905550505050505050565b60005b600154811015612e1257336001600160a01b031660018281548110612d5b57612d5b615530565b60009182526020909120600260049092020101546001600160a01b0316148015612db3575060018181548110612d9357612d93615530565b6000918252602090912060049091020160030154600160a01b900460ff16155b15612e005760405162461bcd60e51b815260206004820152601860248201527f736f6c76655f796f75725f646973707574655f66697273740000000000000000604482015260640161072a565b80612e0a8161555c565b915050612d34565b506040805160a081018252848152602080820185905233928201929092526001600160a01b0383166060820152600060808201819052600180548082018255915281518051929360049092027fb10e2d527612073b26eecdfd717e6a320cf44b4afac2b0732d9fcbe2b7fa0cf60192612e8e928492019061431a565b506020828101518051612ea7926001850192019061431a565b5060408201516002820180546001600160a01b0319166001600160a01b03928316179055606083015160039092018054608090940151929091166001600160a81b031990931692909217600160a01b91151591909102179055505050565b6001600160a01b0381166000908152600860209081526040808320805482518185028101850190935280835260609492939192909184015b82821015610e0457838290600052602060002090600602016040518060c001604052908160008201548152602001600182018054612f7a90615577565b80601f0160208091040260200160405190810160405280929190818152602001828054612fa690615577565b8015612ff35780601f10612fc857610100808354040283529160200191612ff3565b820191906000526020600020905b815481529060010190602001808311612fd657829003601f168201915b505050918352505060028201546001600160a01b0316602082015260038201805460409092019161302390615577565b80601f016020809104026020016040519081016040528092919081815260200182805461304f90615577565b801561309c5780601f106130715761010080835404028352916020019161309c565b820191906000526020600020905b81548152906001019060200180831161307f57829003601f168201915b505050505081526020016004820154815260200160058201548152505081526020019060010190612f3d565b6060600d6000838152602001908152602001600020805480602002602001604051908101604052809291908181526020016000905b82821015610e0457838290600052602060002090600702016040518060e0016040529081600082015481526020016001820154815260200160028201805461314490615577565b80601f016020809104026020016040519081016040528092919081815260200182805461317090615577565b80156131bd5780601f10613192576101008083540402835291602001916131bd565b820191906000526020600020905b8154815290600101906020018083116131a057829003601f168201915b505050505081526020016003820180546131d690615577565b80601f016020809104026020016040519081016040528092919081815260200182805461320290615577565b801561324f5780601f106132245761010080835404028352916020019161324f565b820191906000526020600020905b81548152906001019060200180831161323257829003601f168201915b505050918352505060048201546020808301919091526005830154604083015260069092015460ff16151560609091015290825260019290920191016130fd565b6001600160a01b0381166000908152600e60209081526040808320805482518185028101850190935280835260609492939192909184015b82821015610e045760008481526020908190206040805160c081018252600686029092018054835260018101546001600160a01b039081169484019490945260028101549093169082015260038201805491929160608401919061332b90615577565b80601f016020809104026020016040519081016040528092919081815260200182805461335790615577565b80156133a45780601f10613379576101008083540402835291602001916133a4565b820191906000526020600020905b81548152906001019060200180831161338757829003601f168201915b5050505050815260200160048201805480602002602001604051908101604052809291908181526020016000905b8282101561347e5783829060005260206000200180546133f190615577565b80601f016020809104026020016040519081016040528092919081815260200182805461341d90615577565b801561346a5780601f1061343f5761010080835404028352916020019161346a565b820191906000526020600020905b81548152906001019060200180831161344d57829003601f168201915b5050505050815260200190600101906133d2565b505050908252506005919091015460ff16151560209182015290825260019290920191016132c8565b60008060005b600b5481101561350d57336001600160a01b0316600b82815481106134d4576134d4615530565b60009182526020909120600160099092020101546001600160a01b031614156134fb573391505b806135058161555c565b9150506134ad565b506001600160a01b03811633146135575760405162461bcd60e51b815260206004820152600e60248201526d37b7363cafb537b12fb7bbb732b960911b604482015260640161072a565b60005b6001600160a01b038516600090815260096020526040902054811015613884576001600160a01b03851660009081526009602052604090208054859190839081106135a7576135a7615530565b90600052602060002090600702016001015414801561360457506001600160a01b03851660009081526009602052604090208054829081106135eb576135eb615530565b600091825260209091206006600790920201015460ff16155b801561361857506001600160a01b03821633145b15613872576001600160a01b038516600090815260096020526040902080548290811061364757613647615530565b90600052602060002090600702016000015492506000309050600160096000886001600160a01b03166001600160a01b03168152602001908152602001600020838154811061369857613698615530565b60009182526020808320600792909202909101600601805460ff1916931515939093179092556001600160a01b03881680825260099092526040902080546108fc9190859081106136eb576136eb615530565b9060005260206000209060070201600401549081150290604051600060405180830381858888f19350505050158015613728573d6000803e3d6000fd5b506001600160a01b038087166000818152600460209081526040808320815160c0810183529587168652858301859052815180830183526008815267105c1c1c9bdd985b60c21b81850152868301529383526009909152902080549192916060830191908690811061379c5761379c615530565b600091825260208083206007928302016004015484524284820152604080518082018252928352661cd95d1d1b195960ca1b838301529384019190915284546001808201875595835291819020845160069093020180546001600160a01b03199081166001600160a01b03948516178255858301519682018054909116969093169590951790915590820151805192939261383d926002850192019061431a565b50606082015160038201556080820151600482015560a0820151805161386d91600584019160209091019061431a565b505050505b8061387c8161555c565b91505061355a565b5060005b6000838152600d6020526040902054811015612781576000838152600d602052604090208054859190839081106138c1576138c1615530565b9060005260206000209060070201600101541415613920576000838152600d60205260409020805460019190839081106138fd576138fd615530565b60009182526020909120600790910201600601805460ff19169115159190911790555b8061392a8161555c565b915050613888565b60005b6001600160a01b0382166000908152600e6020526040902054811015613a08576001600160a01b0382166000908152600e6020526040902080543391908390811061398257613982615530565b60009182526020909120600160069092020101546001600160a01b031614156139f6576001600160a01b0382166000908152600e60205260409020805460019190839081106139d3576139d3615530565b60009182526020909120600690910201600501805460ff19169115159190911790555b80613a008161555c565b915050613935565b5050565b6040805160a0810182526060808252602082018190526000928201839052810182905260808101919091526001548210613a785760405162461bcd60e51b815260206004820152600d60248201526c092dcecc2d8d2c840d2dcc8caf609b1b604482015260640161072a565b60018281548110613a8b57613a8b615530565b90600052602060002090600402016040518060a0016040529081600082018054613ab490615577565b80601f0160208091040260200160405190810160405280929190818152602001828054613ae090615577565b8015613b2d5780601f10613b0257610100808354040283529160200191613b2d565b820191906000526020600020905b815481529060010190602001808311613b1057829003601f168201915b50505050508152602001600182018054613b4690615577565b80601f0160208091040260200160405190810160405280929190818152602001828054613b7290615577565b8015613bbf5780601f10613b9457610100808354040283529160200191613bbf565b820191906000526020600020905b815481529060010190602001808311613ba257829003601f168201915b505050918352505060028201546001600160a01b0390811660208301526003909201549182166040820152600160a01b90910460ff16151560609091015292915050565b6000546001600160a01b03163314613c4a5760405162461bcd60e51b815260206004820152600a60248201526937b7363cafb7bbb732b960b11b604482015260640161072a565b60005b600154811015613a0857816001600160a01b031660018281548110613c7457613c74615530565b60009182526020909120600260049092020101546001600160a01b0316148015613ccc575060018181548110613cac57613cac615530565b6000918252602090912060049091020160030154600160a01b900460ff16155b15613d0e576001808281548110613ce557613ce5615530565b906000526020600020906004020160030160146101000a81548160ff0219169083151502179055505b80613d188161555c565b915050613c4d565b6001600160a01b0381166000908152600960209081526040808320805482518185028101850190935280835260609492939192909184015b82821015610e0457838290600052602060002090600702016040518060e00160405290816000820154815260200160018201548152602001600282018054613d9f90615577565b80601f0160208091040260200160405190810160405280929190818152602001828054613dcb90615577565b8015613e185780601f10613ded57610100808354040283529160200191613e18565b820191906000526020600020905b815481529060010190602001808311613dfb57829003601f168201915b50505050508152602001600382018054613e3190615577565b80601f0160208091040260200160405190810160405280929190818152602001828054613e5d90615577565b8015613eaa5780601f10613e7f57610100808354040283529160200191613eaa565b820191906000526020600020905b815481529060010190602001808311613e8d57829003601f168201915b505050918352505060048201546020808301919091526005830154604083015260069092015460ff1615156060909101529082526001929092019101613d58565b600b8181548110613efb57600080fd5b60009182526020909120600990910201805460018201546002830180549294506001600160a01b039091169291613f3190615577565b80601f0160208091040260200160405190810160405280929190818152602001828054613f5d90615577565b8015613faa5780601f10613f7f57610100808354040283529160200191613faa565b820191906000526020600020905b815481529060010190602001808311613f8d57829003601f168201915b505050505090806003018054613fbf90615577565b80601f0160208091040260200160405190810160405280929190818152602001828054613feb90615577565b80156140385780601f1061400d57610100808354040283529160200191614038565b820191906000526020600020905b81548152906001019060200180831161401b57829003601f168201915b50505050509080600401805461404d90615577565b80601f016020809104026020016040519081016040528092919081815260200182805461407990615577565b80156140c65780601f1061409b576101008083540402835291602001916140c6565b820191906000526020600020905b8154815290600101906020018083116140a957829003601f168201915b50505050600583015460089093015491929160ff16905087565b6000806000606080600080600e60008a6001600160a01b03166001600160a01b03168152602001908152602001600020888154811061412157614121615530565b60009182526020918290206040805160c08101825260069093029091018054835260018101546001600160a01b039081169484019490945260028101549093169082015260038201805491929160608401919061417d90615577565b80601f01602080910402602001604051908101604052809291908181526020018280546141a990615577565b80156141f65780601f106141cb576101008083540402835291602001916141f6565b820191906000526020600020905b8154815290600101906020018083116141d957829003601f168201915b5050505050815260200160048201805480602002602001604051908101604052809291908181526020016000905b828210156142d057838290600052602060002001805461424390615577565b80601f016020809104026020016040519081016040528092919081815260200182805461426f90615577565b80156142bc5780601f10614291576101008083540402835291602001916142bc565b820191906000526020600020905b81548152906001019060200180831161429f57829003601f168201915b505050505081526020019060010190614224565b505050908252506005919091015460ff16151560209182015281519082015160408301516060840151608085015160a090950151939e929d50909b50995091975095509350505050565b82805461432690615577565b90600052602060002090601f016020900481019282614348576000855561438e565b82601f1061436157805160ff191683800117855561438e565b8280016001018555821561438e579182015b8281111561438e578251825591602001919060010190614373565b5061439a9291506143f7565b5090565b8280548282559060005260206000209081019282156143eb579160200282015b828111156143eb57825180516143db91849160209091019061431a565b50916020019190600101906143be565b5061439a92915061440c565b5b8082111561439a57600081556001016143f8565b8082111561439a5760006144208282614429565b5060010161440c565b50805461443590615577565b6000825580601f10614445575050565b601f01602090049060005260206000209081019061446391906143f7565b50565b6000806040838503121561447957600080fd5b50508035926020909101359150565b6001600160a01b038116811461446357600080fd5b600080604083850312156144b057600080fd5b82356144bb81614488565b946020939093013593505050565b6000815180845260005b818110156144ef576020818501810151868301820152016144d3565b81811115614501576000602083870101525b50601f01601f19169290920160200192915050565b600082825180855260208086019550808260051b84010181860160005b8481101561456157601f1986840301895261454f8383516144c9565b98840198925090830190600101614533565b5090979650505050505050565b602080825282516001600160a01b03168282015282015160a0604083015260009061459c60c0840182614516565b90506040840151601f19808584030160608601526145ba8383614516565b925060608601519150808584030160808601526145d783836144c9565b925060808601519150808584030160a0860152506145f582826144c9565b95945050505050565b60006020828403121561461057600080fd5b5035919050565b805182526020810151602083015260018060a01b0360408201511660408301526000606082015160e0606085015261465260e08501826144c9565b90506080830151608085015260a083015184820360a08601526146758282614516565b91505060c0830151151560c08501528091505092915050565b6000602080830181845280855180835260408601915060408160051b870101925083870160005b828110156146e357603f198886030184526146d1858351614617565b945092850192908501906001016146b5565b5092979650505050505050565b60006020808301818452808551808352604092508286019150828160051b87010184880160005b838110156147fd57603f19898403018552815180518452878101516001600160a01b0316888501528681015161012088860181905290614759828701826144c9565b9150506060808301518683038288015261477383826144c9565b925050506080808301518683038288015261478e83826144c9565b9250505060a080830151818701525060c080830151868303828801526147b48382614516565b9250505060e080830151868303828801526147cf8382614516565b925050506101008083015192506147e98187018415159052565b509588019593505090860190600101614717565b509098975050505050505050565b6000815160a0845261482060a08501826144c9565b90506020830151848203602086015261483982826144c9565b915050604083015160018060a01b03808216604087015280606086015116606087015250506080830151151560808501528091505092915050565b6000602080830181845280855180835260408601915060408160051b870101925083870160005b828110156146e357603f198886030184526148b785835161480b565b9450928501929085019060010161489b565b634e487b7160e01b600052604160045260246000fd5b604051601f8201601f191681016001600160401b0381118282101715614907576149076148c9565b604052919050565b600082601f83011261492057600080fd5b81356001600160401b03811115614939576149396148c9565b61494c601f8201601f19166020016148df565b81815284602083860101111561496157600080fd5b816020850160208301376000918101602001919091529392505050565b60008060008060008060c0878903121561499757600080fd5b863595506020870135945060408701356001600160401b03808211156149bc57600080fd5b6149c88a838b0161490f565b955060608901359150808211156149de57600080fd5b506149eb89828a0161490f565b9350506080870135915060a087013590509295509295509295565b600082601f830112614a1757600080fd5b813560206001600160401b0380831115614a3357614a336148c9565b8260051b614a428382016148df565b9384528581018301938381019088861115614a5c57600080fd5b84880192505b85831015614a9857823584811115614a7a5760008081fd5b614a888a87838c010161490f565b8352509184019190840190614a62565b98975050505050505050565b60008060008060008060c08789031215614abd57600080fd5b86356001600160401b0380821115614ad457600080fd5b614ae08a838b0161490f565b97506020890135915080821115614af657600080fd5b614b028a838b0161490f565b96506040890135915080821115614b1857600080fd5b614b248a838b0161490f565b9550606089013594506080890135915080821115614b4157600080fd5b614b4d8a838b01614a06565b935060a0890135915080821115614b6357600080fd5b50614b7089828a01614a06565b9150509295509295509295565b600080600060608486031215614b9257600080fd5b8335614b9d81614488565b925060208401356001600160401b0380821115614bb957600080fd5b614bc58783880161490f565b93506040860135915080821115614bdb57600080fd5b50614be886828701614a06565b9150509250925092565b600080600080600060a08688031215614c0a57600080fd5b85356001600160401b0380821115614c2157600080fd5b614c2d89838a0161490f565b9650602088013595506040880135915080821115614c4a57600080fd5b614c5689838a0161490f565b94506060880135915080821115614c6c57600080fd5b614c7889838a0161490f565b93506080880135915080821115614c8e57600080fd5b50614c9b88828901614a06565b9150509295509295909350565b60008060008060008060c08789031215614cc157600080fd5b8635614ccc81614488565b95506020870135945060408701356001600160401b03808211156149bc57600080fd5b602080825282516001600160a01b03168282015282015160a06040830152600090614d1d60c08401826144c9565b90506040840151601f19808584030160608601526145ba83836144c9565b60008060008060808587031215614d5157600080fd5b84356001600160401b0380821115614d6857600080fd5b614d7488838901614a06565b95506020870135915080821115614d8a57600080fd5b614d9688838901614a06565b94506040870135915080821115614dac57600080fd5b614db88883890161490f565b93506060870135915080821115614dce57600080fd5b50614ddb8782880161490f565b91505092959194509250565b80358015158114614df757600080fd5b919050565b600060208284031215614e0e57600080fd5b614e1782614de7565b9392505050565b600060208284031215614e3057600080fd5b8135614e1781614488565b60006020808301818452808551808352604092508286019150828160051b87010184880160005b838110156147fd57888303603f19018552815180516001600160a01b0390811685528882015116888501528681015160c088860181905290614ea6828701826144c9565b606084810151908801526080808501519088015260a093840151878203948801949094529150614ed8905081836144c9565b968901969450505090860190600101614e62565b602081526000614e176020830184614617565b60008060008060808587031215614f1557600080fd5b8435935060208501356001600160401b0380821115614f3357600080fd5b614f3f8883890161490f565b9450604087013593506060870135915080821115614f5c57600080fd5b50614ddb87828801614a06565b60208152614f836020820183516001600160a01b03169052565b60006020830151610120806040850152614fa16101408501836144c9565b91506040850151601f1980868503016060870152614fbf84836144c9565b93506060870151608087015260808701519150808685030160a0870152614fe684836144c9565b935060a08701519150808685030160c087015261500384836144c9565b935060c08701519150808685030160e0870152506150218382614516565b60e0870151610100878101919091529096015115159190940152509192915050565b6000806000806080858703121561505957600080fd5b84356001600160401b038082111561507057600080fd5b61507c8883890161490f565b9550602087013591508082111561509257600080fd5b614d968883890161490f565b600080600080600080600060e0888a0312156150b957600080fd5b87356001600160401b03808211156150d057600080fd5b6150dc8b838c0161490f565b985060208a01359150808211156150f257600080fd5b6150fe8b838c0161490f565b975060408a0135965060608a013591508082111561511b57600080fd5b6151278b838c0161490f565b955060808a013591508082111561513d57600080fd5b6151498b838c0161490f565b945060a08a013591508082111561515f57600080fd5b5061516c8a828b01614a06565b92505061517b60c08901614de7565b905092959891949750929550565b60008060006060848603121561519e57600080fd5b83356001600160401b03808211156151b557600080fd5b6151c18783880161490f565b945060208601359150808211156151d757600080fd5b506151e48682870161490f565b92505060408401356151f581614488565b809150509250925092565b60006020808301818452808551808352604092508286019150828160051b87010184880160005b838110156147fd57603f19898403018552815160c08151855288820151818a870152615255828701826144c9565b838a01516001600160a01b0316878b0152606080850151888303828a0152919350915061528283826144c9565b6080858101519089015260a09485015194909701939093525050509386019390860190600101615227565b60006020808301818452808551808352604092508286019150828160051b87010184880160005b838110156147fd57603f19898403018552815160e081518552888201518986015287820151818987015261530a828701826144c9565b9150506060808301518683038288015261532483826144c9565b6080858101519089015260a0808601519089015260c0948501511515949097019390935250505093860193908601906001016152d4565b60006020808301818452808551808352604092508286019150828160051b87010184880160005b838110156147fd57888303603f19018552815180518452878101516001600160a01b039081168986015287820151168785015260608082015160c082870181905291906153d1838801826144c9565b92505050608080830151868303828801526153ec8382614516565b60a09485015115159790940196909652505094870194925090860190600101615382565b602081526000614e17602083018461480b565b8781526001600160a01b038716602082015260e06040820181905260009061544d908301886144c9565b828103606084015261545f81886144c9565b9050828103608084015261547381876144c9565b60a0840195909552505090151560c09091015295945050505050565b8681526000602060018060a01b038089168285015280881660408501525060c060608401526154c160c08401876144c9565b8381036080850152855180825282820190600581901b8301840184890160005b8381101561550f57601f198684030185526154fd8383516144c9565b948701949250908601906001016154e1565b505087151560a088015294506155259350505050565b979650505050505050565b634e487b7160e01b600052603260045260246000fd5b634e487b7160e01b600052601160045260246000fd5b600060001982141561557057615570615546565b5060010190565b600181811c9082168061558b57607f821691505b602082108114156155ac57634e487b7160e01b600052602260045260246000fd5b50919050565b6000828210156155c4576155c4615546565b500390565b600082198211156155dc576155dc615546565b50019056fea2646970667358221220c2ef4825badcf83e674cf02a55b59d488d2ea122cbe94318dc6e7e8c3e8dcd3064736f6c634300080b0033",
  "immutableReferences": {},
  "source": "// SPDX-License-Identifier: MIT\r\npragma solidity >=0.4.1 < 0.9.0;\r\n\r\n/**\r\n* @title Kazi Krypto\r\n* @notice The contract a freelancing platform on the Ethereum blockchain\r\n* @notice The platform aims to connect freelancers and clients, facilitating secure and\r\ntransparent transactions while leveraging the benefits of blockchain technology\r\n\r\n* @dev user Registration and profiles\r\n* @dev Job posting and bidding\r\n* @dev Smart contract escrow\r\n* @dev messaging and collaboration\r\n* @dev reputation and reviews\r\n* @dev payment and escrow release\r\n* @dev transaction history and analytics\r\n* @dev conflict resolution\r\n */\r\n \r\n\r\ncontract KaziKrypto {\r\n\r\n    address owner;\r\n    /**\r\n    * @dev allow smart contract to receive payments\r\n    */\r\n    \r\n    constructor() payable {\r\n        owner == msg.sender;  \r\n    }\r\n\r\n\r\n    /// @title Freelancer Profile\r\n    /// @dev Struct to store user profile\r\n    struct Freelancer {\r\n        address payable accountId;\r\n        string profileImage;\r\n        string fullName;\r\n        uint hourlyRate;\r\n        string profession;\r\n        string paymentPreference;\r\n        string[] skills;\r\n        uint profileRating;\r\n        bool isProfilePublic;\r\n    }\r\n\r\n    struct Disputes {\r\n        string disputeName;\r\n        string description;\r\n        address disputor;\r\n        address clientInvolved;\r\n        bool resolved;\r\n    }\r\n\r\n    Disputes[] disputes;\r\n\r\n    /// @title freelancer portfolio\r\n    /// @notice all portfolios mapped to the specific freelancer Id\r\n    struct FreelancerPortfolio {\r\n        address accountId;\r\n        string[] images; /// @dev optional\r\n        string[] videos; /// @dev optional\r\n        string taskUrl;\r\n        string description;\r\n    }\r\n\r\n    /// @title freelancer experience\r\n    /// @dev store freelancer experience\r\n    struct FreelancerExperience {\r\n        address accountId;\r\n        string fromDate;\r\n        string toDate;\r\n        string jobTitle;\r\n        string jobDescription;\r\n    }\r\n\r\n    /// @title Job posting and bidding\r\n    /// @dev struct to store job requirements\r\n    struct ClientJobs {\r\n        uint jobId;\r\n        address accountId;\r\n        string projectTitle;\r\n        string projectDescription;\r\n        string projectDuration;\r\n        uint projectBudget;\r\n        string[] skillRequirements;\r\n        string[] images; ///@dev optional\r\n        bool bidAvailable;\r\n    }\r\n\r\n    /// @title FreelancerBids;\r\n    /// @dev store each freelancerBid\r\n    /// @dev make a reference to the account Id of the freelancer\r\n    struct FreelancerBids {\r\n        uint jobId;\r\n        uint bidId;\r\n        address accountId;\r\n        string bidDescription;\r\n        uint budget;\r\n        string[] relevantFiles; /// @dev optional\r\n        bool bidApproved;\r\n    }\r\n\r\n    uint private clientBidId;\r\n\r\n    /// @title Milestones\r\n    /// @dev allow frelancer to bid in form of milestones\r\n    /// @dev optional\r\n\r\n    struct ProjectMilestones {\r\n        uint bidId;\r\n        uint mileStoneId;\r\n        string milestoneName;\r\n        string milestoneDescription;\r\n        uint milestoneBudget;\r\n        uint milestoneDuration;\r\n        bool milestoneWorkApproved;\r\n    }\r\n\r\n    uint private mileStoneId;\r\n\r\n    /// @title Chats\r\n    /// @dev chat from intended sender to intended receiver\r\n\r\n    struct Chats {\r\n        uint timestamp;\r\n        address sender;\r\n        address receiver;\r\n        string message;\r\n        string[] attachedFiles; /// @dev optional\r\n        bool seen;\r\n    }\r\n\r\n    /// @title client ratings\r\n    /// @dev single client Rating\r\n    /// @dev done by the freelancer\r\n\r\n    struct ClientRatings {\r\n        uint bidId;\r\n        string ProjectName; /// @dev optional\r\n        address accountId;\r\n        string feedback; /// @dev optional\r\n        uint ratingForTimelyPayments; /// @dev maximum 5\r\n        uint ratingForTimelyFeedbacks; /// @dev maximum 5\r\n    }\r\n\r\n    /// @title freelancerr Ratings\r\n    /// @dev single freelancer Rating\r\n\r\n    struct FreelancerRatings {\r\n        uint bidId;\r\n        string ProjectName; /// @dev optional;\r\n        address accountId; \r\n        string feedback; /// @dev optional;\r\n        uint ratingForCompletedProjects; /// @dev max 5;\r\n        uint ratingForCommunicationSkills; /// @dev max 5;\r\n    }\r\n\r\n    /// @title Transaction History\r\n    /// @dev store transaction history\r\n    struct Transaction {\r\n        address payable from;\r\n        address payable to;\r\n        string transactionPurpose;\r\n        uint transactionAmount;\r\n        uint timestamp;\r\n        string transactionStatus;\r\n    }\r\n\r\n    mapping(address => Transaction[]) transactions;\r\n\r\n    /// @dev freelancer detail storage\r\n    /// @dev store personal details\r\n    /// @dev store each freelancer portfolio\r\n    /// @dev store freelancer experience\r\n    /// @dev store freelancer ratings;\r\n    /// @dev everybody is a freelancer \r\n    /// @dev current project milestones\r\n    mapping(address => Freelancer) freelancers;\r\n    mapping(address => FreelancerPortfolio[]) freelancerPortfolios;\r\n    mapping(address => FreelancerExperience[]) freelancerExperiences;\r\n    mapping(address => FreelancerRatings[]) freelancerRatings;\r\n    mapping(address => ProjectMilestones[]) milestonesInAccount;\r\n\r\n    /// @dev client detail storage\r\n    /// @dev store Client Jobs\r\n    /// @dev not everybody is a client\r\n    uint internal clientJobId;\r\n    ClientJobs[] public allClientJobs;\r\n    mapping(uint => FreelancerBids[]) allBidsForClientJobs;\r\n\r\n    /// @dev acceptedBidDetail\r\n    /// @dev storage done here if the data stored above has been validated\r\n    mapping(uint => ProjectMilestones[]) projectMilestonesForAcceptedBids;\r\n\r\n\r\n    /// @dev Chat storage;\r\n    mapping(address => Chats[]) freelancerChats;\r\n\r\n    /**\r\n    * @param _fullName full names for freelancer\r\n    * @param _profession he inputs his profession\r\n    * @param _preferredPayment he fills his preferred payment\r\n    * @param _skill he fills in his skills\r\n    * @dev rating is automatically filled for the first time as 0\r\n    * @notice after logging in for the first time update details here\r\n     */\r\n\r\n    function addNewFreelancer(string memory _fullName,string memory _profileImage, uint _hourlyRate,string memory _profession, string memory _preferredPayment, string[] memory _skill, bool _isProfilePublic)public{\r\n        /// @dev validate inputs\r\n        // require(_fullName.length > 0, \"enter_name\");\r\n        // require(_profession.length > 0, \"enter_profession\");\r\n        // require(_preferredPayment.length > 0, \"enter_preferred_payment\");\r\n        // require(_skill.length > 0, \"enter_one_skill\");\r\n\r\n        /// @dev make the storage\r\n        freelancers[msg.sender] = Freelancer(payable(msg.sender),_profileImage, _fullName,_hourlyRate,  _profession, _preferredPayment, _skill, 0, _isProfilePublic); \r\n    }\r\n\r\n    /**\r\n     * @notice Allows freelancers to update their profile information\r\n     * @param _fullName Updated full names for freelancer\r\n     * @param _hourlyRate Updated hourly rate\r\n     * @param _profession Updated profession\r\n     * @param _preferredPayment Updated preferred payment\r\n     * @param _skills Updated skills\r\n     */\r\n    function editFreelancerProfile(string memory _fullName, uint _hourlyRate, string memory _profession, string memory _preferredPayment, string[] memory _skills) public {\r\n        Freelancer storage freelancer = freelancers[msg.sender];\r\n        freelancer.fullName = _fullName;\r\n        freelancer.hourlyRate = _hourlyRate;\r\n        freelancer.profession = _profession;\r\n        freelancer.paymentPreference = _preferredPayment;\r\n        freelancer.skills = _skills;\r\n    }\r\n\r\n    /**\r\n     * @notice Allows freelancers to set their profile visibility status\r\n     * @param _isProfilePublic Boolean indicating if the profile is public (true) or private (false)\r\n     */\r\n    function setProfileVisibility(bool _isProfilePublic) public {\r\n        freelancers[msg.sender].isProfilePublic = _isProfilePublic;\r\n    }\r\n\r\n    function getFreelancer(address _freelancerAddress) public view returns (Freelancer memory) {\r\n        return freelancers[_freelancerAddress];\r\n    }\r\n\r\n    /**\r\n    * @notice adds portfolio to an existing freelancer profile\r\n    * @param _images images involved\r\n    * @param _description description involved | optional\r\n    * @param _taskurl url to the task | optional\r\n    * @param _videos videos involved if any\r\n    * \r\n     */\r\n\r\n     function addPortfolio(string[] memory _images, string[] memory _videos, string memory _taskurl, string memory _description) public {\r\n        freelancerPortfolios[msg.sender].push(FreelancerPortfolio(msg.sender, _images, _videos, _taskurl, _description));\r\n     }\r\n\r\n\r\n    function getPortfolio(address _freelancerAddress, uint256 _index) public view returns (FreelancerPortfolio memory) {\r\n        return freelancerPortfolios[_freelancerAddress][_index];\r\n    }\r\n     /**\r\n     * @notice adds experiences to a freelancer account\r\n     * @param _fromDate date started\r\n     * @param _toDate date ended, // optional if still working\r\n     * @param _jobTitle role of the freelancer\r\n     * @param _jobDescription description of the job\r\n     */\r\n\r\n     function addFreelancerExperience(string memory _fromDate, string memory _toDate, string memory _jobTitle, string memory _jobDescription)public{\r\n        freelancerExperiences[msg.sender].push(FreelancerExperience(msg.sender, _fromDate, _toDate, _jobTitle, _jobDescription));\r\n     }\r\n\r\n    function getExperience(address _freelancerAddress, uint256 _index) public view returns (FreelancerExperience memory) {\r\n        return freelancerExperiences[_freelancerAddress][_index];\r\n    }\r\n\r\n\r\n    /**\r\n    * @dev anyone can do this\r\n    * @dev one has to fully pay for the task when posting to ensure integrity of the DAPP\r\n    * @param _projectTitle title of the task\r\n    * @param _projectDescription description of the project\r\n    * @param _projectDuration should be in range of dates\r\n    * @param _projectBudget should be more than 0\r\n    * @param _skillRequirements at least one\r\n    * @param _images if any*/\r\n     function postAClientJob(string memory _projectTitle, string memory _projectDescription, string memory _projectDuration, uint _projectBudget, string[] memory _skillRequirements, string[] memory _images) public payable {\r\n        address payable contractAddress = payable(address(this));\r\n        (bool sent, bytes memory data) = contractAddress.call{value: msg.value}(\"\");\r\n        clientJobId++;\r\n        allClientJobs.push(ClientJobs(clientJobId, msg.sender, _projectTitle, _projectDescription, _projectDuration, _projectBudget, _skillRequirements, _images, true));\r\n        transactions[msg.sender].push(Transaction(payable(msg.sender), contractAddress, \"Project posting\", msg.value, block.timestamp, \"on_escrow\"));\r\n     }\r\n\r\n    //  function getAllClientJobs() public view returns (ClientJobs[] memory){\r\n    //     return allClientJobs;\r\n    //  } \r\n\r\n\r\n    function getClientJob() public view returns (ClientJobs[] memory) {\r\n       \r\n        return allClientJobs;\r\n    }\r\n\r\n    /**\r\n    * @dev makeAbidding\r\n    * @dev only occurs on existing project id\r\n    * @param _jobid id for  the job description\r\n    * @param _bidDescription auto generated id for bid description\r\n    * @param _budget freelancer budget for bid description\r\n    * @param _relevantFiles if the freelancer needs to upload relevant files to justify his bidding */\r\n     function makeABidding(uint _jobid, string memory _bidDescription, uint _budget, string[] memory _relevantFiles) public {\r\n        uint internalBidCounter;\r\n        for(uint i = 0; i < allBidsForClientJobs[_jobid].length; i++){\r\n            if(allBidsForClientJobs[_jobid][i].accountId == msg.sender){\r\n                revert(\"allready_made_bid\");\r\n            }\r\n        }\r\n\r\n        for (uint i = 0; i < allClientJobs.length; i++) {\r\n            if(allClientJobs[i].jobId == _jobid){\r\n                clientBidId++;\r\n                internalBidCounter++;\r\n                allBidsForClientJobs[_jobid].push(FreelancerBids(_jobid, clientBidId, msg.sender, _bidDescription, _budget, _relevantFiles, false));\r\n            }\r\n        }\r\n\r\n        if(internalBidCounter < 1){\r\n            revert(\"bid_doesnt_exist\");\r\n        }\r\n     }\r\n\r\n    function getBid(uint256 _jobid, uint256 _bidId) public view returns (FreelancerBids memory) {\r\n        require(_bidId > 0 && _bidId <= clientBidId, \"Invalid bid ID\");\r\n        FreelancerBids[] memory bids = allBidsForClientJobs[_jobid];\r\n        for (uint256 i = 0; i < bids.length; i++) {\r\n            if (bids[i].bidId == _bidId) {\r\n                return bids[i];\r\n            }\r\n        }\r\n        revert(\"Bid not found\");\r\n    }\r\n\r\n    function getBids(uint256 _jobid) public view returns (FreelancerBids[] memory) {\r\n        return allBidsForClientJobs[_jobid];\r\n    }\r\n\r\n\r\n     function chat(address _receiver, string memory _message, string[] memory _attachedFiles) public {\r\n        freelancerChats[_receiver].push(Chats(block.timestamp, msg.sender, _receiver, _message, _attachedFiles, false));\r\n     }\r\n\r\n     function markAsRead(address _receiver)public{\r\n        for(uint i = 0; i < freelancerChats[_receiver].length; i++){\r\n            if(freelancerChats[_receiver][i].sender == msg.sender){\r\n                freelancerChats[_receiver][i].seen = true;\r\n            }\r\n        }\r\n     }\r\n\r\n    function getChat(address _receiver, uint _index) public view returns (\r\n        uint timestamp,\r\n        address sender,\r\n        address receiver,\r\n        string memory message,\r\n        string[] memory attachedFiles,\r\n        bool seen\r\n    ) {\r\n        Chats memory chat = freelancerChats[_receiver][_index];\r\n        return (\r\n            chat.timestamp,\r\n            chat.sender,\r\n            chat.receiver,\r\n            chat.message,\r\n            chat.attachedFiles,\r\n            chat.seen\r\n        );\r\n    }\r\n\r\n    function getChats(address _receiver) public view returns (Chats[] memory) {\r\n        return freelancerChats[_receiver];\r\n    }\r\n\r\n    function acceptBid(uint _jobId, uint _bidId) public {\r\n        for(uint i = 0; i < allBidsForClientJobs[_jobId].length; i++){\r\n            if(allBidsForClientJobs[_jobId][i].bidId  == _bidId){\r\n                if(allBidsForClientJobs[_jobId][i].bidApproved == true){\r\n                    revert(\"bid_allready_approved\");\r\n                }else{\r\n                    allBidsForClientJobs[_jobId][i].bidApproved = true;\r\n                }\r\n            }\r\n        }\r\n        for(uint i = 0; i < allClientJobs.length; i++){\r\n            if(allClientJobs[i].jobId == _jobId){\r\n\r\n                if(allClientJobs[i].bidAvailable == false){\r\n                    revert(\"bid not available\");\r\n                }else{\r\n                    allClientJobs[i].bidAvailable = false;\r\n                }\r\n            }\r\n        }\r\n    }\r\n\r\n    function addProjectMileStone(uint _jobId, uint _bidId, string memory _milestoneName, string memory _mileStoneDescription, uint _mileStoneBudget, uint _mileStoneDuration) public {\r\n        uint remaining_budget;\r\n        uint dataPosition;\r\n         for(uint i = 0; i < allBidsForClientJobs[_jobId].length; i++){\r\n           if(allBidsForClientJobs[_jobId][i].bidId == _bidId && allBidsForClientJobs[_jobId][i].bidApproved == true){\r\n            remaining_budget = allBidsForClientJobs[_jobId][i].budget;\r\n            dataPosition = i;\r\n           }\r\n        }\r\n\r\n\r\n\r\n        if(remaining_budget < _mileStoneBudget){\r\n            revert('budget_overpriced');\r\n        }else if(allBidsForClientJobs[_jobId][dataPosition].bidApproved == false){\r\n            revert('bid_not_approved');\r\n        }\r\n        else{\r\n            mileStoneId++;\r\n            allBidsForClientJobs[_jobId][dataPosition].budget -= _mileStoneBudget;\r\n            ///@dev will be used for freelancer rating purposes\r\n            milestonesInAccount[msg.sender].push(ProjectMilestones(_bidId,mileStoneId, _milestoneName, _mileStoneDescription, _mileStoneBudget, _mileStoneDuration, false));\r\n\r\n            ///@dev will be used for client project management\r\n            projectMilestonesForAcceptedBids[_bidId].push(ProjectMilestones(_bidId,mileStoneId, _milestoneName, _mileStoneDescription, _mileStoneBudget, _mileStoneDuration, false));\r\n        }\r\n    }\r\n\r\n    \r\n   \r\n\r\n    function approveProjectMilestone(address payable _freelancer, uint _mileStoneId)public {\r\n        uint bidId;\r\n        address jobOwner;\r\n        /// @dev making sure only the project owner can make the approval\r\n\r\n\r\n        for(uint i = 0; i < allClientJobs.length; i++){\r\n            if(allClientJobs[i].accountId == msg.sender){\r\n                jobOwner = msg.sender;\r\n            }\r\n        }\r\n\r\n        if(jobOwner != msg.sender){\r\n            revert(\"only_job_owner\");\r\n        }\r\n        \r\n\r\n        for(uint i = 0; i < milestonesInAccount[_freelancer].length; i++){\r\n            if(milestonesInAccount[_freelancer][i].mileStoneId == _mileStoneId && milestonesInAccount[_freelancer][i].milestoneWorkApproved == false && jobOwner == msg.sender) {\r\n                bidId = milestonesInAccount[_freelancer][i].bidId;\r\n                address payable contractAddress = payable(address(this));\r\n                milestonesInAccount[_freelancer][i].milestoneWorkApproved = true;\r\n                _freelancer.transfer(milestonesInAccount[_freelancer][i].milestoneBudget);\r\n                transactions[_freelancer].push(Transaction(contractAddress, _freelancer, \"Approval\",milestonesInAccount[_freelancer][i].milestoneBudget , block.timestamp, \"settled\"));\r\n            }\r\n        }\r\n\r\n\r\n\r\n        for(uint i = 0; i < projectMilestonesForAcceptedBids[bidId].length; i++){\r\n            if(projectMilestonesForAcceptedBids[bidId][i].mileStoneId == _mileStoneId){\r\n                projectMilestonesForAcceptedBids[bidId][i].milestoneWorkApproved = true;\r\n            }\r\n        } \r\n    }\r\n\r\n    /// @dev displays a freelancer milestone at profile Mode\r\n    function getFreelancerMileStones(address _accountId) public view returns(ProjectMilestones[] memory){\r\n        return milestonesInAccount[_accountId];\r\n    }\r\n\r\n    /// @dev displays freelancer milestone in Project mode\r\n    function getProjectMileStones(uint _bidId) public view returns (ProjectMilestones[] memory){\r\n        return projectMilestonesForAcceptedBids[_bidId];\r\n    }\r\n\r\n    /// @dev display freelancer transaction at profile Mode\r\n    function getFreelancerTransactions(address _accountId) public view returns(Transaction[] memory){\r\n        return transactions[_accountId];\r\n    }\r\n\r\n    /// @dev rate a freelancer\r\n    function rateAfreelancer(address _accountId, uint _bidId,string memory _projectName, string memory _feedBack, uint _ratingForCompletedProjects, uint _ratingForCommunicationSkills) public {\r\n        uint isRated = 0;\r\n        for(uint i = 0; i < freelancerRatings[_accountId].length; i++){\r\n            if(freelancerRatings[_accountId][i].bidId == _bidId){\r\n                isRated += 1;\r\n            }\r\n        }\r\n\r\n        if(isRated == 0){\r\n            freelancerRatings[_accountId].push(FreelancerRatings(_bidId, _projectName, _accountId, _feedBack, _ratingForCompletedProjects, _ratingForCommunicationSkills));\r\n        }else{\r\n            revert(\"allready rated\");\r\n        }\r\n    }\r\n    /// @dev view freelancer rating\r\n\r\n    function viewFreelancerRating(address _accountId) public view returns(FreelancerRatings[] memory){\r\n        return freelancerRatings[_accountId];\r\n    }\r\n\r\n    /// @dev disputes handling\r\n    function createDispute(string memory _disputeName, string memory _description, address _clientInvolved) public {\r\n        for(uint i = 0; i < disputes.length; i++){\r\n            if(disputes[i].disputor == msg.sender && disputes[i].resolved == false){\r\n                revert(\"solve_your_dispute_first\");\r\n            }\r\n        }\r\n        disputes.push(Disputes(_disputeName, _description, msg.sender, _clientInvolved, false));\r\n    }\r\n\r\n    modifier onlyOwner {\r\n        require(owner == msg.sender, \"only_owner\");\r\n        _;\r\n    }\r\n\r\n    function markDisputeAsResolved(address _disputor) public onlyOwner {\r\n        for(uint i = 0; i < disputes.length; i++){\r\n            if(disputes[i].disputor == _disputor && disputes[i].resolved == false){\r\n                disputes[i].resolved = true;\r\n            }\r\n        }\r\n    }\r\n\r\n\r\n    function getDispute(uint index) public view returns (Disputes memory) {\r\n        require(index < disputes.length, \"Invalid index\");\r\n        return disputes[index];\r\n    }\r\n\r\n    function getAllDisputes() public view returns (Disputes[] memory) {\r\n        return disputes;\r\n    }\r\n}",
  "sourcePath": "C:\\Users\\pc\\Desktop\\ethprojects\\kazikrypto\\contract\\contracts\\KaziKrypto.sol",
  "compiler": {
    "name": "solc",
    "version": "0.8.11+commit.d7f03943.Emscripten.clang"
  },
  "schemaVersion": "3.4.14",
  "updatedAt": "2023-08-01T11:21:35.276Z",
  "devdoc": {
    "details": "user Registration and profilesJob posting and biddingSmart contract escrowmessaging and collaborationreputation and reviewspayment and escrow releasetransaction history and analyticsconflict resolution",
    "kind": "dev",
    "methods": {
      "addFreelancerExperience(string,string,string,string)": {
        "params": {
          "_fromDate": "date started",
          "_jobDescription": "description of the job",
          "_jobTitle": "role of the freelancer",
          "_toDate": "date ended, // optional if still working"
        }
      },
      "addNewFreelancer(string,string,uint256,string,string,string[],bool)": {
        "details": "rating is automatically filled for the first time as 0",
        "params": {
          "_fullName": "full names for freelancer",
          "_preferredPayment": "he fills his preferred payment",
          "_profession": "he inputs his profession",
          "_skill": "he fills in his skills"
        }
      },
      "addPortfolio(string[],string[],string,string)": {
        "params": {
          "_description": "description involved | optional",
          "_images": "images involved",
          "_taskurl": "url to the task | optional",
          "_videos": "videos involved if any "
        }
      },
      "constructor": {
        "details": "allow smart contract to receive payments"
      },
      "createDispute(string,string,address)": {
        "details": "disputes handling"
      },
      "editFreelancerProfile(string,uint256,string,string,string[])": {
        "params": {
          "_fullName": "Updated full names for freelancer",
          "_hourlyRate": "Updated hourly rate",
          "_preferredPayment": "Updated preferred payment",
          "_profession": "Updated profession",
          "_skills": "Updated skills"
        }
      },
      "getFreelancerMileStones(address)": {
        "details": "displays a freelancer milestone at profile Mode"
      },
      "getFreelancerTransactions(address)": {
        "details": "display freelancer transaction at profile Mode"
      },
      "getProjectMileStones(uint256)": {
        "details": "displays freelancer milestone in Project mode"
      },
      "makeABidding(uint256,string,uint256,string[])": {
        "details": "makeAbiddingonly occurs on existing project id",
        "params": {
          "_bidDescription": "auto generated id for bid description",
          "_budget": "freelancer budget for bid description",
          "_jobid": "id for  the job description",
          "_relevantFiles": "if the freelancer needs to upload relevant files to justify his bidding "
        }
      },
      "postAClientJob(string,string,string,uint256,string[],string[])": {
        "details": "anyone can do thisone has to fully pay for the task when posting to ensure integrity of the DAPP",
        "params": {
          "_images": "if any",
          "_projectBudget": "should be more than 0",
          "_projectDescription": "description of the project",
          "_projectDuration": "should be in range of dates",
          "_projectTitle": "title of the task",
          "_skillRequirements": "at least one"
        }
      },
      "rateAfreelancer(address,uint256,string,string,uint256,uint256)": {
        "details": "rate a freelancer"
      },
      "setProfileVisibility(bool)": {
        "params": {
          "_isProfilePublic": "Boolean indicating if the profile is public (true) or private (false)"
        }
      },
      "viewFreelancerRating(address)": {
        "details": "view freelancer rating"
      }
    },
    "stateVariables": {
      "clientJobId": {
        "details": "client detail storagestore Client Jobsnot everybody is a client"
      },
      "freelancerChats": {
        "details": "Chat storage;"
      },
      "freelancers": {
        "details": "freelancer detail storagestore personal detailsstore each freelancer portfoliostore freelancer experiencestore freelancer ratings;everybody is a freelancer current project milestones"
      },
      "projectMilestonesForAcceptedBids": {
        "details": "acceptedBidDetailstorage done here if the data stored above has been validated"
      }
    },
    "title": "Kazi Krypto",
    "version": 1
  },
  "userdoc": {
    "kind": "user",
    "methods": {
      "addFreelancerExperience(string,string,string,string)": {
        "notice": "adds experiences to a freelancer account"
      },
      "addNewFreelancer(string,string,uint256,string,string,string[],bool)": {
        "notice": "after logging in for the first time update details here"
      },
      "addPortfolio(string[],string[],string,string)": {
        "notice": "adds portfolio to an existing freelancer profile"
      },
      "editFreelancerProfile(string,uint256,string,string,string[])": {
        "notice": "Allows freelancers to update their profile information"
      },
      "setProfileVisibility(bool)": {
        "notice": "Allows freelancers to set their profile visibility status"
      }
    },
    "notice": "The contract a freelancing platform on the Ethereum blockchainThe platform aims to connect freelancers and clients, facilitating secure and transparent transactions while leveraging the benefits of blockchain technology",
    "version": 1
  }
}