{
  "contractName": "KaziKrypto",
  "abi": [
    {
      "inputs": [],
      "stateMutability": "payable",
      "type": "constructor"
    },
    {
      "inputs": [
        {
          "internalType": "string",
          "name": "_fullName",
          "type": "string"
        },
        {
          "internalType": "string",
          "name": "_profileImage",
          "type": "string"
        },
        {
          "internalType": "uint256",
          "name": "_hourlyRate",
          "type": "uint256"
        },
        {
          "internalType": "string",
          "name": "_profession",
          "type": "string"
        },
        {
          "internalType": "string",
          "name": "_preferredPayment",
          "type": "string"
        },
        {
          "internalType": "string[]",
          "name": "_skill",
          "type": "string[]"
        },
        {
          "internalType": "bool",
          "name": "_isProfilePublic",
          "type": "bool"
        }
      ],
      "name": "addNewFreelancer",
      "outputs": [],
      "stateMutability": "nonpayable",
      "type": "function"
    },
    {
      "inputs": [
        {
          "internalType": "string",
          "name": "_fullName",
          "type": "string"
        },
        {
          "internalType": "uint256",
          "name": "_hourlyRate",
          "type": "uint256"
        },
        {
          "internalType": "string",
          "name": "_profession",
          "type": "string"
        },
        {
          "internalType": "string",
          "name": "_preferredPayment",
          "type": "string"
        },
        {
          "internalType": "string[]",
          "name": "_skills",
          "type": "string[]"
        }
      ],
      "name": "editFreelancerProfile",
      "outputs": [],
      "stateMutability": "nonpayable",
      "type": "function"
    },
    {
      "inputs": [
        {
          "internalType": "bool",
          "name": "_isProfilePublic",
          "type": "bool"
        }
      ],
      "name": "setProfileVisibility",
      "outputs": [],
      "stateMutability": "nonpayable",
      "type": "function"
    },
    {
      "inputs": [
        {
          "internalType": "address",
          "name": "_freelancerAddress",
          "type": "address"
        }
      ],
      "name": "getFreelancer",
      "outputs": [
        {
          "components": [
            {
              "internalType": "address payable",
              "name": "accountId",
              "type": "address"
            },
            {
              "internalType": "string",
              "name": "profileImage",
              "type": "string"
            },
            {
              "internalType": "string",
              "name": "fullName",
              "type": "string"
            },
            {
              "internalType": "uint256",
              "name": "hourlyRate",
              "type": "uint256"
            },
            {
              "internalType": "string",
              "name": "profession",
              "type": "string"
            },
            {
              "internalType": "string",
              "name": "paymentPreference",
              "type": "string"
            },
            {
              "internalType": "string[]",
              "name": "skills",
              "type": "string[]"
            },
            {
              "internalType": "uint256",
              "name": "profileRating",
              "type": "uint256"
            },
            {
              "internalType": "bool",
              "name": "isProfilePublic",
              "type": "bool"
            }
          ],
          "internalType": "struct KaziKrypto.Freelancer",
          "name": "",
          "type": "tuple"
        }
      ],
      "stateMutability": "view",
      "type": "function"
    },
    {
      "inputs": [
        {
          "internalType": "string[]",
          "name": "_images",
          "type": "string[]"
        },
        {
          "internalType": "string[]",
          "name": "_videos",
          "type": "string[]"
        },
        {
          "internalType": "string",
          "name": "_taskurl",
          "type": "string"
        },
        {
          "internalType": "string",
          "name": "_description",
          "type": "string"
        }
      ],
      "name": "addPortfolio",
      "outputs": [],
      "stateMutability": "nonpayable",
      "type": "function"
    },
    {
      "inputs": [
        {
          "internalType": "address",
          "name": "_freelancerAddress",
          "type": "address"
        },
        {
          "internalType": "uint256",
          "name": "_index",
          "type": "uint256"
        }
      ],
      "name": "getPortfolio",
      "outputs": [
        {
          "components": [
            {
              "internalType": "address",
              "name": "accountId",
              "type": "address"
            },
            {
              "internalType": "string[]",
              "name": "images",
              "type": "string[]"
            },
            {
              "internalType": "string[]",
              "name": "videos",
              "type": "string[]"
            },
            {
              "internalType": "string",
              "name": "taskUrl",
              "type": "string"
            },
            {
              "internalType": "string",
              "name": "description",
              "type": "string"
            }
          ],
          "internalType": "struct KaziKrypto.FreelancerPortfolio",
          "name": "",
          "type": "tuple"
        }
      ],
      "stateMutability": "view",
      "type": "function"
    },
    {
      "inputs": [
        {
          "internalType": "string",
          "name": "_fromDate",
          "type": "string"
        },
        {
          "internalType": "string",
          "name": "_toDate",
          "type": "string"
        },
        {
          "internalType": "string",
          "name": "_jobTitle",
          "type": "string"
        },
        {
          "internalType": "string",
          "name": "_jobDescription",
          "type": "string"
        }
      ],
      "name": "addFreelancerExperience",
      "outputs": [],
      "stateMutability": "nonpayable",
      "type": "function"
    },
    {
      "inputs": [
        {
          "internalType": "address",
          "name": "_freelancerAddress",
          "type": "address"
        },
        {
          "internalType": "uint256",
          "name": "_index",
          "type": "uint256"
        }
      ],
      "name": "getExperience",
      "outputs": [
        {
          "components": [
            {
              "internalType": "address",
              "name": "accountId",
              "type": "address"
            },
            {
              "internalType": "string",
              "name": "fromDate",
              "type": "string"
            },
            {
              "internalType": "string",
              "name": "toDate",
              "type": "string"
            },
            {
              "internalType": "string",
              "name": "jobTitle",
              "type": "string"
            },
            {
              "internalType": "string",
              "name": "jobDescription",
              "type": "string"
            }
          ],
          "internalType": "struct KaziKrypto.FreelancerExperience",
          "name": "",
          "type": "tuple"
        }
      ],
      "stateMutability": "view",
      "type": "function"
    },
    {
      "inputs": [
        {
          "internalType": "string",
          "name": "_projectTitle",
          "type": "string"
        },
        {
          "internalType": "string",
          "name": "_projectDescription",
          "type": "string"
        },
        {
          "internalType": "string",
          "name": "_projectDuration",
          "type": "string"
        },
        {
          "internalType": "uint256",
          "name": "_projectBudget",
          "type": "uint256"
        },
        {
          "internalType": "string[]",
          "name": "_skillRequirements",
          "type": "string[]"
        },
        {
          "internalType": "string[]",
          "name": "_images",
          "type": "string[]"
        }
      ],
      "name": "postAClientJob",
      "outputs": [],
      "stateMutability": "payable",
      "type": "function"
    },
    {
      "inputs": [
        {
          "internalType": "uint256",
          "name": "_jobId",
          "type": "uint256"
        }
      ],
      "name": "getClientJob",
      "outputs": [
        {
          "components": [
            {
              "internalType": "uint256",
              "name": "jobId",
              "type": "uint256"
            },
            {
              "internalType": "address",
              "name": "accountId",
              "type": "address"
            },
            {
              "internalType": "string",
              "name": "projectTitle",
              "type": "string"
            },
            {
              "internalType": "string",
              "name": "projectDescription",
              "type": "string"
            },
            {
              "internalType": "string",
              "name": "projectDuration",
              "type": "string"
            },
            {
              "internalType": "uint256",
              "name": "projectBudget",
              "type": "uint256"
            },
            {
              "internalType": "string[]",
              "name": "skillRequirements",
              "type": "string[]"
            },
            {
              "internalType": "string[]",
              "name": "images",
              "type": "string[]"
            },
            {
              "internalType": "bool",
              "name": "bidAvailable",
              "type": "bool"
            }
          ],
          "internalType": "struct KaziKrypto.ClientJobs",
          "name": "",
          "type": "tuple"
        }
      ],
      "stateMutability": "view",
      "type": "function"
    },
    {
      "inputs": [
        {
          "internalType": "uint256",
          "name": "_jobid",
          "type": "uint256"
        },
        {
          "internalType": "string",
          "name": "_bidDescription",
          "type": "string"
        },
        {
          "internalType": "uint256",
          "name": "_budget",
          "type": "uint256"
        },
        {
          "internalType": "string[]",
          "name": "_relevantFiles",
          "type": "string[]"
        }
      ],
      "name": "makeABidding",
      "outputs": [],
      "stateMutability": "nonpayable",
      "type": "function"
    },
    {
      "inputs": [
        {
          "internalType": "uint256",
          "name": "_jobid",
          "type": "uint256"
        },
        {
          "internalType": "uint256",
          "name": "_bidId",
          "type": "uint256"
        }
      ],
      "name": "getBid",
      "outputs": [
        {
          "components": [
            {
              "internalType": "uint256",
              "name": "jobId",
              "type": "uint256"
            },
            {
              "internalType": "uint256",
              "name": "bidId",
              "type": "uint256"
            },
            {
              "internalType": "address",
              "name": "accountId",
              "type": "address"
            },
            {
              "internalType": "string",
              "name": "bidDescription",
              "type": "string"
            },
            {
              "internalType": "uint256",
              "name": "budget",
              "type": "uint256"
            },
            {
              "internalType": "string[]",
              "name": "relevantFiles",
              "type": "string[]"
            },
            {
              "internalType": "bool",
              "name": "bidApproved",
              "type": "bool"
            }
          ],
          "internalType": "struct KaziKrypto.FreelancerBids",
          "name": "",
          "type": "tuple"
        }
      ],
      "stateMutability": "view",
      "type": "function"
    },
    {
      "inputs": [
        {
          "internalType": "uint256",
          "name": "_jobid",
          "type": "uint256"
        }
      ],
      "name": "getBids",
      "outputs": [
        {
          "components": [
            {
              "internalType": "uint256",
              "name": "jobId",
              "type": "uint256"
            },
            {
              "internalType": "uint256",
              "name": "bidId",
              "type": "uint256"
            },
            {
              "internalType": "address",
              "name": "accountId",
              "type": "address"
            },
            {
              "internalType": "string",
              "name": "bidDescription",
              "type": "string"
            },
            {
              "internalType": "uint256",
              "name": "budget",
              "type": "uint256"
            },
            {
              "internalType": "string[]",
              "name": "relevantFiles",
              "type": "string[]"
            },
            {
              "internalType": "bool",
              "name": "bidApproved",
              "type": "bool"
            }
          ],
          "internalType": "struct KaziKrypto.FreelancerBids[]",
          "name": "",
          "type": "tuple[]"
        }
      ],
      "stateMutability": "view",
      "type": "function"
    },
    {
      "inputs": [
        {
          "internalType": "address",
          "name": "_receiver",
          "type": "address"
        },
        {
          "internalType": "string",
          "name": "_message",
          "type": "string"
        },
        {
          "internalType": "string[]",
          "name": "_attachedFiles",
          "type": "string[]"
        }
      ],
      "name": "chat",
      "outputs": [],
      "stateMutability": "nonpayable",
      "type": "function"
    },
    {
      "inputs": [
        {
          "internalType": "address",
          "name": "_receiver",
          "type": "address"
        }
      ],
      "name": "markAsRead",
      "outputs": [],
      "stateMutability": "nonpayable",
      "type": "function"
    },
    {
      "inputs": [
        {
          "internalType": "address",
          "name": "_receiver",
          "type": "address"
        },
        {
          "internalType": "uint256",
          "name": "_index",
          "type": "uint256"
        }
      ],
      "name": "getChat",
      "outputs": [
        {
          "internalType": "uint256",
          "name": "timestamp",
          "type": "uint256"
        },
        {
          "internalType": "address",
          "name": "sender",
          "type": "address"
        },
        {
          "internalType": "address",
          "name": "receiver",
          "type": "address"
        },
        {
          "internalType": "string",
          "name": "message",
          "type": "string"
        },
        {
          "internalType": "string[]",
          "name": "attachedFiles",
          "type": "string[]"
        },
        {
          "internalType": "bool",
          "name": "seen",
          "type": "bool"
        }
      ],
      "stateMutability": "view",
      "type": "function"
    },
    {
      "inputs": [
        {
          "internalType": "address",
          "name": "_receiver",
          "type": "address"
        }
      ],
      "name": "getChats",
      "outputs": [
        {
          "components": [
            {
              "internalType": "uint256",
              "name": "timestamp",
              "type": "uint256"
            },
            {
              "internalType": "address",
              "name": "sender",
              "type": "address"
            },
            {
              "internalType": "address",
              "name": "receiver",
              "type": "address"
            },
            {
              "internalType": "string",
              "name": "message",
              "type": "string"
            },
            {
              "internalType": "string[]",
              "name": "attachedFiles",
              "type": "string[]"
            },
            {
              "internalType": "bool",
              "name": "seen",
              "type": "bool"
            }
          ],
          "internalType": "struct KaziKrypto.Chats[]",
          "name": "",
          "type": "tuple[]"
        }
      ],
      "stateMutability": "view",
      "type": "function"
    },
    {
      "inputs": [
        {
          "internalType": "uint256",
          "name": "_jobId",
          "type": "uint256"
        },
        {
          "internalType": "uint256",
          "name": "_bidId",
          "type": "uint256"
        }
      ],
      "name": "acceptBid",
      "outputs": [],
      "stateMutability": "nonpayable",
      "type": "function"
    },
    {
      "inputs": [
        {
          "internalType": "uint256",
          "name": "_jobId",
          "type": "uint256"
        },
        {
          "internalType": "uint256",
          "name": "_bidId",
          "type": "uint256"
        },
        {
          "internalType": "string",
          "name": "_milestoneName",
          "type": "string"
        },
        {
          "internalType": "string",
          "name": "_mileStoneDescription",
          "type": "string"
        },
        {
          "internalType": "uint256",
          "name": "_mileStoneBudget",
          "type": "uint256"
        },
        {
          "internalType": "uint256",
          "name": "_mileStoneDuration",
          "type": "uint256"
        }
      ],
      "name": "addProjectMileStone",
      "outputs": [],
      "stateMutability": "nonpayable",
      "type": "function"
    },
    {
      "inputs": [
        {
          "internalType": "address payable",
          "name": "_freelancer",
          "type": "address"
        },
        {
          "internalType": "uint256",
          "name": "_mileStoneId",
          "type": "uint256"
        }
      ],
      "name": "approveProjectMilestone",
      "outputs": [],
      "stateMutability": "nonpayable",
      "type": "function"
    },
    {
      "inputs": [
        {
          "internalType": "address",
          "name": "_accountId",
          "type": "address"
        }
      ],
      "name": "getFreelancerMileStones",
      "outputs": [
        {
          "components": [
            {
              "internalType": "uint256",
              "name": "bidId",
              "type": "uint256"
            },
            {
              "internalType": "uint256",
              "name": "mileStoneId",
              "type": "uint256"
            },
            {
              "internalType": "string",
              "name": "milestoneName",
              "type": "string"
            },
            {
              "internalType": "string",
              "name": "milestoneDescription",
              "type": "string"
            },
            {
              "internalType": "uint256",
              "name": "milestoneBudget",
              "type": "uint256"
            },
            {
              "internalType": "uint256",
              "name": "milestoneDuration",
              "type": "uint256"
            },
            {
              "internalType": "bool",
              "name": "milestoneWorkApproved",
              "type": "bool"
            }
          ],
          "internalType": "struct KaziKrypto.ProjectMilestones[]",
          "name": "",
          "type": "tuple[]"
        }
      ],
      "stateMutability": "view",
      "type": "function"
    },
    {
      "inputs": [
        {
          "internalType": "uint256",
          "name": "_bidId",
          "type": "uint256"
        }
      ],
      "name": "getProjectMileStones",
      "outputs": [
        {
          "components": [
            {
              "internalType": "uint256",
              "name": "bidId",
              "type": "uint256"
            },
            {
              "internalType": "uint256",
              "name": "mileStoneId",
              "type": "uint256"
            },
            {
              "internalType": "string",
              "name": "milestoneName",
              "type": "string"
            },
            {
              "internalType": "string",
              "name": "milestoneDescription",
              "type": "string"
            },
            {
              "internalType": "uint256",
              "name": "milestoneBudget",
              "type": "uint256"
            },
            {
              "internalType": "uint256",
              "name": "milestoneDuration",
              "type": "uint256"
            },
            {
              "internalType": "bool",
              "name": "milestoneWorkApproved",
              "type": "bool"
            }
          ],
          "internalType": "struct KaziKrypto.ProjectMilestones[]",
          "name": "",
          "type": "tuple[]"
        }
      ],
      "stateMutability": "view",
      "type": "function"
    },
    {
      "inputs": [
        {
          "internalType": "address",
          "name": "_accountId",
          "type": "address"
        }
      ],
      "name": "getFreelancerTransactions",
      "outputs": [
        {
          "components": [
            {
              "internalType": "address payable",
              "name": "from",
              "type": "address"
            },
            {
              "internalType": "address payable",
              "name": "to",
              "type": "address"
            },
            {
              "internalType": "string",
              "name": "transactionPurpose",
              "type": "string"
            },
            {
              "internalType": "uint256",
              "name": "transactionAmount",
              "type": "uint256"
            },
            {
              "internalType": "uint256",
              "name": "timestamp",
              "type": "uint256"
            },
            {
              "internalType": "string",
              "name": "transactionStatus",
              "type": "string"
            }
          ],
          "internalType": "struct KaziKrypto.Transaction[]",
          "name": "",
          "type": "tuple[]"
        }
      ],
      "stateMutability": "view",
      "type": "function"
    },
    {
      "inputs": [
        {
          "internalType": "address",
          "name": "_accountId",
          "type": "address"
        },
        {
          "internalType": "uint256",
          "name": "_bidId",
          "type": "uint256"
        },
        {
          "internalType": "string",
          "name": "_projectName",
          "type": "string"
        },
        {
          "internalType": "string",
          "name": "_feedBack",
          "type": "string"
        },
        {
          "internalType": "uint256",
          "name": "_ratingForCompletedProjects",
          "type": "uint256"
        },
        {
          "internalType": "uint256",
          "name": "_ratingForCommunicationSkills",
          "type": "uint256"
        }
      ],
      "name": "rateAfreelancer",
      "outputs": [],
      "stateMutability": "nonpayable",
      "type": "function"
    },
    {
      "inputs": [
        {
          "internalType": "address",
          "name": "_accountId",
          "type": "address"
        }
      ],
      "name": "viewFreelancerRating",
      "outputs": [
        {
          "components": [
            {
              "internalType": "uint256",
              "name": "bidId",
              "type": "uint256"
            },
            {
              "internalType": "string",
              "name": "ProjectName",
              "type": "string"
            },
            {
              "internalType": "address",
              "name": "accountId",
              "type": "address"
            },
            {
              "internalType": "string",
              "name": "feedback",
              "type": "string"
            },
            {
              "internalType": "uint256",
              "name": "ratingForCompletedProjects",
              "type": "uint256"
            },
            {
              "internalType": "uint256",
              "name": "ratingForCommunicationSkills",
              "type": "uint256"
            }
          ],
          "internalType": "struct KaziKrypto.FreelancerRatings[]",
          "name": "",
          "type": "tuple[]"
        }
      ],
      "stateMutability": "view",
      "type": "function"
    },
    {
      "inputs": [
        {
          "internalType": "string",
          "name": "_disputeName",
          "type": "string"
        },
        {
          "internalType": "string",
          "name": "_description",
          "type": "string"
        },
        {
          "internalType": "address",
          "name": "_clientInvolved",
          "type": "address"
        }
      ],
      "name": "createDispute",
      "outputs": [],
      "stateMutability": "nonpayable",
      "type": "function"
    },
    {
      "inputs": [
        {
          "internalType": "address",
          "name": "_disputor",
          "type": "address"
        }
      ],
      "name": "markDisputeAsResolved",
      "outputs": [],
      "stateMutability": "nonpayable",
      "type": "function"
    }
  ],
  "bytecode": "0x6080604052614e4a806100136000396000f3fe60806040526004361061019c5760003560e01c8063582c7ffd116100ec578063b0c77c561161008a578063d9c8367011610064578063d9c836701461051f578063eeb2ba2f1461053f578063f1bf53131461055f578063f99ca8b61461057f57600080fd5b8063b0c77c56146104a5578063ce1d4783146104d2578063d3999d79146104ff57600080fd5b8063876ec70b116100c6578063876ec70b14610418578063a713a04814610438578063a77e9b3514610458578063a91b95d91461047857600080fd5b8063582c7ffd1461039e5780635b050098146103cb57806364df6ab1146103eb57600080fd5b806335e684b4116101595780634104823e116101335780634104823e146102e657806343ca1737146103135780634455c8351461033357806349cbc79d1461037157600080fd5b806335e684b4146102795780633837cb2e146102995780634027b297146102b957600080fd5b806302e9d5e4146101a15780630e357a6e146101c3578063131d9a27146101f95780631f07b3991461022657806325dfc14014610246578063349ae58a14610259575b600080fd5b3480156101ad57600080fd5b506101c16101bc366004613dfc565b6105b1565b005b3480156101cf57600080fd5b506101e36101de366004613e33565b6107d7565b6040516101f09190613f04565b60405180910390f35b34801561020557600080fd5b50610219610214366004613f94565b610b43565b6040516101f09190614024565b34801561023257600080fd5b506101c161024136600461413b565b610d67565b6101c1610254366004614261565b61110b565b34801561026557600080fd5b506101c161027436600461433a565b611426565b34801561028557600080fd5b506101c16102943660046143af565b61150a565b3480156102a557600080fd5b506101c16102b4366004614465565b611583565b3480156102c557600080fd5b506102d96102d4366004613e33565b611722565b6040516101f091906144ac565b3480156102f257600080fd5b50610306610301366004613f94565b6118eb565b6040516101f091906144f8565b34801561031f57600080fd5b506101c161032e3660046145de565b611d8d565b34801561033f57600080fd5b506101c161034e36600461469f565b336000908152600560205260409020600801805460ff1916911515919091179055565b34801561037d57600080fd5b5061039161038c3660046146c1565b611e63565b6040516101f091906146de565b3480156103aa57600080fd5b506103be6103b9366004613dfc565b612028565b6040516101f0919061479d565b3480156103d757600080fd5b506101c16103e63660046147b0565b612377565b3480156103f757600080fd5b5061040b6104063660046146c1565b6125cb565b6040516101f0919061481a565b34801561042457600080fd5b506101c16104333660046148f5565b6129a4565b34801561044457600080fd5b506101c1610453366004614950565b612a42565b34801561046457600080fd5b506101c1610473366004614a3b565b612b74565b34801561048457600080fd5b506104986104933660046146c1565b612d48565b6040516101f09190614ab2565b3480156104b157600080fd5b506104c56104c0366004613f94565b612f0b565b6040516101f09190614b5f565b3480156104de57600080fd5b506104f26104ed3660046146c1565b6130d3565b6040516101f09190614c0d565b34801561050b57600080fd5b506101c161051a366004613e33565b6132ea565b34801561052b57600080fd5b506101c161053a3660046146c1565b6136b4565b34801561054b57600080fd5b506101c161055a3660046146c1565b61378e565b34801561056b57600080fd5b506104c561057a3660046146c1565b6138ab565b34801561058b57600080fd5b5061059f61059a366004613e33565b613a76565b6040516101f096959493929190614cc2565b60005b6000838152600c60205260409020548110156106e4576000838152600c602052604090208054839190839081106105ed576105ed614d63565b90600052602060002090600702016001015414156106d2576000838152600c6020526040902080548290811061062557610625614d63565b600091825260209091206006600790920201015460ff1615156001141561068b5760405162461bcd60e51b8152602060048201526015602482015274189a5917d85b1b1c9958591e57d85c1c1c9bdd9959605a1b60448201526064015b60405180910390fd5b6000838152600c60205260409020805460019190839081106106af576106af614d63565b60009182526020909120600790910201600601805460ff19169115159190911790555b806106dc81614d8f565b9150506105b4565b5060005b600b548110156107d25782600b828154811061070657610706614d63565b90600052602060002090600902016000015414156107c057600b818154811061073157610731614d63565b600091825260209091206008600990920201015460ff166107885760405162461bcd60e51b8152602060048201526011602482015270626964206e6f7420617661696c61626c6560781b6044820152606401610682565b6000600b828154811061079d5761079d614d63565b60009182526020909120600990910201600801805460ff19169115159190911790555b806107ca81614d8f565b9150506106e8565b505050565b6108126040518060a0016040528060006001600160a01b03168152602001606081526020016060815260200160608152602001606081525090565b6001600160a01b038316600090815260066020526040902080548390811061083c5761083c614d63565b600091825260208083206040805160a081018252600590940290910180546001600160a01b0316845260018101805483518186028101860190945280845294959194868501949192909184015b828210156109355783829060005260206000200180546108a890614daa565b80601f01602080910402602001604051908101604052809291908181526020018280546108d490614daa565b80156109215780601f106108f657610100808354040283529160200191610921565b820191906000526020600020905b81548152906001019060200180831161090457829003601f168201915b505050505081526020019060010190610889565b50505050815260200160028201805480602002602001604051908101604052809291908181526020016000905b82821015610a0e57838290600052602060002001805461098190614daa565b80601f01602080910402602001604051908101604052809291908181526020018280546109ad90614daa565b80156109fa5780601f106109cf576101008083540402835291602001916109fa565b820191906000526020600020905b8154815290600101906020018083116109dd57829003601f168201915b505050505081526020019060010190610962565b505050508152602001600382018054610a2690614daa565b80601f0160208091040260200160405190810160405280929190818152602001828054610a5290614daa565b8015610a9f5780601f10610a7457610100808354040283529160200191610a9f565b820191906000526020600020905b815481529060010190602001808311610a8257829003601f168201915b50505050508152602001600482018054610ab890614daa565b80601f0160208091040260200160405190810160405280929190818152602001828054610ae490614daa565b8015610b315780601f10610b0657610100808354040283529160200191610b31565b820191906000526020600020905b815481529060010190602001808311610b1457829003601f168201915b50505050508152505090505b92915050565b6060600c6000838152602001908152602001600020805480602002602001604051908101604052809291908181526020016000905b82821015610d5c5760008481526020908190206040805160e081018252600786029092018054835260018101549383019390935260028301546001600160a01b031690820152600382018054919291606084019190610bd690614daa565b80601f0160208091040260200160405190810160405280929190818152602001828054610c0290614daa565b8015610c4f5780601f10610c2457610100808354040283529160200191610c4f565b820191906000526020600020905b815481529060010190602001808311610c3257829003601f168201915b505050505081526020016004820154815260200160058201805480602002602001604051908101604052809291908181526020016000905b82821015610d33578382906000526020600020018054610ca690614daa565b80601f0160208091040260200160405190810160405280929190818152602001828054610cd290614daa565b8015610d1f5780601f10610cf457610100808354040283529160200191610d1f565b820191906000526020600020905b815481529060010190602001808311610d0257829003601f168201915b505050505081526020019060010190610c87565b505050908252506006919091015460ff1615156020918201529082526001929092019101610b78565b505050509050919050565b60008060005b6000898152600c6020526040902054811015610e4c576000898152600c60205260409020805489919083908110610da657610da6614d63565b906000526020600020906007020160010154148015610dfd57506000898152600c60205260409020805482908110610de057610de0614d63565b600091825260209091206006600790920201015460ff1615156001145b15610e3a576000898152600c60205260409020805482908110610e2257610e22614d63565b90600052602060002090600702016004015492508091505b80610e4481614d8f565b915050610d6d565b5083821015610e915760405162461bcd60e51b8152602060048201526011602482015270189d5919d95d17dbdd995c9c1c9a58d959607a1b6044820152606401610682565b6000888152600c60205260409020805482908110610eb157610eb1614d63565b600091825260209091206006600790920201015460ff16610f075760405162461bcd60e51b815260206004820152601060248201526f189a5917db9bdd17d85c1c1c9bdd995960821b6044820152606401610682565b60038054906000610f1783614d8f565b90915550506000888152600c60205260409020805485919083908110610f3f57610f3f614d63565b90600052602060002090600702016004016000828254610f5f9190614de5565b9091555050336000908152600960209081526040808320815160e0810183528b81526003548185019081529281018b8152606082018b9052608082018a905260a0820189905260c0820186905282546001818101855593875295859020825160079097020195865592519185019190915590518051919392610fe992600285019290910190613cb0565b5060608201518051611005916003840191602090910190613cb0565b50608082810151600483015560a080840151600584015560c0938401516006909301805460ff19169315159390931790925560008a8152600d60209081526040808320815160e0810183528e81526003548185019081529281018e8152606082018e90529581018c90529586018a9052958501839052855460018181018855968452928290208551600790940201928355519482019490945590518051929391926110b69260028501920190613cb0565b50606082015180516110d2916003840191602090910190613cb0565b506080820151600482015560a0820151600582015560c0909101516006909101805460ff19169115159190911790555050505050505050565b60405130906000908190839034908381818185875af1925050503d8060008114611151576040519150601f19603f3d011682016040523d82523d6000602084013e611156565b606091505b50600a8054929450909250600061116c83614d8f565b90915550506040805161012081018252600a5481523360208083019182529282018c8152606083018c9052608083018b905260a083018a905260c0830189905260e0830188905260016101008401819052600b80549182018155600052835160099091027f0175b7a638427703f0dbe7bb9bbf987a2551717b34e79f33b5b1008d1fa01db9810191825592517f0175b7a638427703f0dbe7bb9bbf987a2551717b34e79f33b5b1008d1fa01dba840180546001600160a01b03929092166001600160a01b03199092169190911790559051805193949193611274937f0175b7a638427703f0dbe7bb9bbf987a2551717b34e79f33b5b1008d1fa01dbb01929190910190613cb0565b5060608201518051611290916003840191602090910190613cb0565b50608082015180516112ac916004840191602090910190613cb0565b5060a0820151600582015560c082015180516112d2916006840191602090910190613d34565b5060e082015180516112ee916007840191602090910190613d34565b5061010091909101516008909101805491151560ff19909216919091179055336000818152600460209081526040808320815160c0810183529485526001600160a01b0388811686850190815283518085018552600f81526e50726f6a65637420706f7374696e6760881b81870152878501908152346060890152426080890152845180860190955260098552686f6e5f657363726f7760b81b8587015260a088019490945282546001818101855593875295859020875160069097020180549683166001600160a01b03199788161781559051928101805493909216929095169190911790555180516113e89260028501920190613cb0565b50606082015160038201556080820151600482015560a08201518051611418916005840191602090910190613cb0565b505050505050505050505050565b6001600160a01b038084166000818152600e60209081526040808320815160c08101835242815233818501908152928101958652606081018981526080820189905260a08201869052825460018181018555938752958590208251600690970201958655925191850180549288166001600160a01b031993841617905594516002850180549190971691161790945592518051929391926114cd9260038501920190613cb0565b50608082015180516114e9916004840191602090910190613d34565b5060a091909101516005909101805460ff1916911515919091179055505050565b33600090815260056020908152604090912086519091611531916002840191890190613cb0565b5060038101859055835161154e9060048301906020870190613cb0565b5082516115649060058301906020860190613cb0565b50815161157a9060068301906020850190613d34565b50505050505050565b6000805b6001600160a01b03881660009081526008602052604090205481101561160c576001600160a01b03881660009081526008602052604090208054889190839081106115d4576115d4614d63565b90600052602060002090600602016000015414156115fa576115f7600183614dfc565b91505b8061160481614d8f565b915050611587565b50806116e9576001600160a01b0387166000818152600860209081526040808320815160c0810183528b81528084018b815292810195909552606085018990526080850188905260a085018790528054600181810183559185529383902085516006909502019384559051805161168b93928501929190910190613cb0565b5060408201516002820180546001600160a01b0319166001600160a01b03909216919091179055606082015180516116cd916003840191602090910190613cb0565b506080820151816004015560a08201518160050155505061157a565b60405162461bcd60e51b815260206004820152600e60248201526d185b1b1c9958591e481c985d195960921b6044820152606401610682565b61175d6040518060a0016040528060006001600160a01b03168152602001606081526020016060815260200160608152602001606081525090565b6001600160a01b038316600090815260076020526040902080548390811061178757611787614d63565b60009182526020918290206040805160a0810190915260059092020180546001600160a01b0316825260018101805492939192918401916117c790614daa565b80601f01602080910402602001604051908101604052809291908181526020018280546117f390614daa565b80156118405780601f1061181557610100808354040283529160200191611840565b820191906000526020600020905b81548152906001019060200180831161182357829003601f168201915b5050505050815260200160028201805461185990614daa565b80601f016020809104026020016040519081016040528092919081815260200182805461188590614daa565b80156118d25780601f106118a7576101008083540402835291602001916118d2565b820191906000526020600020905b8154815290600101906020018083116118b557829003601f168201915b50505050508152602001600382018054610a2690614daa565b6119456040518061012001604052806000815260200160006001600160a01b031681526020016060815260200160608152602001606081526020016000815260200160608152602001606081526020016000151581525090565b6000821180156119575750600a548211155b6119945760405162461bcd60e51b815260206004820152600e60248201526d125b9d985b1a59081a9bd888125160921b6044820152606401610682565b600b6119a1600184614de5565b815481106119b1576119b1614d63565b906000526020600020906009020160405180610120016040529081600082015481526020016001820160009054906101000a90046001600160a01b03166001600160a01b03166001600160a01b03168152602001600282018054611a1490614daa565b80601f0160208091040260200160405190810160405280929190818152602001828054611a4090614daa565b8015611a8d5780601f10611a6257610100808354040283529160200191611a8d565b820191906000526020600020905b815481529060010190602001808311611a7057829003601f168201915b50505050508152602001600382018054611aa690614daa565b80601f0160208091040260200160405190810160405280929190818152602001828054611ad290614daa565b8015611b1f5780601f10611af457610100808354040283529160200191611b1f565b820191906000526020600020905b815481529060010190602001808311611b0257829003601f168201915b50505050508152602001600482018054611b3890614daa565b80601f0160208091040260200160405190810160405280929190818152602001828054611b6490614daa565b8015611bb15780601f10611b8657610100808354040283529160200191611bb1565b820191906000526020600020905b815481529060010190602001808311611b9457829003601f168201915b505050505081526020016005820154815260200160068201805480602002602001604051908101604052809291908181526020016000905b82821015611c95578382906000526020600020018054611c0890614daa565b80601f0160208091040260200160405190810160405280929190818152602001828054611c3490614daa565b8015611c815780601f10611c5657610100808354040283529160200191611c81565b820191906000526020600020905b815481529060010190602001808311611c6457829003601f168201915b505050505081526020019060010190611be9565b50505050815260200160078201805480602002602001604051908101604052809291908181526020016000905b82821015611d6e578382906000526020600020018054611ce190614daa565b80601f0160208091040260200160405190810160405280929190818152602001828054611d0d90614daa565b8015611d5a5780601f10611d2f57610100808354040283529160200191611d5a565b820191906000526020600020905b815481529060010190602001808311611d3d57829003601f168201915b505050505081526020019060010190611cc2565b505050908252506008919091015460ff16151560209091015292915050565b336000818152600660209081526040808320815160a081018352948552848301898152918501889052606085018790526080850186905280546001808201835591855293839020855160059095020180546001600160a01b0319166001600160a01b0390951694909417845590518051611e0f93928501929190910190613d34565b5060408201518051611e2b916002840191602090910190613d34565b5060608201518051611e47916003840191602090910190613cb0565b506080820151805161157a916004840191602090910190613cb0565b6001600160a01b0381166000908152600460209081526040808320805482518185028101850190935280835260609492939192909184015b82821015610d5c5760008481526020908190206040805160c0810182526006860290920180546001600160a01b0390811684526001820154169383019390935260028301805492939291840191611ef190614daa565b80601f0160208091040260200160405190810160405280929190818152602001828054611f1d90614daa565b8015611f6a5780601f10611f3f57610100808354040283529160200191611f6a565b820191906000526020600020905b815481529060010190602001808311611f4d57829003601f168201915b505050505081526020016003820154815260200160048201548152602001600582018054611f9790614daa565b80601f0160208091040260200160405190810160405280929190818152602001828054611fc390614daa565b80156120105780601f10611fe557610100808354040283529160200191612010565b820191906000526020600020905b815481529060010190602001808311611ff357829003601f168201915b50505050508152505081526020019060010190611e9b565b6120736040518060e00160405280600081526020016000815260200160006001600160a01b031681526020016060815260200160008152602001606081526020016000151581525090565b60008211801561208557506002548211155b6120c25760405162461bcd60e51b815260206004820152600e60248201526d125b9d985b1a5908189a5908125160921b6044820152606401610682565b6000838152600c6020908152604080832080548251818502810185019093528083529192909190849084015b828210156122d25760008481526020908190206040805160e081018252600786029092018054835260018101549383019390935260028301546001600160a01b03169082015260038201805491929160608401919061214c90614daa565b80601f016020809104026020016040519081016040528092919081815260200182805461217890614daa565b80156121c55780601f1061219a576101008083540402835291602001916121c5565b820191906000526020600020905b8154815290600101906020018083116121a857829003601f168201915b505050505081526020016004820154815260200160058201805480602002602001604051908101604052809291908181526020016000905b828210156122a957838290600052602060002001805461221c90614daa565b80601f016020809104026020016040519081016040528092919081815260200182805461224890614daa565b80156122955780601f1061226a57610100808354040283529160200191612295565b820191906000526020600020905b81548152906001019060200180831161227857829003601f168201915b5050505050815260200190600101906121fd565b505050908252506006919091015460ff16151560209182015290825260019290920191016120ee565b50505050905060005b815181101561233e57838282815181106122f7576122f7614d63565b602002602001015160200151141561232c5781818151811061231b5761231b614d63565b602002602001015192505050610b3d565b8061233681614d8f565b9150506122db565b5060405162461bcd60e51b815260206004820152600d60248201526c109a59081b9bdd08199bdd5b99609a1b6044820152606401610682565b6000805b6000868152600c6020526040902054811015612425576000868152600c602052604090208054339190839081106123b4576123b4614d63565b60009182526020909120600260079092020101546001600160a01b031614156124135760405162461bcd60e51b8152602060048201526011602482015270185b1b1c9958591e57db58591957d89a59607a1b6044820152606401610682565b8061241d81614d8f565b91505061237b565b5060005b600b5481101561257f5785600b828154811061244757612447614d63565b906000526020600020906009020160000154141561256d576002805490600061246f83614d8f565b9190505550818061247f90614d8f565b6000888152600c60209081526040808320815160e0810183528c81526002805482860190815233948301948552606083018e8152608084018e905260a084018d905260c08401889052845460018082018755958952978790208451600790990201978855905193870193909355925192850180546001600160a01b0319166001600160a01b0390941693909317909255518051949750909450919261252a9260038501920190613cb0565b506080820151600482015560a08201518051612550916005840191602090910190613d34565b5060c091909101516006909101805460ff19169115159190911790555b8061257781614d8f565b915050612429565b5060018110156125c45760405162461bcd60e51b815260206004820152601060248201526f189a5917d91bd95cdb9d17d95e1a5cdd60821b6044820152606401610682565b5050505050565b61262560405180610120016040528060006001600160a01b03168152602001606081526020016060815260200160008152602001606081526020016060815260200160608152602001600081526020016000151581525090565b6001600160a01b0380831660009081526005602090815260409182902082516101208101909352805490931682526001830180549293929184019161266990614daa565b80601f016020809104026020016040519081016040528092919081815260200182805461269590614daa565b80156126e25780601f106126b7576101008083540402835291602001916126e2565b820191906000526020600020905b8154815290600101906020018083116126c557829003601f168201915b505050505081526020016002820180546126fb90614daa565b80601f016020809104026020016040519081016040528092919081815260200182805461272790614daa565b80156127745780601f1061274957610100808354040283529160200191612774565b820191906000526020600020905b81548152906001019060200180831161275757829003601f168201915b505050505081526020016003820154815260200160048201805461279790614daa565b80601f01602080910402602001604051908101604052809291908181526020018280546127c390614daa565b80156128105780601f106127e557610100808354040283529160200191612810565b820191906000526020600020905b8154815290600101906020018083116127f357829003601f168201915b5050505050815260200160058201805461282990614daa565b80601f016020809104026020016040519081016040528092919081815260200182805461285590614daa565b80156128a25780601f10612877576101008083540402835291602001916128a2565b820191906000526020600020905b81548152906001019060200180831161288557829003601f168201915b5050505050815260200160068201805480602002602001604051908101604052809291908181526020016000905b8282101561297c5783829060005260206000200180546128ef90614daa565b80601f016020809104026020016040519081016040528092919081815260200182805461291b90614daa565b80156129685780601f1061293d57610100808354040283529160200191612968565b820191906000526020600020905b81548152906001019060200180831161294b57829003601f168201915b5050505050815260200190600101906128d0565b505050908252506007820154602082015260089091015460ff16151560409091015292915050565b336000818152600760209081526040808320815160a081018352948552848301898152918501889052606085018790526080850186905280546001808201835591855293839020855160059095020180546001600160a01b0319166001600160a01b0390951694909417845590518051612a2693928501929190910190613cb0565b5060408201518051611e2b916002840191602090910190613cb0565b60408051610120810182523380825260208083018a81528385018c9052606084018a90526080840189905260a0840188905260c08401879052600060e085018190528615156101008601529283526005825293909120825181546001600160a01b0319166001600160a01b0390911617815592518051929392612acb9260018501920190613cb0565b5060408201518051612ae7916002840191602090910190613cb0565b506060820151600382015560808201518051612b0d916004840191602090910190613cb0565b5060a08201518051612b29916005840191602090910190613cb0565b5060c08201518051612b45916006840191602090910190613d34565b5060e08201516007820155610100909101516008909101805460ff191691151591909117905550505050505050565b60005b600154811015612c5557336001600160a01b031660018281548110612b9e57612b9e614d63565b60009182526020909120600260049092020101546001600160a01b0316148015612bf6575060018181548110612bd657612bd6614d63565b6000918252602090912060049091020160030154600160a01b900460ff16155b15612c435760405162461bcd60e51b815260206004820152601860248201527f736f6c76655f796f75725f646973707574655f666972737400000000000000006044820152606401610682565b80612c4d81614d8f565b915050612b77565b506040805160a081018252848152602080820185905233928201929092526001600160a01b0383166060820152600060808201819052600180548082018255915281518051929360049092027fb10e2d527612073b26eecdfd717e6a320cf44b4afac2b0732d9fcbe2b7fa0cf60192612cd19284920190613cb0565b506020828101518051612cea9260018501920190613cb0565b5060408201516002820180546001600160a01b0319166001600160a01b03928316179055606083015160039092018054608090940151929091166001600160a81b031990931692909217600160a01b91151591909102179055505050565b6001600160a01b0381166000908152600860209081526040808320805482518185028101850190935280835260609492939192909184015b82821015610d5c57838290600052602060002090600602016040518060c001604052908160008201548152602001600182018054612dbd90614daa565b80601f0160208091040260200160405190810160405280929190818152602001828054612de990614daa565b8015612e365780601f10612e0b57610100808354040283529160200191612e36565b820191906000526020600020905b815481529060010190602001808311612e1957829003601f168201915b505050918352505060028201546001600160a01b03166020820152600382018054604090920191612e6690614daa565b80601f0160208091040260200160405190810160405280929190818152602001828054612e9290614daa565b8015612edf5780601f10612eb457610100808354040283529160200191612edf565b820191906000526020600020905b815481529060010190602001808311612ec257829003601f168201915b505050505081526020016004820154815260200160058201548152505081526020019060010190612d80565b6060600d6000838152602001908152602001600020805480602002602001604051908101604052809291908181526020016000905b82821015610d5c57838290600052602060002090600702016040518060e00160405290816000820154815260200160018201548152602001600282018054612f8790614daa565b80601f0160208091040260200160405190810160405280929190818152602001828054612fb390614daa565b80156130005780601f10612fd557610100808354040283529160200191613000565b820191906000526020600020905b815481529060010190602001808311612fe357829003601f168201915b5050505050815260200160038201805461301990614daa565b80601f016020809104026020016040519081016040528092919081815260200182805461304590614daa565b80156130925780601f1061306757610100808354040283529160200191613092565b820191906000526020600020905b81548152906001019060200180831161307557829003601f168201915b505050918352505060048201546020808301919091526005830154604083015260069092015460ff1615156060909101529082526001929092019101612f40565b6001600160a01b0381166000908152600e60209081526040808320805482518185028101850190935280835260609492939192909184015b82821015610d5c5760008481526020908190206040805160c081018252600686029092018054835260018101546001600160a01b039081169484019490945260028101549093169082015260038201805491929160608401919061316e90614daa565b80601f016020809104026020016040519081016040528092919081815260200182805461319a90614daa565b80156131e75780601f106131bc576101008083540402835291602001916131e7565b820191906000526020600020905b8154815290600101906020018083116131ca57829003601f168201915b5050505050815260200160048201805480602002602001604051908101604052809291908181526020016000905b828210156132c157838290600052602060002001805461323490614daa565b80601f016020809104026020016040519081016040528092919081815260200182805461326090614daa565b80156132ad5780601f10613282576101008083540402835291602001916132ad565b820191906000526020600020905b81548152906001019060200180831161329057829003601f168201915b505050505081526020019060010190613215565b505050908252506005919091015460ff161515602091820152908252600192909201910161310b565b6000805b6001600160a01b038416600090815260096020526040902054811015613600576001600160a01b038416600090815260096020526040902080548491908390811061333b5761333b614d63565b90600052602060002090600702016001015414801561339857506001600160a01b038416600090815260096020526040902080548290811061337f5761337f614d63565b600091825260209091206006600790920201015460ff16155b156135ee576001600160a01b03841660009081526009602052604090208054829081106133c7576133c7614d63565b90600052602060002090600702016000015491506000309050600160096000876001600160a01b03166001600160a01b03168152602001908152602001600020838154811061341857613418614d63565b60009182526020808320600792909202909101600601805460ff1916931515939093179092556001600160a01b03871680825260099092526040902080546108fc91908590811061346b5761346b614d63565b9060005260206000209060070201600401549081150290604051600060405180830381858888f193505050501580156134a8573d6000803e3d6000fd5b50306000908152600460209081526040808320815160c0810183526001600160a01b0386811682528a16818501819052835180850185526008815267105c1c1c9bdd985b60c21b818701528285015285526009909352922080546060830191908690811061351857613518614d63565b600091825260208083206007928302016004015484524284820152604080518082018252928352661cd95d1d1b195960ca1b838301529384019190915284546001808201875595835291819020845160069093020180546001600160a01b03199081166001600160a01b0394851617825585830151968201805490911696909316959095179091559082015180519293926135b99260028501920190613cb0565b50606082015160038201556080820151600482015560a082015180516135e9916005840191602090910190613cb0565b505050505b806135f881614d8f565b9150506132ee565b5060005b6000828152600d60205260409020548110156136ae576000828152600d6020526040902080548491908390811061363d5761363d614d63565b906000526020600020906007020160010154141561369c576000828152600d602052604090208054600191908390811061367957613679614d63565b60009182526020909120600790910201600601805460ff19169115159190911790555b806136a681614d8f565b915050613604565b50505050565b60005b6001600160a01b0382166000908152600e602052604090205481101561378a576001600160a01b0382166000908152600e6020526040902080543391908390811061370457613704614d63565b60009182526020909120600160069092020101546001600160a01b03161415613778576001600160a01b0382166000908152600e602052604090208054600191908390811061375557613755614d63565b60009182526020909120600690910201600501805460ff19169115159190911790555b8061378281614d8f565b9150506136b7565b5050565b6000546001600160a01b031633146137d55760405162461bcd60e51b815260206004820152600a60248201526937b7363cafb7bbb732b960b11b6044820152606401610682565b60005b60015481101561378a57816001600160a01b0316600182815481106137ff576137ff614d63565b60009182526020909120600260049092020101546001600160a01b031614801561385757506001818154811061383757613837614d63565b6000918252602090912060049091020160030154600160a01b900460ff16155b1561389957600180828154811061387057613870614d63565b906000526020600020906004020160030160146101000a81548160ff0219169083151502179055505b806138a381614d8f565b9150506137d8565b6001600160a01b0381166000908152600960209081526040808320805482518185028101850190935280835260609492939192909184015b82821015610d5c57838290600052602060002090600702016040518060e0016040529081600082015481526020016001820154815260200160028201805461392a90614daa565b80601f016020809104026020016040519081016040528092919081815260200182805461395690614daa565b80156139a35780601f10613978576101008083540402835291602001916139a3565b820191906000526020600020905b81548152906001019060200180831161398657829003601f168201915b505050505081526020016003820180546139bc90614daa565b80601f01602080910402602001604051908101604052809291908181526020018280546139e890614daa565b8015613a355780601f10613a0a57610100808354040283529160200191613a35565b820191906000526020600020905b815481529060010190602001808311613a1857829003601f168201915b505050918352505060048201546020808301919091526005830154604083015260069092015460ff16151560609091015290825260019290920191016138e3565b6000806000606080600080600e60008a6001600160a01b03166001600160a01b031681526020019081526020016000208881548110613ab757613ab7614d63565b60009182526020918290206040805160c08101825260069093029091018054835260018101546001600160a01b0390811694840194909452600281015490931690820152600382018054919291606084019190613b1390614daa565b80601f0160208091040260200160405190810160405280929190818152602001828054613b3f90614daa565b8015613b8c5780601f10613b6157610100808354040283529160200191613b8c565b820191906000526020600020905b815481529060010190602001808311613b6f57829003601f168201915b5050505050815260200160048201805480602002602001604051908101604052809291908181526020016000905b82821015613c66578382906000526020600020018054613bd990614daa565b80601f0160208091040260200160405190810160405280929190818152602001828054613c0590614daa565b8015613c525780601f10613c2757610100808354040283529160200191613c52565b820191906000526020600020905b815481529060010190602001808311613c3557829003601f168201915b505050505081526020019060010190613bba565b505050908252506005919091015460ff16151560209182015281519082015160408301516060840151608085015160a090950151939e929d50909b50995091975095509350505050565b828054613cbc90614daa565b90600052602060002090601f016020900481019282613cde5760008555613d24565b82601f10613cf757805160ff1916838001178555613d24565b82800160010185558215613d24579182015b82811115613d24578251825591602001919060010190613d09565b50613d30929150613d8d565b5090565b828054828255906000526020600020908101928215613d81579160200282015b82811115613d815782518051613d71918491602090910190613cb0565b5091602001919060010190613d54565b50613d30929150613da2565b5b80821115613d305760008155600101613d8e565b80821115613d30576000613db68282613dbf565b50600101613da2565b508054613dcb90614daa565b6000825580601f10613ddb575050565b601f016020900490600052602060002090810190613df99190613d8d565b50565b60008060408385031215613e0f57600080fd5b50508035926020909101359150565b6001600160a01b0381168114613df957600080fd5b60008060408385031215613e4657600080fd5b8235613e5181613e1e565b946020939093013593505050565b6000815180845260005b81811015613e8557602081850181015186830182015201613e69565b81811115613e97576000602083870101525b50601f01601f19169290920160200192915050565b600082825180855260208086019550808260051b84010181860160005b84811015613ef757601f19868403018952613ee5838351613e5f565b98840198925090830190600101613ec9565b5090979650505050505050565b602080825282516001600160a01b03168282015282015160a06040830152600090613f3260c0840182613eac565b90506040840151601f1980858403016060860152613f508383613eac565b92506060860151915080858403016080860152613f6d8383613e5f565b925060808601519150808584030160a086015250613f8b8282613e5f565b95945050505050565b600060208284031215613fa657600080fd5b5035919050565b805182526020810151602083015260018060a01b0360408201511660408301526000606082015160e06060850152613fe860e0850182613e5f565b90506080830151608085015260a083015184820360a086015261400b8282613eac565b91505060c0830151151560c08501528091505092915050565b6000602080830181845280855180835260408601915060408160051b870101925083870160005b8281101561407957603f19888603018452614067858351613fad565b9450928501929085019060010161404b565b5092979650505050505050565b634e487b7160e01b600052604160045260246000fd5b604051601f8201601f191681016001600160401b03811182821017156140c4576140c4614086565b604052919050565b600082601f8301126140dd57600080fd5b81356001600160401b038111156140f6576140f6614086565b614109601f8201601f191660200161409c565b81815284602083860101111561411e57600080fd5b816020850160208301376000918101602001919091529392505050565b60008060008060008060c0878903121561415457600080fd5b863595506020870135945060408701356001600160401b038082111561417957600080fd5b6141858a838b016140cc565b9550606089013591508082111561419b57600080fd5b506141a889828a016140cc565b9350506080870135915060a087013590509295509295509295565b600082601f8301126141d457600080fd5b813560206001600160401b03808311156141f0576141f0614086565b8260051b6141ff83820161409c565b938452858101830193838101908886111561421957600080fd5b84880192505b85831015614255578235848111156142375760008081fd5b6142458a87838c01016140cc565b835250918401919084019061421f565b98975050505050505050565b60008060008060008060c0878903121561427a57600080fd5b86356001600160401b038082111561429157600080fd5b61429d8a838b016140cc565b975060208901359150808211156142b357600080fd5b6142bf8a838b016140cc565b965060408901359150808211156142d557600080fd5b6142e18a838b016140cc565b95506060890135945060808901359150808211156142fe57600080fd5b61430a8a838b016141c3565b935060a089013591508082111561432057600080fd5b5061432d89828a016141c3565b9150509295509295509295565b60008060006060848603121561434f57600080fd5b833561435a81613e1e565b925060208401356001600160401b038082111561437657600080fd5b614382878388016140cc565b9350604086013591508082111561439857600080fd5b506143a5868287016141c3565b9150509250925092565b600080600080600060a086880312156143c757600080fd5b85356001600160401b03808211156143de57600080fd5b6143ea89838a016140cc565b965060208801359550604088013591508082111561440757600080fd5b61441389838a016140cc565b9450606088013591508082111561442957600080fd5b61443589838a016140cc565b9350608088013591508082111561444b57600080fd5b50614458888289016141c3565b9150509295509295909350565b60008060008060008060c0878903121561447e57600080fd5b863561448981613e1e565b95506020870135945060408701356001600160401b038082111561417957600080fd5b602080825282516001600160a01b03168282015282015160a060408301526000906144da60c0840182613e5f565b90506040840151601f1980858403016060860152613f508383613e5f565b60208152815160208201526000602083015161451f60408401826001600160a01b03169052565b50604083015161012080606085015261453c610140850183613e5f565b91506060850151601f198086850301608087015261455a8483613e5f565b935060808701519150808685030160a08701526145778483613e5f565b935060a087015160c087015260c08701519150808685030160e087015261459e8483613eac565b935060e087015191506101008187860301818801526145bd8584613eac565b945080880151925050506145d48286018215159052565b5090949350505050565b600080600080608085870312156145f457600080fd5b84356001600160401b038082111561460b57600080fd5b614617888389016141c3565b9550602087013591508082111561462d57600080fd5b614639888389016141c3565b9450604087013591508082111561464f57600080fd5b61465b888389016140cc565b9350606087013591508082111561467157600080fd5b5061467e878288016140cc565b91505092959194509250565b8035801515811461469a57600080fd5b919050565b6000602082840312156146b157600080fd5b6146ba8261468a565b9392505050565b6000602082840312156146d357600080fd5b81356146ba81613e1e565b60006020808301818452808551808352604092508286019150828160051b87010184880160005b8381101561478f57888303603f19018552815180516001600160a01b0390811685528882015116888501528681015160c08886018190529061474982870182613e5f565b606084810151908801526080808501519088015260a09384015187820394880194909452915061477b90508183613e5f565b968901969450505090860190600101614705565b509098975050505050505050565b6020815260006146ba6020830184613fad565b600080600080608085870312156147c657600080fd5b8435935060208501356001600160401b03808211156147e457600080fd5b6147f0888389016140cc565b945060408701359350606087013591508082111561480d57600080fd5b5061467e878288016141c3565b602081526148346020820183516001600160a01b03169052565b60006020830151610120806040850152614852610140850183613e5f565b91506040850151601f19808685030160608701526148708483613e5f565b93506060870151608087015260808701519150808685030160a08701526148978483613e5f565b935060a08701519150808685030160c08701526148b48483613e5f565b935060c08701519150808685030160e0870152506148d28382613eac565b60e0870151610100878101919091528701518015158488015290935090506145d4565b6000806000806080858703121561490b57600080fd5b84356001600160401b038082111561492257600080fd5b61492e888389016140cc565b9550602087013591508082111561494457600080fd5b614639888389016140cc565b600080600080600080600060e0888a03121561496b57600080fd5b87356001600160401b038082111561498257600080fd5b61498e8b838c016140cc565b985060208a01359150808211156149a457600080fd5b6149b08b838c016140cc565b975060408a0135965060608a01359150808211156149cd57600080fd5b6149d98b838c016140cc565b955060808a01359150808211156149ef57600080fd5b6149fb8b838c016140cc565b945060a08a0135915080821115614a1157600080fd5b50614a1e8a828b016141c3565b925050614a2d60c0890161468a565b905092959891949750929550565b600080600060608486031215614a5057600080fd5b83356001600160401b0380821115614a6757600080fd5b614a73878388016140cc565b94506020860135915080821115614a8957600080fd5b50614a96868287016140cc565b9250506040840135614aa781613e1e565b809150509250925092565b60006020808301818452808551808352604092508286019150828160051b87010184880160005b8381101561478f57603f19898403018552815160c08151855288820151818a870152614b0782870182613e5f565b838a01516001600160a01b0316878b0152606080850151888303828a01529193509150614b348382613e5f565b6080858101519089015260a09485015194909701939093525050509386019390860190600101614ad9565b60006020808301818452808551808352604092508286019150828160051b87010184880160005b8381101561478f57603f19898403018552815160e0815185528882015189860152878201518189870152614bbc82870182613e5f565b91505060608083015186830382880152614bd68382613e5f565b6080858101519089015260a0808601519089015260c094850151151594909701939093525050509386019390860190600101614b86565b60006020808301818452808551808352604092508286019150828160051b87010184880160005b8381101561478f57888303603f19018552815180518452878101516001600160a01b039081168986015287820151168785015260608082015160c08287018190529190614c8383880182613e5f565b9250505060808083015186830382880152614c9e8382613eac565b60a09485015115159790940196909652505094870194925090860190600101614c34565b8681526000602060018060a01b038089168285015280881660408501525060c06060840152614cf460c0840187613e5f565b8381036080850152855180825282820190600581901b8301840184890160005b83811015614d4257601f19868403018552614d30838351613e5f565b94870194925090860190600101614d14565b505087151560a08801529450614d589350505050565b979650505050505050565b634e487b7160e01b600052603260045260246000fd5b634e487b7160e01b600052601160045260246000fd5b6000600019821415614da357614da3614d79565b5060010190565b600181811c90821680614dbe57607f821691505b60208210811415614ddf57634e487b7160e01b600052602260045260246000fd5b50919050565b600082821015614df757614df7614d79565b500390565b60008219821115614e0f57614e0f614d79565b50019056fea2646970667358221220a04d62bc293166f6fb61c9def9a463b30ab7b4c1cb4c986a59990ba3ffff03c864736f6c634300080b0033",
  "immutableReferences": {},
  "source": "// SPDX-License-Identifier: MIT\r\npragma solidity >=0.4.1 < 0.9.0;\r\n\r\n/**\r\n* @title Kazi Krypto\r\n* @notice The contract a freelancing platform on the Ethereum blockchain\r\n* @notice The platform aims to connect freelancers and clients, facilitating secure and\r\ntransparent transactions while leveraging the benefits of blockchain technology\r\n\r\n* @dev user Registration and profiles\r\n* @dev Job posting and bidding\r\n* @dev Smart contract escrow\r\n* @dev messaging and collaboration\r\n* @dev reputation and reviews\r\n* @dev payment and escrow release\r\n* @dev transaction history and analytics\r\n* @dev conflict resolution\r\n */\r\n \r\n\r\ncontract KaziKrypto {\r\n\r\n    /**\r\n    * @dev allow smart contract to receive payments\r\n    */\r\n    address owner;\r\n    constructor() payable{\r\n        owner == msg.sender;\r\n    }\r\n\r\n\r\n    /// @title Freelancer Profile\r\n    /// @dev Struct to store user profile\r\n    struct Freelancer {\r\n        address payable accountId;\r\n        string profileImage;\r\n        string fullName;\r\n        uint hourlyRate;\r\n        string profession;\r\n        string paymentPreference;\r\n        string[] skills;\r\n        uint profileRating;\r\n        bool isProfilePublic;\r\n    }\r\n\r\n    struct Disputes {\r\n        string disputeName;\r\n        string description;\r\n        address disputor;\r\n        address clientInvolved;\r\n        bool resolved;\r\n    }\r\n\r\n    Disputes[] disputes;\r\n\r\n    /// @title freelancer portfolio\r\n    /// @notice all portfolios mapped to the specific freelancer Id\r\n    struct FreelancerPortfolio {\r\n        address accountId;\r\n        string[] images; /// @dev optional\r\n        string[] videos; /// @dev optional\r\n        string taskUrl;\r\n        string description;\r\n    }\r\n\r\n    /// @title freelancer experience\r\n    /// @dev store freelancer experience\r\n    struct FreelancerExperience {\r\n        address accountId;\r\n        string fromDate;\r\n        string toDate;\r\n        string jobTitle;\r\n        string jobDescription;\r\n    }\r\n\r\n    /// @title Job posting and bidding\r\n    /// @dev struct to store job requirements\r\n    struct ClientJobs {\r\n        uint jobId;\r\n        address accountId;\r\n        string projectTitle;\r\n        string projectDescription;\r\n        string projectDuration;\r\n        uint projectBudget;\r\n        string[] skillRequirements;\r\n        string[] images; ///@dev optional\r\n        bool bidAvailable;\r\n    }\r\n\r\n    /// @title FreelancerBids;\r\n    /// @dev store each freelancerBid\r\n    /// @dev make a reference to the account Id of the freelancer\r\n    struct FreelancerBids {\r\n        uint jobId;\r\n        uint bidId;\r\n        address accountId;\r\n        string bidDescription;\r\n        uint budget;\r\n        string[] relevantFiles; /// @dev optional\r\n        bool bidApproved;\r\n    }\r\n\r\n    uint private clientBidId;\r\n\r\n    /// @title Milestones\r\n    /// @dev allow frelancer to bid in form of milestones\r\n    /// @dev optional\r\n\r\n    struct ProjectMilestones {\r\n        uint bidId;\r\n        uint mileStoneId;\r\n        string milestoneName;\r\n        string milestoneDescription;\r\n        uint milestoneBudget;\r\n        uint milestoneDuration;\r\n        bool milestoneWorkApproved;\r\n    }\r\n\r\n    uint private mileStoneId;\r\n\r\n    /// @title Chats\r\n    /// @dev chat from intended sender to intended receiver\r\n\r\n    struct Chats {\r\n        uint timestamp;\r\n        address sender;\r\n        address receiver;\r\n        string message;\r\n        string[] attachedFiles; /// @dev optional\r\n        bool seen;\r\n    }\r\n\r\n    /// @title client ratings\r\n    /// @dev single client Rating\r\n    /// @dev done by the freelancer\r\n\r\n    struct ClientRatings {\r\n        uint bidId;\r\n        string ProjectName; /// @dev optional\r\n        address accountId;\r\n        string feedback; /// @dev optional\r\n        uint ratingForTimelyPayments; /// @dev maximum 5\r\n        uint ratingForTimelyFeedbacks; /// @dev maximum 5\r\n    }\r\n\r\n    /// @title freelancerr Ratings\r\n    /// @dev single freelancer Rating\r\n\r\n    struct FreelancerRatings {\r\n        uint bidId;\r\n        string ProjectName; /// @dev optional;\r\n        address accountId; \r\n        string feedback; /// @dev optional;\r\n        uint ratingForCompletedProjects; /// @dev max 5;\r\n        uint ratingForCommunicationSkills; /// @dev max 5;\r\n    }\r\n\r\n    /// @title Transaction History\r\n    /// @dev store transaction history\r\n    struct Transaction {\r\n        address payable from;\r\n        address payable to;\r\n        string transactionPurpose;\r\n        uint transactionAmount;\r\n        uint timestamp;\r\n        string transactionStatus;\r\n    }\r\n\r\n    mapping(address => Transaction[]) transactions;\r\n\r\n    /// @dev freelancer detail storage\r\n    /// @dev store personal details\r\n    /// @dev store each freelancer portfolio\r\n    /// @dev store freelancer experience\r\n    /// @dev store freelancer ratings;\r\n    /// @dev everybody is a freelancer \r\n    /// @dev current project milestones\r\n    mapping(address => Freelancer) freelancers;\r\n    mapping(address => FreelancerPortfolio[]) freelancerPortfolios;\r\n    mapping(address => FreelancerExperience[]) freelancerExperiences;\r\n    mapping(address => FreelancerRatings[]) freelancerRatings;\r\n    mapping(address => ProjectMilestones[]) milestonesInAccount;\r\n\r\n    /// @dev client detail storage\r\n    /// @dev store Client Jobs\r\n    /// @dev not everybody is a client\r\n    uint internal clientJobId;\r\n    ClientJobs[] allClientJobs;\r\n    mapping(uint => FreelancerBids[]) allBidsForClientJobs;\r\n\r\n    /// @dev acceptedBidDetail\r\n    /// @dev storage done here if the data stored above has been validated\r\n    mapping(uint => ProjectMilestones[]) projectMilestonesForAcceptedBids;\r\n\r\n\r\n    /// @dev Chat storage;\r\n    mapping(address => Chats[]) freelancerChats;\r\n\r\n    /**\r\n    * @param _fullName full names for freelancer\r\n    * @param _profession he inputs his profession\r\n    * @param _preferredPayment he fills his preferred payment\r\n    * @param _skill he fills in his skills\r\n    * @dev rating is automatically filled for the first time as 0\r\n    * @notice after logging in for the first time update details here\r\n     */\r\n\r\n    function addNewFreelancer(string memory _fullName,string memory _profileImage, uint _hourlyRate,string memory _profession, string memory _preferredPayment, string[] memory _skill, bool _isProfilePublic)public{\r\n        /// @dev validate inputs\r\n        // require(_fullName.length > 0, \"enter_name\");\r\n        // require(_profession.length > 0, \"enter_profession\");\r\n        // require(_preferredPayment.length > 0, \"enter_preferred_payment\");\r\n        // require(_skill.length > 0, \"enter_one_skill\");\r\n\r\n        /// @dev make the storage\r\n        freelancers[msg.sender] = Freelancer(payable(msg.sender),_profileImage, _fullName,_hourlyRate,  _profession, _preferredPayment, _skill, 0, _isProfilePublic); \r\n    }\r\n\r\n    /**\r\n     * @notice Allows freelancers to update their profile information\r\n     * @param _fullName Updated full names for freelancer\r\n     * @param _hourlyRate Updated hourly rate\r\n     * @param _profession Updated profession\r\n     * @param _preferredPayment Updated preferred payment\r\n     * @param _skills Updated skills\r\n     */\r\n    function editFreelancerProfile(string memory _fullName, uint _hourlyRate, string memory _profession, string memory _preferredPayment, string[] memory _skills) public {\r\n        Freelancer storage freelancer = freelancers[msg.sender];\r\n        freelancer.fullName = _fullName;\r\n        freelancer.hourlyRate = _hourlyRate;\r\n        freelancer.profession = _profession;\r\n        freelancer.paymentPreference = _preferredPayment;\r\n        freelancer.skills = _skills;\r\n    }\r\n\r\n    /**\r\n     * @notice Allows freelancers to set their profile visibility status\r\n     * @param _isProfilePublic Boolean indicating if the profile is public (true) or private (false)\r\n     */\r\n    function setProfileVisibility(bool _isProfilePublic) public {\r\n        freelancers[msg.sender].isProfilePublic = _isProfilePublic;\r\n    }\r\n\r\n    function getFreelancer(address _freelancerAddress) public view returns (Freelancer memory) {\r\n        return freelancers[_freelancerAddress];\r\n    }\r\n\r\n    /**\r\n    * @notice adds portfolio to an existing freelancer profile\r\n    * @param _images images involved\r\n    * @param _description description involved | optional\r\n    * @param _taskurl url to the task | optional\r\n    * @param _videos videos involved if any\r\n    * \r\n     */\r\n\r\n     function addPortfolio(string[] memory _images, string[] memory _videos, string memory _taskurl, string memory _description) public {\r\n        freelancerPortfolios[msg.sender].push(FreelancerPortfolio(msg.sender, _images, _videos, _taskurl, _description));\r\n     }\r\n\r\n\r\n    function getPortfolio(address _freelancerAddress, uint256 _index) public view returns (FreelancerPortfolio memory) {\r\n        return freelancerPortfolios[_freelancerAddress][_index];\r\n    }\r\n     /**\r\n     * @notice adds experiences to a freelancer account\r\n     * @param _fromDate date started\r\n     * @param _toDate date ended, // optional if still working\r\n     * @param _jobTitle role of the freelancer\r\n     * @param _jobDescription description of the job\r\n     */\r\n\r\n     function addFreelancerExperience(string memory _fromDate, string memory _toDate, string memory _jobTitle, string memory _jobDescription)public{\r\n        freelancerExperiences[msg.sender].push(FreelancerExperience(msg.sender, _fromDate, _toDate, _jobTitle, _jobDescription));\r\n     }\r\n\r\n    function getExperience(address _freelancerAddress, uint256 _index) public view returns (FreelancerExperience memory) {\r\n        return freelancerExperiences[_freelancerAddress][_index];\r\n    }\r\n\r\n\r\n    /**\r\n    * @dev anyone can do this\r\n    * @dev one has to fully pay for the task when posting to ensure integrity of the DAPP\r\n    * @param _projectTitle title of the task\r\n    * @param _projectDescription description of the project\r\n    * @param _projectDuration should be in range of dates\r\n    * @param _projectBudget should be more than 0\r\n    * @param _skillRequirements at least one\r\n    * @param _images if any*/\r\n     function postAClientJob(string memory _projectTitle, string memory _projectDescription, string memory _projectDuration, uint _projectBudget, string[] memory _skillRequirements, string[] memory _images) public payable {\r\n        address payable contractAddress = payable(address(this));\r\n        (bool sent, bytes memory data) = contractAddress.call{value: msg.value}(\"\");\r\n        clientJobId++;\r\n        allClientJobs.push(ClientJobs(clientJobId, msg.sender, _projectTitle, _projectDescription, _projectDuration, _projectBudget, _skillRequirements, _images, true));\r\n        transactions[msg.sender].push(Transaction(payable(msg.sender), contractAddress, \"Project posting\", msg.value, block.timestamp, \"on_escrow\"));\r\n     }\r\n\r\n\r\n    function getClientJob(uint256 _jobId) public view returns (ClientJobs memory) {\r\n        require(_jobId > 0 && _jobId <= clientJobId, \"Invalid job ID\");\r\n        return allClientJobs[_jobId - 1];\r\n    }\r\n\r\n    /**\r\n    * @dev makeAbidding\r\n    * @dev only occurs on existing project id\r\n    * @param _jobid id for  the job description\r\n    * @param _bidDescription auto generated id for bid description\r\n    * @param _budget freelancer budget for bid description\r\n    * @param _relevantFiles if the freelancer needs to upload relevant files to justify his bidding */\r\n     function makeABidding(uint _jobid, string memory _bidDescription, uint _budget, string[] memory _relevantFiles) public {\r\n        uint internalBidCounter;\r\n        for(uint i = 0; i < allBidsForClientJobs[_jobid].length; i++){\r\n            if(allBidsForClientJobs[_jobid][i].accountId == msg.sender){\r\n                revert(\"allready_made_bid\");\r\n            }\r\n        }\r\n\r\n        for (uint i = 0; i < allClientJobs.length; i++) {\r\n            if(allClientJobs[i].jobId == _jobid){\r\n                clientBidId++;\r\n                internalBidCounter++;\r\n                allBidsForClientJobs[_jobid].push(FreelancerBids(_jobid, clientBidId, msg.sender, _bidDescription, _budget, _relevantFiles, false));\r\n            }\r\n        }\r\n\r\n        if(internalBidCounter < 1){\r\n            revert(\"bid_doesnt_exist\");\r\n        }\r\n     }\r\n\r\n    function getBid(uint256 _jobid, uint256 _bidId) public view returns (FreelancerBids memory) {\r\n        require(_bidId > 0 && _bidId <= clientBidId, \"Invalid bid ID\");\r\n        FreelancerBids[] memory bids = allBidsForClientJobs[_jobid];\r\n        for (uint256 i = 0; i < bids.length; i++) {\r\n            if (bids[i].bidId == _bidId) {\r\n                return bids[i];\r\n            }\r\n        }\r\n        revert(\"Bid not found\");\r\n    }\r\n\r\n    function getBids(uint256 _jobid) public view returns (FreelancerBids[] memory) {\r\n        return allBidsForClientJobs[_jobid];\r\n    }\r\n\r\n\r\n     function chat(address _receiver, string memory _message, string[] memory _attachedFiles) public {\r\n        freelancerChats[_receiver].push(Chats(block.timestamp, msg.sender, _receiver, _message, _attachedFiles, false));\r\n     }\r\n\r\n     function markAsRead(address _receiver)public{\r\n        for(uint i = 0; i < freelancerChats[_receiver].length; i++){\r\n            if(freelancerChats[_receiver][i].sender == msg.sender){\r\n                freelancerChats[_receiver][i].seen = true;\r\n            }\r\n        }\r\n     }\r\n\r\n    function getChat(address _receiver, uint _index) public view returns (\r\n        uint timestamp,\r\n        address sender,\r\n        address receiver,\r\n        string memory message,\r\n        string[] memory attachedFiles,\r\n        bool seen\r\n    ) {\r\n        Chats memory chat = freelancerChats[_receiver][_index];\r\n        return (\r\n            chat.timestamp,\r\n            chat.sender,\r\n            chat.receiver,\r\n            chat.message,\r\n            chat.attachedFiles,\r\n            chat.seen\r\n        );\r\n    }\r\n\r\n    function getChats(address _receiver) public view returns (Chats[] memory) {\r\n        return freelancerChats[_receiver];\r\n    }\r\n\r\n    function acceptBid(uint _jobId, uint _bidId) public {\r\n        for(uint i = 0; i < allBidsForClientJobs[_jobId].length; i++){\r\n            if(allBidsForClientJobs[_jobId][i].bidId  == _bidId){\r\n                if(allBidsForClientJobs[_jobId][i].bidApproved == true){\r\n                    revert(\"bid_allready_approved\");\r\n                }else{\r\n                    allBidsForClientJobs[_jobId][i].bidApproved = true;\r\n                }\r\n            }\r\n        }\r\n        for(uint i = 0; i < allClientJobs.length; i++){\r\n            if(allClientJobs[i].jobId == _jobId){\r\n\r\n                if(allClientJobs[i].bidAvailable == false){\r\n                    revert(\"bid not available\");\r\n                }else{\r\n                    allClientJobs[i].bidAvailable = false;\r\n                }\r\n            }\r\n        }\r\n    }\r\n\r\n    function addProjectMileStone(uint _jobId, uint _bidId, string memory _milestoneName, string memory _mileStoneDescription, uint _mileStoneBudget, uint _mileStoneDuration) public {\r\n        uint remaining_budget;\r\n        uint dataPosition;\r\n         for(uint i = 0; i < allBidsForClientJobs[_jobId].length; i++){\r\n           if(allBidsForClientJobs[_jobId][i].bidId == _bidId && allBidsForClientJobs[_jobId][i].bidApproved == true){\r\n            remaining_budget = allBidsForClientJobs[_jobId][i].budget;\r\n            dataPosition = i;\r\n           }\r\n        }\r\n\r\n        if(remaining_budget < _mileStoneBudget){\r\n            revert('budget_overpriced');\r\n        }else if(allBidsForClientJobs[_jobId][dataPosition].bidApproved == false){\r\n            revert('bid_not_approved');\r\n        }\r\n        else{\r\n            mileStoneId++;\r\n            allBidsForClientJobs[_jobId][dataPosition].budget -= _mileStoneBudget;\r\n            ///@dev will be used for freelancer rating purposes\r\n            milestonesInAccount[msg.sender].push(ProjectMilestones(_bidId,mileStoneId, _milestoneName, _mileStoneDescription, _mileStoneBudget, _mileStoneDuration, false));\r\n\r\n            ///@dev will be used for client project management\r\n            projectMilestonesForAcceptedBids[_bidId].push(ProjectMilestones(_bidId,mileStoneId, _milestoneName, _mileStoneDescription, _mileStoneBudget, _mileStoneDuration, false));\r\n        }\r\n    }\r\n\r\n   \r\n\r\n    function approveProjectMilestone(address payable _freelancer, uint _mileStoneId)public {\r\n        uint bidId;\r\n        /// @dev making sure only the project owner can make the approval\r\n\r\n        for(uint i = 0; i < milestonesInAccount[_freelancer].length; i++){\r\n            if(milestonesInAccount[_freelancer][i].mileStoneId == _mileStoneId && milestonesInAccount[_freelancer][i].milestoneWorkApproved == false) {\r\n                bidId = milestonesInAccount[_freelancer][i].bidId;\r\n                address payable contractAddress = payable(address(this));\r\n                milestonesInAccount[_freelancer][i].milestoneWorkApproved = true;\r\n                _freelancer.transfer(milestonesInAccount[_freelancer][i].milestoneBudget);\r\n                transactions[address(this)].push(Transaction(contractAddress, _freelancer, \"Approval\",milestonesInAccount[_freelancer][i].milestoneBudget , block.timestamp, \"settled\"));\r\n            }\r\n        }\r\n\r\n        for(uint i = 0; i < projectMilestonesForAcceptedBids[bidId].length; i++){\r\n            if(projectMilestonesForAcceptedBids[bidId][i].mileStoneId == _mileStoneId){\r\n                projectMilestonesForAcceptedBids[bidId][i].milestoneWorkApproved = true;\r\n            }\r\n        } \r\n    }\r\n\r\n    /// @dev displays a freelancer milestone at profile Mode\r\n    function getFreelancerMileStones(address _accountId) public view returns(ProjectMilestones[] memory){\r\n        return milestonesInAccount[_accountId];\r\n    }\r\n\r\n    /// @dev displays freelancer milestone in Project mode\r\n    function getProjectMileStones(uint _bidId) public view returns (ProjectMilestones[] memory){\r\n        return projectMilestonesForAcceptedBids[_bidId];\r\n    }\r\n\r\n    /// @dev display freelancer transaction at profile Mode\r\n    function getFreelancerTransactions(address _accountId) public view returns(Transaction[] memory){\r\n        return transactions[_accountId];\r\n    }\r\n\r\n    /// @dev rate a freelancer\r\n    function rateAfreelancer(address _accountId, uint _bidId,string memory _projectName, string memory _feedBack, uint _ratingForCompletedProjects, uint _ratingForCommunicationSkills) public {\r\n        uint isRated = 0;\r\n        for(uint i = 0; i < freelancerRatings[_accountId].length; i++){\r\n            if(freelancerRatings[_accountId][i].bidId == _bidId){\r\n                isRated += 1;\r\n            }\r\n        }\r\n\r\n        if(isRated == 0){\r\n            freelancerRatings[_accountId].push(FreelancerRatings(_bidId, _projectName, _accountId, _feedBack, _ratingForCompletedProjects, _ratingForCommunicationSkills));\r\n        }else{\r\n            revert(\"allready rated\");\r\n        }\r\n    }\r\n    /// @dev view freelancer rating\r\n\r\n    function viewFreelancerRating(address _accountId) public view returns(FreelancerRatings[] memory){\r\n        return freelancerRatings[_accountId];\r\n    }\r\n\r\n    /// @dev disputes handling\r\n    function createDispute(string memory _disputeName, string memory _description, address _clientInvolved) public {\r\n        for(uint i = 0; i < disputes.length; i++){\r\n            if(disputes[i].disputor == msg.sender && disputes[i].resolved == false){\r\n                revert(\"solve_your_dispute_first\");\r\n            }\r\n        }\r\n        disputes.push(Disputes(_disputeName, _description, msg.sender, _clientInvolved, false));\r\n    }\r\n\r\n    modifier onlyOwner {\r\n        require(owner == msg.sender, \"only_owner\");\r\n        _;\r\n    }\r\n\r\n    function markDisputeAsResolved(address _disputor) public onlyOwner {\r\n        for(uint i = 0; i < disputes.length; i++){\r\n            if(disputes[i].disputor == _disputor && disputes[i].resolved == false){\r\n                disputes[i].resolved = true;\r\n            }\r\n        }\r\n    }\r\n}",
  "sourcePath": "C:\\Users\\Felabs\\Desktop\\kazikrypto\\contract\\contracts\\KaziKrypto.sol",
  "compiler": {
    "name": "solc",
    "version": "0.8.11+commit.d7f03943.Emscripten.clang"
  },
  "schemaVersion": "3.4.13",
  "updatedAt": "2023-07-29T11:46:51.114Z",
  "devdoc": {
    "details": "user Registration and profilesJob posting and biddingSmart contract escrowmessaging and collaborationreputation and reviewspayment and escrow releasetransaction history and analyticsconflict resolution",
    "kind": "dev",
    "methods": {
      "addFreelancerExperience(string,string,string,string)": {
        "params": {
          "_fromDate": "date started",
          "_jobDescription": "description of the job",
          "_jobTitle": "role of the freelancer",
          "_toDate": "date ended, // optional if still working"
        }
      },
      "addNewFreelancer(string,string,uint256,string,string,string[],bool)": {
        "details": "rating is automatically filled for the first time as 0",
        "params": {
          "_fullName": "full names for freelancer",
          "_preferredPayment": "he fills his preferred payment",
          "_profession": "he inputs his profession",
          "_skill": "he fills in his skills"
        }
      },
      "addPortfolio(string[],string[],string,string)": {
        "params": {
          "_description": "description involved | optional",
          "_images": "images involved",
          "_taskurl": "url to the task | optional",
          "_videos": "videos involved if any "
        }
      },
      "createDispute(string,string,address)": {
        "details": "disputes handling"
      },
      "editFreelancerProfile(string,uint256,string,string,string[])": {
        "params": {
          "_fullName": "Updated full names for freelancer",
          "_hourlyRate": "Updated hourly rate",
          "_preferredPayment": "Updated preferred payment",
          "_profession": "Updated profession",
          "_skills": "Updated skills"
        }
      },
      "getFreelancerMileStones(address)": {
        "details": "displays a freelancer milestone at profile Mode"
      },
      "getFreelancerTransactions(address)": {
        "details": "display freelancer transaction at profile Mode"
      },
      "getProjectMileStones(uint256)": {
        "details": "displays freelancer milestone in Project mode"
      },
      "makeABidding(uint256,string,uint256,string[])": {
        "details": "makeAbiddingonly occurs on existing project id",
        "params": {
          "_bidDescription": "auto generated id for bid description",
          "_budget": "freelancer budget for bid description",
          "_jobid": "id for  the job description",
          "_relevantFiles": "if the freelancer needs to upload relevant files to justify his bidding "
        }
      },
      "postAClientJob(string,string,string,uint256,string[],string[])": {
        "details": "anyone can do thisone has to fully pay for the task when posting to ensure integrity of the DAPP",
        "params": {
          "_images": "if any",
          "_projectBudget": "should be more than 0",
          "_projectDescription": "description of the project",
          "_projectDuration": "should be in range of dates",
          "_projectTitle": "title of the task",
          "_skillRequirements": "at least one"
        }
      },
      "rateAfreelancer(address,uint256,string,string,uint256,uint256)": {
        "details": "rate a freelancer"
      },
      "setProfileVisibility(bool)": {
        "params": {
          "_isProfilePublic": "Boolean indicating if the profile is public (true) or private (false)"
        }
      },
      "viewFreelancerRating(address)": {
        "details": "view freelancer rating"
      }
    },
    "stateVariables": {
      "clientJobId": {
        "details": "client detail storagestore Client Jobsnot everybody is a client"
      },
      "freelancerChats": {
        "details": "Chat storage;"
      },
      "freelancers": {
        "details": "freelancer detail storagestore personal detailsstore each freelancer portfoliostore freelancer experiencestore freelancer ratings;everybody is a freelancer current project milestones"
      },
      "owner": {
        "details": "allow smart contract to receive payments"
      },
      "projectMilestonesForAcceptedBids": {
        "details": "acceptedBidDetailstorage done here if the data stored above has been validated"
      }
    },
    "title": "Kazi Krypto",
    "version": 1
  },
  "userdoc": {
    "kind": "user",
    "methods": {
      "addFreelancerExperience(string,string,string,string)": {
        "notice": "adds experiences to a freelancer account"
      },
      "addNewFreelancer(string,string,uint256,string,string,string[],bool)": {
        "notice": "after logging in for the first time update details here"
      },
      "addPortfolio(string[],string[],string,string)": {
        "notice": "adds portfolio to an existing freelancer profile"
      },
      "editFreelancerProfile(string,uint256,string,string,string[])": {
        "notice": "Allows freelancers to update their profile information"
      },
      "setProfileVisibility(bool)": {
        "notice": "Allows freelancers to set their profile visibility status"
      }
    },
    "notice": "The contract a freelancing platform on the Ethereum blockchainThe platform aims to connect freelancers and clients, facilitating secure and transparent transactions while leveraging the benefits of blockchain technology",
    "version": 1
  }
}