{
  "contractName": "KaziKrypto",
  "abi": [
    {
      "inputs": [],
      "stateMutability": "payable",
      "type": "constructor",
      "payable": true
    },
    {
      "inputs": [
        {
          "internalType": "uint256",
          "name": "",
          "type": "uint256"
        }
      ],
      "name": "allClientJobs",
      "outputs": [
        {
          "internalType": "uint256",
          "name": "jobId",
          "type": "uint256"
        },
        {
          "internalType": "address",
          "name": "accountId",
          "type": "address"
        },
        {
          "internalType": "string",
          "name": "projectTitle",
          "type": "string"
        },
        {
          "internalType": "string",
          "name": "projectDescription",
          "type": "string"
        },
        {
          "internalType": "string",
          "name": "projectDuration",
          "type": "string"
        },
        {
          "internalType": "uint256",
          "name": "projectBudget",
          "type": "uint256"
        },
        {
          "internalType": "bool",
          "name": "bidAvailable",
          "type": "bool"
        }
      ],
      "stateMutability": "view",
      "type": "function",
      "constant": true
    },
    {
      "inputs": [
        {
          "internalType": "uint256",
          "name": "",
          "type": "uint256"
        }
      ],
      "name": "clientJobsById",
      "outputs": [
        {
          "internalType": "uint256",
          "name": "jobId",
          "type": "uint256"
        },
        {
          "internalType": "address",
          "name": "accountId",
          "type": "address"
        },
        {
          "internalType": "string",
          "name": "projectTitle",
          "type": "string"
        },
        {
          "internalType": "string",
          "name": "projectDescription",
          "type": "string"
        },
        {
          "internalType": "string",
          "name": "projectDuration",
          "type": "string"
        },
        {
          "internalType": "uint256",
          "name": "projectBudget",
          "type": "uint256"
        },
        {
          "internalType": "bool",
          "name": "bidAvailable",
          "type": "bool"
        }
      ],
      "stateMutability": "view",
      "type": "function",
      "constant": true
    },
    {
      "inputs": [
        {
          "internalType": "string",
          "name": "_fullName",
          "type": "string"
        },
        {
          "internalType": "string",
          "name": "_profileImage",
          "type": "string"
        },
        {
          "internalType": "uint256",
          "name": "_hourlyRate",
          "type": "uint256"
        },
        {
          "internalType": "string",
          "name": "_profession",
          "type": "string"
        },
        {
          "internalType": "string",
          "name": "_preferredPayment",
          "type": "string"
        },
        {
          "internalType": "string[]",
          "name": "_skill",
          "type": "string[]"
        },
        {
          "internalType": "bool",
          "name": "_isProfilePublic",
          "type": "bool"
        }
      ],
      "name": "addNewFreelancer",
      "outputs": [],
      "stateMutability": "nonpayable",
      "type": "function"
    },
    {
      "inputs": [
        {
          "internalType": "string",
          "name": "_fullName",
          "type": "string"
        },
        {
          "internalType": "uint256",
          "name": "_hourlyRate",
          "type": "uint256"
        },
        {
          "internalType": "string",
          "name": "_profession",
          "type": "string"
        },
        {
          "internalType": "string",
          "name": "_preferredPayment",
          "type": "string"
        },
        {
          "internalType": "string[]",
          "name": "_skills",
          "type": "string[]"
        }
      ],
      "name": "editFreelancerProfile",
      "outputs": [],
      "stateMutability": "nonpayable",
      "type": "function"
    },
    {
      "inputs": [
        {
          "internalType": "bool",
          "name": "_isProfilePublic",
          "type": "bool"
        }
      ],
      "name": "setProfileVisibility",
      "outputs": [],
      "stateMutability": "nonpayable",
      "type": "function"
    },
    {
      "inputs": [
        {
          "internalType": "address",
          "name": "_freelancerAddress",
          "type": "address"
        }
      ],
      "name": "getFreelancer",
      "outputs": [
        {
          "components": [
            {
              "internalType": "address payable",
              "name": "accountId",
              "type": "address"
            },
            {
              "internalType": "string",
              "name": "profileImage",
              "type": "string"
            },
            {
              "internalType": "string",
              "name": "fullName",
              "type": "string"
            },
            {
              "internalType": "uint256",
              "name": "hourlyRate",
              "type": "uint256"
            },
            {
              "internalType": "string",
              "name": "profession",
              "type": "string"
            },
            {
              "internalType": "string",
              "name": "paymentPreference",
              "type": "string"
            },
            {
              "internalType": "string[]",
              "name": "skills",
              "type": "string[]"
            },
            {
              "internalType": "uint256",
              "name": "profileRating",
              "type": "uint256"
            },
            {
              "internalType": "bool",
              "name": "isProfilePublic",
              "type": "bool"
            }
          ],
          "internalType": "struct KaziKrypto.Freelancer",
          "name": "",
          "type": "tuple"
        }
      ],
      "stateMutability": "view",
      "type": "function",
      "constant": true
    },
    {
      "inputs": [
        {
          "internalType": "string[]",
          "name": "_images",
          "type": "string[]"
        },
        {
          "internalType": "string[]",
          "name": "_videos",
          "type": "string[]"
        },
        {
          "internalType": "string",
          "name": "_taskurl",
          "type": "string"
        },
        {
          "internalType": "string",
          "name": "_description",
          "type": "string"
        }
      ],
      "name": "addPortfolio",
      "outputs": [],
      "stateMutability": "nonpayable",
      "type": "function"
    },
    {
      "inputs": [
        {
          "internalType": "address",
          "name": "_freelancerAddress",
          "type": "address"
        },
        {
          "internalType": "uint256",
          "name": "_index",
          "type": "uint256"
        }
      ],
      "name": "getPortfolio",
      "outputs": [
        {
          "components": [
            {
              "internalType": "address",
              "name": "accountId",
              "type": "address"
            },
            {
              "internalType": "string[]",
              "name": "images",
              "type": "string[]"
            },
            {
              "internalType": "string[]",
              "name": "videos",
              "type": "string[]"
            },
            {
              "internalType": "string",
              "name": "taskUrl",
              "type": "string"
            },
            {
              "internalType": "string",
              "name": "description",
              "type": "string"
            }
          ],
          "internalType": "struct KaziKrypto.FreelancerPortfolio",
          "name": "",
          "type": "tuple"
        }
      ],
      "stateMutability": "view",
      "type": "function",
      "constant": true
    },
    {
      "inputs": [
        {
          "internalType": "string",
          "name": "_fromDate",
          "type": "string"
        },
        {
          "internalType": "string",
          "name": "_toDate",
          "type": "string"
        },
        {
          "internalType": "string",
          "name": "_jobTitle",
          "type": "string"
        },
        {
          "internalType": "string",
          "name": "_jobDescription",
          "type": "string"
        }
      ],
      "name": "addFreelancerExperience",
      "outputs": [],
      "stateMutability": "nonpayable",
      "type": "function"
    },
    {
      "inputs": [
        {
          "internalType": "address",
          "name": "_freelancerAddress",
          "type": "address"
        },
        {
          "internalType": "uint256",
          "name": "_index",
          "type": "uint256"
        }
      ],
      "name": "getExperience",
      "outputs": [
        {
          "components": [
            {
              "internalType": "address",
              "name": "accountId",
              "type": "address"
            },
            {
              "internalType": "string",
              "name": "fromDate",
              "type": "string"
            },
            {
              "internalType": "string",
              "name": "toDate",
              "type": "string"
            },
            {
              "internalType": "string",
              "name": "jobTitle",
              "type": "string"
            },
            {
              "internalType": "string",
              "name": "jobDescription",
              "type": "string"
            }
          ],
          "internalType": "struct KaziKrypto.FreelancerExperience",
          "name": "",
          "type": "tuple"
        }
      ],
      "stateMutability": "view",
      "type": "function",
      "constant": true
    },
    {
      "inputs": [
        {
          "internalType": "string",
          "name": "_projectTitle",
          "type": "string"
        },
        {
          "internalType": "string",
          "name": "_projectDescription",
          "type": "string"
        },
        {
          "internalType": "string",
          "name": "_projectDuration",
          "type": "string"
        },
        {
          "internalType": "uint256",
          "name": "_projectBudget",
          "type": "uint256"
        },
        {
          "internalType": "string[]",
          "name": "_skillRequirements",
          "type": "string[]"
        },
        {
          "internalType": "string[]",
          "name": "_images",
          "type": "string[]"
        }
      ],
      "name": "postAClientJob",
      "outputs": [],
      "stateMutability": "payable",
      "type": "function",
      "payable": true
    },
    {
      "inputs": [],
      "name": "getClientJob",
      "outputs": [
        {
          "components": [
            {
              "internalType": "uint256",
              "name": "jobId",
              "type": "uint256"
            },
            {
              "internalType": "address",
              "name": "accountId",
              "type": "address"
            },
            {
              "internalType": "string",
              "name": "projectTitle",
              "type": "string"
            },
            {
              "internalType": "string",
              "name": "projectDescription",
              "type": "string"
            },
            {
              "internalType": "string",
              "name": "projectDuration",
              "type": "string"
            },
            {
              "internalType": "uint256",
              "name": "projectBudget",
              "type": "uint256"
            },
            {
              "internalType": "string[]",
              "name": "skillRequirements",
              "type": "string[]"
            },
            {
              "internalType": "string[]",
              "name": "images",
              "type": "string[]"
            },
            {
              "internalType": "bool",
              "name": "bidAvailable",
              "type": "bool"
            }
          ],
          "internalType": "struct KaziKrypto.ClientJobs[]",
          "name": "",
          "type": "tuple[]"
        }
      ],
      "stateMutability": "view",
      "type": "function",
      "constant": true
    },
    {
      "inputs": [
        {
          "internalType": "uint256",
          "name": "jobId",
          "type": "uint256"
        }
      ],
      "name": "getClientJobById",
      "outputs": [
        {
          "components": [
            {
              "internalType": "uint256",
              "name": "jobId",
              "type": "uint256"
            },
            {
              "internalType": "address",
              "name": "accountId",
              "type": "address"
            },
            {
              "internalType": "string",
              "name": "projectTitle",
              "type": "string"
            },
            {
              "internalType": "string",
              "name": "projectDescription",
              "type": "string"
            },
            {
              "internalType": "string",
              "name": "projectDuration",
              "type": "string"
            },
            {
              "internalType": "uint256",
              "name": "projectBudget",
              "type": "uint256"
            },
            {
              "internalType": "string[]",
              "name": "skillRequirements",
              "type": "string[]"
            },
            {
              "internalType": "string[]",
              "name": "images",
              "type": "string[]"
            },
            {
              "internalType": "bool",
              "name": "bidAvailable",
              "type": "bool"
            }
          ],
          "internalType": "struct KaziKrypto.ClientJobs",
          "name": "",
          "type": "tuple"
        }
      ],
      "stateMutability": "view",
      "type": "function",
      "constant": true
    },
    {
      "inputs": [
        {
          "internalType": "uint256",
          "name": "_jobid",
          "type": "uint256"
        },
        {
          "internalType": "string",
          "name": "_bidDescription",
          "type": "string"
        },
        {
          "internalType": "uint256",
          "name": "_budget",
          "type": "uint256"
        },
        {
          "internalType": "string[]",
          "name": "_relevantFiles",
          "type": "string[]"
        }
      ],
      "name": "makeABidding",
      "outputs": [],
      "stateMutability": "nonpayable",
      "type": "function"
    },
    {
      "inputs": [
        {
          "internalType": "uint256",
          "name": "_jobid",
          "type": "uint256"
        },
        {
          "internalType": "uint256",
          "name": "_bidId",
          "type": "uint256"
        }
      ],
      "name": "getBid",
      "outputs": [
        {
          "components": [
            {
              "internalType": "uint256",
              "name": "jobId",
              "type": "uint256"
            },
            {
              "internalType": "uint256",
              "name": "bidId",
              "type": "uint256"
            },
            {
              "internalType": "address",
              "name": "accountId",
              "type": "address"
            },
            {
              "internalType": "string",
              "name": "bidDescription",
              "type": "string"
            },
            {
              "internalType": "uint256",
              "name": "budget",
              "type": "uint256"
            },
            {
              "internalType": "string[]",
              "name": "relevantFiles",
              "type": "string[]"
            },
            {
              "internalType": "bool",
              "name": "bidApproved",
              "type": "bool"
            }
          ],
          "internalType": "struct KaziKrypto.FreelancerBids",
          "name": "",
          "type": "tuple"
        }
      ],
      "stateMutability": "view",
      "type": "function",
      "constant": true
    },
    {
      "inputs": [
        {
          "internalType": "uint256",
          "name": "_jobid",
          "type": "uint256"
        }
      ],
      "name": "getBids",
      "outputs": [
        {
          "components": [
            {
              "internalType": "uint256",
              "name": "jobId",
              "type": "uint256"
            },
            {
              "internalType": "uint256",
              "name": "bidId",
              "type": "uint256"
            },
            {
              "internalType": "address",
              "name": "accountId",
              "type": "address"
            },
            {
              "internalType": "string",
              "name": "bidDescription",
              "type": "string"
            },
            {
              "internalType": "uint256",
              "name": "budget",
              "type": "uint256"
            },
            {
              "internalType": "string[]",
              "name": "relevantFiles",
              "type": "string[]"
            },
            {
              "internalType": "bool",
              "name": "bidApproved",
              "type": "bool"
            }
          ],
          "internalType": "struct KaziKrypto.FreelancerBids[]",
          "name": "",
          "type": "tuple[]"
        }
      ],
      "stateMutability": "view",
      "type": "function",
      "constant": true
    },
    {
      "inputs": [
        {
          "internalType": "address",
          "name": "_receiver",
          "type": "address"
        },
        {
          "internalType": "string",
          "name": "_message",
          "type": "string"
        },
        {
          "internalType": "string[]",
          "name": "_attachedFiles",
          "type": "string[]"
        }
      ],
      "name": "chat",
      "outputs": [],
      "stateMutability": "nonpayable",
      "type": "function"
    },
    {
      "inputs": [
        {
          "internalType": "address",
          "name": "_receiver",
          "type": "address"
        }
      ],
      "name": "markAsRead",
      "outputs": [],
      "stateMutability": "nonpayable",
      "type": "function"
    },
    {
      "inputs": [
        {
          "internalType": "address",
          "name": "_receiver",
          "type": "address"
        },
        {
          "internalType": "uint256",
          "name": "_index",
          "type": "uint256"
        }
      ],
      "name": "getChat",
      "outputs": [
        {
          "internalType": "uint256",
          "name": "timestamp",
          "type": "uint256"
        },
        {
          "internalType": "address",
          "name": "sender",
          "type": "address"
        },
        {
          "internalType": "address",
          "name": "receiver",
          "type": "address"
        },
        {
          "internalType": "string",
          "name": "message",
          "type": "string"
        },
        {
          "internalType": "string[]",
          "name": "attachedFiles",
          "type": "string[]"
        },
        {
          "internalType": "bool",
          "name": "seen",
          "type": "bool"
        }
      ],
      "stateMutability": "view",
      "type": "function",
      "constant": true
    },
    {
      "inputs": [
        {
          "internalType": "address",
          "name": "_receiver",
          "type": "address"
        }
      ],
      "name": "getChats",
      "outputs": [
        {
          "components": [
            {
              "internalType": "uint256",
              "name": "timestamp",
              "type": "uint256"
            },
            {
              "internalType": "address",
              "name": "sender",
              "type": "address"
            },
            {
              "internalType": "address",
              "name": "receiver",
              "type": "address"
            },
            {
              "internalType": "string",
              "name": "message",
              "type": "string"
            },
            {
              "internalType": "string[]",
              "name": "attachedFiles",
              "type": "string[]"
            },
            {
              "internalType": "bool",
              "name": "seen",
              "type": "bool"
            }
          ],
          "internalType": "struct KaziKrypto.Chats[]",
          "name": "",
          "type": "tuple[]"
        }
      ],
      "stateMutability": "view",
      "type": "function",
      "constant": true
    },
    {
      "inputs": [
        {
          "internalType": "uint256",
          "name": "_jobId",
          "type": "uint256"
        },
        {
          "internalType": "uint256",
          "name": "_bidId",
          "type": "uint256"
        }
      ],
      "name": "acceptBid",
      "outputs": [],
      "stateMutability": "nonpayable",
      "type": "function"
    },
    {
      "inputs": [
        {
          "internalType": "uint256",
          "name": "_jobId",
          "type": "uint256"
        },
        {
          "internalType": "uint256",
          "name": "_bidId",
          "type": "uint256"
        },
        {
          "internalType": "string",
          "name": "_milestoneName",
          "type": "string"
        },
        {
          "internalType": "string",
          "name": "_mileStoneDescription",
          "type": "string"
        },
        {
          "internalType": "uint256",
          "name": "_mileStoneBudget",
          "type": "uint256"
        },
        {
          "internalType": "uint256",
          "name": "_mileStoneDuration",
          "type": "uint256"
        }
      ],
      "name": "addProjectMileStone",
      "outputs": [],
      "stateMutability": "nonpayable",
      "type": "function"
    },
    {
      "inputs": [
        {
          "internalType": "address payable",
          "name": "_freelancer",
          "type": "address"
        },
        {
          "internalType": "uint256",
          "name": "_mileStoneId",
          "type": "uint256"
        }
      ],
      "name": "approveProjectMilestone",
      "outputs": [],
      "stateMutability": "nonpayable",
      "type": "function"
    },
    {
      "inputs": [
        {
          "internalType": "address",
          "name": "_accountId",
          "type": "address"
        }
      ],
      "name": "getFreelancerMileStones",
      "outputs": [
        {
          "components": [
            {
              "internalType": "uint256",
              "name": "bidId",
              "type": "uint256"
            },
            {
              "internalType": "uint256",
              "name": "mileStoneId",
              "type": "uint256"
            },
            {
              "internalType": "string",
              "name": "milestoneName",
              "type": "string"
            },
            {
              "internalType": "string",
              "name": "milestoneDescription",
              "type": "string"
            },
            {
              "internalType": "uint256",
              "name": "milestoneBudget",
              "type": "uint256"
            },
            {
              "internalType": "uint256",
              "name": "milestoneDuration",
              "type": "uint256"
            },
            {
              "internalType": "bool",
              "name": "milestoneWorkApproved",
              "type": "bool"
            }
          ],
          "internalType": "struct KaziKrypto.ProjectMilestones[]",
          "name": "",
          "type": "tuple[]"
        }
      ],
      "stateMutability": "view",
      "type": "function",
      "constant": true
    },
    {
      "inputs": [
        {
          "internalType": "uint256",
          "name": "_bidId",
          "type": "uint256"
        }
      ],
      "name": "getProjectMileStones",
      "outputs": [
        {
          "components": [
            {
              "internalType": "uint256",
              "name": "bidId",
              "type": "uint256"
            },
            {
              "internalType": "uint256",
              "name": "mileStoneId",
              "type": "uint256"
            },
            {
              "internalType": "string",
              "name": "milestoneName",
              "type": "string"
            },
            {
              "internalType": "string",
              "name": "milestoneDescription",
              "type": "string"
            },
            {
              "internalType": "uint256",
              "name": "milestoneBudget",
              "type": "uint256"
            },
            {
              "internalType": "uint256",
              "name": "milestoneDuration",
              "type": "uint256"
            },
            {
              "internalType": "bool",
              "name": "milestoneWorkApproved",
              "type": "bool"
            }
          ],
          "internalType": "struct KaziKrypto.ProjectMilestones[]",
          "name": "",
          "type": "tuple[]"
        }
      ],
      "stateMutability": "view",
      "type": "function",
      "constant": true
    },
    {
      "inputs": [
        {
          "internalType": "address",
          "name": "_accountId",
          "type": "address"
        }
      ],
      "name": "getFreelancerTransactions",
      "outputs": [
        {
          "components": [
            {
              "internalType": "address payable",
              "name": "from",
              "type": "address"
            },
            {
              "internalType": "address payable",
              "name": "to",
              "type": "address"
            },
            {
              "internalType": "string",
              "name": "transactionPurpose",
              "type": "string"
            },
            {
              "internalType": "uint256",
              "name": "transactionAmount",
              "type": "uint256"
            },
            {
              "internalType": "uint256",
              "name": "timestamp",
              "type": "uint256"
            },
            {
              "internalType": "string",
              "name": "transactionStatus",
              "type": "string"
            }
          ],
          "internalType": "struct KaziKrypto.Transaction[]",
          "name": "",
          "type": "tuple[]"
        }
      ],
      "stateMutability": "view",
      "type": "function",
      "constant": true
    },
    {
      "inputs": [
        {
          "internalType": "address",
          "name": "_accountId",
          "type": "address"
        },
        {
          "internalType": "uint256",
          "name": "_bidId",
          "type": "uint256"
        },
        {
          "internalType": "string",
          "name": "_projectName",
          "type": "string"
        },
        {
          "internalType": "string",
          "name": "_feedBack",
          "type": "string"
        },
        {
          "internalType": "uint256",
          "name": "_ratingForCompletedProjects",
          "type": "uint256"
        },
        {
          "internalType": "uint256",
          "name": "_ratingForCommunicationSkills",
          "type": "uint256"
        }
      ],
      "name": "rateAfreelancer",
      "outputs": [],
      "stateMutability": "nonpayable",
      "type": "function"
    },
    {
      "inputs": [
        {
          "internalType": "address",
          "name": "_accountId",
          "type": "address"
        }
      ],
      "name": "viewFreelancerRating",
      "outputs": [
        {
          "components": [
            {
              "internalType": "uint256",
              "name": "bidId",
              "type": "uint256"
            },
            {
              "internalType": "string",
              "name": "ProjectName",
              "type": "string"
            },
            {
              "internalType": "address",
              "name": "accountId",
              "type": "address"
            },
            {
              "internalType": "string",
              "name": "feedback",
              "type": "string"
            },
            {
              "internalType": "uint256",
              "name": "ratingForCompletedProjects",
              "type": "uint256"
            },
            {
              "internalType": "uint256",
              "name": "ratingForCommunicationSkills",
              "type": "uint256"
            }
          ],
          "internalType": "struct KaziKrypto.FreelancerRatings[]",
          "name": "",
          "type": "tuple[]"
        }
      ],
      "stateMutability": "view",
      "type": "function",
      "constant": true
    },
    {
      "inputs": [
        {
          "internalType": "string",
          "name": "_disputeName",
          "type": "string"
        },
        {
          "internalType": "string",
          "name": "_description",
          "type": "string"
        },
        {
          "internalType": "address",
          "name": "_clientInvolved",
          "type": "address"
        }
      ],
      "name": "createDispute",
      "outputs": [],
      "stateMutability": "nonpayable",
      "type": "function"
    },
    {
      "inputs": [
        {
          "internalType": "address",
          "name": "_disputor",
          "type": "address"
        }
      ],
      "name": "markDisputeAsResolved",
      "outputs": [],
      "stateMutability": "nonpayable",
      "type": "function"
    },
    {
      "inputs": [
        {
          "internalType": "uint256",
          "name": "index",
          "type": "uint256"
        }
      ],
      "name": "getDispute",
      "outputs": [
        {
          "components": [
            {
              "internalType": "string",
              "name": "disputeName",
              "type": "string"
            },
            {
              "internalType": "string",
              "name": "description",
              "type": "string"
            },
            {
              "internalType": "address",
              "name": "disputor",
              "type": "address"
            },
            {
              "internalType": "address",
              "name": "clientInvolved",
              "type": "address"
            },
            {
              "internalType": "bool",
              "name": "resolved",
              "type": "bool"
            }
          ],
          "internalType": "struct KaziKrypto.Disputes",
          "name": "",
          "type": "tuple"
        }
      ],
      "stateMutability": "view",
      "type": "function",
      "constant": true
    },
    {
      "inputs": [],
      "name": "getAllDisputes",
      "outputs": [
        {
          "components": [
            {
              "internalType": "string",
              "name": "disputeName",
              "type": "string"
            },
            {
              "internalType": "string",
              "name": "description",
              "type": "string"
            },
            {
              "internalType": "address",
              "name": "disputor",
              "type": "address"
            },
            {
              "internalType": "address",
              "name": "clientInvolved",
              "type": "address"
            },
            {
              "internalType": "bool",
              "name": "resolved",
              "type": "bool"
            }
          ],
          "internalType": "struct KaziKrypto.Disputes[]",
          "name": "",
          "type": "tuple[]"
        }
      ],
      "stateMutability": "view",
      "type": "function",
      "constant": true
    }
  ],
  "bytecode": "0x6080604052615c25806100136000396000f3fe6080604052600436106101e35760003560e01c806364df6ab111610102578063ce1d478311610095578063eeb2ba2f11610064578063eeb2ba2f1461062a578063f1bf53131461064a578063f9162ee21461066a578063f99ca8b61461068a57600080fd5b8063ce1d478314610590578063d3999d79146105bd578063d9c83670146105dd578063e3a96cbd146105fd57600080fd5b8063a713a048116100d1578063a713a048146104f6578063a77e9b3514610516578063a91b95d914610536578063b0c77c561461056357600080fd5b806364df6ab114610449578063876ec70b146104765780639a5b3091146104965780639be27cdb146104c957600080fd5b806335e684b41161017a5780634455c835116101495780634455c8351461039157806349cbc79d146103cf578063582c7ffd146103fc5780635b0500981461042957600080fd5b806335e684b4146103045780633837cb2e146103245780634027b2971461034457806343ca17371461037157600080fd5b80631dd9997f116101b65780631dd9997f1461028f5780631f07b399146102b157806325dfc140146102d1578063349ae58a146102e457600080fd5b806302e9d5e4146101e85780630e357a6e1461020a578063131d9a2714610240578063169c4c481461026d575b600080fd5b3480156101f457600080fd5b50610208610203366004614a4a565b6106bc565b005b34801561021657600080fd5b5061022a610225366004614a81565b6108e2565b6040516102379190614b52565b60405180910390f35b34801561024c57600080fd5b5061026061025b366004614be2565b610c4e565b6040516102379190614c72565b34801561027957600080fd5b50610282610e72565b6040516102379190614da2565b34801561029b57600080fd5b506102a4611276565b6040516102379190614e60565b3480156102bd57600080fd5b506102086102cc366004614f6a565b611429565b6102086102df366004615090565b6117cd565b3480156102f057600080fd5b506102086102ff366004615169565b611c19565b34801561031057600080fd5b5061020861031f3660046151de565b611cfd565b34801561033057600080fd5b5061020861033f366004615294565b611d76565b34801561035057600080fd5b5061036461035f366004614a81565b611f15565b60405161023791906152db565b34801561037d57600080fd5b5061020861038c366004615327565b6120de565b34801561039d57600080fd5b506102086103ac3660046153e8565b336000908152600560205260409020600801805460ff1916911515919091179055565b3480156103db57600080fd5b506103ef6103ea36600461540a565b6121b4565b6040516102379190615427565b34801561040857600080fd5b5061041c610417366004614a4a565b612379565b60405161023791906154e6565b34801561043557600080fd5b506102086104443660046154f9565b6126c8565b34801561045557600080fd5b5061046961046436600461540a565b61291c565b6040516102379190615563565b34801561048257600080fd5b5061020861049136600461563e565b612cf5565b3480156104a257600080fd5b506104b66104b1366004614be2565b612d93565b6040516102379796959493929190615699565b3480156104d557600080fd5b506104e96104e4366004614be2565b612f74565b6040516102379190615705565b34801561050257600080fd5b50610208610511366004615718565b613392565b34801561052257600080fd5b50610208610531366004615803565b6134c4565b34801561054257600080fd5b5061055661055136600461540a565b613698565b604051610237919061587a565b34801561056f57600080fd5b5061058361057e366004614be2565b61385b565b6040516102379190615927565b34801561059c57600080fd5b506105b06105ab36600461540a565b613a23565b60405161023791906159d5565b3480156105c957600080fd5b506102086105d8366004614a81565b613c3a565b3480156105e957600080fd5b506102086105f836600461540a565b6140c5565b34801561060957600080fd5b5061061d610618366004614be2565b61419f565b6040516102379190615a8a565b34801561063657600080fd5b5061020861064536600461540a565b614396565b34801561065657600080fd5b5061058361066536600461540a565b6144b3565b34801561067657600080fd5b506104b6610685366004614be2565b61467e565b34801561069657600080fd5b506106aa6106a5366004614a81565b6146c4565b60405161023796959493929190615a9d565b60005b6000838152600d60205260409020548110156107ef576000838152600d602052604090208054839190839081106106f8576106f8615b3e565b90600052602060002090600702016001015414156107dd576000838152600d6020526040902080548290811061073057610730615b3e565b600091825260209091206006600790920201015460ff161515600114156107965760405162461bcd60e51b8152602060048201526015602482015274189a5917d85b1b1c9958591e57d85c1c1c9bdd9959605a1b60448201526064015b60405180910390fd5b6000838152600d60205260409020805460019190839081106107ba576107ba615b3e565b60009182526020909120600790910201600601805460ff19169115159190911790555b806107e781615b6a565b9150506106bf565b5060005b600b548110156108dd5782600b828154811061081157610811615b3e565b90600052602060002090600902016000015414156108cb57600b818154811061083c5761083c615b3e565b600091825260209091206008600990920201015460ff166108935760405162461bcd60e51b8152602060048201526011602482015270626964206e6f7420617661696c61626c6560781b604482015260640161078d565b6000600b82815481106108a8576108a8615b3e565b60009182526020909120600990910201600801805460ff19169115159190911790555b806108d581615b6a565b9150506107f3565b505050565b61091d6040518060a0016040528060006001600160a01b03168152602001606081526020016060815260200160608152602001606081525090565b6001600160a01b038316600090815260066020526040902080548390811061094757610947615b3e565b600091825260208083206040805160a081018252600590940290910180546001600160a01b0316845260018101805483518186028101860190945280845294959194868501949192909184015b82821015610a405783829060005260206000200180546109b390615b85565b80601f01602080910402602001604051908101604052809291908181526020018280546109df90615b85565b8015610a2c5780601f10610a0157610100808354040283529160200191610a2c565b820191906000526020600020905b815481529060010190602001808311610a0f57829003601f168201915b505050505081526020019060010190610994565b50505050815260200160028201805480602002602001604051908101604052809291908181526020016000905b82821015610b19578382906000526020600020018054610a8c90615b85565b80601f0160208091040260200160405190810160405280929190818152602001828054610ab890615b85565b8015610b055780601f10610ada57610100808354040283529160200191610b05565b820191906000526020600020905b815481529060010190602001808311610ae857829003601f168201915b505050505081526020019060010190610a6d565b505050508152602001600382018054610b3190615b85565b80601f0160208091040260200160405190810160405280929190818152602001828054610b5d90615b85565b8015610baa5780601f10610b7f57610100808354040283529160200191610baa565b820191906000526020600020905b815481529060010190602001808311610b8d57829003601f168201915b50505050508152602001600482018054610bc390615b85565b80601f0160208091040260200160405190810160405280929190818152602001828054610bef90615b85565b8015610c3c5780601f10610c1157610100808354040283529160200191610c3c565b820191906000526020600020905b815481529060010190602001808311610c1f57829003601f168201915b50505050508152505090505b92915050565b6060600d6000838152602001908152602001600020805480602002602001604051908101604052809291908181526020016000905b82821015610e675760008481526020908190206040805160e081018252600786029092018054835260018101549383019390935260028301546001600160a01b031690820152600382018054919291606084019190610ce190615b85565b80601f0160208091040260200160405190810160405280929190818152602001828054610d0d90615b85565b8015610d5a5780601f10610d2f57610100808354040283529160200191610d5a565b820191906000526020600020905b815481529060010190602001808311610d3d57829003601f168201915b505050505081526020016004820154815260200160058201805480602002602001604051908101604052809291908181526020016000905b82821015610e3e578382906000526020600020018054610db190615b85565b80601f0160208091040260200160405190810160405280929190818152602001828054610ddd90615b85565b8015610e2a5780601f10610dff57610100808354040283529160200191610e2a565b820191906000526020600020905b815481529060010190602001808311610e0d57829003601f168201915b505050505081526020019060010190610d92565b505050908252506006919091015460ff1615156020918201529082526001929092019101610c83565b505050509050919050565b6060600b805480602002602001604051908101604052809291908181526020016000905b8282101561126d5760008481526020908190206040805161012081018252600986029092018054835260018101546001600160a01b03169383019390935260028301805492939291840191610eea90615b85565b80601f0160208091040260200160405190810160405280929190818152602001828054610f1690615b85565b8015610f635780601f10610f3857610100808354040283529160200191610f63565b820191906000526020600020905b815481529060010190602001808311610f4657829003601f168201915b50505050508152602001600382018054610f7c90615b85565b80601f0160208091040260200160405190810160405280929190818152602001828054610fa890615b85565b8015610ff55780601f10610fca57610100808354040283529160200191610ff5565b820191906000526020600020905b815481529060010190602001808311610fd857829003601f168201915b5050505050815260200160048201805461100e90615b85565b80601f016020809104026020016040519081016040528092919081815260200182805461103a90615b85565b80156110875780601f1061105c57610100808354040283529160200191611087565b820191906000526020600020905b81548152906001019060200180831161106a57829003601f168201915b505050505081526020016005820154815260200160068201805480602002602001604051908101604052809291908181526020016000905b8282101561116b5783829060005260206000200180546110de90615b85565b80601f016020809104026020016040519081016040528092919081815260200182805461110a90615b85565b80156111575780601f1061112c57610100808354040283529160200191611157565b820191906000526020600020905b81548152906001019060200180831161113a57829003601f168201915b5050505050815260200190600101906110bf565b50505050815260200160078201805480602002602001604051908101604052809291908181526020016000905b828210156112445783829060005260206000200180546111b790615b85565b80601f01602080910402602001604051908101604052809291908181526020018280546111e390615b85565b80156112305780601f1061120557610100808354040283529160200191611230565b820191906000526020600020905b81548152906001019060200180831161121357829003601f168201915b505050505081526020019060010190611198565b505050908252506008919091015460ff1615156020918201529082526001929092019101610e96565b50505050905090565b60606001805480602002602001604051908101604052809291908181526020016000905b8282101561126d57838290600052602060002090600402016040518060a00160405290816000820180546112cd90615b85565b80601f01602080910402602001604051908101604052809291908181526020018280546112f990615b85565b80156113465780601f1061131b57610100808354040283529160200191611346565b820191906000526020600020905b81548152906001019060200180831161132957829003601f168201915b5050505050815260200160018201805461135f90615b85565b80601f016020809104026020016040519081016040528092919081815260200182805461138b90615b85565b80156113d85780601f106113ad576101008083540402835291602001916113d8565b820191906000526020600020905b8154815290600101906020018083116113bb57829003601f168201915b505050918352505060028201546001600160a01b039081166020808401919091526003909301549081166040830152600160a01b900460ff161515606090910152908252600192909201910161129a565b60008060005b6000898152600d602052604090205481101561150e576000898152600d6020526040902080548991908390811061146857611468615b3e565b9060005260206000209060070201600101541480156114bf57506000898152600d602052604090208054829081106114a2576114a2615b3e565b600091825260209091206006600790920201015460ff1615156001145b156114fc576000898152600d602052604090208054829081106114e4576114e4615b3e565b90600052602060002090600702016004015492508091505b8061150681615b6a565b91505061142f565b50838210156115535760405162461bcd60e51b8152602060048201526011602482015270189d5919d95d17dbdd995c9c1c9a58d959607a1b604482015260640161078d565b6000888152600d6020526040902080548290811061157357611573615b3e565b600091825260209091206006600790920201015460ff166115c95760405162461bcd60e51b815260206004820152601060248201526f189a5917db9bdd17d85c1c1c9bdd995960821b604482015260640161078d565b600380549060006115d983615b6a565b90915550506000888152600d6020526040902080548591908390811061160157611601615b3e565b906000526020600020906007020160040160008282546116219190615bc0565b9091555050336000908152600960209081526040808320815160e0810183528b81526003548185019081529281018b8152606082018b9052608082018a905260a0820189905260c08201869052825460018181018555938752958590208251600790970201958655925191850191909155905180519193926116ab926002850192909101906148fe565b50606082015180516116c79160038401916020909101906148fe565b50608082810151600483015560a080840151600584015560c0938401516006909301805460ff19169315159390931790925560008a8152600e60209081526040808320815160e0810183528e81526003548185019081529281018e8152606082018e90529581018c90529586018a90529585018390528554600181810188559684529282902085516007909402019283555194820194909455905180519293919261177892600285019201906148fe565b50606082015180516117949160038401916020909101906148fe565b506080820151600482015560a0820151600582015560c0909101516006909101805460ff19169115159190911790555050505050505050565b60405130906000908190839034908381818185875af1925050503d8060008114611813576040519150601f19603f3d011682016040523d82523d6000602084013e611818565b606091505b50600a8054929450909250600061182e83615b6a565b90915550506040805161012081018252600a5481523360208083019182529282018c8152606083018c9052608083018b905260a083018a905260c0830189905260e0830188905260016101008401819052600b80549182018155600052835160099091027f0175b7a638427703f0dbe7bb9bbf987a2551717b34e79f33b5b1008d1fa01db9810191825592517f0175b7a638427703f0dbe7bb9bbf987a2551717b34e79f33b5b1008d1fa01dba840180546001600160a01b03929092166001600160a01b03199092169190911790559051805193949193611936937f0175b7a638427703f0dbe7bb9bbf987a2551717b34e79f33b5b1008d1fa01dbb019291909101906148fe565b50606082015180516119529160038401916020909101906148fe565b506080820151805161196e9160048401916020909101906148fe565b5060a0820151600582015560c08201518051611994916006840191602090910190614982565b5060e082015180516119b0916007840191602090910190614982565b5061010091820151600891909101805460ff19169115159190911790556040805161012081018252600a548082523360208084019182528385018f8152606085018f9052608085018e905260a085018d905260c085018c905260e085018b905260019685018790526000938452600c82529490922083518155905194810180546001600160a01b0319166001600160a01b039096169590951790945591518051919384939092611a6692600285019201906148fe565b5060608201518051611a829160038401916020909101906148fe565b5060808201518051611a9e9160048401916020909101906148fe565b5060a0820151600582015560c08201518051611ac4916006840191602090910190614982565b5060e08201518051611ae0916007840191602090910190614982565b5061010091909101516008909101805491151560ff19909216919091179055336000818152600460209081526040808320815160c0810183529485526001600160a01b0389811686850190815283518085018552600f81526e50726f6a65637420706f7374696e6760881b81870152878501908152346060890152426080890152845180860190955260098552686f6e5f657363726f7760b81b8587015260a088019490945282546001818101855593875295859020875160069097020180549683166001600160a01b0319978816178155905192810180549390921692909516919091179055518051611bda92600285019201906148fe565b50606082015160038201556080820151600482015560a08201518051611c0a9160058401916020909101906148fe565b50505050505050505050505050565b6001600160a01b038084166000818152600f60209081526040808320815160c08101835242815233818501908152928101958652606081018981526080820189905260a08201869052825460018181018555938752958590208251600690970201958655925191850180549288166001600160a01b03199384161790559451600285018054919097169116179094559251805192939192611cc092600385019201906148fe565b5060808201518051611cdc916004840191602090910190614982565b5060a091909101516005909101805460ff1916911515919091179055505050565b33600090815260056020908152604090912086519091611d249160028401918901906148fe565b50600381018590558351611d4190600483019060208701906148fe565b508251611d5790600583019060208601906148fe565b508151611d6d9060068301906020850190614982565b50505050505050565b6000805b6001600160a01b038816600090815260086020526040902054811015611dff576001600160a01b0388166000908152600860205260409020805488919083908110611dc757611dc7615b3e565b9060005260206000209060060201600001541415611ded57611dea600183615bd7565b91505b80611df781615b6a565b915050611d7a565b5080611edc576001600160a01b0387166000818152600860209081526040808320815160c0810183528b81528084018b815292810195909552606085018990526080850188905260a0850187905280546001818101835591855293839020855160069095020193845590518051611e7e939285019291909101906148fe565b5060408201516002820180546001600160a01b0319166001600160a01b0390921691909117905560608201518051611ec09160038401916020909101906148fe565b506080820151816004015560a082015181600501555050611d6d565b60405162461bcd60e51b815260206004820152600e60248201526d185b1b1c9958591e481c985d195960921b604482015260640161078d565b611f506040518060a0016040528060006001600160a01b03168152602001606081526020016060815260200160608152602001606081525090565b6001600160a01b0383166000908152600760205260409020805483908110611f7a57611f7a615b3e565b60009182526020918290206040805160a0810190915260059092020180546001600160a01b031682526001810180549293919291840191611fba90615b85565b80601f0160208091040260200160405190810160405280929190818152602001828054611fe690615b85565b80156120335780601f1061200857610100808354040283529160200191612033565b820191906000526020600020905b81548152906001019060200180831161201657829003601f168201915b5050505050815260200160028201805461204c90615b85565b80601f016020809104026020016040519081016040528092919081815260200182805461207890615b85565b80156120c55780601f1061209a576101008083540402835291602001916120c5565b820191906000526020600020905b8154815290600101906020018083116120a857829003601f168201915b50505050508152602001600382018054610b3190615b85565b336000818152600660209081526040808320815160a081018352948552848301898152918501889052606085018790526080850186905280546001808201835591855293839020855160059095020180546001600160a01b0319166001600160a01b039095169490941784559051805161216093928501929190910190614982565b506040820151805161217c916002840191602090910190614982565b50606082015180516121989160038401916020909101906148fe565b5060808201518051611d6d9160048401916020909101906148fe565b6001600160a01b0381166000908152600460209081526040808320805482518185028101850190935280835260609492939192909184015b82821015610e675760008481526020908190206040805160c0810182526006860290920180546001600160a01b039081168452600182015416938301939093526002830180549293929184019161224290615b85565b80601f016020809104026020016040519081016040528092919081815260200182805461226e90615b85565b80156122bb5780601f10612290576101008083540402835291602001916122bb565b820191906000526020600020905b81548152906001019060200180831161229e57829003601f168201915b5050505050815260200160038201548152602001600482015481526020016005820180546122e890615b85565b80601f016020809104026020016040519081016040528092919081815260200182805461231490615b85565b80156123615780601f1061233657610100808354040283529160200191612361565b820191906000526020600020905b81548152906001019060200180831161234457829003601f168201915b505050505081525050815260200190600101906121ec565b6123c46040518060e00160405280600081526020016000815260200160006001600160a01b031681526020016060815260200160008152602001606081526020016000151581525090565b6000821180156123d657506002548211155b6124135760405162461bcd60e51b815260206004820152600e60248201526d125b9d985b1a5908189a5908125160921b604482015260640161078d565b6000838152600d6020908152604080832080548251818502810185019093528083529192909190849084015b828210156126235760008481526020908190206040805160e081018252600786029092018054835260018101549383019390935260028301546001600160a01b03169082015260038201805491929160608401919061249d90615b85565b80601f01602080910402602001604051908101604052809291908181526020018280546124c990615b85565b80156125165780601f106124eb57610100808354040283529160200191612516565b820191906000526020600020905b8154815290600101906020018083116124f957829003601f168201915b505050505081526020016004820154815260200160058201805480602002602001604051908101604052809291908181526020016000905b828210156125fa57838290600052602060002001805461256d90615b85565b80601f016020809104026020016040519081016040528092919081815260200182805461259990615b85565b80156125e65780601f106125bb576101008083540402835291602001916125e6565b820191906000526020600020905b8154815290600101906020018083116125c957829003601f168201915b50505050508152602001906001019061254e565b505050908252506006919091015460ff161515602091820152908252600192909201910161243f565b50505050905060005b815181101561268f578382828151811061264857612648615b3e565b602002602001015160200151141561267d5781818151811061266c5761266c615b3e565b602002602001015192505050610c48565b8061268781615b6a565b91505061262c565b5060405162461bcd60e51b815260206004820152600d60248201526c109a59081b9bdd08199bdd5b99609a1b604482015260640161078d565b6000805b6000868152600d6020526040902054811015612776576000868152600d6020526040902080543391908390811061270557612705615b3e565b60009182526020909120600260079092020101546001600160a01b031614156127645760405162461bcd60e51b8152602060048201526011602482015270185b1b1c9958591e57db58591957d89a59607a1b604482015260640161078d565b8061276e81615b6a565b9150506126cc565b5060005b600b548110156128d05785600b828154811061279857612798615b3e565b90600052602060002090600902016000015414156128be57600280549060006127c083615b6a565b919050555081806127d090615b6a565b6000888152600d60209081526040808320815160e0810183528c81526002805482860190815233948301948552606083018e8152608084018e905260a084018d905260c08401889052845460018082018755958952978790208451600790990201978855905193870193909355925192850180546001600160a01b0319166001600160a01b0390941693909317909255518051949750909450919261287b92600385019201906148fe565b506080820151600482015560a082015180516128a1916005840191602090910190614982565b5060c091909101516006909101805460ff19169115159190911790555b806128c881615b6a565b91505061277a565b5060018110156129155760405162461bcd60e51b815260206004820152601060248201526f189a5917d91bd95cdb9d17d95e1a5cdd60821b604482015260640161078d565b5050505050565b61297660405180610120016040528060006001600160a01b03168152602001606081526020016060815260200160008152602001606081526020016060815260200160608152602001600081526020016000151581525090565b6001600160a01b038083166000908152600560209081526040918290208251610120810190935280549093168252600183018054929392918401916129ba90615b85565b80601f01602080910402602001604051908101604052809291908181526020018280546129e690615b85565b8015612a335780601f10612a0857610100808354040283529160200191612a33565b820191906000526020600020905b815481529060010190602001808311612a1657829003601f168201915b50505050508152602001600282018054612a4c90615b85565b80601f0160208091040260200160405190810160405280929190818152602001828054612a7890615b85565b8015612ac55780601f10612a9a57610100808354040283529160200191612ac5565b820191906000526020600020905b815481529060010190602001808311612aa857829003601f168201915b5050505050815260200160038201548152602001600482018054612ae890615b85565b80601f0160208091040260200160405190810160405280929190818152602001828054612b1490615b85565b8015612b615780601f10612b3657610100808354040283529160200191612b61565b820191906000526020600020905b815481529060010190602001808311612b4457829003601f168201915b50505050508152602001600582018054612b7a90615b85565b80601f0160208091040260200160405190810160405280929190818152602001828054612ba690615b85565b8015612bf35780601f10612bc857610100808354040283529160200191612bf3565b820191906000526020600020905b815481529060010190602001808311612bd657829003601f168201915b5050505050815260200160068201805480602002602001604051908101604052809291908181526020016000905b82821015612ccd578382906000526020600020018054612c4090615b85565b80601f0160208091040260200160405190810160405280929190818152602001828054612c6c90615b85565b8015612cb95780601f10612c8e57610100808354040283529160200191612cb9565b820191906000526020600020905b815481529060010190602001808311612c9c57829003601f168201915b505050505081526020019060010190612c21565b505050908252506007820154602082015260089091015460ff16151560409091015292915050565b336000818152600760209081526040808320815160a081018352948552848301898152918501889052606085018790526080850186905280546001808201835591855293839020855160059095020180546001600160a01b0319166001600160a01b0390951694909417845590518051612d77939285019291909101906148fe565b506040820151805161217c9160028401916020909101906148fe565b600c6020526000908152604090208054600182015460028301805492936001600160a01b0390921692612dc590615b85565b80601f0160208091040260200160405190810160405280929190818152602001828054612df190615b85565b8015612e3e5780601f10612e1357610100808354040283529160200191612e3e565b820191906000526020600020905b815481529060010190602001808311612e2157829003601f168201915b505050505090806003018054612e5390615b85565b80601f0160208091040260200160405190810160405280929190818152602001828054612e7f90615b85565b8015612ecc5780601f10612ea157610100808354040283529160200191612ecc565b820191906000526020600020905b815481529060010190602001808311612eaf57829003601f168201915b505050505090806004018054612ee190615b85565b80601f0160208091040260200160405190810160405280929190818152602001828054612f0d90615b85565b8015612f5a5780601f10612f2f57610100808354040283529160200191612f5a565b820191906000526020600020905b815481529060010190602001808311612f3d57829003601f168201915b50505050600583015460089093015491929160ff16905087565b612fce6040518061012001604052806000815260200160006001600160a01b031681526020016060815260200160608152602001606081526020016000815260200160608152602001606081526020016000151581525090565b6000828152600c60209081526040918290208251610120810184528154815260018201546001600160a01b031692810192909252600281018054929391929184019161301990615b85565b80601f016020809104026020016040519081016040528092919081815260200182805461304590615b85565b80156130925780601f1061306757610100808354040283529160200191613092565b820191906000526020600020905b81548152906001019060200180831161307557829003601f168201915b505050505081526020016003820180546130ab90615b85565b80601f01602080910402602001604051908101604052809291908181526020018280546130d790615b85565b80156131245780601f106130f957610100808354040283529160200191613124565b820191906000526020600020905b81548152906001019060200180831161310757829003601f168201915b5050505050815260200160048201805461313d90615b85565b80601f016020809104026020016040519081016040528092919081815260200182805461316990615b85565b80156131b65780601f1061318b576101008083540402835291602001916131b6565b820191906000526020600020905b81548152906001019060200180831161319957829003601f168201915b505050505081526020016005820154815260200160068201805480602002602001604051908101604052809291908181526020016000905b8282101561329a57838290600052602060002001805461320d90615b85565b80601f016020809104026020016040519081016040528092919081815260200182805461323990615b85565b80156132865780601f1061325b57610100808354040283529160200191613286565b820191906000526020600020905b81548152906001019060200180831161326957829003601f168201915b5050505050815260200190600101906131ee565b50505050815260200160078201805480602002602001604051908101604052809291908181526020016000905b828210156133735783829060005260206000200180546132e690615b85565b80601f016020809104026020016040519081016040528092919081815260200182805461331290615b85565b801561335f5780601f106133345761010080835404028352916020019161335f565b820191906000526020600020905b81548152906001019060200180831161334257829003601f168201915b5050505050815260200190600101906132c7565b505050908252506008919091015460ff16151560209091015292915050565b60408051610120810182523380825260208083018a81528385018c9052606084018a90526080840189905260a0840188905260c08401879052600060e085018190528615156101008601529283526005825293909120825181546001600160a01b0319166001600160a01b039091161781559251805192939261341b92600185019201906148fe565b50604082015180516134379160028401916020909101906148fe565b50606082015160038201556080820151805161345d9160048401916020909101906148fe565b5060a082015180516134799160058401916020909101906148fe565b5060c08201518051613495916006840191602090910190614982565b5060e08201516007820155610100909101516008909101805460ff191691151591909117905550505050505050565b60005b6001548110156135a557336001600160a01b0316600182815481106134ee576134ee615b3e565b60009182526020909120600260049092020101546001600160a01b031614801561354657506001818154811061352657613526615b3e565b6000918252602090912060049091020160030154600160a01b900460ff16155b156135935760405162461bcd60e51b815260206004820152601860248201527f736f6c76655f796f75725f646973707574655f66697273740000000000000000604482015260640161078d565b8061359d81615b6a565b9150506134c7565b506040805160a081018252848152602080820185905233928201929092526001600160a01b0383166060820152600060808201819052600180548082018255915281518051929360049092027fb10e2d527612073b26eecdfd717e6a320cf44b4afac2b0732d9fcbe2b7fa0cf6019261362192849201906148fe565b50602082810151805161363a92600185019201906148fe565b5060408201516002820180546001600160a01b0319166001600160a01b03928316179055606083015160039092018054608090940151929091166001600160a81b031990931692909217600160a01b91151591909102179055505050565b6001600160a01b0381166000908152600860209081526040808320805482518185028101850190935280835260609492939192909184015b82821015610e6757838290600052602060002090600602016040518060c00160405290816000820154815260200160018201805461370d90615b85565b80601f016020809104026020016040519081016040528092919081815260200182805461373990615b85565b80156137865780601f1061375b57610100808354040283529160200191613786565b820191906000526020600020905b81548152906001019060200180831161376957829003601f168201915b505050918352505060028201546001600160a01b031660208201526003820180546040909201916137b690615b85565b80601f01602080910402602001604051908101604052809291908181526020018280546137e290615b85565b801561382f5780601f106138045761010080835404028352916020019161382f565b820191906000526020600020905b81548152906001019060200180831161381257829003601f168201915b5050505050815260200160048201548152602001600582015481525050815260200190600101906136d0565b6060600e6000838152602001908152602001600020805480602002602001604051908101604052809291908181526020016000905b82821015610e6757838290600052602060002090600702016040518060e001604052908160008201548152602001600182015481526020016002820180546138d790615b85565b80601f016020809104026020016040519081016040528092919081815260200182805461390390615b85565b80156139505780601f1061392557610100808354040283529160200191613950565b820191906000526020600020905b81548152906001019060200180831161393357829003601f168201915b5050505050815260200160038201805461396990615b85565b80601f016020809104026020016040519081016040528092919081815260200182805461399590615b85565b80156139e25780601f106139b7576101008083540402835291602001916139e2565b820191906000526020600020905b8154815290600101906020018083116139c557829003601f168201915b505050918352505060048201546020808301919091526005830154604083015260069092015460ff1615156060909101529082526001929092019101613890565b6001600160a01b0381166000908152600f60209081526040808320805482518185028101850190935280835260609492939192909184015b82821015610e675760008481526020908190206040805160c081018252600686029092018054835260018101546001600160a01b0390811694840194909452600281015490931690820152600382018054919291606084019190613abe90615b85565b80601f0160208091040260200160405190810160405280929190818152602001828054613aea90615b85565b8015613b375780601f10613b0c57610100808354040283529160200191613b37565b820191906000526020600020905b815481529060010190602001808311613b1a57829003601f168201915b5050505050815260200160048201805480602002602001604051908101604052809291908181526020016000905b82821015613c11578382906000526020600020018054613b8490615b85565b80601f0160208091040260200160405190810160405280929190818152602001828054613bb090615b85565b8015613bfd5780601f10613bd257610100808354040283529160200191613bfd565b820191906000526020600020905b815481529060010190602001808311613be057829003601f168201915b505050505081526020019060010190613b65565b505050908252506005919091015460ff1615156020918201529082526001929092019101613a5b565b60008060005b600b54811015613ca057336001600160a01b0316600b8281548110613c6757613c67615b3e565b60009182526020909120600160099092020101546001600160a01b03161415613c8e573391505b80613c9881615b6a565b915050613c40565b506001600160a01b0381163314613cea5760405162461bcd60e51b815260206004820152600e60248201526d37b7363cafb537b12fb7bbb732b960911b604482015260640161078d565b60005b6001600160a01b038516600090815260096020526040902054811015614017576001600160a01b0385166000908152600960205260409020805485919083908110613d3a57613d3a615b3e565b906000526020600020906007020160010154148015613d9757506001600160a01b0385166000908152600960205260409020805482908110613d7e57613d7e615b3e565b600091825260209091206006600790920201015460ff16155b8015613dab57506001600160a01b03821633145b15614005576001600160a01b0385166000908152600960205260409020805482908110613dda57613dda615b3e565b90600052602060002090600702016000015492506000309050600160096000886001600160a01b03166001600160a01b031681526020019081526020016000208381548110613e2b57613e2b615b3e565b60009182526020808320600792909202909101600601805460ff1916931515939093179092556001600160a01b03881680825260099092526040902080546108fc919085908110613e7e57613e7e615b3e565b9060005260206000209060070201600401549081150290604051600060405180830381858888f19350505050158015613ebb573d6000803e3d6000fd5b506001600160a01b038087166000818152600460209081526040808320815160c0810183529587168652858301859052815180830183526008815267105c1c1c9bdd985b60c21b818501528683015293835260099091529020805491929160608301919086908110613f2f57613f2f615b3e565b600091825260208083206007928302016004015484524284820152604080518082018252928352661cd95d1d1b195960ca1b838301529384019190915284546001808201875595835291819020845160069093020180546001600160a01b03199081166001600160a01b039485161782558583015196820180549091169690931695909517909155908201518051929392613fd092600285019201906148fe565b50606082015160038201556080820151600482015560a082015180516140009160058401916020909101906148fe565b505050505b8061400f81615b6a565b915050613ced565b5060005b6000838152600e6020526040902054811015612915576000838152600e6020526040902080548591908390811061405457614054615b3e565b90600052602060002090600702016001015414156140b3576000838152600e602052604090208054600191908390811061409057614090615b3e565b60009182526020909120600790910201600601805460ff19169115159190911790555b806140bd81615b6a565b91505061401b565b60005b6001600160a01b0382166000908152600f602052604090205481101561419b576001600160a01b0382166000908152600f6020526040902080543391908390811061411557614115615b3e565b60009182526020909120600160069092020101546001600160a01b03161415614189576001600160a01b0382166000908152600f602052604090208054600191908390811061416657614166615b3e565b60009182526020909120600690910201600501805460ff19169115159190911790555b8061419381615b6a565b9150506140c8565b5050565b6040805160a081018252606080825260208201819052600092820183905281018290526080810191909152600154821061420b5760405162461bcd60e51b815260206004820152600d60248201526c092dcecc2d8d2c840d2dcc8caf609b1b604482015260640161078d565b6001828154811061421e5761421e615b3e565b90600052602060002090600402016040518060a001604052908160008201805461424790615b85565b80601f016020809104026020016040519081016040528092919081815260200182805461427390615b85565b80156142c05780601f10614295576101008083540402835291602001916142c0565b820191906000526020600020905b8154815290600101906020018083116142a357829003601f168201915b505050505081526020016001820180546142d990615b85565b80601f016020809104026020016040519081016040528092919081815260200182805461430590615b85565b80156143525780601f1061432757610100808354040283529160200191614352565b820191906000526020600020905b81548152906001019060200180831161433557829003601f168201915b505050918352505060028201546001600160a01b0390811660208301526003909201549182166040820152600160a01b90910460ff16151560609091015292915050565b6000546001600160a01b031633146143dd5760405162461bcd60e51b815260206004820152600a60248201526937b7363cafb7bbb732b960b11b604482015260640161078d565b60005b60015481101561419b57816001600160a01b03166001828154811061440757614407615b3e565b60009182526020909120600260049092020101546001600160a01b031614801561445f57506001818154811061443f5761443f615b3e565b6000918252602090912060049091020160030154600160a01b900460ff16155b156144a157600180828154811061447857614478615b3e565b906000526020600020906004020160030160146101000a81548160ff0219169083151502179055505b806144ab81615b6a565b9150506143e0565b6001600160a01b0381166000908152600960209081526040808320805482518185028101850190935280835260609492939192909184015b82821015610e6757838290600052602060002090600702016040518060e0016040529081600082015481526020016001820154815260200160028201805461453290615b85565b80601f016020809104026020016040519081016040528092919081815260200182805461455e90615b85565b80156145ab5780601f10614580576101008083540402835291602001916145ab565b820191906000526020600020905b81548152906001019060200180831161458e57829003601f168201915b505050505081526020016003820180546145c490615b85565b80601f01602080910402602001604051908101604052809291908181526020018280546145f090615b85565b801561463d5780601f106146125761010080835404028352916020019161463d565b820191906000526020600020905b81548152906001019060200180831161462057829003601f168201915b505050918352505060048201546020808301919091526005830154604083015260069092015460ff16151560609091015290825260019290920191016144eb565b600b818154811061468e57600080fd5b60009182526020909120600990910201805460018201546002830180549294506001600160a01b039091169291612dc590615b85565b6000806000606080600080600f60008a6001600160a01b03166001600160a01b03168152602001908152602001600020888154811061470557614705615b3e565b60009182526020918290206040805160c08101825260069093029091018054835260018101546001600160a01b039081169484019490945260028101549093169082015260038201805491929160608401919061476190615b85565b80601f016020809104026020016040519081016040528092919081815260200182805461478d90615b85565b80156147da5780601f106147af576101008083540402835291602001916147da565b820191906000526020600020905b8154815290600101906020018083116147bd57829003601f168201915b5050505050815260200160048201805480602002602001604051908101604052809291908181526020016000905b828210156148b457838290600052602060002001805461482790615b85565b80601f016020809104026020016040519081016040528092919081815260200182805461485390615b85565b80156148a05780601f10614875576101008083540402835291602001916148a0565b820191906000526020600020905b81548152906001019060200180831161488357829003601f168201915b505050505081526020019060010190614808565b505050908252506005919091015460ff16151560209182015281519082015160408301516060840151608085015160a090950151939e929d50909b50995091975095509350505050565b82805461490a90615b85565b90600052602060002090601f01602090048101928261492c5760008555614972565b82601f1061494557805160ff1916838001178555614972565b82800160010185558215614972579182015b82811115614972578251825591602001919060010190614957565b5061497e9291506149db565b5090565b8280548282559060005260206000209081019282156149cf579160200282015b828111156149cf57825180516149bf9184916020909101906148fe565b50916020019190600101906149a2565b5061497e9291506149f0565b5b8082111561497e57600081556001016149dc565b8082111561497e576000614a048282614a0d565b506001016149f0565b508054614a1990615b85565b6000825580601f10614a29575050565b601f016020900490600052602060002090810190614a4791906149db565b50565b60008060408385031215614a5d57600080fd5b50508035926020909101359150565b6001600160a01b0381168114614a4757600080fd5b60008060408385031215614a9457600080fd5b8235614a9f81614a6c565b946020939093013593505050565b6000815180845260005b81811015614ad357602081850181015186830182015201614ab7565b81811115614ae5576000602083870101525b50601f01601f19169290920160200192915050565b600082825180855260208086019550808260051b84010181860160005b84811015614b4557601f19868403018952614b33838351614aad565b98840198925090830190600101614b17565b5090979650505050505050565b602080825282516001600160a01b03168282015282015160a06040830152600090614b8060c0840182614afa565b90506040840151601f1980858403016060860152614b9e8383614afa565b92506060860151915080858403016080860152614bbb8383614aad565b925060808601519150808584030160a086015250614bd98282614aad565b95945050505050565b600060208284031215614bf457600080fd5b5035919050565b805182526020810151602083015260018060a01b0360408201511660408301526000606082015160e06060850152614c3660e0850182614aad565b90506080830151608085015260a083015184820360a0860152614c598282614afa565b91505060c0830151151560c08501528091505092915050565b6000602080830181845280855180835260408601915060408160051b870101925083870160005b82811015614cc757603f19888603018452614cb5858351614bfb565b94509285019290850190600101614c99565b5092979650505050505050565b6000610120825184526020830151614cf760208601826001600160a01b03169052565b506040830151816040860152614d0f82860182614aad565b91505060608301518482036060860152614d298282614aad565b91505060808301518482036080860152614d438282614aad565b91505060a083015160a085015260c083015184820360c0860152614d678282614afa565b91505060e083015184820360e0860152614d818282614afa565b91505061010080840151614d988287018215159052565b5090949350505050565b6000602080830181845280855180835260408601915060408160051b870101925083870160005b82811015614cc757603f19888603018452614de5858351614cd4565b94509285019290850190600101614dc9565b6000815160a08452614e0c60a0850182614aad565b905060208301518482036020860152614e258282614aad565b915050604083015160018060a01b03808216604087015280606086015116606087015250506080830151151560808501528091505092915050565b6000602080830181845280855180835260408601915060408160051b870101925083870160005b82811015614cc757603f19888603018452614ea3858351614df7565b94509285019290850190600101614e87565b634e487b7160e01b600052604160045260246000fd5b604051601f8201601f191681016001600160401b0381118282101715614ef357614ef3614eb5565b604052919050565b600082601f830112614f0c57600080fd5b81356001600160401b03811115614f2557614f25614eb5565b614f38601f8201601f1916602001614ecb565b818152846020838601011115614f4d57600080fd5b816020850160208301376000918101602001919091529392505050565b60008060008060008060c08789031215614f8357600080fd5b863595506020870135945060408701356001600160401b0380821115614fa857600080fd5b614fb48a838b01614efb565b95506060890135915080821115614fca57600080fd5b50614fd789828a01614efb565b9350506080870135915060a087013590509295509295509295565b600082601f83011261500357600080fd5b813560206001600160401b038083111561501f5761501f614eb5565b8260051b61502e838201614ecb565b938452858101830193838101908886111561504857600080fd5b84880192505b85831015615084578235848111156150665760008081fd5b6150748a87838c0101614efb565b835250918401919084019061504e565b98975050505050505050565b60008060008060008060c087890312156150a957600080fd5b86356001600160401b03808211156150c057600080fd5b6150cc8a838b01614efb565b975060208901359150808211156150e257600080fd5b6150ee8a838b01614efb565b9650604089013591508082111561510457600080fd5b6151108a838b01614efb565b955060608901359450608089013591508082111561512d57600080fd5b6151398a838b01614ff2565b935060a089013591508082111561514f57600080fd5b5061515c89828a01614ff2565b9150509295509295509295565b60008060006060848603121561517e57600080fd5b833561518981614a6c565b925060208401356001600160401b03808211156151a557600080fd5b6151b187838801614efb565b935060408601359150808211156151c757600080fd5b506151d486828701614ff2565b9150509250925092565b600080600080600060a086880312156151f657600080fd5b85356001600160401b038082111561520d57600080fd5b61521989838a01614efb565b965060208801359550604088013591508082111561523657600080fd5b61524289838a01614efb565b9450606088013591508082111561525857600080fd5b61526489838a01614efb565b9350608088013591508082111561527a57600080fd5b5061528788828901614ff2565b9150509295509295909350565b60008060008060008060c087890312156152ad57600080fd5b86356152b881614a6c565b95506020870135945060408701356001600160401b0380821115614fa857600080fd5b602080825282516001600160a01b03168282015282015160a0604083015260009061530960c0840182614aad565b90506040840151601f1980858403016060860152614b9e8383614aad565b6000806000806080858703121561533d57600080fd5b84356001600160401b038082111561535457600080fd5b61536088838901614ff2565b9550602087013591508082111561537657600080fd5b61538288838901614ff2565b9450604087013591508082111561539857600080fd5b6153a488838901614efb565b935060608701359150808211156153ba57600080fd5b506153c787828801614efb565b91505092959194509250565b803580151581146153e357600080fd5b919050565b6000602082840312156153fa57600080fd5b615403826153d3565b9392505050565b60006020828403121561541c57600080fd5b813561540381614a6c565b60006020808301818452808551808352604092508286019150828160051b87010184880160005b838110156154d857888303603f19018552815180516001600160a01b0390811685528882015116888501528681015160c08886018190529061549282870182614aad565b606084810151908801526080808501519088015260a0938401518782039488019490945291506154c490508183614aad565b96890196945050509086019060010161544e565b509098975050505050505050565b6020815260006154036020830184614bfb565b6000806000806080858703121561550f57600080fd5b8435935060208501356001600160401b038082111561552d57600080fd5b61553988838901614efb565b945060408701359350606087013591508082111561555657600080fd5b506153c787828801614ff2565b6020815261557d6020820183516001600160a01b03169052565b6000602083015161012080604085015261559b610140850183614aad565b91506040850151601f19808685030160608701526155b98483614aad565b93506060870151608087015260808701519150808685030160a08701526155e08483614aad565b935060a08701519150808685030160c08701526155fd8483614aad565b935060c08701519150808685030160e08701525061561b8382614afa565b60e087015161010087810191909152870151801515848801529093509050614d98565b6000806000806080858703121561565457600080fd5b84356001600160401b038082111561566b57600080fd5b61567788838901614efb565b9550602087013591508082111561568d57600080fd5b61538288838901614efb565b8781526001600160a01b038716602082015260e0604082018190526000906156c390830188614aad565b82810360608401526156d58188614aad565b905082810360808401526156e98187614aad565b60a0840195909552505090151560c09091015295945050505050565b6020815260006154036020830184614cd4565b600080600080600080600060e0888a03121561573357600080fd5b87356001600160401b038082111561574a57600080fd5b6157568b838c01614efb565b985060208a013591508082111561576c57600080fd5b6157788b838c01614efb565b975060408a0135965060608a013591508082111561579557600080fd5b6157a18b838c01614efb565b955060808a01359150808211156157b757600080fd5b6157c38b838c01614efb565b945060a08a01359150808211156157d957600080fd5b506157e68a828b01614ff2565b9250506157f560c089016153d3565b905092959891949750929550565b60008060006060848603121561581857600080fd5b83356001600160401b038082111561582f57600080fd5b61583b87838801614efb565b9450602086013591508082111561585157600080fd5b5061585e86828701614efb565b925050604084013561586f81614a6c565b809150509250925092565b60006020808301818452808551808352604092508286019150828160051b87010184880160005b838110156154d857603f19898403018552815160c08151855288820151818a8701526158cf82870182614aad565b838a01516001600160a01b0316878b0152606080850151888303828a015291935091506158fc8382614aad565b6080858101519089015260a094850151949097019390935250505093860193908601906001016158a1565b60006020808301818452808551808352604092508286019150828160051b87010184880160005b838110156154d857603f19898403018552815160e081518552888201518986015287820151818987015261598482870182614aad565b9150506060808301518683038288015261599e8382614aad565b6080858101519089015260a0808601519089015260c09485015115159490970193909352505050938601939086019060010161594e565b60006020808301818452808551808352604092508286019150828160051b87010184880160005b838110156154d857888303603f19018552815180518452878101516001600160a01b039081168986015287820151168785015260608082015160c08287018190529190615a4b83880182614aad565b9250505060808083015186830382880152615a668382614afa565b60a094850151151597909401969096525050948701949250908601906001016159fc565b6020815260006154036020830184614df7565b8681526000602060018060a01b038089168285015280881660408501525060c06060840152615acf60c0840187614aad565b8381036080850152855180825282820190600581901b8301840184890160005b83811015615b1d57601f19868403018552615b0b838351614aad565b94870194925090860190600101615aef565b505087151560a08801529450615b339350505050565b979650505050505050565b634e487b7160e01b600052603260045260246000fd5b634e487b7160e01b600052601160045260246000fd5b6000600019821415615b7e57615b7e615b54565b5060010190565b600181811c90821680615b9957607f821691505b60208210811415615bba57634e487b7160e01b600052602260045260246000fd5b50919050565b600082821015615bd257615bd2615b54565b500390565b60008219821115615bea57615bea615b54565b50019056fea26469706673582212205ce6186b4e608428819e0f4dc35b6ad6931bdf5e9e3e1814e901860022cf435164736f6c634300080b0033",
  "immutableReferences": {},
  "source": "// SPDX-License-Identifier: MIT\r\npragma solidity >=0.4.1 < 0.9.0;\r\n\r\n/**\r\n* @title Kazi Krypto\r\n* @notice The contract a freelancing platform on the Ethereum blockchain\r\n* @notice The platform aims to connect freelancers and clients, facilitating secure and\r\ntransparent transactions while leveraging the benefits of blockchain technology\r\n\r\n* @dev user Registration and profiles\r\n* @dev Job posting and bidding\r\n* @dev Smart contract escrow\r\n* @dev messaging and collaboration\r\n* @dev reputation and reviews\r\n* @dev payment and escrow release\r\n* @dev transaction history and analytics\r\n* @dev conflict resolution\r\n */\r\n \r\n\r\ncontract KaziKrypto {\r\n\r\n    address owner;\r\n    /**\r\n    * @dev allow smart contract to receive payments\r\n    */\r\n    \r\n    constructor() payable {\r\n        owner == msg.sender;  \r\n    }\r\n\r\n\r\n    /// @title Freelancer Profile\r\n    /// @dev Struct to store user profile\r\n    struct Freelancer {\r\n        address payable accountId;\r\n        string profileImage;\r\n        string fullName;\r\n        uint hourlyRate;\r\n        string profession;\r\n        string paymentPreference;\r\n        string[] skills;\r\n        uint profileRating;\r\n        bool isProfilePublic;\r\n    }\r\n\r\n    struct Disputes {\r\n        string disputeName;\r\n        string description;\r\n        address disputor;\r\n        address clientInvolved;\r\n        bool resolved;\r\n    }\r\n\r\n    Disputes[] disputes;\r\n\r\n    /// @title freelancer portfolio\r\n    /// @notice all portfolios mapped to the specific freelancer Id\r\n    struct FreelancerPortfolio {\r\n        address accountId;\r\n        string[] images; /// @dev optional\r\n        string[] videos; /// @dev optional\r\n        string taskUrl;\r\n        string description;\r\n    }\r\n\r\n    /// @title freelancer experience\r\n    /// @dev store freelancer experience\r\n    struct FreelancerExperience {\r\n        address accountId;\r\n        string fromDate;\r\n        string toDate;\r\n        string jobTitle;\r\n        string jobDescription;\r\n    }\r\n\r\n    /// @title Job posting and bidding\r\n    /// @dev struct to store job requirements\r\n    struct ClientJobs {\r\n        uint jobId;\r\n        address accountId;\r\n        string projectTitle;\r\n        string projectDescription;\r\n        string projectDuration;\r\n        uint projectBudget;\r\n        string[] skillRequirements;\r\n        string[] images; ///@dev optional\r\n        bool bidAvailable;\r\n    }\r\n\r\n    /// @title FreelancerBids;\r\n    /// @dev store each freelancerBid\r\n    /// @dev make a reference to the account Id of the freelancer\r\n    struct FreelancerBids {\r\n        uint jobId;\r\n        uint bidId;\r\n        address accountId;\r\n        string bidDescription;\r\n        uint budget;\r\n        string[] relevantFiles; /// @dev optional\r\n        bool bidApproved;\r\n    }\r\n\r\n    uint private clientBidId;\r\n\r\n    /// @title Milestones\r\n    /// @dev allow frelancer to bid in form of milestones\r\n    /// @dev optional\r\n\r\n    struct ProjectMilestones {\r\n        uint bidId;\r\n        uint mileStoneId;\r\n        string milestoneName;\r\n        string milestoneDescription;\r\n        uint milestoneBudget;\r\n        uint milestoneDuration;\r\n        bool milestoneWorkApproved;\r\n    }\r\n\r\n    uint private mileStoneId;\r\n\r\n    /// @title Chats\r\n    /// @dev chat from intended sender to intended receiver\r\n\r\n    struct Chats {\r\n        uint timestamp;\r\n        address sender;\r\n        address receiver;\r\n        string message;\r\n        string[] attachedFiles; /// @dev optional\r\n        bool seen;\r\n    }\r\n\r\n    /// @title client ratings\r\n    /// @dev single client Rating\r\n    /// @dev done by the freelancer\r\n\r\n    struct ClientRatings {\r\n        uint bidId;\r\n        string ProjectName; /// @dev optional\r\n        address accountId;\r\n        string feedback; /// @dev optional\r\n        uint ratingForTimelyPayments; /// @dev maximum 5\r\n        uint ratingForTimelyFeedbacks; /// @dev maximum 5\r\n    }\r\n\r\n    /// @title freelancerr Ratings\r\n    /// @dev single freelancer Rating\r\n\r\n    struct FreelancerRatings {\r\n        uint bidId;\r\n        string ProjectName; /// @dev optional;\r\n        address accountId; \r\n        string feedback; /// @dev optional;\r\n        uint ratingForCompletedProjects; /// @dev max 5;\r\n        uint ratingForCommunicationSkills; /// @dev max 5;\r\n    }\r\n\r\n    /// @title Transaction History\r\n    /// @dev store transaction history\r\n    struct Transaction {\r\n        address payable from;\r\n        address payable to;\r\n        string transactionPurpose;\r\n        uint transactionAmount;\r\n        uint timestamp;\r\n        string transactionStatus;\r\n    }\r\n\r\n    mapping(address => Transaction[]) transactions;\r\n\r\n    /// @dev freelancer detail storage\r\n    /// @dev store personal details\r\n    /// @dev store each freelancer portfolio\r\n    /// @dev store freelancer experience\r\n    /// @dev store freelancer ratings;\r\n    /// @dev everybody is a freelancer \r\n    /// @dev current project milestones\r\n    mapping(address => Freelancer) freelancers;\r\n    mapping(address => FreelancerPortfolio[]) freelancerPortfolios;\r\n    mapping(address => FreelancerExperience[]) freelancerExperiences;\r\n    mapping(address => FreelancerRatings[]) freelancerRatings;\r\n    mapping(address => ProjectMilestones[]) milestonesInAccount;\r\n\r\n    /// @dev client detail storage\r\n    /// @dev store Client Jobs\r\n    /// @dev not everybody is a client\r\n    uint internal clientJobId;\r\n    ClientJobs[] public allClientJobs;\r\n\r\n    mapping(uint => ClientJobs) public clientJobsById;\r\n    mapping(uint => FreelancerBids[]) allBidsForClientJobs;\r\n\r\n    /// @dev acceptedBidDetail\r\n    /// @dev storage done here if the data stored above has been validated\r\n    mapping(uint => ProjectMilestones[]) projectMilestonesForAcceptedBids;\r\n\r\n\r\n    /// @dev Chat storage;\r\n    mapping(address => Chats[]) freelancerChats;\r\n\r\n    /**\r\n    * @param _fullName full names for freelancer\r\n    * @param _profession he inputs his profession\r\n    * @param _preferredPayment he fills his preferred payment\r\n    * @param _skill he fills in his skills\r\n    * @dev rating is automatically filled for the first time as 0\r\n    * @notice after logging in for the first time update details here\r\n     */\r\n\r\n    function addNewFreelancer(string memory _fullName,string memory _profileImage, uint _hourlyRate,string memory _profession, string memory _preferredPayment, string[] memory _skill, bool _isProfilePublic)public{\r\n        /// @dev validate inputs\r\n        // require(_fullName.length > 0, \"enter_name\");\r\n        // require(_profession.length > 0, \"enter_profession\");\r\n        // require(_preferredPayment.length > 0, \"enter_preferred_payment\");\r\n        // require(_skill.length > 0, \"enter_one_skill\");\r\n\r\n        /// @dev make the storage\r\n        freelancers[msg.sender] = Freelancer(payable(msg.sender),_profileImage, _fullName,_hourlyRate,  _profession, _preferredPayment, _skill, 0, _isProfilePublic); \r\n    }\r\n\r\n    /**\r\n     * @notice Allows freelancers to update their profile information\r\n     * @param _fullName Updated full names for freelancer\r\n     * @param _hourlyRate Updated hourly rate\r\n     * @param _profession Updated profession\r\n     * @param _preferredPayment Updated preferred payment\r\n     * @param _skills Updated skills\r\n     */\r\n    function editFreelancerProfile(string memory _fullName, uint _hourlyRate, string memory _profession, string memory _preferredPayment, string[] memory _skills) public {\r\n        Freelancer storage freelancer = freelancers[msg.sender];\r\n        freelancer.fullName = _fullName;\r\n        freelancer.hourlyRate = _hourlyRate;\r\n        freelancer.profession = _profession;\r\n        freelancer.paymentPreference = _preferredPayment;\r\n        freelancer.skills = _skills;\r\n    }\r\n\r\n    /**\r\n     * @notice Allows freelancers to set their profile visibility status\r\n     * @param _isProfilePublic Boolean indicating if the profile is public (true) or private (false)\r\n     */\r\n    function setProfileVisibility(bool _isProfilePublic) public {\r\n        freelancers[msg.sender].isProfilePublic = _isProfilePublic;\r\n    }\r\n\r\n    function getFreelancer(address _freelancerAddress) public view returns (Freelancer memory) {\r\n        return freelancers[_freelancerAddress];\r\n    }\r\n\r\n    /**\r\n    * @notice adds portfolio to an existing freelancer profile\r\n    * @param _images images involved\r\n    * @param _description description involved | optional\r\n    * @param _taskurl url to the task | optional\r\n    * @param _videos videos involved if any\r\n    * \r\n     */\r\n\r\n     function addPortfolio(string[] memory _images, string[] memory _videos, string memory _taskurl, string memory _description) public {\r\n        freelancerPortfolios[msg.sender].push(FreelancerPortfolio(msg.sender, _images, _videos, _taskurl, _description));\r\n     }\r\n\r\n\r\n    function getPortfolio(address _freelancerAddress, uint256 _index) public view returns (FreelancerPortfolio memory) {\r\n        return freelancerPortfolios[_freelancerAddress][_index];\r\n    }\r\n     /**\r\n     * @notice adds experiences to a freelancer account\r\n     * @param _fromDate date started\r\n     * @param _toDate date ended, // optional if still working\r\n     * @param _jobTitle role of the freelancer\r\n     * @param _jobDescription description of the job\r\n     */\r\n\r\n     function addFreelancerExperience(string memory _fromDate, string memory _toDate, string memory _jobTitle, string memory _jobDescription)public{\r\n        freelancerExperiences[msg.sender].push(FreelancerExperience(msg.sender, _fromDate, _toDate, _jobTitle, _jobDescription));\r\n     }\r\n\r\n    function getExperience(address _freelancerAddress, uint256 _index) public view returns (FreelancerExperience memory) {\r\n        return freelancerExperiences[_freelancerAddress][_index];\r\n    }\r\n\r\n\r\n    /**\r\n    * @dev anyone can do this\r\n    * @dev one has to fully pay for the task when posting to ensure integrity of the DAPP\r\n    * @param _projectTitle title of the task\r\n    * @param _projectDescription description of the project\r\n    * @param _projectDuration should be in range of dates\r\n    * @param _projectBudget should be more than 0\r\n    * @param _skillRequirements at least one\r\n    * @param _images if any*/\r\n     function postAClientJob(string memory _projectTitle, string memory _projectDescription, string memory _projectDuration, uint _projectBudget, string[] memory _skillRequirements, string[] memory _images) public payable {\r\n        address payable contractAddress = payable(address(this));\r\n        (bool sent, bytes memory data) = contractAddress.call{value: msg.value}(\"\");\r\n        clientJobId++;\r\n        allClientJobs.push(ClientJobs(clientJobId, msg.sender, _projectTitle, _projectDescription, _projectDuration, _projectBudget, _skillRequirements, _images, true));\r\n        ClientJobs memory newClientJob = ClientJobs(clientJobId, msg.sender, _projectTitle, _projectDescription, _projectDuration, _projectBudget, _skillRequirements, _images, true);\r\n        clientJobsById[clientJobId] = newClientJob;\r\n        transactions[msg.sender].push(Transaction(payable(msg.sender), contractAddress, \"Project posting\", msg.value, block.timestamp, \"on_escrow\"));\r\n     }\r\n\r\n    //  function getAllClientJobs() public view returns (ClientJobs[] memory){\r\n    //     return allClientJobs;\r\n    //  } \r\n\r\n\r\n    function getClientJob() public view returns (ClientJobs[] memory) {\r\n       \r\n        return allClientJobs;\r\n    }\r\n\r\n    // Function to get a client job by its jobId\r\n    function getClientJobById(uint jobId) public view returns (ClientJobs memory) {\r\n        return clientJobsById[jobId];\r\n    }\r\n    /**\r\n    * @dev makeAbidding\r\n    * @dev only occurs on existing project id\r\n    * @param _jobid id for  the job description\r\n    * @param _bidDescription auto generated id for bid description\r\n    * @param _budget freelancer budget for bid description\r\n    * @param _relevantFiles if the freelancer needs to upload relevant files to justify his bidding */\r\n     function makeABidding(uint _jobid, string memory _bidDescription, uint _budget, string[] memory _relevantFiles) public {\r\n        uint internalBidCounter;\r\n        for(uint i = 0; i < allBidsForClientJobs[_jobid].length; i++){\r\n            if(allBidsForClientJobs[_jobid][i].accountId == msg.sender){\r\n                revert(\"allready_made_bid\");\r\n            }\r\n        }\r\n\r\n        for (uint i = 0; i < allClientJobs.length; i++) {\r\n            if(allClientJobs[i].jobId == _jobid){\r\n                clientBidId++;\r\n                internalBidCounter++;\r\n                allBidsForClientJobs[_jobid].push(FreelancerBids(_jobid, clientBidId, msg.sender, _bidDescription, _budget, _relevantFiles, false));\r\n            }\r\n        }\r\n\r\n        if(internalBidCounter < 1){\r\n            revert(\"bid_doesnt_exist\");\r\n        }\r\n     }\r\n\r\n    function getBid(uint256 _jobid, uint256 _bidId) public view returns (FreelancerBids memory) {\r\n        require(_bidId > 0 && _bidId <= clientBidId, \"Invalid bid ID\");\r\n        FreelancerBids[] memory bids = allBidsForClientJobs[_jobid];\r\n        for (uint256 i = 0; i < bids.length; i++) {\r\n            if (bids[i].bidId == _bidId) {\r\n                return bids[i];\r\n            }\r\n        }\r\n        revert(\"Bid not found\");\r\n    }\r\n\r\n    function getBids(uint256 _jobid) public view returns (FreelancerBids[] memory) {\r\n        return allBidsForClientJobs[_jobid];\r\n    }\r\n\r\n\r\n     function chat(address _receiver, string memory _message, string[] memory _attachedFiles) public {\r\n        freelancerChats[_receiver].push(Chats(block.timestamp, msg.sender, _receiver, _message, _attachedFiles, false));\r\n     }\r\n\r\n     function markAsRead(address _receiver)public{\r\n        for(uint i = 0; i < freelancerChats[_receiver].length; i++){\r\n            if(freelancerChats[_receiver][i].sender == msg.sender){\r\n                freelancerChats[_receiver][i].seen = true;\r\n            }\r\n        }\r\n     }\r\n\r\n    function getChat(address _receiver, uint _index) public view returns (\r\n        uint timestamp,\r\n        address sender,\r\n        address receiver,\r\n        string memory message,\r\n        string[] memory attachedFiles,\r\n        bool seen\r\n    ) {\r\n        Chats memory chat = freelancerChats[_receiver][_index];\r\n        return (\r\n            chat.timestamp,\r\n            chat.sender,\r\n            chat.receiver,\r\n            chat.message,\r\n            chat.attachedFiles,\r\n            chat.seen\r\n        );\r\n    }\r\n\r\n    function getChats(address _receiver) public view returns (Chats[] memory) {\r\n        return freelancerChats[_receiver];\r\n    }\r\n\r\n    function acceptBid(uint _jobId, uint _bidId) public {\r\n        for(uint i = 0; i < allBidsForClientJobs[_jobId].length; i++){\r\n            if(allBidsForClientJobs[_jobId][i].bidId  == _bidId){\r\n                if(allBidsForClientJobs[_jobId][i].bidApproved == true){\r\n                    revert(\"bid_allready_approved\");\r\n                }else{\r\n                    allBidsForClientJobs[_jobId][i].bidApproved = true;\r\n                }\r\n            }\r\n        }\r\n        for(uint i = 0; i < allClientJobs.length; i++){\r\n            if(allClientJobs[i].jobId == _jobId){\r\n\r\n                if(allClientJobs[i].bidAvailable == false){\r\n                    revert(\"bid not available\");\r\n                }else{\r\n                    allClientJobs[i].bidAvailable = false;\r\n                }\r\n            }\r\n        }\r\n    }\r\n\r\n    function addProjectMileStone(uint _jobId, uint _bidId, string memory _milestoneName, string memory _mileStoneDescription, uint _mileStoneBudget, uint _mileStoneDuration) public {\r\n        uint remaining_budget;\r\n        uint dataPosition;\r\n         for(uint i = 0; i < allBidsForClientJobs[_jobId].length; i++){\r\n           if(allBidsForClientJobs[_jobId][i].bidId == _bidId && allBidsForClientJobs[_jobId][i].bidApproved == true){\r\n            remaining_budget = allBidsForClientJobs[_jobId][i].budget;\r\n            dataPosition = i;\r\n           }\r\n        }\r\n\r\n\r\n\r\n        if(remaining_budget < _mileStoneBudget){\r\n            revert('budget_overpriced');\r\n        }else if(allBidsForClientJobs[_jobId][dataPosition].bidApproved == false){\r\n            revert('bid_not_approved');\r\n        }\r\n        else{\r\n            mileStoneId++;\r\n            allBidsForClientJobs[_jobId][dataPosition].budget -= _mileStoneBudget;\r\n            ///@dev will be used for freelancer rating purposes\r\n            milestonesInAccount[msg.sender].push(ProjectMilestones(_bidId,mileStoneId, _milestoneName, _mileStoneDescription, _mileStoneBudget, _mileStoneDuration, false));\r\n\r\n            ///@dev will be used for client project management\r\n            projectMilestonesForAcceptedBids[_bidId].push(ProjectMilestones(_bidId,mileStoneId, _milestoneName, _mileStoneDescription, _mileStoneBudget, _mileStoneDuration, false));\r\n        }\r\n    }\r\n\r\n    \r\n   \r\n\r\n    function approveProjectMilestone(address payable _freelancer, uint _mileStoneId)public {\r\n        uint bidId;\r\n        address jobOwner;\r\n        /// @dev making sure only the project owner can make the approval\r\n\r\n\r\n        for(uint i = 0; i < allClientJobs.length; i++){\r\n            if(allClientJobs[i].accountId == msg.sender){\r\n                jobOwner = msg.sender;\r\n            }\r\n        }\r\n\r\n        if(jobOwner != msg.sender){\r\n            revert(\"only_job_owner\");\r\n        }\r\n        \r\n\r\n        for(uint i = 0; i < milestonesInAccount[_freelancer].length; i++){\r\n            if(milestonesInAccount[_freelancer][i].mileStoneId == _mileStoneId && milestonesInAccount[_freelancer][i].milestoneWorkApproved == false && jobOwner == msg.sender) {\r\n                bidId = milestonesInAccount[_freelancer][i].bidId;\r\n                address payable contractAddress = payable(address(this));\r\n                milestonesInAccount[_freelancer][i].milestoneWorkApproved = true;\r\n                _freelancer.transfer(milestonesInAccount[_freelancer][i].milestoneBudget);\r\n                transactions[_freelancer].push(Transaction(contractAddress, _freelancer, \"Approval\",milestonesInAccount[_freelancer][i].milestoneBudget , block.timestamp, \"settled\"));\r\n            }\r\n        }\r\n\r\n\r\n\r\n        for(uint i = 0; i < projectMilestonesForAcceptedBids[bidId].length; i++){\r\n            if(projectMilestonesForAcceptedBids[bidId][i].mileStoneId == _mileStoneId){\r\n                projectMilestonesForAcceptedBids[bidId][i].milestoneWorkApproved = true;\r\n            }\r\n        } \r\n    }\r\n\r\n    /// @dev displays a freelancer milestone at profile Mode\r\n    function getFreelancerMileStones(address _accountId) public view returns(ProjectMilestones[] memory){\r\n        return milestonesInAccount[_accountId];\r\n    }\r\n\r\n    /// @dev displays freelancer milestone in Project mode\r\n    function getProjectMileStones(uint _bidId) public view returns (ProjectMilestones[] memory){\r\n        return projectMilestonesForAcceptedBids[_bidId];\r\n    }\r\n\r\n    /// @dev display freelancer transaction at profile Mode\r\n    function getFreelancerTransactions(address _accountId) public view returns(Transaction[] memory){\r\n        return transactions[_accountId];\r\n    }\r\n\r\n    /// @dev rate a freelancer\r\n    function rateAfreelancer(address _accountId, uint _bidId,string memory _projectName, string memory _feedBack, uint _ratingForCompletedProjects, uint _ratingForCommunicationSkills) public {\r\n        uint isRated = 0;\r\n        for(uint i = 0; i < freelancerRatings[_accountId].length; i++){\r\n            if(freelancerRatings[_accountId][i].bidId == _bidId){\r\n                isRated += 1;\r\n            }\r\n        }\r\n\r\n        if(isRated == 0){\r\n            freelancerRatings[_accountId].push(FreelancerRatings(_bidId, _projectName, _accountId, _feedBack, _ratingForCompletedProjects, _ratingForCommunicationSkills));\r\n        }else{\r\n            revert(\"allready rated\");\r\n        }\r\n    }\r\n    /// @dev view freelancer rating\r\n\r\n    function viewFreelancerRating(address _accountId) public view returns(FreelancerRatings[] memory){\r\n        return freelancerRatings[_accountId];\r\n    }\r\n\r\n    /// @dev disputes handling\r\n    function createDispute(string memory _disputeName, string memory _description, address _clientInvolved) public {\r\n        for(uint i = 0; i < disputes.length; i++){\r\n            if(disputes[i].disputor == msg.sender && disputes[i].resolved == false){\r\n                revert(\"solve_your_dispute_first\");\r\n            }\r\n        }\r\n        disputes.push(Disputes(_disputeName, _description, msg.sender, _clientInvolved, false));\r\n    }\r\n\r\n    modifier onlyOwner {\r\n        require(owner == msg.sender, \"only_owner\");\r\n        _;\r\n    }\r\n\r\n    function markDisputeAsResolved(address _disputor) public onlyOwner {\r\n        for(uint i = 0; i < disputes.length; i++){\r\n            if(disputes[i].disputor == _disputor && disputes[i].resolved == false){\r\n                disputes[i].resolved = true;\r\n            }\r\n        }\r\n    }\r\n\r\n\r\n    function getDispute(uint index) public view returns (Disputes memory) {\r\n        require(index < disputes.length, \"Invalid index\");\r\n        return disputes[index];\r\n    }\r\n\r\n    function getAllDisputes() public view returns (Disputes[] memory) {\r\n        return disputes;\r\n    }\r\n}",
  "sourcePath": "C:\\Users\\pc\\Desktop\\ethprojects\\kazikrypto\\contract\\contracts\\KaziKrypto.sol",
  "compiler": {
    "name": "solc",
    "version": "0.8.11+commit.d7f03943.Emscripten.clang"
  },
  "schemaVersion": "3.4.14",
  "updatedAt": "2023-08-20T13:10:28.869Z",
  "networkType": "ethereum",
  "devdoc": {
    "details": "user Registration and profilesJob posting and biddingSmart contract escrowmessaging and collaborationreputation and reviewspayment and escrow releasetransaction history and analyticsconflict resolution",
    "kind": "dev",
    "methods": {
      "addFreelancerExperience(string,string,string,string)": {
        "params": {
          "_fromDate": "date started",
          "_jobDescription": "description of the job",
          "_jobTitle": "role of the freelancer",
          "_toDate": "date ended, // optional if still working"
        }
      },
      "addNewFreelancer(string,string,uint256,string,string,string[],bool)": {
        "details": "rating is automatically filled for the first time as 0",
        "params": {
          "_fullName": "full names for freelancer",
          "_preferredPayment": "he fills his preferred payment",
          "_profession": "he inputs his profession",
          "_skill": "he fills in his skills"
        }
      },
      "addPortfolio(string[],string[],string,string)": {
        "params": {
          "_description": "description involved | optional",
          "_images": "images involved",
          "_taskurl": "url to the task | optional",
          "_videos": "videos involved if any "
        }
      },
      "constructor": {
        "details": "allow smart contract to receive payments"
      },
      "createDispute(string,string,address)": {
        "details": "disputes handling"
      },
      "editFreelancerProfile(string,uint256,string,string,string[])": {
        "params": {
          "_fullName": "Updated full names for freelancer",
          "_hourlyRate": "Updated hourly rate",
          "_preferredPayment": "Updated preferred payment",
          "_profession": "Updated profession",
          "_skills": "Updated skills"
        }
      },
      "getFreelancerMileStones(address)": {
        "details": "displays a freelancer milestone at profile Mode"
      },
      "getFreelancerTransactions(address)": {
        "details": "display freelancer transaction at profile Mode"
      },
      "getProjectMileStones(uint256)": {
        "details": "displays freelancer milestone in Project mode"
      },
      "makeABidding(uint256,string,uint256,string[])": {
        "details": "makeAbiddingonly occurs on existing project id",
        "params": {
          "_bidDescription": "auto generated id for bid description",
          "_budget": "freelancer budget for bid description",
          "_jobid": "id for  the job description",
          "_relevantFiles": "if the freelancer needs to upload relevant files to justify his bidding "
        }
      },
      "postAClientJob(string,string,string,uint256,string[],string[])": {
        "details": "anyone can do thisone has to fully pay for the task when posting to ensure integrity of the DAPP",
        "params": {
          "_images": "if any",
          "_projectBudget": "should be more than 0",
          "_projectDescription": "description of the project",
          "_projectDuration": "should be in range of dates",
          "_projectTitle": "title of the task",
          "_skillRequirements": "at least one"
        }
      },
      "rateAfreelancer(address,uint256,string,string,uint256,uint256)": {
        "details": "rate a freelancer"
      },
      "setProfileVisibility(bool)": {
        "params": {
          "_isProfilePublic": "Boolean indicating if the profile is public (true) or private (false)"
        }
      },
      "viewFreelancerRating(address)": {
        "details": "view freelancer rating"
      }
    },
    "stateVariables": {
      "clientJobId": {
        "details": "client detail storagestore Client Jobsnot everybody is a client"
      },
      "freelancerChats": {
        "details": "Chat storage;"
      },
      "freelancers": {
        "details": "freelancer detail storagestore personal detailsstore each freelancer portfoliostore freelancer experiencestore freelancer ratings;everybody is a freelancer current project milestones"
      },
      "projectMilestonesForAcceptedBids": {
        "details": "acceptedBidDetailstorage done here if the data stored above has been validated"
      }
    },
    "title": "Kazi Krypto",
    "version": 1
  },
  "userdoc": {
    "kind": "user",
    "methods": {
      "addFreelancerExperience(string,string,string,string)": {
        "notice": "adds experiences to a freelancer account"
      },
      "addNewFreelancer(string,string,uint256,string,string,string[],bool)": {
        "notice": "after logging in for the first time update details here"
      },
      "addPortfolio(string[],string[],string,string)": {
        "notice": "adds portfolio to an existing freelancer profile"
      },
      "editFreelancerProfile(string,uint256,string,string,string[])": {
        "notice": "Allows freelancers to update their profile information"
      },
      "setProfileVisibility(bool)": {
        "notice": "Allows freelancers to set their profile visibility status"
      }
    },
    "notice": "The contract a freelancing platform on the Ethereum blockchainThe platform aims to connect freelancers and clients, facilitating secure and transparent transactions while leveraging the benefits of blockchain technology",
    "version": 1
  }
}