{
  "contractName": "KaziKrypto",
  "abi": [
    {
      "inputs": [],
      "stateMutability": "payable",
      "type": "constructor"
    },
    {
      "inputs": [
        {
          "internalType": "string",
          "name": "_fullName",
          "type": "string"
        },
        {
          "internalType": "uint256",
          "name": "_hourlyRate",
          "type": "uint256"
        },
        {
          "internalType": "string",
          "name": "_profession",
          "type": "string"
        },
        {
          "internalType": "string",
          "name": "_preferredPayment",
          "type": "string"
        },
        {
          "internalType": "string[]",
          "name": "_skill",
          "type": "string[]"
        }
      ],
      "name": "addNewFreelancer",
      "outputs": [],
      "stateMutability": "nonpayable",
      "type": "function"
    },
    {
      "inputs": [
        {
          "internalType": "address",
          "name": "_freelancerAddress",
          "type": "address"
        }
      ],
      "name": "getFreelancer",
      "outputs": [
        {
          "components": [
            {
              "internalType": "address payable",
              "name": "accountId",
              "type": "address"
            },
            {
              "internalType": "string",
              "name": "fullName",
              "type": "string"
            },
            {
              "internalType": "uint256",
              "name": "hourlyRate",
              "type": "uint256"
            },
            {
              "internalType": "string",
              "name": "profession",
              "type": "string"
            },
            {
              "internalType": "string",
              "name": "paymentPreference",
              "type": "string"
            },
            {
              "internalType": "string[]",
              "name": "skills",
              "type": "string[]"
            },
            {
              "internalType": "uint256",
              "name": "profileRating",
              "type": "uint256"
            }
          ],
          "internalType": "struct KaziKrypto.Freelancer",
          "name": "",
          "type": "tuple"
        }
      ],
      "stateMutability": "view",
      "type": "function"
    },
    {
      "inputs": [
        {
          "internalType": "string[]",
          "name": "_images",
          "type": "string[]"
        },
        {
          "internalType": "string[]",
          "name": "_videos",
          "type": "string[]"
        },
        {
          "internalType": "string",
          "name": "_taskurl",
          "type": "string"
        },
        {
          "internalType": "string",
          "name": "_description",
          "type": "string"
        }
      ],
      "name": "addPortfolio",
      "outputs": [],
      "stateMutability": "nonpayable",
      "type": "function"
    },
    {
      "inputs": [
        {
          "internalType": "address",
          "name": "_freelancerAddress",
          "type": "address"
        },
        {
          "internalType": "uint256",
          "name": "_index",
          "type": "uint256"
        }
      ],
      "name": "getPortfolio",
      "outputs": [
        {
          "components": [
            {
              "internalType": "address",
              "name": "accountId",
              "type": "address"
            },
            {
              "internalType": "string[]",
              "name": "images",
              "type": "string[]"
            },
            {
              "internalType": "string[]",
              "name": "videos",
              "type": "string[]"
            },
            {
              "internalType": "string",
              "name": "taskUrl",
              "type": "string"
            },
            {
              "internalType": "string",
              "name": "description",
              "type": "string"
            }
          ],
          "internalType": "struct KaziKrypto.FreelancerPortfolio",
          "name": "",
          "type": "tuple"
        }
      ],
      "stateMutability": "view",
      "type": "function"
    },
    {
      "inputs": [
        {
          "internalType": "string",
          "name": "_fromDate",
          "type": "string"
        },
        {
          "internalType": "string",
          "name": "_toDate",
          "type": "string"
        },
        {
          "internalType": "string",
          "name": "_jobTitle",
          "type": "string"
        },
        {
          "internalType": "string",
          "name": "_jobDescription",
          "type": "string"
        }
      ],
      "name": "addFreelancerExperience",
      "outputs": [],
      "stateMutability": "nonpayable",
      "type": "function"
    },
    {
      "inputs": [
        {
          "internalType": "address",
          "name": "_freelancerAddress",
          "type": "address"
        },
        {
          "internalType": "uint256",
          "name": "_index",
          "type": "uint256"
        }
      ],
      "name": "getExperience",
      "outputs": [
        {
          "components": [
            {
              "internalType": "address",
              "name": "accountId",
              "type": "address"
            },
            {
              "internalType": "string",
              "name": "fromDate",
              "type": "string"
            },
            {
              "internalType": "string",
              "name": "toDate",
              "type": "string"
            },
            {
              "internalType": "string",
              "name": "jobTitle",
              "type": "string"
            },
            {
              "internalType": "string",
              "name": "jobDescription",
              "type": "string"
            }
          ],
          "internalType": "struct KaziKrypto.FreelancerExperience",
          "name": "",
          "type": "tuple"
        }
      ],
      "stateMutability": "view",
      "type": "function"
    },
    {
      "inputs": [
        {
          "internalType": "string",
          "name": "_projectTitle",
          "type": "string"
        },
        {
          "internalType": "string",
          "name": "_projectDescription",
          "type": "string"
        },
        {
          "internalType": "string",
          "name": "_projectDuration",
          "type": "string"
        },
        {
          "internalType": "uint256",
          "name": "_projectBudget",
          "type": "uint256"
        },
        {
          "internalType": "string[]",
          "name": "_skillRequirements",
          "type": "string[]"
        },
        {
          "internalType": "string[]",
          "name": "_images",
          "type": "string[]"
        }
      ],
      "name": "postAClientJob",
      "outputs": [],
      "stateMutability": "payable",
      "type": "function"
    },
    {
      "inputs": [
        {
          "internalType": "uint256",
          "name": "_jobId",
          "type": "uint256"
        }
      ],
      "name": "getClientJob",
      "outputs": [
        {
          "components": [
            {
              "internalType": "uint256",
              "name": "jobId",
              "type": "uint256"
            },
            {
              "internalType": "address",
              "name": "accountId",
              "type": "address"
            },
            {
              "internalType": "string",
              "name": "projectTitle",
              "type": "string"
            },
            {
              "internalType": "string",
              "name": "projectDescription",
              "type": "string"
            },
            {
              "internalType": "string",
              "name": "projectDuration",
              "type": "string"
            },
            {
              "internalType": "uint256",
              "name": "projectBudget",
              "type": "uint256"
            },
            {
              "internalType": "string[]",
              "name": "skillRequirements",
              "type": "string[]"
            },
            {
              "internalType": "string[]",
              "name": "images",
              "type": "string[]"
            },
            {
              "internalType": "bool",
              "name": "bidAvailable",
              "type": "bool"
            }
          ],
          "internalType": "struct KaziKrypto.ClientJobs",
          "name": "",
          "type": "tuple"
        }
      ],
      "stateMutability": "view",
      "type": "function"
    },
    {
      "inputs": [
        {
          "internalType": "uint256",
          "name": "_jobid",
          "type": "uint256"
        },
        {
          "internalType": "string",
          "name": "_bidDescription",
          "type": "string"
        },
        {
          "internalType": "uint256",
          "name": "_budget",
          "type": "uint256"
        },
        {
          "internalType": "string[]",
          "name": "_relevantFiles",
          "type": "string[]"
        }
      ],
      "name": "makeABidding",
      "outputs": [],
      "stateMutability": "nonpayable",
      "type": "function"
    },
    {
      "inputs": [
        {
          "internalType": "uint256",
          "name": "_jobid",
          "type": "uint256"
        },
        {
          "internalType": "uint256",
          "name": "_bidId",
          "type": "uint256"
        }
      ],
      "name": "getBid",
      "outputs": [
        {
          "components": [
            {
              "internalType": "uint256",
              "name": "jobId",
              "type": "uint256"
            },
            {
              "internalType": "uint256",
              "name": "bidId",
              "type": "uint256"
            },
            {
              "internalType": "address",
              "name": "accountId",
              "type": "address"
            },
            {
              "internalType": "string",
              "name": "bidDescription",
              "type": "string"
            },
            {
              "internalType": "uint256",
              "name": "budget",
              "type": "uint256"
            },
            {
              "internalType": "string[]",
              "name": "relevantFiles",
              "type": "string[]"
            },
            {
              "internalType": "bool",
              "name": "bidApproved",
              "type": "bool"
            }
          ],
          "internalType": "struct KaziKrypto.FreelancerBids",
          "name": "",
          "type": "tuple"
        }
      ],
      "stateMutability": "view",
      "type": "function"
    },
    {
      "inputs": [
        {
          "internalType": "uint256",
          "name": "_jobid",
          "type": "uint256"
        }
      ],
      "name": "getBids",
      "outputs": [
        {
          "components": [
            {
              "internalType": "uint256",
              "name": "jobId",
              "type": "uint256"
            },
            {
              "internalType": "uint256",
              "name": "bidId",
              "type": "uint256"
            },
            {
              "internalType": "address",
              "name": "accountId",
              "type": "address"
            },
            {
              "internalType": "string",
              "name": "bidDescription",
              "type": "string"
            },
            {
              "internalType": "uint256",
              "name": "budget",
              "type": "uint256"
            },
            {
              "internalType": "string[]",
              "name": "relevantFiles",
              "type": "string[]"
            },
            {
              "internalType": "bool",
              "name": "bidApproved",
              "type": "bool"
            }
          ],
          "internalType": "struct KaziKrypto.FreelancerBids[]",
          "name": "",
          "type": "tuple[]"
        }
      ],
      "stateMutability": "view",
      "type": "function"
    },
    {
      "inputs": [
        {
          "internalType": "address",
          "name": "_receiver",
          "type": "address"
        },
        {
          "internalType": "string",
          "name": "_message",
          "type": "string"
        },
        {
          "internalType": "string[]",
          "name": "_attachedFiles",
          "type": "string[]"
        }
      ],
      "name": "chat",
      "outputs": [],
      "stateMutability": "nonpayable",
      "type": "function"
    },
    {
      "inputs": [
        {
          "internalType": "address",
          "name": "_receiver",
          "type": "address"
        }
      ],
      "name": "markAsRead",
      "outputs": [],
      "stateMutability": "nonpayable",
      "type": "function"
    },
    {
      "inputs": [
        {
          "internalType": "address",
          "name": "_receiver",
          "type": "address"
        },
        {
          "internalType": "uint256",
          "name": "_index",
          "type": "uint256"
        }
      ],
      "name": "getChat",
      "outputs": [
        {
          "internalType": "uint256",
          "name": "timestamp",
          "type": "uint256"
        },
        {
          "internalType": "address",
          "name": "sender",
          "type": "address"
        },
        {
          "internalType": "address",
          "name": "receiver",
          "type": "address"
        },
        {
          "internalType": "string",
          "name": "message",
          "type": "string"
        },
        {
          "internalType": "string[]",
          "name": "attachedFiles",
          "type": "string[]"
        },
        {
          "internalType": "bool",
          "name": "seen",
          "type": "bool"
        }
      ],
      "stateMutability": "view",
      "type": "function"
    },
    {
      "inputs": [
        {
          "internalType": "address",
          "name": "_receiver",
          "type": "address"
        }
      ],
      "name": "getChats",
      "outputs": [
        {
          "components": [
            {
              "internalType": "uint256",
              "name": "timestamp",
              "type": "uint256"
            },
            {
              "internalType": "address",
              "name": "sender",
              "type": "address"
            },
            {
              "internalType": "address",
              "name": "receiver",
              "type": "address"
            },
            {
              "internalType": "string",
              "name": "message",
              "type": "string"
            },
            {
              "internalType": "string[]",
              "name": "attachedFiles",
              "type": "string[]"
            },
            {
              "internalType": "bool",
              "name": "seen",
              "type": "bool"
            }
          ],
          "internalType": "struct KaziKrypto.Chats[]",
          "name": "",
          "type": "tuple[]"
        }
      ],
      "stateMutability": "view",
      "type": "function"
    }
  ],
  "bytecode": "0x6080604052613078806100136000396000f3fe6080604052600436106100e85760003560e01c8063582c7ffd1161008a578063876ec70b11610059578063876ec70b14610299578063ce1d4783146102b9578063d9c83670146102e6578063f99ca8b61461030657600080fd5b8063582c7ffd146101ff5780635b0500981461022c5780635e70e5e71461024c57806364df6ab11461026c57600080fd5b8063349ae58a116100c6578063349ae58a146101655780634027b297146101855780634104823e146101b257806343ca1737146101df57600080fd5b80630e357a6e146100ed578063131d9a271461012357806325dfc14014610150575b600080fd5b3480156100f957600080fd5b5061010d6101083660046124f6565b610338565b60405161011a91906125c2565b60405180910390f35b34801561012f57600080fd5b5061014361013e366004612652565b6106a4565b60405161011a91906126e2565b61016361015e36600461289a565b6108c8565b005b34801561017157600080fd5b50610163610180366004612974565b610be1565b34801561019157600080fd5b506101a56101a03660046124f6565b610cc5565b60405161011a91906129e8565b3480156101be57600080fd5b506101d26101cd366004612652565b610e8e565b60405161011a9190612a34565b3480156101eb57600080fd5b506101636101fa366004612b1a565b611335565b34801561020b57600080fd5b5061021f61021a366004612bc7565b611414565b60405161011a9190612be9565b34801561023857600080fd5b50610163610247366004612c03565b611763565b34801561025857600080fd5b50610163610267366004612c6e565b6119b4565b34801561027857600080fd5b5061028c610287366004612d25565b611a9f565b60405161011a9190612d40565b3480156102a557600080fd5b506101636102b4366004612de9565b611dc5565b3480156102c557600080fd5b506102d96102d4366004612d25565b611e63565b60405161011a9190612e45565b3480156102f257600080fd5b50610163610301366004612d25565b61207a565b34801561031257600080fd5b506103266103213660046124f6565b612154565b60405161011a96959493929190612f08565b6103736040518060a0016040528060006001600160a01b03168152602001606081526020016060815260200160608152602001606081525090565b6001600160a01b038316600090815260036020526040902080548390811061039d5761039d612fa9565b600091825260208083206040805160a081018252600590940290910180546001600160a01b0316845260018101805483518186028101860190945280845294959194868501949192909184015b8282101561049657838290600052602060002001805461040990612fbf565b80601f016020809104026020016040519081016040528092919081815260200182805461043590612fbf565b80156104825780601f1061045757610100808354040283529160200191610482565b820191906000526020600020905b81548152906001019060200180831161046557829003601f168201915b5050505050815260200190600101906103ea565b50505050815260200160028201805480602002602001604051908101604052809291908181526020016000905b8282101561056f5783829060005260206000200180546104e290612fbf565b80601f016020809104026020016040519081016040528092919081815260200182805461050e90612fbf565b801561055b5780601f106105305761010080835404028352916020019161055b565b820191906000526020600020905b81548152906001019060200180831161053e57829003601f168201915b5050505050815260200190600101906104c3565b50505050815260200160038201805461058790612fbf565b80601f01602080910402602001604051908101604052809291908181526020018280546105b390612fbf565b80156106005780601f106105d557610100808354040283529160200191610600565b820191906000526020600020905b8154815290600101906020018083116105e357829003601f168201915b5050505050815260200160048201805461061990612fbf565b80601f016020809104026020016040519081016040528092919081815260200182805461064590612fbf565b80156106925780601f1061066757610100808354040283529160200191610692565b820191906000526020600020905b81548152906001019060200180831161067557829003601f168201915b50505050508152505090505b92915050565b606060096000838152602001908152602001600020805480602002602001604051908101604052809291908181526020016000905b828210156108bd5760008481526020908190206040805160e081018252600786029092018054835260018101549383019390935260028301546001600160a01b03169082015260038201805491929160608401919061073790612fbf565b80601f016020809104026020016040519081016040528092919081815260200182805461076390612fbf565b80156107b05780601f10610785576101008083540402835291602001916107b0565b820191906000526020600020905b81548152906001019060200180831161079357829003601f168201915b505050505081526020016004820154815260200160058201805480602002602001604051908101604052809291908181526020016000905b8282101561089457838290600052602060002001805461080790612fbf565b80601f016020809104026020016040519081016040528092919081815260200182805461083390612fbf565b80156108805780601f1061085557610100808354040283529160200191610880565b820191906000526020600020905b81548152906001019060200180831161086357829003601f168201915b5050505050815260200190600101906107e8565b505050908252506006919091015460ff16151560209182015290825260019290920191016106d9565b505050509050919050565b60405130906000908190839034908381818185875af1925050503d806000811461090e576040519150601f19603f3d011682016040523d82523d6000602084013e610913565b606091505b5060078054929450909250600061092983613010565b9091555050604080516101208101825260075481523360208083019182529282018c8152606083018c9052608083018b905260a083018a905260c0830189905260e0830188905260016101008401819052600880549182018155600052835160099091027ff3f7a9fe364faab93b216da50a3214154f22a0a2b415b23a84c8169e8b636ee3810191825592517ff3f7a9fe364faab93b216da50a3214154f22a0a2b415b23a84c8169e8b636ee4840180546001600160a01b03929092166001600160a01b03199092169190911790559051805193949193610a31937ff3f7a9fe364faab93b216da50a3214154f22a0a2b415b23a84c8169e8b636ee50192919091019061238e565b5060608201518051610a4d91600384019160209091019061238e565b5060808201518051610a6991600484019160209091019061238e565b5060a0820151600582015560c08201518051610a8f916006840191602090910190612412565b5060e08201518051610aab916007840191602090910190612412565b5061010091909101516008909101805460ff1916911515919091179055336000818152600160208181526040808420815160c0810183529586526001600160a01b0389811687850190815283518085018552600f81526e50726f6a65637420706f7374696e6760881b818701528885019081523460608a01524260808a0152845180860190955260098552686f6e5f657363726f7760b81b8587015260a08901949094528254808701845592875295849020875160069093020180546001600160a01b03199081169383169390931781559551948601805490921694169390931790925590518051610ba3926002850192019061238e565b50606082015160038201556080820151600482015560a08201518051610bd391600584019160209091019061238e565b505050505050505050505050565b6001600160a01b038084166000818152600b60209081526040808320815160c08101835242815233818501908152928101958652606081018981526080820189905260a08201869052825460018181018555938752958590208251600690970201958655925191850180549288166001600160a01b03199384161790559451600285018054919097169116179094559251805192939192610c88926003850192019061238e565b5060808201518051610ca4916004840191602090910190612412565b5060a091909101516005909101805460ff1916911515919091179055505050565b610d006040518060a0016040528060006001600160a01b03168152602001606081526020016060815260200160608152602001606081525090565b6001600160a01b0383166000908152600460205260409020805483908110610d2a57610d2a612fa9565b60009182526020918290206040805160a0810190915260059092020180546001600160a01b031682526001810180549293919291840191610d6a90612fbf565b80601f0160208091040260200160405190810160405280929190818152602001828054610d9690612fbf565b8015610de35780601f10610db857610100808354040283529160200191610de3565b820191906000526020600020905b815481529060010190602001808311610dc657829003601f168201915b50505050508152602001600282018054610dfc90612fbf565b80601f0160208091040260200160405190810160405280929190818152602001828054610e2890612fbf565b8015610e755780601f10610e4a57610100808354040283529160200191610e75565b820191906000526020600020905b815481529060010190602001808311610e5857829003601f168201915b5050505050815260200160038201805461058790612fbf565b610ee86040518061012001604052806000815260200160006001600160a01b031681526020016060815260200160608152602001606081526020016000815260200160608152602001606081526020016000151581525090565b600082118015610efa57506007548211155b610f3c5760405162461bcd60e51b815260206004820152600e60248201526d125b9d985b1a59081a9bd888125160921b60448201526064015b60405180910390fd5b6008610f4960018461302b565b81548110610f5957610f59612fa9565b906000526020600020906009020160405180610120016040529081600082015481526020016001820160009054906101000a90046001600160a01b03166001600160a01b03166001600160a01b03168152602001600282018054610fbc90612fbf565b80601f0160208091040260200160405190810160405280929190818152602001828054610fe890612fbf565b80156110355780601f1061100a57610100808354040283529160200191611035565b820191906000526020600020905b81548152906001019060200180831161101857829003601f168201915b5050505050815260200160038201805461104e90612fbf565b80601f016020809104026020016040519081016040528092919081815260200182805461107a90612fbf565b80156110c75780601f1061109c576101008083540402835291602001916110c7565b820191906000526020600020905b8154815290600101906020018083116110aa57829003601f168201915b505050505081526020016004820180546110e090612fbf565b80601f016020809104026020016040519081016040528092919081815260200182805461110c90612fbf565b80156111595780601f1061112e57610100808354040283529160200191611159565b820191906000526020600020905b81548152906001019060200180831161113c57829003601f168201915b505050505081526020016005820154815260200160068201805480602002602001604051908101604052809291908181526020016000905b8282101561123d5783829060005260206000200180546111b090612fbf565b80601f01602080910402602001604051908101604052809291908181526020018280546111dc90612fbf565b80156112295780601f106111fe57610100808354040283529160200191611229565b820191906000526020600020905b81548152906001019060200180831161120c57829003601f168201915b505050505081526020019060010190611191565b50505050815260200160078201805480602002602001604051908101604052809291908181526020016000905b8282101561131657838290600052602060002001805461128990612fbf565b80601f01602080910402602001604051908101604052809291908181526020018280546112b590612fbf565b80156113025780601f106112d757610100808354040283529160200191611302565b820191906000526020600020905b8154815290600101906020018083116112e557829003601f168201915b50505050508152602001906001019061126a565b505050908252506008919091015460ff16151560209091015292915050565b336000818152600360209081526040808320815160a081018352948552848301898152918501889052606085018790526080850186905280546001808201835591855293839020855160059095020180546001600160a01b0319166001600160a01b03909516949094178455905180516113b793928501929190910190612412565b50604082015180516113d3916002840191602090910190612412565b50606082015180516113ef91600384019160209091019061238e565b506080820151805161140b91600484019160209091019061238e565b50505050505050565b61145f6040518060e00160405280600081526020016000815260200160006001600160a01b031681526020016060815260200160008152602001606081526020016000151581525090565b60008211801561147157506000548211155b6114ae5760405162461bcd60e51b815260206004820152600e60248201526d125b9d985b1a5908189a5908125160921b6044820152606401610f33565b600083815260096020908152604080832080548251818502810185019093528083529192909190849084015b828210156116be5760008481526020908190206040805160e081018252600786029092018054835260018101549383019390935260028301546001600160a01b03169082015260038201805491929160608401919061153890612fbf565b80601f016020809104026020016040519081016040528092919081815260200182805461156490612fbf565b80156115b15780601f10611586576101008083540402835291602001916115b1565b820191906000526020600020905b81548152906001019060200180831161159457829003601f168201915b505050505081526020016004820154815260200160058201805480602002602001604051908101604052809291908181526020016000905b8282101561169557838290600052602060002001805461160890612fbf565b80601f016020809104026020016040519081016040528092919081815260200182805461163490612fbf565b80156116815780601f1061165657610100808354040283529160200191611681565b820191906000526020600020905b81548152906001019060200180831161166457829003601f168201915b5050505050815260200190600101906115e9565b505050908252506006919091015460ff16151560209182015290825260019290920191016114da565b50505050905060005b815181101561172a57838282815181106116e3576116e3612fa9565b60200260200101516020015114156117185781818151811061170757611707612fa9565b60200260200101519250505061069e565b8061172281613010565b9150506116c7565b5060405162461bcd60e51b815260206004820152600d60248201526c109a59081b9bdd08199bdd5b99609a1b6044820152606401610f33565b6000805b6000868152600960205260409020548110156118115760008681526009602052604090208054339190839081106117a0576117a0612fa9565b60009182526020909120600260079092020101546001600160a01b031614156117ff5760405162461bcd60e51b8152602060048201526011602482015270185b1b1c9958591e57db58591957d89a59607a1b6044820152606401610f33565b8061180981613010565b915050611767565b5060005b60085481101561196857856008828154811061183357611833612fa9565b90600052602060002090600902016000015414156119565760008054908061185a83613010565b9190505550818061186a90613010565b6000888152600960209081526040808320815160e0810183528c8152845481850190815233938201938452606082018d8152608083018d905260a083018c905260c0830187905283546001808201865594885296869020835160079098020196875590519286019290925591516002850180546001600160a01b0319166001600160a01b039092169190911790555180519497509094509192611913926003850192019061238e565b506080820151600482015560a08201518051611939916005840191602090910190612412565b5060c091909101516006909101805460ff19169115159190911790555b8061196081613010565b915050611815565b5060018110156119ad5760405162461bcd60e51b815260206004820152601060248201526f189a5917d91bd95cdb9d17d95e1a5cdd60821b6044820152606401610f33565b5050505050565b6040805160e081018252338082526020808301898152838501899052606084018890526080840187905260a08401869052600060c085018190529283526002825293909120825181546001600160a01b0319166001600160a01b0390911617815592518051929392611a2c926001850192019061238e565b506040820151600282015560608201518051611a5291600384019160209091019061238e565b5060808201518051611a6e91600484019160209091019061238e565b5060a08201518051611a8a916005840191602090910190612412565b5060c082015181600601559050505050505050565b611ae86040518060e0016040528060006001600160a01b031681526020016060815260200160008152602001606081526020016060815260200160608152602001600081525090565b6001600160a01b03808316600090815260026020908152604091829020825160e081019093528054909316825260018301805492939291840191611b2b90612fbf565b80601f0160208091040260200160405190810160405280929190818152602001828054611b5790612fbf565b8015611ba45780601f10611b7957610100808354040283529160200191611ba4565b820191906000526020600020905b815481529060010190602001808311611b8757829003601f168201915b5050505050815260200160028201548152602001600382018054611bc790612fbf565b80601f0160208091040260200160405190810160405280929190818152602001828054611bf390612fbf565b8015611c405780601f10611c1557610100808354040283529160200191611c40565b820191906000526020600020905b815481529060010190602001808311611c2357829003601f168201915b50505050508152602001600482018054611c5990612fbf565b80601f0160208091040260200160405190810160405280929190818152602001828054611c8590612fbf565b8015611cd25780601f10611ca757610100808354040283529160200191611cd2565b820191906000526020600020905b815481529060010190602001808311611cb557829003601f168201915b5050505050815260200160058201805480602002602001604051908101604052809291908181526020016000905b82821015611dac578382906000526020600020018054611d1f90612fbf565b80601f0160208091040260200160405190810160405280929190818152602001828054611d4b90612fbf565b8015611d985780601f10611d6d57610100808354040283529160200191611d98565b820191906000526020600020905b815481529060010190602001808311611d7b57829003601f168201915b505050505081526020019060010190611d00565b5050505081526020016006820154815250509050919050565b336000818152600460209081526040808320815160a081018352948552848301898152918501889052606085018790526080850186905280546001808201835591855293839020855160059095020180546001600160a01b0319166001600160a01b0390951694909417845590518051611e479392850192919091019061238e565b50604082015180516113d391600284019160209091019061238e565b6001600160a01b0381166000908152600b60209081526040808320805482518185028101850190935280835260609492939192909184015b828210156108bd5760008481526020908190206040805160c081018252600686029092018054835260018101546001600160a01b0390811694840194909452600281015490931690820152600382018054919291606084019190611efe90612fbf565b80601f0160208091040260200160405190810160405280929190818152602001828054611f2a90612fbf565b8015611f775780601f10611f4c57610100808354040283529160200191611f77565b820191906000526020600020905b815481529060010190602001808311611f5a57829003601f168201915b5050505050815260200160048201805480602002602001604051908101604052809291908181526020016000905b82821015612051578382906000526020600020018054611fc490612fbf565b80601f0160208091040260200160405190810160405280929190818152602001828054611ff090612fbf565b801561203d5780601f106120125761010080835404028352916020019161203d565b820191906000526020600020905b81548152906001019060200180831161202057829003601f168201915b505050505081526020019060010190611fa5565b505050908252506005919091015460ff1615156020918201529082526001929092019101611e9b565b60005b6001600160a01b0382166000908152600b6020526040902054811015612150576001600160a01b0382166000908152600b602052604090208054339190839081106120ca576120ca612fa9565b60009182526020909120600160069092020101546001600160a01b0316141561213e576001600160a01b0382166000908152600b602052604090208054600191908390811061211b5761211b612fa9565b60009182526020909120600690910201600501805460ff19169115159190911790555b8061214881613010565b91505061207d565b5050565b6000806000606080600080600b60008a6001600160a01b03166001600160a01b03168152602001908152602001600020888154811061219557612195612fa9565b60009182526020918290206040805160c08101825260069093029091018054835260018101546001600160a01b03908116948401949094526002810154909316908201526003820180549192916060840191906121f190612fbf565b80601f016020809104026020016040519081016040528092919081815260200182805461221d90612fbf565b801561226a5780601f1061223f5761010080835404028352916020019161226a565b820191906000526020600020905b81548152906001019060200180831161224d57829003601f168201915b5050505050815260200160048201805480602002602001604051908101604052809291908181526020016000905b828210156123445783829060005260206000200180546122b790612fbf565b80601f01602080910402602001604051908101604052809291908181526020018280546122e390612fbf565b80156123305780601f1061230557610100808354040283529160200191612330565b820191906000526020600020905b81548152906001019060200180831161231357829003601f168201915b505050505081526020019060010190612298565b505050908252506005919091015460ff16151560209182015281519082015160408301516060840151608085015160a090950151939e929d50909b50995091975095509350505050565b82805461239a90612fbf565b90600052602060002090601f0160209004810192826123bc5760008555612402565b82601f106123d557805160ff1916838001178555612402565b82800160010185558215612402579182015b828111156124025782518255916020019190600101906123e7565b5061240e92915061246b565b5090565b82805482825590600052602060002090810192821561245f579160200282015b8281111561245f578251805161244f91849160209091019061238e565b5091602001919060010190612432565b5061240e929150612480565b5b8082111561240e576000815560010161246c565b8082111561240e576000612494828261249d565b50600101612480565b5080546124a990612fbf565b6000825580601f106124b9575050565b601f0160209004906000526020600020908101906124d7919061246b565b50565b80356001600160a01b03811681146124f157600080fd5b919050565b6000806040838503121561250957600080fd5b612512836124da565b946020939093013593505050565b6000815180845260005b818110156125465760208185018101518683018201520161252a565b81811115612558576000602083870101525b50601f01601f19169290920160200192915050565b600081518084526020808501808196508360051b8101915082860160005b858110156125b55782840389526125a3848351612520565b9885019893509084019060010161258b565b5091979650505050505050565b602080825282516001600160a01b03168282015282015160a060408301526000906125f060c084018261256d565b90506040840151601f198085840301606086015261260e838361256d565b9250606086015191508085840301608086015261262b8383612520565b925060808601519150808584030160a0860152506126498282612520565b95945050505050565b60006020828403121561266457600080fd5b5035919050565b805182526020810151602083015260018060a01b0360408201511660408301526000606082015160e060608501526126a660e0850182612520565b90506080830151608085015260a083015184820360a08601526126c9828261256d565b91505060c0830151151560c08501528091505092915050565b6000602080830181845280855180835260408601915060408160051b870101925083870160005b8281101561273757603f1988860301845261272585835161266b565b94509285019290850190600101612709565b5092979650505050505050565b634e487b7160e01b600052604160045260246000fd5b604051601f8201601f1916810167ffffffffffffffff8111828210171561278357612783612744565b604052919050565b600082601f83011261279c57600080fd5b813567ffffffffffffffff8111156127b6576127b6612744565b6127c9601f8201601f191660200161275a565b8181528460208386010111156127de57600080fd5b816020850160208301376000918101602001919091529392505050565b600082601f83011261280c57600080fd5b8135602067ffffffffffffffff8083111561282957612829612744565b8260051b61283883820161275a565b938452858101830193838101908886111561285257600080fd5b84880192505b8583101561288e578235848111156128705760008081fd5b61287e8a87838c010161278b565b8352509184019190840190612858565b98975050505050505050565b60008060008060008060c087890312156128b357600080fd5b863567ffffffffffffffff808211156128cb57600080fd5b6128d78a838b0161278b565b975060208901359150808211156128ed57600080fd5b6128f98a838b0161278b565b9650604089013591508082111561290f57600080fd5b61291b8a838b0161278b565b955060608901359450608089013591508082111561293857600080fd5b6129448a838b016127fb565b935060a089013591508082111561295a57600080fd5b5061296789828a016127fb565b9150509295509295509295565b60008060006060848603121561298957600080fd5b612992846124da565b9250602084013567ffffffffffffffff808211156129af57600080fd5b6129bb8783880161278b565b935060408601359150808211156129d157600080fd5b506129de868287016127fb565b9150509250925092565b602080825282516001600160a01b03168282015282015160a06040830152600090612a1660c0840182612520565b90506040840151601f198085840301606086015261260e8383612520565b602081528151602082015260006020830151612a5b60408401826001600160a01b03169052565b506040830151610120806060850152612a78610140850183612520565b91506060850151601f1980868503016080870152612a968483612520565b935060808701519150808685030160a0870152612ab38483612520565b935060a087015160c087015260c08701519150808685030160e0870152612ada848361256d565b935060e08701519150610100818786030181880152612af9858461256d565b94508088015192505050612b108286018215159052565b5090949350505050565b60008060008060808587031215612b3057600080fd5b843567ffffffffffffffff80821115612b4857600080fd5b612b54888389016127fb565b95506020870135915080821115612b6a57600080fd5b612b76888389016127fb565b94506040870135915080821115612b8c57600080fd5b612b988883890161278b565b93506060870135915080821115612bae57600080fd5b50612bbb8782880161278b565b91505092959194509250565b60008060408385031215612bda57600080fd5b50508035926020909101359150565b602081526000612bfc602083018461266b565b9392505050565b60008060008060808587031215612c1957600080fd5b84359350602085013567ffffffffffffffff80821115612c3857600080fd5b612c448883890161278b565b9450604087013593506060870135915080821115612c6157600080fd5b50612bbb878288016127fb565b600080600080600060a08688031215612c8657600080fd5b853567ffffffffffffffff80821115612c9e57600080fd5b612caa89838a0161278b565b9650602088013595506040880135915080821115612cc757600080fd5b612cd389838a0161278b565b94506060880135915080821115612ce957600080fd5b612cf589838a0161278b565b93506080880135915080821115612d0b57600080fd5b50612d18888289016127fb565b9150509295509295909350565b600060208284031215612d3757600080fd5b612bfc826124da565b602080825282516001600160a01b03168282015282015160e06040830152600090612d6f610100840182612520565b9050604084015160608401526060840151601f1980858403016080860152612d978383612520565b925060808601519150808584030160a0860152612db48383612520565b925060a08601519150808584030160c086015250612dd2828261256d565b91505060c084015160e08401528091505092915050565b60008060008060808587031215612dff57600080fd5b843567ffffffffffffffff80821115612e1757600080fd5b612e238883890161278b565b95506020870135915080821115612e3957600080fd5b612b768883890161278b565b60006020808301818452808551808352604092508286019150828160051b87010184880160005b83811015612efa57888303603f19018552815180518452878101516001600160a01b039081168986015287820151168785015260608082015160c08287018190529190612ebb83880182612520565b9250505060808083015186830382880152612ed6838261256d565b60a09485015115159790940196909652505094870194925090860190600101612e6c565b509098975050505050505050565b8681526000602060018060a01b038089168285015280881660408501525060c06060840152612f3a60c0840187612520565b8381036080850152855180825282820190600581901b8301840184890160005b83811015612f8857601f19868403018552612f76838351612520565b94870194925090860190600101612f5a565b505087151560a08801529450612f9e9350505050565b979650505050505050565b634e487b7160e01b600052603260045260246000fd5b600181811c90821680612fd357607f821691505b60208210811415612ff457634e487b7160e01b600052602260045260246000fd5b50919050565b634e487b7160e01b600052601160045260246000fd5b600060001982141561302457613024612ffa565b5060010190565b60008282101561303d5761303d612ffa565b50039056fea26469706673582212203dfce744d3ddecee73095f814a161ca09d7712f7a7a9b339e3a4acd48b4b10d464736f6c634300080b0033",
  "immutableReferences": {},
  "source": "// SPDX-License-Identifier: MIT\r\npragma solidity >=0.4.1 < 0.9.0;\r\n\r\n/**\r\n* @title Kazi Krypto\r\n* @notice The contract a freelancing platform on the Ethereum blockchain\r\n* @notice The platform aims to connect freelancers and clients, facilitating secure and\r\ntransparent transactions while leveraging the benefits of blockchain technology\r\n\r\n* @dev user Registration and profiles\r\n* @dev Job posting and bidding\r\n* @dev Smart contract escrow\r\n* @dev messaging and collaboration\r\n* @dev reputation and reviews\r\n* @dev payment and escrow release\r\n* @dev transaction history and analytics\r\n* @dev conflict resolution\r\n */\r\n \r\n\r\ncontract KaziKrypto {\r\n\r\n    /**\r\n    * @dev allow smart contract to receive payments\r\n    */\r\n    constructor() public payable{\r\n\r\n    }\r\n\r\n\r\n    /// @title Freelancer Profile\r\n    /// @dev Struct to store user profile\r\n    struct Freelancer {\r\n        address payable accountId;\r\n        string fullName;\r\n        uint hourlyRate;\r\n        string profession;\r\n        string paymentPreference;\r\n        string[] skills;\r\n        uint profileRating;\r\n    }\r\n\r\n    /// @title freelancer portfolio\r\n    /// @notice all portfolios mapped to the specific freelancer Id\r\n    struct FreelancerPortfolio {\r\n        address accountId;\r\n        string[] images; /// @dev optional\r\n        string[] videos; /// @dev optional\r\n        string taskUrl;\r\n        string description;\r\n    }\r\n\r\n    /// @title freelancer experience\r\n    /// @dev store freelancer experience\r\n    struct FreelancerExperience {\r\n        address accountId;\r\n        string fromDate;\r\n        string toDate;\r\n        string jobTitle;\r\n        string jobDescription;\r\n    }\r\n\r\n    /// @title Job posting and bidding\r\n    /// @dev struct to store job requirements\r\n    struct ClientJobs {\r\n        uint jobId;\r\n        address accountId;\r\n        string projectTitle;\r\n        string projectDescription;\r\n        string projectDuration;\r\n        uint projectBudget;\r\n        string[] skillRequirements;\r\n        string[] images; ///@dev optional\r\n        bool bidAvailable;\r\n    }\r\n\r\n    /// @title FreelancerBids;\r\n    /// @dev store each freelancerBid\r\n    /// @dev make a reference to the account Id of the freelancer\r\n    struct FreelancerBids {\r\n        uint jobId;\r\n        uint bidId;\r\n        address accountId;\r\n        string bidDescription;\r\n        uint budget;\r\n        string[] relevantFiles; /// @dev optional\r\n        bool bidApproved;\r\n    }\r\n\r\n    uint private clientBidId;\r\n\r\n    /// @title Milestones\r\n    /// @dev allow frelancer to bid in form of milestones\r\n    /// @dev optional\r\n\r\n    struct ProjectMilestones {\r\n        uint bidId;\r\n        string milestoneName;\r\n        string milestoneDescription;\r\n        string milestoneBudget;\r\n        string milestoneDuration;\r\n        bool milestoneWorkApproved;\r\n    }\r\n\r\n    /// @title Chats\r\n    /// @dev chat from intended sender to intended receiver\r\n\r\n    struct Chats {\r\n        uint timestamp;\r\n        address sender;\r\n        address receiver;\r\n        string message;\r\n        string[] attachedFiles; /// @dev optional\r\n        bool seen;\r\n    }\r\n\r\n    /// @title client ratings\r\n    /// @dev single client Rating\r\n    /// @dev done by the freelancer\r\n\r\n    struct ClientRatings {\r\n        uint bidId;\r\n        string ProjectName; /// @dev optional\r\n        address accountId;\r\n        string feedback; /// @dev optional\r\n        uint ratingForTimelyPayments; /// @dev maximum 5\r\n        uint ratingForTimelyFeedbacks; /// @dev maximum 5\r\n    }\r\n\r\n    /// @title freelancerr Ratings\r\n    /// @dev single freelancer Rating\r\n\r\n    struct FreelancerRatings {\r\n        uint bidId;\r\n        string ProjectName; /// @dev optional;\r\n        address accountId; \r\n        string feedback; /// @dev optional;\r\n        uint ratingForCompletedProjects; /// @dev max 5;\r\n        uint ratingForCommunicationSkills; /// @dev max 5;\r\n    }\r\n\r\n    /// @title Transaction History\r\n    /// @dev store transaction history\r\n    struct Transaction {\r\n        address payable from;\r\n        address payable to;\r\n        string transactionPurpose;\r\n        uint transactionAmount;\r\n        uint timestamp;\r\n        string transactionStatus;\r\n    }\r\n\r\n    mapping(address => Transaction[]) transactions;\r\n\r\n    /// @dev freelancer detail storage\r\n    /// @dev store personal details\r\n    /// @dev store each freelancer portfolio\r\n    /// @dev store freelancer experience\r\n    /// @dev store freelancer ratings;\r\n    /// @dev everybody is a freelancer \r\n    /// @dev current project milestones\r\n    mapping(address => Freelancer) freelancers;\r\n    mapping(address => FreelancerPortfolio[]) freelancerPortfolios;\r\n    mapping(address => FreelancerExperience[]) freelancerExperiences;\r\n    mapping(address => FreelancerRatings[]) freelancerRatings;\r\n    mapping(address => ProjectMilestones[]) milestonesInAccount;\r\n\r\n    /// @dev client detail storage\r\n    /// @dev store Client Jobs\r\n    /// @dev not everybody is a client\r\n    uint internal clientJobId;\r\n    ClientJobs[] allClientJobs;\r\n    mapping(uint => FreelancerBids[]) allBidsForClientJobs;\r\n\r\n    /// @dev acceptedBidDetail\r\n    /// @dev storage done here if the data stored above has been validated\r\n    mapping(uint => ProjectMilestones[]) projectMilestonesForAcceptedBids;\r\n\r\n\r\n    /// @dev Chat storage;\r\n    mapping(address => Chats[]) freelancerChats;\r\n\r\n    /**\r\n    * @param _fullName full names for freelancer\r\n    * @param _profession he inputs his profession\r\n    * @param _preferredPayment he fills his preferred payment\r\n    * @param _skill he fills in his skills\r\n    * @dev rating is automatically filled for the first time as 0\r\n    * @notice after logging in for the first time update details here\r\n     */\r\n\r\n    function addNewFreelancer(string memory _fullName, uint _hourlyRate,string memory _profession, string memory _preferredPayment, string[] memory _skill)public{\r\n        /// @dev validate inputs\r\n        // require(_fullName.length > 0, \"enter_name\");\r\n        // require(_profession.length > 0, \"enter_profession\");\r\n        // require(_preferredPayment.length > 0, \"enter_preferred_payment\");\r\n        // require(_skill.length > 0, \"enter_one_skill\");\r\n\r\n        /// @dev make the storage\r\n        freelancers[msg.sender] = Freelancer(payable(msg.sender), _fullName,_hourlyRate,  _profession, _preferredPayment, _skill, 0); \r\n    }\r\n\r\n    function getFreelancer(address _freelancerAddress) public view returns (Freelancer memory) {\r\n        return freelancers[_freelancerAddress];\r\n    }\r\n\r\n    /**\r\n    * @notice adds portfolio to an existing freelancer profile\r\n    * @param _images images involved\r\n    * @param _description description involved | optional\r\n    * @param _taskurl url to the task | optional\r\n    * @param _videos videos involved if any\r\n    * \r\n     */\r\n\r\n     function addPortfolio(string[] memory _images, string[] memory _videos, string memory _taskurl, string memory _description) public {\r\n        freelancerPortfolios[msg.sender].push(FreelancerPortfolio(msg.sender, _images, _videos, _taskurl, _description));\r\n     }\r\n\r\n\r\n    function getPortfolio(address _freelancerAddress, uint256 _index) public view returns (FreelancerPortfolio memory) {\r\n        return freelancerPortfolios[_freelancerAddress][_index];\r\n    }\r\n     /**\r\n     * @notice adds experiences to a freelancer account\r\n     * @param _fromDate date started\r\n     * @param _toDate date ended, // optional if still working\r\n     * @param _jobTitle role of the freelancer\r\n     * @param _jobDescription description of the job\r\n     */\r\n\r\n     function addFreelancerExperience(string memory _fromDate, string memory _toDate, string memory _jobTitle, string memory _jobDescription)public{\r\n        freelancerExperiences[msg.sender].push(FreelancerExperience(msg.sender, _fromDate, _toDate, _jobTitle, _jobDescription));\r\n     }\r\n\r\n    function getExperience(address _freelancerAddress, uint256 _index) public view returns (FreelancerExperience memory) {\r\n        return freelancerExperiences[_freelancerAddress][_index];\r\n    }\r\n\r\n\r\n    /**\r\n    * @dev anyone can do this\r\n    * @dev one has to fully pay for the task when posting to ensure integrity of the DAPP\r\n    * @param _projectTitle title of the task\r\n    * @param _projectDescription description of the project\r\n    * @param _projectDuration should be in range of dates\r\n    * @param _projectBudget should be more than 0\r\n    * @param _skillRequirements at least one\r\n    * @param _images if any*/\r\n     function postAClientJob(string memory _projectTitle, string memory _projectDescription, string memory _projectDuration, uint _projectBudget, string[] memory _skillRequirements, string[] memory _images) public payable {\r\n        address payable contractAddress = payable(address(this));\r\n        (bool sent, bytes memory data) = contractAddress.call{value: msg.value}(\"\");\r\n        clientJobId++;\r\n        allClientJobs.push(ClientJobs(clientJobId, msg.sender, _projectTitle, _projectDescription, _projectDuration, _projectBudget, _skillRequirements, _images, true));\r\n        transactions[msg.sender].push(Transaction(payable(msg.sender), contractAddress, \"Project posting\", msg.value, block.timestamp, \"on_escrow\"));\r\n     }\r\n\r\n\r\n    function getClientJob(uint256 _jobId) public view returns (ClientJobs memory) {\r\n        require(_jobId > 0 && _jobId <= clientJobId, \"Invalid job ID\");\r\n        return allClientJobs[_jobId - 1];\r\n    }\r\n\r\n    /**\r\n    * @dev makeAbidding\r\n    * @dev only occurs on existing project id\r\n    * @param _jobid id for  the job description\r\n    * @param _bidDescription auto generated id for bid description\r\n    * @param _budget freelancer budget for bid description\r\n    * @param _relevantFiles if the freelancer needs to upload relevant files to justify his bidding */\r\n     function makeABidding(uint _jobid, string memory _bidDescription, uint _budget, string[] memory _relevantFiles) public {\r\n        uint internalBidCounter;\r\n        for(uint i = 0; i < allBidsForClientJobs[_jobid].length; i++){\r\n            if(allBidsForClientJobs[_jobid][i].accountId == msg.sender){\r\n                revert(\"allready_made_bid\");\r\n            }\r\n        }\r\n\r\n        for (uint i = 0; i < allClientJobs.length; i++) {\r\n            if(allClientJobs[i].jobId == _jobid){\r\n                clientBidId++;\r\n                internalBidCounter++;\r\n                allBidsForClientJobs[_jobid].push(FreelancerBids(_jobid, clientBidId, msg.sender, _bidDescription, _budget, _relevantFiles, false));\r\n            }\r\n        }\r\n\r\n        if(internalBidCounter < 1){\r\n            revert(\"bid_doesnt_exist\");\r\n        }\r\n     }\r\n\r\n    function getBid(uint256 _jobid, uint256 _bidId) public view returns (FreelancerBids memory) {\r\n        require(_bidId > 0 && _bidId <= clientBidId, \"Invalid bid ID\");\r\n        FreelancerBids[] memory bids = allBidsForClientJobs[_jobid];\r\n        for (uint256 i = 0; i < bids.length; i++) {\r\n            if (bids[i].bidId == _bidId) {\r\n                return bids[i];\r\n            }\r\n        }\r\n        revert(\"Bid not found\");\r\n    }\r\n\r\n    function getBids(uint256 _jobid) public view returns (FreelancerBids[] memory) {\r\n        return allBidsForClientJobs[_jobid];\r\n    }\r\n\r\n\r\n     function chat(address _receiver, string memory _message, string[] memory _attachedFiles) public {\r\n        freelancerChats[_receiver].push(Chats(block.timestamp, msg.sender, _receiver, _message, _attachedFiles, false));\r\n     }\r\n\r\n     function markAsRead(address _receiver)public{\r\n        for(uint i = 0; i < freelancerChats[_receiver].length; i++){\r\n            if(freelancerChats[_receiver][i].sender == msg.sender){\r\n                freelancerChats[_receiver][i].seen = true;\r\n            }\r\n        }\r\n     }\r\n\r\n    function getChat(address _receiver, uint _index) public view returns (\r\n        uint timestamp,\r\n        address sender,\r\n        address receiver,\r\n        string memory message,\r\n        string[] memory attachedFiles,\r\n        bool seen\r\n    ) {\r\n        Chats memory chat = freelancerChats[_receiver][_index];\r\n        return (\r\n            chat.timestamp,\r\n            chat.sender,\r\n            chat.receiver,\r\n            chat.message,\r\n            chat.attachedFiles,\r\n            chat.seen\r\n        );\r\n    }\r\n\r\n    function getChats(address _receiver) public view returns (Chats[] memory) {\r\n        return freelancerChats[_receiver];\r\n    }\r\n\r\n\r\n\r\n\r\n    \r\n\r\n\r\n    \r\n}",
  "sourcePath": "C:\\Users\\pc\\Desktop\\ethprojects\\kazikrypto\\contract\\contracts\\KaziKrypto.sol",
  "compiler": {
    "name": "solc",
    "version": "0.8.11+commit.d7f03943.Emscripten.clang"
  },
  "schemaVersion": "3.4.14",
  "updatedAt": "2023-07-22T00:16:07.645Z",
  "devdoc": {
    "details": "user Registration and profilesJob posting and biddingSmart contract escrowmessaging and collaborationreputation and reviewspayment and escrow releasetransaction history and analyticsconflict resolution",
    "kind": "dev",
    "methods": {
      "addFreelancerExperience(string,string,string,string)": {
        "params": {
          "_fromDate": "date started",
          "_jobDescription": "description of the job",
          "_jobTitle": "role of the freelancer",
          "_toDate": "date ended, // optional if still working"
        }
      },
      "addNewFreelancer(string,uint256,string,string,string[])": {
        "details": "rating is automatically filled for the first time as 0",
        "params": {
          "_fullName": "full names for freelancer",
          "_preferredPayment": "he fills his preferred payment",
          "_profession": "he inputs his profession",
          "_skill": "he fills in his skills"
        }
      },
      "addPortfolio(string[],string[],string,string)": {
        "params": {
          "_description": "description involved | optional",
          "_images": "images involved",
          "_taskurl": "url to the task | optional",
          "_videos": "videos involved if any "
        }
      },
      "constructor": {
        "details": "allow smart contract to receive payments"
      },
      "makeABidding(uint256,string,uint256,string[])": {
        "details": "makeAbiddingonly occurs on existing project id",
        "params": {
          "_bidDescription": "auto generated id for bid description",
          "_budget": "freelancer budget for bid description",
          "_jobid": "id for  the job description",
          "_relevantFiles": "if the freelancer needs to upload relevant files to justify his bidding "
        }
      },
      "postAClientJob(string,string,string,uint256,string[],string[])": {
        "details": "anyone can do thisone has to fully pay for the task when posting to ensure integrity of the DAPP",
        "params": {
          "_images": "if any",
          "_projectBudget": "should be more than 0",
          "_projectDescription": "description of the project",
          "_projectDuration": "should be in range of dates",
          "_projectTitle": "title of the task",
          "_skillRequirements": "at least one"
        }
      }
    },
    "stateVariables": {
      "clientJobId": {
        "details": "client detail storagestore Client Jobsnot everybody is a client"
      },
      "freelancerChats": {
        "details": "Chat storage;"
      },
      "freelancers": {
        "details": "freelancer detail storagestore personal detailsstore each freelancer portfoliostore freelancer experiencestore freelancer ratings;everybody is a freelancer current project milestones"
      },
      "projectMilestonesForAcceptedBids": {
        "details": "acceptedBidDetailstorage done here if the data stored above has been validated"
      }
    },
    "title": "Kazi Krypto",
    "version": 1
  },
  "userdoc": {
    "kind": "user",
    "methods": {
      "addFreelancerExperience(string,string,string,string)": {
        "notice": "adds experiences to a freelancer account"
      },
      "addNewFreelancer(string,uint256,string,string,string[])": {
        "notice": "after logging in for the first time update details here"
      },
      "addPortfolio(string[],string[],string,string)": {
        "notice": "adds portfolio to an existing freelancer profile"
      }
    },
    "notice": "The contract a freelancing platform on the Ethereum blockchainThe platform aims to connect freelancers and clients, facilitating secure and transparent transactions while leveraging the benefits of blockchain technology",
    "version": 1
  }
}