{
  "contractName": "KaziKrypto",
  "abi": [
    {
      "inputs": [],
      "stateMutability": "payable",
      "type": "constructor"
    },
    {
      "inputs": [
        {
          "internalType": "uint256",
          "name": "",
          "type": "uint256"
        }
      ],
      "name": "allClientJobs",
      "outputs": [
        {
          "internalType": "uint256",
          "name": "jobId",
          "type": "uint256"
        },
        {
          "internalType": "address",
          "name": "accountId",
          "type": "address"
        },
        {
          "internalType": "string",
          "name": "projectTitle",
          "type": "string"
        },
        {
          "internalType": "string",
          "name": "projectDescription",
          "type": "string"
        },
        {
          "internalType": "string",
          "name": "projectDuration",
          "type": "string"
        },
        {
          "internalType": "uint256",
          "name": "projectBudget",
          "type": "uint256"
        },
        {
          "internalType": "bool",
          "name": "bidAvailable",
          "type": "bool"
        }
      ],
      "stateMutability": "view",
      "type": "function"
    },
    {
      "inputs": [
        {
          "internalType": "string",
          "name": "_fullName",
          "type": "string"
        },
        {
          "internalType": "string",
          "name": "_profileImage",
          "type": "string"
        },
        {
          "internalType": "uint256",
          "name": "_hourlyRate",
          "type": "uint256"
        },
        {
          "internalType": "string",
          "name": "_profession",
          "type": "string"
        },
        {
          "internalType": "string",
          "name": "_preferredPayment",
          "type": "string"
        },
        {
          "internalType": "string[]",
          "name": "_skill",
          "type": "string[]"
        },
        {
          "internalType": "bool",
          "name": "_isProfilePublic",
          "type": "bool"
        }
      ],
      "name": "addNewFreelancer",
      "outputs": [],
      "stateMutability": "nonpayable",
      "type": "function"
    },
    {
      "inputs": [
        {
          "internalType": "string",
          "name": "_fullName",
          "type": "string"
        },
        {
          "internalType": "uint256",
          "name": "_hourlyRate",
          "type": "uint256"
        },
        {
          "internalType": "string",
          "name": "_profession",
          "type": "string"
        },
        {
          "internalType": "string",
          "name": "_preferredPayment",
          "type": "string"
        },
        {
          "internalType": "string[]",
          "name": "_skills",
          "type": "string[]"
        }
      ],
      "name": "editFreelancerProfile",
      "outputs": [],
      "stateMutability": "nonpayable",
      "type": "function"
    },
    {
      "inputs": [
        {
          "internalType": "bool",
          "name": "_isProfilePublic",
          "type": "bool"
        }
      ],
      "name": "setProfileVisibility",
      "outputs": [],
      "stateMutability": "nonpayable",
      "type": "function"
    },
    {
      "inputs": [
        {
          "internalType": "address",
          "name": "_freelancerAddress",
          "type": "address"
        }
      ],
      "name": "getFreelancer",
      "outputs": [
        {
          "components": [
            {
              "internalType": "address payable",
              "name": "accountId",
              "type": "address"
            },
            {
              "internalType": "string",
              "name": "profileImage",
              "type": "string"
            },
            {
              "internalType": "string",
              "name": "fullName",
              "type": "string"
            },
            {
              "internalType": "uint256",
              "name": "hourlyRate",
              "type": "uint256"
            },
            {
              "internalType": "string",
              "name": "profession",
              "type": "string"
            },
            {
              "internalType": "string",
              "name": "paymentPreference",
              "type": "string"
            },
            {
              "internalType": "string[]",
              "name": "skills",
              "type": "string[]"
            },
            {
              "internalType": "uint256",
              "name": "profileRating",
              "type": "uint256"
            },
            {
              "internalType": "bool",
              "name": "isProfilePublic",
              "type": "bool"
            }
          ],
          "internalType": "struct KaziKrypto.Freelancer",
          "name": "",
          "type": "tuple"
        }
      ],
      "stateMutability": "view",
      "type": "function"
    },
    {
      "inputs": [
        {
          "internalType": "string[]",
          "name": "_images",
          "type": "string[]"
        },
        {
          "internalType": "string[]",
          "name": "_videos",
          "type": "string[]"
        },
        {
          "internalType": "string",
          "name": "_taskurl",
          "type": "string"
        },
        {
          "internalType": "string",
          "name": "_description",
          "type": "string"
        }
      ],
      "name": "addPortfolio",
      "outputs": [],
      "stateMutability": "nonpayable",
      "type": "function"
    },
    {
      "inputs": [
        {
          "internalType": "address",
          "name": "_freelancerAddress",
          "type": "address"
        },
        {
          "internalType": "uint256",
          "name": "_index",
          "type": "uint256"
        }
      ],
      "name": "getPortfolio",
      "outputs": [
        {
          "components": [
            {
              "internalType": "address",
              "name": "accountId",
              "type": "address"
            },
            {
              "internalType": "string[]",
              "name": "images",
              "type": "string[]"
            },
            {
              "internalType": "string[]",
              "name": "videos",
              "type": "string[]"
            },
            {
              "internalType": "string",
              "name": "taskUrl",
              "type": "string"
            },
            {
              "internalType": "string",
              "name": "description",
              "type": "string"
            }
          ],
          "internalType": "struct KaziKrypto.FreelancerPortfolio",
          "name": "",
          "type": "tuple"
        }
      ],
      "stateMutability": "view",
      "type": "function"
    },
    {
      "inputs": [
        {
          "internalType": "string",
          "name": "_fromDate",
          "type": "string"
        },
        {
          "internalType": "string",
          "name": "_toDate",
          "type": "string"
        },
        {
          "internalType": "string",
          "name": "_jobTitle",
          "type": "string"
        },
        {
          "internalType": "string",
          "name": "_jobDescription",
          "type": "string"
        }
      ],
      "name": "addFreelancerExperience",
      "outputs": [],
      "stateMutability": "nonpayable",
      "type": "function"
    },
    {
      "inputs": [
        {
          "internalType": "address",
          "name": "_freelancerAddress",
          "type": "address"
        },
        {
          "internalType": "uint256",
          "name": "_index",
          "type": "uint256"
        }
      ],
      "name": "getExperience",
      "outputs": [
        {
          "components": [
            {
              "internalType": "address",
              "name": "accountId",
              "type": "address"
            },
            {
              "internalType": "string",
              "name": "fromDate",
              "type": "string"
            },
            {
              "internalType": "string",
              "name": "toDate",
              "type": "string"
            },
            {
              "internalType": "string",
              "name": "jobTitle",
              "type": "string"
            },
            {
              "internalType": "string",
              "name": "jobDescription",
              "type": "string"
            }
          ],
          "internalType": "struct KaziKrypto.FreelancerExperience",
          "name": "",
          "type": "tuple"
        }
      ],
      "stateMutability": "view",
      "type": "function"
    },
    {
      "inputs": [
        {
          "internalType": "string",
          "name": "_projectTitle",
          "type": "string"
        },
        {
          "internalType": "string",
          "name": "_projectDescription",
          "type": "string"
        },
        {
          "internalType": "string",
          "name": "_projectDuration",
          "type": "string"
        },
        {
          "internalType": "uint256",
          "name": "_projectBudget",
          "type": "uint256"
        },
        {
          "internalType": "string[]",
          "name": "_skillRequirements",
          "type": "string[]"
        },
        {
          "internalType": "string[]",
          "name": "_images",
          "type": "string[]"
        }
      ],
      "name": "postAClientJob",
      "outputs": [],
      "stateMutability": "payable",
      "type": "function"
    },
    {
      "inputs": [],
      "name": "getAllClientJobs",
      "outputs": [
        {
          "components": [
            {
              "internalType": "uint256",
              "name": "jobId",
              "type": "uint256"
            },
            {
              "internalType": "address",
              "name": "accountId",
              "type": "address"
            },
            {
              "internalType": "string",
              "name": "projectTitle",
              "type": "string"
            },
            {
              "internalType": "string",
              "name": "projectDescription",
              "type": "string"
            },
            {
              "internalType": "string",
              "name": "projectDuration",
              "type": "string"
            },
            {
              "internalType": "uint256",
              "name": "projectBudget",
              "type": "uint256"
            },
            {
              "internalType": "string[]",
              "name": "skillRequirements",
              "type": "string[]"
            },
            {
              "internalType": "string[]",
              "name": "images",
              "type": "string[]"
            },
            {
              "internalType": "bool",
              "name": "bidAvailable",
              "type": "bool"
            }
          ],
          "internalType": "struct KaziKrypto.ClientJobs[]",
          "name": "",
          "type": "tuple[]"
        }
      ],
      "stateMutability": "view",
      "type": "function"
    },
    {
      "inputs": [
        {
          "internalType": "uint256",
          "name": "_jobId",
          "type": "uint256"
        }
      ],
      "name": "getClientJob",
      "outputs": [
        {
          "components": [
            {
              "internalType": "uint256",
              "name": "jobId",
              "type": "uint256"
            },
            {
              "internalType": "address",
              "name": "accountId",
              "type": "address"
            },
            {
              "internalType": "string",
              "name": "projectTitle",
              "type": "string"
            },
            {
              "internalType": "string",
              "name": "projectDescription",
              "type": "string"
            },
            {
              "internalType": "string",
              "name": "projectDuration",
              "type": "string"
            },
            {
              "internalType": "uint256",
              "name": "projectBudget",
              "type": "uint256"
            },
            {
              "internalType": "string[]",
              "name": "skillRequirements",
              "type": "string[]"
            },
            {
              "internalType": "string[]",
              "name": "images",
              "type": "string[]"
            },
            {
              "internalType": "bool",
              "name": "bidAvailable",
              "type": "bool"
            }
          ],
          "internalType": "struct KaziKrypto.ClientJobs",
          "name": "",
          "type": "tuple"
        }
      ],
      "stateMutability": "view",
      "type": "function"
    },
    {
      "inputs": [
        {
          "internalType": "uint256",
          "name": "_jobid",
          "type": "uint256"
        },
        {
          "internalType": "string",
          "name": "_bidDescription",
          "type": "string"
        },
        {
          "internalType": "uint256",
          "name": "_budget",
          "type": "uint256"
        },
        {
          "internalType": "string[]",
          "name": "_relevantFiles",
          "type": "string[]"
        }
      ],
      "name": "makeABidding",
      "outputs": [],
      "stateMutability": "nonpayable",
      "type": "function"
    },
    {
      "inputs": [
        {
          "internalType": "uint256",
          "name": "_jobid",
          "type": "uint256"
        },
        {
          "internalType": "uint256",
          "name": "_bidId",
          "type": "uint256"
        }
      ],
      "name": "getBid",
      "outputs": [
        {
          "components": [
            {
              "internalType": "uint256",
              "name": "jobId",
              "type": "uint256"
            },
            {
              "internalType": "uint256",
              "name": "bidId",
              "type": "uint256"
            },
            {
              "internalType": "address",
              "name": "accountId",
              "type": "address"
            },
            {
              "internalType": "string",
              "name": "bidDescription",
              "type": "string"
            },
            {
              "internalType": "uint256",
              "name": "budget",
              "type": "uint256"
            },
            {
              "internalType": "string[]",
              "name": "relevantFiles",
              "type": "string[]"
            },
            {
              "internalType": "bool",
              "name": "bidApproved",
              "type": "bool"
            }
          ],
          "internalType": "struct KaziKrypto.FreelancerBids",
          "name": "",
          "type": "tuple"
        }
      ],
      "stateMutability": "view",
      "type": "function"
    },
    {
      "inputs": [
        {
          "internalType": "uint256",
          "name": "_jobid",
          "type": "uint256"
        }
      ],
      "name": "getBids",
      "outputs": [
        {
          "components": [
            {
              "internalType": "uint256",
              "name": "jobId",
              "type": "uint256"
            },
            {
              "internalType": "uint256",
              "name": "bidId",
              "type": "uint256"
            },
            {
              "internalType": "address",
              "name": "accountId",
              "type": "address"
            },
            {
              "internalType": "string",
              "name": "bidDescription",
              "type": "string"
            },
            {
              "internalType": "uint256",
              "name": "budget",
              "type": "uint256"
            },
            {
              "internalType": "string[]",
              "name": "relevantFiles",
              "type": "string[]"
            },
            {
              "internalType": "bool",
              "name": "bidApproved",
              "type": "bool"
            }
          ],
          "internalType": "struct KaziKrypto.FreelancerBids[]",
          "name": "",
          "type": "tuple[]"
        }
      ],
      "stateMutability": "view",
      "type": "function"
    },
    {
      "inputs": [
        {
          "internalType": "address",
          "name": "_receiver",
          "type": "address"
        },
        {
          "internalType": "string",
          "name": "_message",
          "type": "string"
        },
        {
          "internalType": "string[]",
          "name": "_attachedFiles",
          "type": "string[]"
        }
      ],
      "name": "chat",
      "outputs": [],
      "stateMutability": "nonpayable",
      "type": "function"
    },
    {
      "inputs": [
        {
          "internalType": "address",
          "name": "_receiver",
          "type": "address"
        }
      ],
      "name": "markAsRead",
      "outputs": [],
      "stateMutability": "nonpayable",
      "type": "function"
    },
    {
      "inputs": [
        {
          "internalType": "address",
          "name": "_receiver",
          "type": "address"
        },
        {
          "internalType": "uint256",
          "name": "_index",
          "type": "uint256"
        }
      ],
      "name": "getChat",
      "outputs": [
        {
          "internalType": "uint256",
          "name": "timestamp",
          "type": "uint256"
        },
        {
          "internalType": "address",
          "name": "sender",
          "type": "address"
        },
        {
          "internalType": "address",
          "name": "receiver",
          "type": "address"
        },
        {
          "internalType": "string",
          "name": "message",
          "type": "string"
        },
        {
          "internalType": "string[]",
          "name": "attachedFiles",
          "type": "string[]"
        },
        {
          "internalType": "bool",
          "name": "seen",
          "type": "bool"
        }
      ],
      "stateMutability": "view",
      "type": "function"
    },
    {
      "inputs": [
        {
          "internalType": "address",
          "name": "_receiver",
          "type": "address"
        }
      ],
      "name": "getChats",
      "outputs": [
        {
          "components": [
            {
              "internalType": "uint256",
              "name": "timestamp",
              "type": "uint256"
            },
            {
              "internalType": "address",
              "name": "sender",
              "type": "address"
            },
            {
              "internalType": "address",
              "name": "receiver",
              "type": "address"
            },
            {
              "internalType": "string",
              "name": "message",
              "type": "string"
            },
            {
              "internalType": "string[]",
              "name": "attachedFiles",
              "type": "string[]"
            },
            {
              "internalType": "bool",
              "name": "seen",
              "type": "bool"
            }
          ],
          "internalType": "struct KaziKrypto.Chats[]",
          "name": "",
          "type": "tuple[]"
        }
      ],
      "stateMutability": "view",
      "type": "function"
    },
    {
      "inputs": [
        {
          "internalType": "uint256",
          "name": "_jobId",
          "type": "uint256"
        },
        {
          "internalType": "uint256",
          "name": "_bidId",
          "type": "uint256"
        }
      ],
      "name": "acceptBid",
      "outputs": [],
      "stateMutability": "nonpayable",
      "type": "function"
    },
    {
      "inputs": [
        {
          "internalType": "uint256",
          "name": "_jobId",
          "type": "uint256"
        },
        {
          "internalType": "uint256",
          "name": "_bidId",
          "type": "uint256"
        },
        {
          "internalType": "string",
          "name": "_milestoneName",
          "type": "string"
        },
        {
          "internalType": "string",
          "name": "_mileStoneDescription",
          "type": "string"
        },
        {
          "internalType": "uint256",
          "name": "_mileStoneBudget",
          "type": "uint256"
        },
        {
          "internalType": "uint256",
          "name": "_mileStoneDuration",
          "type": "uint256"
        }
      ],
      "name": "addProjectMileStone",
      "outputs": [],
      "stateMutability": "nonpayable",
      "type": "function"
    },
    {
      "inputs": [
        {
          "internalType": "address payable",
          "name": "_freelancer",
          "type": "address"
        },
        {
          "internalType": "uint256",
          "name": "_mileStoneId",
          "type": "uint256"
        }
      ],
      "name": "approveProjectMilestone",
      "outputs": [],
      "stateMutability": "nonpayable",
      "type": "function"
    },
    {
      "inputs": [
        {
          "internalType": "address",
          "name": "_accountId",
          "type": "address"
        }
      ],
      "name": "getFreelancerMileStones",
      "outputs": [
        {
          "components": [
            {
              "internalType": "uint256",
              "name": "bidId",
              "type": "uint256"
            },
            {
              "internalType": "uint256",
              "name": "mileStoneId",
              "type": "uint256"
            },
            {
              "internalType": "string",
              "name": "milestoneName",
              "type": "string"
            },
            {
              "internalType": "string",
              "name": "milestoneDescription",
              "type": "string"
            },
            {
              "internalType": "uint256",
              "name": "milestoneBudget",
              "type": "uint256"
            },
            {
              "internalType": "uint256",
              "name": "milestoneDuration",
              "type": "uint256"
            },
            {
              "internalType": "bool",
              "name": "milestoneWorkApproved",
              "type": "bool"
            }
          ],
          "internalType": "struct KaziKrypto.ProjectMilestones[]",
          "name": "",
          "type": "tuple[]"
        }
      ],
      "stateMutability": "view",
      "type": "function"
    },
    {
      "inputs": [
        {
          "internalType": "uint256",
          "name": "_bidId",
          "type": "uint256"
        }
      ],
      "name": "getProjectMileStones",
      "outputs": [
        {
          "components": [
            {
              "internalType": "uint256",
              "name": "bidId",
              "type": "uint256"
            },
            {
              "internalType": "uint256",
              "name": "mileStoneId",
              "type": "uint256"
            },
            {
              "internalType": "string",
              "name": "milestoneName",
              "type": "string"
            },
            {
              "internalType": "string",
              "name": "milestoneDescription",
              "type": "string"
            },
            {
              "internalType": "uint256",
              "name": "milestoneBudget",
              "type": "uint256"
            },
            {
              "internalType": "uint256",
              "name": "milestoneDuration",
              "type": "uint256"
            },
            {
              "internalType": "bool",
              "name": "milestoneWorkApproved",
              "type": "bool"
            }
          ],
          "internalType": "struct KaziKrypto.ProjectMilestones[]",
          "name": "",
          "type": "tuple[]"
        }
      ],
      "stateMutability": "view",
      "type": "function"
    },
    {
      "inputs": [
        {
          "internalType": "address",
          "name": "_accountId",
          "type": "address"
        }
      ],
      "name": "getFreelancerTransactions",
      "outputs": [
        {
          "components": [
            {
              "internalType": "address payable",
              "name": "from",
              "type": "address"
            },
            {
              "internalType": "address payable",
              "name": "to",
              "type": "address"
            },
            {
              "internalType": "string",
              "name": "transactionPurpose",
              "type": "string"
            },
            {
              "internalType": "uint256",
              "name": "transactionAmount",
              "type": "uint256"
            },
            {
              "internalType": "uint256",
              "name": "timestamp",
              "type": "uint256"
            },
            {
              "internalType": "string",
              "name": "transactionStatus",
              "type": "string"
            }
          ],
          "internalType": "struct KaziKrypto.Transaction[]",
          "name": "",
          "type": "tuple[]"
        }
      ],
      "stateMutability": "view",
      "type": "function"
    },
    {
      "inputs": [
        {
          "internalType": "address",
          "name": "_accountId",
          "type": "address"
        },
        {
          "internalType": "uint256",
          "name": "_bidId",
          "type": "uint256"
        },
        {
          "internalType": "string",
          "name": "_projectName",
          "type": "string"
        },
        {
          "internalType": "string",
          "name": "_feedBack",
          "type": "string"
        },
        {
          "internalType": "uint256",
          "name": "_ratingForCompletedProjects",
          "type": "uint256"
        },
        {
          "internalType": "uint256",
          "name": "_ratingForCommunicationSkills",
          "type": "uint256"
        }
      ],
      "name": "rateAfreelancer",
      "outputs": [],
      "stateMutability": "nonpayable",
      "type": "function"
    },
    {
      "inputs": [
        {
          "internalType": "address",
          "name": "_accountId",
          "type": "address"
        }
      ],
      "name": "viewFreelancerRating",
      "outputs": [
        {
          "components": [
            {
              "internalType": "uint256",
              "name": "bidId",
              "type": "uint256"
            },
            {
              "internalType": "string",
              "name": "ProjectName",
              "type": "string"
            },
            {
              "internalType": "address",
              "name": "accountId",
              "type": "address"
            },
            {
              "internalType": "string",
              "name": "feedback",
              "type": "string"
            },
            {
              "internalType": "uint256",
              "name": "ratingForCompletedProjects",
              "type": "uint256"
            },
            {
              "internalType": "uint256",
              "name": "ratingForCommunicationSkills",
              "type": "uint256"
            }
          ],
          "internalType": "struct KaziKrypto.FreelancerRatings[]",
          "name": "",
          "type": "tuple[]"
        }
      ],
      "stateMutability": "view",
      "type": "function"
    },
    {
      "inputs": [
        {
          "internalType": "string",
          "name": "_disputeName",
          "type": "string"
        },
        {
          "internalType": "string",
          "name": "_description",
          "type": "string"
        },
        {
          "internalType": "address",
          "name": "_clientInvolved",
          "type": "address"
        }
      ],
      "name": "createDispute",
      "outputs": [],
      "stateMutability": "nonpayable",
      "type": "function"
    },
    {
      "inputs": [
        {
          "internalType": "address",
          "name": "_disputor",
          "type": "address"
        }
      ],
      "name": "markDisputeAsResolved",
      "outputs": [],
      "stateMutability": "nonpayable",
      "type": "function"
    },
    {
      "inputs": [
        {
          "internalType": "uint256",
          "name": "index",
          "type": "uint256"
        }
      ],
      "name": "getDispute",
      "outputs": [
        {
          "components": [
            {
              "internalType": "string",
              "name": "disputeName",
              "type": "string"
            },
            {
              "internalType": "string",
              "name": "description",
              "type": "string"
            },
            {
              "internalType": "address",
              "name": "disputor",
              "type": "address"
            },
            {
              "internalType": "address",
              "name": "clientInvolved",
              "type": "address"
            },
            {
              "internalType": "bool",
              "name": "resolved",
              "type": "bool"
            }
          ],
          "internalType": "struct KaziKrypto.Disputes",
          "name": "",
          "type": "tuple"
        }
      ],
      "stateMutability": "view",
      "type": "function"
    },
    {
      "inputs": [],
      "name": "getAllDisputes",
      "outputs": [
        {
          "components": [
            {
              "internalType": "string",
              "name": "disputeName",
              "type": "string"
            },
            {
              "internalType": "string",
              "name": "description",
              "type": "string"
            },
            {
              "internalType": "address",
              "name": "disputor",
              "type": "address"
            },
            {
              "internalType": "address",
              "name": "clientInvolved",
              "type": "address"
            },
            {
              "internalType": "bool",
              "name": "resolved",
              "type": "bool"
            }
          ],
          "internalType": "struct KaziKrypto.Disputes[]",
          "name": "",
          "type": "tuple[]"
        }
      ],
      "stateMutability": "view",
      "type": "function"
    }
  ],
  "bytecode": "0x6080604052615b1b806100136000396000f3fe6080604052600436106101d85760003560e01c80635b05009811610102578063ce1d478311610095578063eeb2ba2f11610064578063eeb2ba2f146105ec578063f1bf53131461060c578063f9162ee21461062c578063f99ca8b61461065f57600080fd5b8063ce1d478314610552578063d3999d791461057f578063d9c836701461059f578063e3a96cbd146105bf57600080fd5b8063a713a048116100d1578063a713a048146104b8578063a77e9b35146104d8578063a91b95d9146104f8578063b0c77c561461052557600080fd5b80635b0500981461042957806364df6ab114610449578063876ec70b146104765780638c4fb55e1461049657600080fd5b806335e684b41161017a57806343ca17371161014957806343ca1737146103715780634455c8351461039157806349cbc79d146103cf578063582c7ffd146103fc57600080fd5b806335e684b4146102d75780633837cb2e146102f75780634027b297146103175780634104823e1461034457600080fd5b80631dd9997f116101b65780631dd9997f146102625780631f07b3991461028457806325dfc140146102a4578063349ae58a146102b757600080fd5b806302e9d5e4146101dd5780630e357a6e146101ff578063131d9a2714610235575b600080fd5b3480156101e957600080fd5b506101fd6101f8366004614940565b610691565b005b34801561020b57600080fd5b5061021f61021a366004614977565b6108b7565b60405161022c9190614a48565b60405180910390f35b34801561024157600080fd5b50610255610250366004614ad8565b610c23565b60405161022c9190614b68565b34801561026e57600080fd5b50610277610e47565b60405161022c9190614c33565b34801561029057600080fd5b506101fd61029f366004614d3d565b611003565b6101fd6102b2366004614e63565b6113a7565b3480156102c357600080fd5b506101fd6102d2366004614f3c565b6116c2565b3480156102e357600080fd5b506101fd6102f2366004614fb1565b6117a6565b34801561030357600080fd5b506101fd610312366004615067565b61181f565b34801561032357600080fd5b50610337610332366004614977565b6119be565b60405161022c91906150ae565b34801561035057600080fd5b5061036461035f366004614ad8565b611b87565b60405161022c91906151c8565b34801561037d57600080fd5b506101fd61038c3660046151e2565b612029565b34801561039d57600080fd5b506101fd6103ac3660046152a3565b336000908152600560205260409020600801805460ff1916911515919091179055565b3480156103db57600080fd5b506103ef6103ea3660046152be565b6120ff565b60405161022c91906152db565b34801561040857600080fd5b5061041c610417366004614940565b6122c4565b60405161022c919061539a565b34801561043557600080fd5b506101fd6104443660046153ad565b612613565b34801561045557600080fd5b506104696104643660046152be565b612867565b60405161022c9190615417565b34801561048257600080fd5b506101fd6104913660046154f2565b612c40565b3480156104a257600080fd5b506104ab612cde565b60405161022c919061554d565b3480156104c457600080fd5b506101fd6104d33660046155a2565b6130d9565b3480156104e457600080fd5b506101fd6104f336600461568d565b61320b565b34801561050457600080fd5b506105186105133660046152be565b6133df565b60405161022c9190615704565b34801561053157600080fd5b50610545610540366004614ad8565b6135a2565b60405161022c91906157b1565b34801561055e57600080fd5b5061057261056d3660046152be565b61376a565b60405161022c919061585f565b34801561058b57600080fd5b506101fd61059a366004614977565b613981565b3480156105ab57600080fd5b506101fd6105ba3660046152be565b613e0c565b3480156105cb57600080fd5b506105df6105da366004614ad8565b613ee6565b60405161022c9190615914565b3480156105f857600080fd5b506101fd6106073660046152be565b6140dd565b34801561061857600080fd5b506105456106273660046152be565b6141fa565b34801561063857600080fd5b5061064c610647366004614ad8565b6143c5565b60405161022c9796959493929190615927565b34801561066b57600080fd5b5061067f61067a366004614977565b6145ba565b60405161022c96959493929190615993565b60005b6000838152600c60205260409020548110156107c4576000838152600c602052604090208054839190839081106106cd576106cd615a34565b90600052602060002090600702016001015414156107b2576000838152600c6020526040902080548290811061070557610705615a34565b600091825260209091206006600790920201015460ff1615156001141561076b5760405162461bcd60e51b8152602060048201526015602482015274189a5917d85b1b1c9958591e57d85c1c1c9bdd9959605a1b60448201526064015b60405180910390fd5b6000838152600c602052604090208054600191908390811061078f5761078f615a34565b60009182526020909120600790910201600601805460ff19169115159190911790555b806107bc81615a60565b915050610694565b5060005b600b548110156108b25782600b82815481106107e6576107e6615a34565b90600052602060002090600902016000015414156108a057600b818154811061081157610811615a34565b600091825260209091206008600990920201015460ff166108685760405162461bcd60e51b8152602060048201526011602482015270626964206e6f7420617661696c61626c6560781b6044820152606401610762565b6000600b828154811061087d5761087d615a34565b60009182526020909120600990910201600801805460ff19169115159190911790555b806108aa81615a60565b9150506107c8565b505050565b6108f26040518060a0016040528060006001600160a01b03168152602001606081526020016060815260200160608152602001606081525090565b6001600160a01b038316600090815260066020526040902080548390811061091c5761091c615a34565b600091825260208083206040805160a081018252600590940290910180546001600160a01b0316845260018101805483518186028101860190945280845294959194868501949192909184015b82821015610a1557838290600052602060002001805461098890615a7b565b80601f01602080910402602001604051908101604052809291908181526020018280546109b490615a7b565b8015610a015780601f106109d657610100808354040283529160200191610a01565b820191906000526020600020905b8154815290600101906020018083116109e457829003601f168201915b505050505081526020019060010190610969565b50505050815260200160028201805480602002602001604051908101604052809291908181526020016000905b82821015610aee578382906000526020600020018054610a6190615a7b565b80601f0160208091040260200160405190810160405280929190818152602001828054610a8d90615a7b565b8015610ada5780601f10610aaf57610100808354040283529160200191610ada565b820191906000526020600020905b815481529060010190602001808311610abd57829003601f168201915b505050505081526020019060010190610a42565b505050508152602001600382018054610b0690615a7b565b80601f0160208091040260200160405190810160405280929190818152602001828054610b3290615a7b565b8015610b7f5780601f10610b5457610100808354040283529160200191610b7f565b820191906000526020600020905b815481529060010190602001808311610b6257829003601f168201915b50505050508152602001600482018054610b9890615a7b565b80601f0160208091040260200160405190810160405280929190818152602001828054610bc490615a7b565b8015610c115780601f10610be657610100808354040283529160200191610c11565b820191906000526020600020905b815481529060010190602001808311610bf457829003601f168201915b50505050508152505090505b92915050565b6060600c6000838152602001908152602001600020805480602002602001604051908101604052809291908181526020016000905b82821015610e3c5760008481526020908190206040805160e081018252600786029092018054835260018101549383019390935260028301546001600160a01b031690820152600382018054919291606084019190610cb690615a7b565b80601f0160208091040260200160405190810160405280929190818152602001828054610ce290615a7b565b8015610d2f5780601f10610d0457610100808354040283529160200191610d2f565b820191906000526020600020905b815481529060010190602001808311610d1257829003601f168201915b505050505081526020016004820154815260200160058201805480602002602001604051908101604052809291908181526020016000905b82821015610e13578382906000526020600020018054610d8690615a7b565b80601f0160208091040260200160405190810160405280929190818152602001828054610db290615a7b565b8015610dff5780601f10610dd457610100808354040283529160200191610dff565b820191906000526020600020905b815481529060010190602001808311610de257829003601f168201915b505050505081526020019060010190610d67565b505050908252506006919091015460ff1615156020918201529082526001929092019101610c58565b505050509050919050565b60606001805480602002602001604051908101604052809291908181526020016000905b82821015610ffa57838290600052602060002090600402016040518060a0016040529081600082018054610e9e90615a7b565b80601f0160208091040260200160405190810160405280929190818152602001828054610eca90615a7b565b8015610f175780601f10610eec57610100808354040283529160200191610f17565b820191906000526020600020905b815481529060010190602001808311610efa57829003601f168201915b50505050508152602001600182018054610f3090615a7b565b80601f0160208091040260200160405190810160405280929190818152602001828054610f5c90615a7b565b8015610fa95780601f10610f7e57610100808354040283529160200191610fa9565b820191906000526020600020905b815481529060010190602001808311610f8c57829003601f168201915b505050918352505060028201546001600160a01b039081166020808401919091526003909301549081166040830152600160a01b900460ff1615156060909101529082526001929092019101610e6b565b50505050905090565b60008060005b6000898152600c60205260409020548110156110e8576000898152600c6020526040902080548991908390811061104257611042615a34565b90600052602060002090600702016001015414801561109957506000898152600c6020526040902080548290811061107c5761107c615a34565b600091825260209091206006600790920201015460ff1615156001145b156110d6576000898152600c602052604090208054829081106110be576110be615a34565b90600052602060002090600702016004015492508091505b806110e081615a60565b915050611009565b508382101561112d5760405162461bcd60e51b8152602060048201526011602482015270189d5919d95d17dbdd995c9c1c9a58d959607a1b6044820152606401610762565b6000888152600c6020526040902080548290811061114d5761114d615a34565b600091825260209091206006600790920201015460ff166111a35760405162461bcd60e51b815260206004820152601060248201526f189a5917db9bdd17d85c1c1c9bdd995960821b6044820152606401610762565b600380549060006111b383615a60565b90915550506000888152600c602052604090208054859190839081106111db576111db615a34565b906000526020600020906007020160040160008282546111fb9190615ab6565b9091555050336000908152600960209081526040808320815160e0810183528b81526003548185019081529281018b8152606082018b9052608082018a905260a0820189905260c0820186905282546001818101855593875295859020825160079097020195865592519185019190915590518051919392611285926002850192909101906147f4565b50606082015180516112a19160038401916020909101906147f4565b50608082810151600483015560a080840151600584015560c0938401516006909301805460ff19169315159390931790925560008a8152600d60209081526040808320815160e0810183528e81526003548185019081529281018e8152606082018e90529581018c90529586018a90529585018390528554600181810188559684529282902085516007909402019283555194820194909455905180519293919261135292600285019201906147f4565b506060820151805161136e9160038401916020909101906147f4565b506080820151600482015560a0820151600582015560c0909101516006909101805460ff19169115159190911790555050505050505050565b60405130906000908190839034908381818185875af1925050503d80600081146113ed576040519150601f19603f3d011682016040523d82523d6000602084013e6113f2565b606091505b50600a8054929450909250600061140883615a60565b90915550506040805161012081018252600a5481523360208083019182529282018c8152606083018c9052608083018b905260a083018a905260c0830189905260e0830188905260016101008401819052600b80549182018155600052835160099091027f0175b7a638427703f0dbe7bb9bbf987a2551717b34e79f33b5b1008d1fa01db9810191825592517f0175b7a638427703f0dbe7bb9bbf987a2551717b34e79f33b5b1008d1fa01dba840180546001600160a01b03929092166001600160a01b03199092169190911790559051805193949193611510937f0175b7a638427703f0dbe7bb9bbf987a2551717b34e79f33b5b1008d1fa01dbb019291909101906147f4565b506060820151805161152c9160038401916020909101906147f4565b50608082015180516115489160048401916020909101906147f4565b5060a0820151600582015560c0820151805161156e916006840191602090910190614878565b5060e0820151805161158a916007840191602090910190614878565b5061010091909101516008909101805491151560ff19909216919091179055336000818152600460209081526040808320815160c0810183529485526001600160a01b0388811686850190815283518085018552600f81526e50726f6a65637420706f7374696e6760881b81870152878501908152346060890152426080890152845180860190955260098552686f6e5f657363726f7760b81b8587015260a088019490945282546001818101855593875295859020875160069097020180549683166001600160a01b031997881617815590519281018054939092169290951691909117905551805161168492600285019201906147f4565b50606082015160038201556080820151600482015560a082015180516116b49160058401916020909101906147f4565b505050505050505050505050565b6001600160a01b038084166000818152600e60209081526040808320815160c08101835242815233818501908152928101958652606081018981526080820189905260a08201869052825460018181018555938752958590208251600690970201958655925191850180549288166001600160a01b0319938416179055945160028501805491909716911617909455925180519293919261176992600385019201906147f4565b5060808201518051611785916004840191602090910190614878565b5060a091909101516005909101805460ff1916911515919091179055505050565b336000908152600560209081526040909120865190916117cd9160028401918901906147f4565b506003810185905583516117ea90600483019060208701906147f4565b50825161180090600583019060208601906147f4565b5081516118169060068301906020850190614878565b50505050505050565b6000805b6001600160a01b0388166000908152600860205260409020548110156118a8576001600160a01b038816600090815260086020526040902080548891908390811061187057611870615a34565b906000526020600020906006020160000154141561189657611893600183615acd565b91505b806118a081615a60565b915050611823565b5080611985576001600160a01b0387166000818152600860209081526040808320815160c0810183528b81528084018b815292810195909552606085018990526080850188905260a0850187905280546001818101835591855293839020855160069095020193845590518051611927939285019291909101906147f4565b5060408201516002820180546001600160a01b0319166001600160a01b03909216919091179055606082015180516119699160038401916020909101906147f4565b506080820151816004015560a082015181600501555050611816565b60405162461bcd60e51b815260206004820152600e60248201526d185b1b1c9958591e481c985d195960921b6044820152606401610762565b6119f96040518060a0016040528060006001600160a01b03168152602001606081526020016060815260200160608152602001606081525090565b6001600160a01b0383166000908152600760205260409020805483908110611a2357611a23615a34565b60009182526020918290206040805160a0810190915260059092020180546001600160a01b031682526001810180549293919291840191611a6390615a7b565b80601f0160208091040260200160405190810160405280929190818152602001828054611a8f90615a7b565b8015611adc5780601f10611ab157610100808354040283529160200191611adc565b820191906000526020600020905b815481529060010190602001808311611abf57829003601f168201915b50505050508152602001600282018054611af590615a7b565b80601f0160208091040260200160405190810160405280929190818152602001828054611b2190615a7b565b8015611b6e5780601f10611b4357610100808354040283529160200191611b6e565b820191906000526020600020905b815481529060010190602001808311611b5157829003601f168201915b50505050508152602001600382018054610b0690615a7b565b611be16040518061012001604052806000815260200160006001600160a01b031681526020016060815260200160608152602001606081526020016000815260200160608152602001606081526020016000151581525090565b600082118015611bf35750600a548211155b611c305760405162461bcd60e51b815260206004820152600e60248201526d125b9d985b1a59081a9bd888125160921b6044820152606401610762565b600b611c3d600184615ab6565b81548110611c4d57611c4d615a34565b906000526020600020906009020160405180610120016040529081600082015481526020016001820160009054906101000a90046001600160a01b03166001600160a01b03166001600160a01b03168152602001600282018054611cb090615a7b565b80601f0160208091040260200160405190810160405280929190818152602001828054611cdc90615a7b565b8015611d295780601f10611cfe57610100808354040283529160200191611d29565b820191906000526020600020905b815481529060010190602001808311611d0c57829003601f168201915b50505050508152602001600382018054611d4290615a7b565b80601f0160208091040260200160405190810160405280929190818152602001828054611d6e90615a7b565b8015611dbb5780601f10611d9057610100808354040283529160200191611dbb565b820191906000526020600020905b815481529060010190602001808311611d9e57829003601f168201915b50505050508152602001600482018054611dd490615a7b565b80601f0160208091040260200160405190810160405280929190818152602001828054611e0090615a7b565b8015611e4d5780601f10611e2257610100808354040283529160200191611e4d565b820191906000526020600020905b815481529060010190602001808311611e3057829003601f168201915b505050505081526020016005820154815260200160068201805480602002602001604051908101604052809291908181526020016000905b82821015611f31578382906000526020600020018054611ea490615a7b565b80601f0160208091040260200160405190810160405280929190818152602001828054611ed090615a7b565b8015611f1d5780601f10611ef257610100808354040283529160200191611f1d565b820191906000526020600020905b815481529060010190602001808311611f0057829003601f168201915b505050505081526020019060010190611e85565b50505050815260200160078201805480602002602001604051908101604052809291908181526020016000905b8282101561200a578382906000526020600020018054611f7d90615a7b565b80601f0160208091040260200160405190810160405280929190818152602001828054611fa990615a7b565b8015611ff65780601f10611fcb57610100808354040283529160200191611ff6565b820191906000526020600020905b815481529060010190602001808311611fd957829003601f168201915b505050505081526020019060010190611f5e565b505050908252506008919091015460ff16151560209091015292915050565b336000818152600660209081526040808320815160a081018352948552848301898152918501889052606085018790526080850186905280546001808201835591855293839020855160059095020180546001600160a01b0319166001600160a01b03909516949094178455905180516120ab93928501929190910190614878565b50604082015180516120c7916002840191602090910190614878565b50606082015180516120e39160038401916020909101906147f4565b50608082015180516118169160048401916020909101906147f4565b6001600160a01b0381166000908152600460209081526040808320805482518185028101850190935280835260609492939192909184015b82821015610e3c5760008481526020908190206040805160c0810182526006860290920180546001600160a01b039081168452600182015416938301939093526002830180549293929184019161218d90615a7b565b80601f01602080910402602001604051908101604052809291908181526020018280546121b990615a7b565b80156122065780601f106121db57610100808354040283529160200191612206565b820191906000526020600020905b8154815290600101906020018083116121e957829003601f168201915b50505050508152602001600382015481526020016004820154815260200160058201805461223390615a7b565b80601f016020809104026020016040519081016040528092919081815260200182805461225f90615a7b565b80156122ac5780601f10612281576101008083540402835291602001916122ac565b820191906000526020600020905b81548152906001019060200180831161228f57829003601f168201915b50505050508152505081526020019060010190612137565b61230f6040518060e00160405280600081526020016000815260200160006001600160a01b031681526020016060815260200160008152602001606081526020016000151581525090565b60008211801561232157506002548211155b61235e5760405162461bcd60e51b815260206004820152600e60248201526d125b9d985b1a5908189a5908125160921b6044820152606401610762565b6000838152600c6020908152604080832080548251818502810185019093528083529192909190849084015b8282101561256e5760008481526020908190206040805160e081018252600786029092018054835260018101549383019390935260028301546001600160a01b0316908201526003820180549192916060840191906123e890615a7b565b80601f016020809104026020016040519081016040528092919081815260200182805461241490615a7b565b80156124615780601f1061243657610100808354040283529160200191612461565b820191906000526020600020905b81548152906001019060200180831161244457829003601f168201915b505050505081526020016004820154815260200160058201805480602002602001604051908101604052809291908181526020016000905b828210156125455783829060005260206000200180546124b890615a7b565b80601f01602080910402602001604051908101604052809291908181526020018280546124e490615a7b565b80156125315780601f1061250657610100808354040283529160200191612531565b820191906000526020600020905b81548152906001019060200180831161251457829003601f168201915b505050505081526020019060010190612499565b505050908252506006919091015460ff161515602091820152908252600192909201910161238a565b50505050905060005b81518110156125da578382828151811061259357612593615a34565b60200260200101516020015114156125c8578181815181106125b7576125b7615a34565b602002602001015192505050610c1d565b806125d281615a60565b915050612577565b5060405162461bcd60e51b815260206004820152600d60248201526c109a59081b9bdd08199bdd5b99609a1b6044820152606401610762565b6000805b6000868152600c60205260409020548110156126c1576000868152600c6020526040902080543391908390811061265057612650615a34565b60009182526020909120600260079092020101546001600160a01b031614156126af5760405162461bcd60e51b8152602060048201526011602482015270185b1b1c9958591e57db58591957d89a59607a1b6044820152606401610762565b806126b981615a60565b915050612617565b5060005b600b5481101561281b5785600b82815481106126e3576126e3615a34565b9060005260206000209060090201600001541415612809576002805490600061270b83615a60565b9190505550818061271b90615a60565b6000888152600c60209081526040808320815160e0810183528c81526002805482860190815233948301948552606083018e8152608084018e905260a084018d905260c08401889052845460018082018755958952978790208451600790990201978855905193870193909355925192850180546001600160a01b0319166001600160a01b039094169390931790925551805194975090945091926127c692600385019201906147f4565b506080820151600482015560a082015180516127ec916005840191602090910190614878565b5060c091909101516006909101805460ff19169115159190911790555b8061281381615a60565b9150506126c5565b5060018110156128605760405162461bcd60e51b815260206004820152601060248201526f189a5917d91bd95cdb9d17d95e1a5cdd60821b6044820152606401610762565b5050505050565b6128c160405180610120016040528060006001600160a01b03168152602001606081526020016060815260200160008152602001606081526020016060815260200160608152602001600081526020016000151581525090565b6001600160a01b0380831660009081526005602090815260409182902082516101208101909352805490931682526001830180549293929184019161290590615a7b565b80601f016020809104026020016040519081016040528092919081815260200182805461293190615a7b565b801561297e5780601f106129535761010080835404028352916020019161297e565b820191906000526020600020905b81548152906001019060200180831161296157829003601f168201915b5050505050815260200160028201805461299790615a7b565b80601f01602080910402602001604051908101604052809291908181526020018280546129c390615a7b565b8015612a105780601f106129e557610100808354040283529160200191612a10565b820191906000526020600020905b8154815290600101906020018083116129f357829003601f168201915b5050505050815260200160038201548152602001600482018054612a3390615a7b565b80601f0160208091040260200160405190810160405280929190818152602001828054612a5f90615a7b565b8015612aac5780601f10612a8157610100808354040283529160200191612aac565b820191906000526020600020905b815481529060010190602001808311612a8f57829003601f168201915b50505050508152602001600582018054612ac590615a7b565b80601f0160208091040260200160405190810160405280929190818152602001828054612af190615a7b565b8015612b3e5780601f10612b1357610100808354040283529160200191612b3e565b820191906000526020600020905b815481529060010190602001808311612b2157829003601f168201915b5050505050815260200160068201805480602002602001604051908101604052809291908181526020016000905b82821015612c18578382906000526020600020018054612b8b90615a7b565b80601f0160208091040260200160405190810160405280929190818152602001828054612bb790615a7b565b8015612c045780601f10612bd957610100808354040283529160200191612c04565b820191906000526020600020905b815481529060010190602001808311612be757829003601f168201915b505050505081526020019060010190612b6c565b505050908252506007820154602082015260089091015460ff16151560409091015292915050565b336000818152600760209081526040808320815160a081018352948552848301898152918501889052606085018790526080850186905280546001808201835591855293839020855160059095020180546001600160a01b0319166001600160a01b0390951694909417845590518051612cc2939285019291909101906147f4565b50604082015180516120c79160028401916020909101906147f4565b6060600b805480602002602001604051908101604052809291908181526020016000905b82821015610ffa5760008481526020908190206040805161012081018252600986029092018054835260018101546001600160a01b03169383019390935260028301805492939291840191612d5690615a7b565b80601f0160208091040260200160405190810160405280929190818152602001828054612d8290615a7b565b8015612dcf5780601f10612da457610100808354040283529160200191612dcf565b820191906000526020600020905b815481529060010190602001808311612db257829003601f168201915b50505050508152602001600382018054612de890615a7b565b80601f0160208091040260200160405190810160405280929190818152602001828054612e1490615a7b565b8015612e615780601f10612e3657610100808354040283529160200191612e61565b820191906000526020600020905b815481529060010190602001808311612e4457829003601f168201915b50505050508152602001600482018054612e7a90615a7b565b80601f0160208091040260200160405190810160405280929190818152602001828054612ea690615a7b565b8015612ef35780601f10612ec857610100808354040283529160200191612ef3565b820191906000526020600020905b815481529060010190602001808311612ed657829003601f168201915b505050505081526020016005820154815260200160068201805480602002602001604051908101604052809291908181526020016000905b82821015612fd7578382906000526020600020018054612f4a90615a7b565b80601f0160208091040260200160405190810160405280929190818152602001828054612f7690615a7b565b8015612fc35780601f10612f9857610100808354040283529160200191612fc3565b820191906000526020600020905b815481529060010190602001808311612fa657829003601f168201915b505050505081526020019060010190612f2b565b50505050815260200160078201805480602002602001604051908101604052809291908181526020016000905b828210156130b057838290600052602060002001805461302390615a7b565b80601f016020809104026020016040519081016040528092919081815260200182805461304f90615a7b565b801561309c5780601f106130715761010080835404028352916020019161309c565b820191906000526020600020905b81548152906001019060200180831161307f57829003601f168201915b505050505081526020019060010190613004565b505050908252506008919091015460ff1615156020918201529082526001929092019101612d02565b60408051610120810182523380825260208083018a81528385018c9052606084018a90526080840189905260a0840188905260c08401879052600060e085018190528615156101008601529283526005825293909120825181546001600160a01b0319166001600160a01b039091161781559251805192939261316292600185019201906147f4565b506040820151805161317e9160028401916020909101906147f4565b5060608201516003820155608082015180516131a49160048401916020909101906147f4565b5060a082015180516131c09160058401916020909101906147f4565b5060c082015180516131dc916006840191602090910190614878565b5060e08201516007820155610100909101516008909101805460ff191691151591909117905550505050505050565b60005b6001548110156132ec57336001600160a01b03166001828154811061323557613235615a34565b60009182526020909120600260049092020101546001600160a01b031614801561328d57506001818154811061326d5761326d615a34565b6000918252602090912060049091020160030154600160a01b900460ff16155b156132da5760405162461bcd60e51b815260206004820152601860248201527f736f6c76655f796f75725f646973707574655f666972737400000000000000006044820152606401610762565b806132e481615a60565b91505061320e565b506040805160a081018252848152602080820185905233928201929092526001600160a01b0383166060820152600060808201819052600180548082018255915281518051929360049092027fb10e2d527612073b26eecdfd717e6a320cf44b4afac2b0732d9fcbe2b7fa0cf6019261336892849201906147f4565b50602082810151805161338192600185019201906147f4565b5060408201516002820180546001600160a01b0319166001600160a01b03928316179055606083015160039092018054608090940151929091166001600160a81b031990931692909217600160a01b91151591909102179055505050565b6001600160a01b0381166000908152600860209081526040808320805482518185028101850190935280835260609492939192909184015b82821015610e3c57838290600052602060002090600602016040518060c00160405290816000820154815260200160018201805461345490615a7b565b80601f016020809104026020016040519081016040528092919081815260200182805461348090615a7b565b80156134cd5780601f106134a2576101008083540402835291602001916134cd565b820191906000526020600020905b8154815290600101906020018083116134b057829003601f168201915b505050918352505060028201546001600160a01b031660208201526003820180546040909201916134fd90615a7b565b80601f016020809104026020016040519081016040528092919081815260200182805461352990615a7b565b80156135765780601f1061354b57610100808354040283529160200191613576565b820191906000526020600020905b81548152906001019060200180831161355957829003601f168201915b505050505081526020016004820154815260200160058201548152505081526020019060010190613417565b6060600d6000838152602001908152602001600020805480602002602001604051908101604052809291908181526020016000905b82821015610e3c57838290600052602060002090600702016040518060e0016040529081600082015481526020016001820154815260200160028201805461361e90615a7b565b80601f016020809104026020016040519081016040528092919081815260200182805461364a90615a7b565b80156136975780601f1061366c57610100808354040283529160200191613697565b820191906000526020600020905b81548152906001019060200180831161367a57829003601f168201915b505050505081526020016003820180546136b090615a7b565b80601f01602080910402602001604051908101604052809291908181526020018280546136dc90615a7b565b80156137295780601f106136fe57610100808354040283529160200191613729565b820191906000526020600020905b81548152906001019060200180831161370c57829003601f168201915b505050918352505060048201546020808301919091526005830154604083015260069092015460ff16151560609091015290825260019290920191016135d7565b6001600160a01b0381166000908152600e60209081526040808320805482518185028101850190935280835260609492939192909184015b82821015610e3c5760008481526020908190206040805160c081018252600686029092018054835260018101546001600160a01b039081169484019490945260028101549093169082015260038201805491929160608401919061380590615a7b565b80601f016020809104026020016040519081016040528092919081815260200182805461383190615a7b565b801561387e5780601f106138535761010080835404028352916020019161387e565b820191906000526020600020905b81548152906001019060200180831161386157829003601f168201915b5050505050815260200160048201805480602002602001604051908101604052809291908181526020016000905b828210156139585783829060005260206000200180546138cb90615a7b565b80601f01602080910402602001604051908101604052809291908181526020018280546138f790615a7b565b80156139445780601f1061391957610100808354040283529160200191613944565b820191906000526020600020905b81548152906001019060200180831161392757829003601f168201915b5050505050815260200190600101906138ac565b505050908252506005919091015460ff16151560209182015290825260019290920191016137a2565b60008060005b600b548110156139e757336001600160a01b0316600b82815481106139ae576139ae615a34565b60009182526020909120600160099092020101546001600160a01b031614156139d5573391505b806139df81615a60565b915050613987565b506001600160a01b0381163314613a315760405162461bcd60e51b815260206004820152600e60248201526d37b7363cafb537b12fb7bbb732b960911b6044820152606401610762565b60005b6001600160a01b038516600090815260096020526040902054811015613d5e576001600160a01b0385166000908152600960205260409020805485919083908110613a8157613a81615a34565b906000526020600020906007020160010154148015613ade57506001600160a01b0385166000908152600960205260409020805482908110613ac557613ac5615a34565b600091825260209091206006600790920201015460ff16155b8015613af257506001600160a01b03821633145b15613d4c576001600160a01b0385166000908152600960205260409020805482908110613b2157613b21615a34565b90600052602060002090600702016000015492506000309050600160096000886001600160a01b03166001600160a01b031681526020019081526020016000208381548110613b7257613b72615a34565b60009182526020808320600792909202909101600601805460ff1916931515939093179092556001600160a01b03881680825260099092526040902080546108fc919085908110613bc557613bc5615a34565b9060005260206000209060070201600401549081150290604051600060405180830381858888f19350505050158015613c02573d6000803e3d6000fd5b506001600160a01b038087166000818152600460209081526040808320815160c0810183529587168652858301859052815180830183526008815267105c1c1c9bdd985b60c21b818501528683015293835260099091529020805491929160608301919086908110613c7657613c76615a34565b600091825260208083206007928302016004015484524284820152604080518082018252928352661cd95d1d1b195960ca1b838301529384019190915284546001808201875595835291819020845160069093020180546001600160a01b03199081166001600160a01b039485161782558583015196820180549091169690931695909517909155908201518051929392613d1792600285019201906147f4565b50606082015160038201556080820151600482015560a08201518051613d479160058401916020909101906147f4565b505050505b80613d5681615a60565b915050613a34565b5060005b6000838152600d6020526040902054811015612860576000838152600d60205260409020805485919083908110613d9b57613d9b615a34565b9060005260206000209060070201600101541415613dfa576000838152600d6020526040902080546001919083908110613dd757613dd7615a34565b60009182526020909120600790910201600601805460ff19169115159190911790555b80613e0481615a60565b915050613d62565b60005b6001600160a01b0382166000908152600e6020526040902054811015613ee2576001600160a01b0382166000908152600e60205260409020805433919083908110613e5c57613e5c615a34565b60009182526020909120600160069092020101546001600160a01b03161415613ed0576001600160a01b0382166000908152600e6020526040902080546001919083908110613ead57613ead615a34565b60009182526020909120600690910201600501805460ff19169115159190911790555b80613eda81615a60565b915050613e0f565b5050565b6040805160a0810182526060808252602082018190526000928201839052810182905260808101919091526001548210613f525760405162461bcd60e51b815260206004820152600d60248201526c092dcecc2d8d2c840d2dcc8caf609b1b6044820152606401610762565b60018281548110613f6557613f65615a34565b90600052602060002090600402016040518060a0016040529081600082018054613f8e90615a7b565b80601f0160208091040260200160405190810160405280929190818152602001828054613fba90615a7b565b80156140075780601f10613fdc57610100808354040283529160200191614007565b820191906000526020600020905b815481529060010190602001808311613fea57829003601f168201915b5050505050815260200160018201805461402090615a7b565b80601f016020809104026020016040519081016040528092919081815260200182805461404c90615a7b565b80156140995780601f1061406e57610100808354040283529160200191614099565b820191906000526020600020905b81548152906001019060200180831161407c57829003601f168201915b505050918352505060028201546001600160a01b0390811660208301526003909201549182166040820152600160a01b90910460ff16151560609091015292915050565b6000546001600160a01b031633146141245760405162461bcd60e51b815260206004820152600a60248201526937b7363cafb7bbb732b960b11b6044820152606401610762565b60005b600154811015613ee257816001600160a01b03166001828154811061414e5761414e615a34565b60009182526020909120600260049092020101546001600160a01b03161480156141a657506001818154811061418657614186615a34565b6000918252602090912060049091020160030154600160a01b900460ff16155b156141e85760018082815481106141bf576141bf615a34565b906000526020600020906004020160030160146101000a81548160ff0219169083151502179055505b806141f281615a60565b915050614127565b6001600160a01b0381166000908152600960209081526040808320805482518185028101850190935280835260609492939192909184015b82821015610e3c57838290600052602060002090600702016040518060e0016040529081600082015481526020016001820154815260200160028201805461427990615a7b565b80601f01602080910402602001604051908101604052809291908181526020018280546142a590615a7b565b80156142f25780601f106142c7576101008083540402835291602001916142f2565b820191906000526020600020905b8154815290600101906020018083116142d557829003601f168201915b5050505050815260200160038201805461430b90615a7b565b80601f016020809104026020016040519081016040528092919081815260200182805461433790615a7b565b80156143845780601f1061435957610100808354040283529160200191614384565b820191906000526020600020905b81548152906001019060200180831161436757829003601f168201915b505050918352505060048201546020808301919091526005830154604083015260069092015460ff1615156060909101529082526001929092019101614232565b600b81815481106143d557600080fd5b60009182526020909120600990910201805460018201546002830180549294506001600160a01b03909116929161440b90615a7b565b80601f016020809104026020016040519081016040528092919081815260200182805461443790615a7b565b80156144845780601f1061445957610100808354040283529160200191614484565b820191906000526020600020905b81548152906001019060200180831161446757829003601f168201915b50505050509080600301805461449990615a7b565b80601f01602080910402602001604051908101604052809291908181526020018280546144c590615a7b565b80156145125780601f106144e757610100808354040283529160200191614512565b820191906000526020600020905b8154815290600101906020018083116144f557829003601f168201915b50505050509080600401805461452790615a7b565b80601f016020809104026020016040519081016040528092919081815260200182805461455390615a7b565b80156145a05780601f10614575576101008083540402835291602001916145a0565b820191906000526020600020905b81548152906001019060200180831161458357829003601f168201915b50505050600583015460089093015491929160ff16905087565b6000806000606080600080600e60008a6001600160a01b03166001600160a01b0316815260200190815260200160002088815481106145fb576145fb615a34565b60009182526020918290206040805160c08101825260069093029091018054835260018101546001600160a01b039081169484019490945260028101549093169082015260038201805491929160608401919061465790615a7b565b80601f016020809104026020016040519081016040528092919081815260200182805461468390615a7b565b80156146d05780601f106146a5576101008083540402835291602001916146d0565b820191906000526020600020905b8154815290600101906020018083116146b357829003601f168201915b5050505050815260200160048201805480602002602001604051908101604052809291908181526020016000905b828210156147aa57838290600052602060002001805461471d90615a7b565b80601f016020809104026020016040519081016040528092919081815260200182805461474990615a7b565b80156147965780601f1061476b57610100808354040283529160200191614796565b820191906000526020600020905b81548152906001019060200180831161477957829003601f168201915b5050505050815260200190600101906146fe565b505050908252506005919091015460ff16151560209182015281519082015160408301516060840151608085015160a090950151939e929d50909b50995091975095509350505050565b82805461480090615a7b565b90600052602060002090601f0160209004810192826148225760008555614868565b82601f1061483b57805160ff1916838001178555614868565b82800160010185558215614868579182015b8281111561486857825182559160200191906001019061484d565b506148749291506148d1565b5090565b8280548282559060005260206000209081019282156148c5579160200282015b828111156148c557825180516148b59184916020909101906147f4565b5091602001919060010190614898565b506148749291506148e6565b5b8082111561487457600081556001016148d2565b808211156148745760006148fa8282614903565b506001016148e6565b50805461490f90615a7b565b6000825580601f1061491f575050565b601f01602090049060005260206000209081019061493d91906148d1565b50565b6000806040838503121561495357600080fd5b50508035926020909101359150565b6001600160a01b038116811461493d57600080fd5b6000806040838503121561498a57600080fd5b823561499581614962565b946020939093013593505050565b6000815180845260005b818110156149c9576020818501810151868301820152016149ad565b818111156149db576000602083870101525b50601f01601f19169290920160200192915050565b600082825180855260208086019550808260051b84010181860160005b84811015614a3b57601f19868403018952614a298383516149a3565b98840198925090830190600101614a0d565b5090979650505050505050565b602080825282516001600160a01b03168282015282015160a06040830152600090614a7660c08401826149f0565b90506040840151601f1980858403016060860152614a9483836149f0565b92506060860151915080858403016080860152614ab183836149a3565b925060808601519150808584030160a086015250614acf82826149a3565b95945050505050565b600060208284031215614aea57600080fd5b5035919050565b805182526020810151602083015260018060a01b0360408201511660408301526000606082015160e06060850152614b2c60e08501826149a3565b90506080830151608085015260a083015184820360a0860152614b4f82826149f0565b91505060c0830151151560c08501528091505092915050565b6000602080830181845280855180835260408601915060408160051b870101925083870160005b82811015614bbd57603f19888603018452614bab858351614af1565b94509285019290850190600101614b8f565b5092979650505050505050565b6000815160a08452614bdf60a08501826149a3565b905060208301518482036020860152614bf882826149a3565b915050604083015160018060a01b03808216604087015280606086015116606087015250506080830151151560808501528091505092915050565b6000602080830181845280855180835260408601915060408160051b870101925083870160005b82811015614bbd57603f19888603018452614c76858351614bca565b94509285019290850190600101614c5a565b634e487b7160e01b600052604160045260246000fd5b604051601f8201601f191681016001600160401b0381118282101715614cc657614cc6614c88565b604052919050565b600082601f830112614cdf57600080fd5b81356001600160401b03811115614cf857614cf8614c88565b614d0b601f8201601f1916602001614c9e565b818152846020838601011115614d2057600080fd5b816020850160208301376000918101602001919091529392505050565b60008060008060008060c08789031215614d5657600080fd5b863595506020870135945060408701356001600160401b0380821115614d7b57600080fd5b614d878a838b01614cce565b95506060890135915080821115614d9d57600080fd5b50614daa89828a01614cce565b9350506080870135915060a087013590509295509295509295565b600082601f830112614dd657600080fd5b813560206001600160401b0380831115614df257614df2614c88565b8260051b614e01838201614c9e565b9384528581018301938381019088861115614e1b57600080fd5b84880192505b85831015614e5757823584811115614e395760008081fd5b614e478a87838c0101614cce565b8352509184019190840190614e21565b98975050505050505050565b60008060008060008060c08789031215614e7c57600080fd5b86356001600160401b0380821115614e9357600080fd5b614e9f8a838b01614cce565b97506020890135915080821115614eb557600080fd5b614ec18a838b01614cce565b96506040890135915080821115614ed757600080fd5b614ee38a838b01614cce565b9550606089013594506080890135915080821115614f0057600080fd5b614f0c8a838b01614dc5565b935060a0890135915080821115614f2257600080fd5b50614f2f89828a01614dc5565b9150509295509295509295565b600080600060608486031215614f5157600080fd5b8335614f5c81614962565b925060208401356001600160401b0380821115614f7857600080fd5b614f8487838801614cce565b93506040860135915080821115614f9a57600080fd5b50614fa786828701614dc5565b9150509250925092565b600080600080600060a08688031215614fc957600080fd5b85356001600160401b0380821115614fe057600080fd5b614fec89838a01614cce565b965060208801359550604088013591508082111561500957600080fd5b61501589838a01614cce565b9450606088013591508082111561502b57600080fd5b61503789838a01614cce565b9350608088013591508082111561504d57600080fd5b5061505a88828901614dc5565b9150509295509295909350565b60008060008060008060c0878903121561508057600080fd5b863561508b81614962565b95506020870135945060408701356001600160401b0380821115614d7b57600080fd5b602080825282516001600160a01b03168282015282015160a060408301526000906150dc60c08401826149a3565b90506040840151601f1980858403016060860152614a9483836149a3565b600061012082518452602083015161511d60208601826001600160a01b03169052565b506040830151816040860152615135828601826149a3565b9150506060830151848203606086015261514f82826149a3565b9150506080830151848203608086015261516982826149a3565b91505060a083015160a085015260c083015184820360c086015261518d82826149f0565b91505060e083015184820360e08601526151a782826149f0565b915050610100808401516151be8287018215159052565b5090949350505050565b6020815260006151db60208301846150fa565b9392505050565b600080600080608085870312156151f857600080fd5b84356001600160401b038082111561520f57600080fd5b61521b88838901614dc5565b9550602087013591508082111561523157600080fd5b61523d88838901614dc5565b9450604087013591508082111561525357600080fd5b61525f88838901614cce565b9350606087013591508082111561527557600080fd5b5061528287828801614cce565b91505092959194509250565b8035801515811461529e57600080fd5b919050565b6000602082840312156152b557600080fd5b6151db8261528e565b6000602082840312156152d057600080fd5b81356151db81614962565b60006020808301818452808551808352604092508286019150828160051b87010184880160005b8381101561538c57888303603f19018552815180516001600160a01b0390811685528882015116888501528681015160c088860181905290615346828701826149a3565b606084810151908801526080808501519088015260a093840151878203948801949094529150615378905081836149a3565b968901969450505090860190600101615302565b509098975050505050505050565b6020815260006151db6020830184614af1565b600080600080608085870312156153c357600080fd5b8435935060208501356001600160401b03808211156153e157600080fd5b6153ed88838901614cce565b945060408701359350606087013591508082111561540a57600080fd5b5061528287828801614dc5565b602081526154316020820183516001600160a01b03169052565b6000602083015161012080604085015261544f6101408501836149a3565b91506040850151601f198086850301606087015261546d84836149a3565b93506060870151608087015260808701519150808685030160a087015261549484836149a3565b935060a08701519150808685030160c08701526154b184836149a3565b935060c08701519150808685030160e0870152506154cf83826149f0565b60e0870151610100878101919091528701518015158488015290935090506151be565b6000806000806080858703121561550857600080fd5b84356001600160401b038082111561551f57600080fd5b61552b88838901614cce565b9550602087013591508082111561554157600080fd5b61523d88838901614cce565b6000602080830181845280855180835260408601915060408160051b870101925083870160005b82811015614bbd57603f198886030184526155908583516150fa565b94509285019290850190600101615574565b600080600080600080600060e0888a0312156155bd57600080fd5b87356001600160401b03808211156155d457600080fd5b6155e08b838c01614cce565b985060208a01359150808211156155f657600080fd5b6156028b838c01614cce565b975060408a0135965060608a013591508082111561561f57600080fd5b61562b8b838c01614cce565b955060808a013591508082111561564157600080fd5b61564d8b838c01614cce565b945060a08a013591508082111561566357600080fd5b506156708a828b01614dc5565b92505061567f60c0890161528e565b905092959891949750929550565b6000806000606084860312156156a257600080fd5b83356001600160401b03808211156156b957600080fd5b6156c587838801614cce565b945060208601359150808211156156db57600080fd5b506156e886828701614cce565b92505060408401356156f981614962565b809150509250925092565b60006020808301818452808551808352604092508286019150828160051b87010184880160005b8381101561538c57603f19898403018552815160c08151855288820151818a870152615759828701826149a3565b838a01516001600160a01b0316878b0152606080850151888303828a0152919350915061578683826149a3565b6080858101519089015260a0948501519490970193909352505050938601939086019060010161572b565b60006020808301818452808551808352604092508286019150828160051b87010184880160005b8381101561538c57603f19898403018552815160e081518552888201518986015287820151818987015261580e828701826149a3565b9150506060808301518683038288015261582883826149a3565b6080858101519089015260a0808601519089015260c0948501511515949097019390935250505093860193908601906001016157d8565b60006020808301818452808551808352604092508286019150828160051b87010184880160005b8381101561538c57888303603f19018552815180518452878101516001600160a01b039081168986015287820151168785015260608082015160c082870181905291906158d5838801826149a3565b92505050608080830151868303828801526158f083826149f0565b60a09485015115159790940196909652505094870194925090860190600101615886565b6020815260006151db6020830184614bca565b8781526001600160a01b038716602082015260e060408201819052600090615951908301886149a3565b828103606084015261596381886149a3565b9050828103608084015261597781876149a3565b60a0840195909552505090151560c09091015295945050505050565b8681526000602060018060a01b038089168285015280881660408501525060c060608401526159c560c08401876149a3565b8381036080850152855180825282820190600581901b8301840184890160005b83811015615a1357601f19868403018552615a018383516149a3565b948701949250908601906001016159e5565b505087151560a08801529450615a299350505050565b979650505050505050565b634e487b7160e01b600052603260045260246000fd5b634e487b7160e01b600052601160045260246000fd5b6000600019821415615a7457615a74615a4a565b5060010190565b600181811c90821680615a8f57607f821691505b60208210811415615ab057634e487b7160e01b600052602260045260246000fd5b50919050565b600082821015615ac857615ac8615a4a565b500390565b60008219821115615ae057615ae0615a4a565b50019056fea26469706673582212208da43548d561b23ef16cd6e20b2e98394a5f559ab5abfb10fe30b2aa93a8ba0f64736f6c634300080b0033",
  "immutableReferences": {},
  "source": "// SPDX-License-Identifier: MIT\r\npragma solidity >=0.4.1 < 0.9.0;\r\n\r\n/**\r\n* @title Kazi Krypto\r\n* @notice The contract a freelancing platform on the Ethereum blockchain\r\n* @notice The platform aims to connect freelancers and clients, facilitating secure and\r\ntransparent transactions while leveraging the benefits of blockchain technology\r\n\r\n* @dev user Registration and profiles\r\n* @dev Job posting and bidding\r\n* @dev Smart contract escrow\r\n* @dev messaging and collaboration\r\n* @dev reputation and reviews\r\n* @dev payment and escrow release\r\n* @dev transaction history and analytics\r\n* @dev conflict resolution\r\n */\r\n \r\n\r\ncontract KaziKrypto {\r\n\r\n    /**\r\n    * @dev allow smart contract to receive payments\r\n    */\r\n    address owner;\r\n    constructor() payable{\r\n        owner == msg.sender;\r\n    }\r\n\r\n\r\n    /// @title Freelancer Profile\r\n    /// @dev Struct to store user profile\r\n    struct Freelancer {\r\n        address payable accountId;\r\n        string profileImage;\r\n        string fullName;\r\n        uint hourlyRate;\r\n        string profession;\r\n        string paymentPreference;\r\n        string[] skills;\r\n        uint profileRating;\r\n        bool isProfilePublic;\r\n    }\r\n\r\n    struct Disputes {\r\n        string disputeName;\r\n        string description;\r\n        address disputor;\r\n        address clientInvolved;\r\n        bool resolved;\r\n    }\r\n\r\n    Disputes[] disputes;\r\n\r\n    /// @title freelancer portfolio\r\n    /// @notice all portfolios mapped to the specific freelancer Id\r\n    struct FreelancerPortfolio {\r\n        address accountId;\r\n        string[] images; /// @dev optional\r\n        string[] videos; /// @dev optional\r\n        string taskUrl;\r\n        string description;\r\n    }\r\n\r\n    /// @title freelancer experience\r\n    /// @dev store freelancer experience\r\n    struct FreelancerExperience {\r\n        address accountId;\r\n        string fromDate;\r\n        string toDate;\r\n        string jobTitle;\r\n        string jobDescription;\r\n    }\r\n\r\n    /// @title Job posting and bidding\r\n    /// @dev struct to store job requirements\r\n    struct ClientJobs {\r\n        uint jobId;\r\n        address accountId;\r\n        string projectTitle;\r\n        string projectDescription;\r\n        string projectDuration;\r\n        uint projectBudget;\r\n        string[] skillRequirements;\r\n        string[] images; ///@dev optional\r\n        bool bidAvailable;\r\n    }\r\n\r\n    /// @title FreelancerBids;\r\n    /// @dev store each freelancerBid\r\n    /// @dev make a reference to the account Id of the freelancer\r\n    struct FreelancerBids {\r\n        uint jobId;\r\n        uint bidId;\r\n        address accountId;\r\n        string bidDescription;\r\n        uint budget;\r\n        string[] relevantFiles; /// @dev optional\r\n        bool bidApproved;\r\n    }\r\n\r\n    uint private clientBidId;\r\n\r\n    /// @title Milestones\r\n    /// @dev allow frelancer to bid in form of milestones\r\n    /// @dev optional\r\n\r\n    struct ProjectMilestones {\r\n        uint bidId;\r\n        uint mileStoneId;\r\n        string milestoneName;\r\n        string milestoneDescription;\r\n        uint milestoneBudget;\r\n        uint milestoneDuration;\r\n        bool milestoneWorkApproved;\r\n    }\r\n\r\n    uint private mileStoneId;\r\n\r\n    /// @title Chats\r\n    /// @dev chat from intended sender to intended receiver\r\n\r\n    struct Chats {\r\n        uint timestamp;\r\n        address sender;\r\n        address receiver;\r\n        string message;\r\n        string[] attachedFiles; /// @dev optional\r\n        bool seen;\r\n    }\r\n\r\n    /// @title client ratings\r\n    /// @dev single client Rating\r\n    /// @dev done by the freelancer\r\n\r\n    struct ClientRatings {\r\n        uint bidId;\r\n        string ProjectName; /// @dev optional\r\n        address accountId;\r\n        string feedback; /// @dev optional\r\n        uint ratingForTimelyPayments; /// @dev maximum 5\r\n        uint ratingForTimelyFeedbacks; /// @dev maximum 5\r\n    }\r\n\r\n    /// @title freelancerr Ratings\r\n    /// @dev single freelancer Rating\r\n\r\n    struct FreelancerRatings {\r\n        uint bidId;\r\n        string ProjectName; /// @dev optional;\r\n        address accountId; \r\n        string feedback; /// @dev optional;\r\n        uint ratingForCompletedProjects; /// @dev max 5;\r\n        uint ratingForCommunicationSkills; /// @dev max 5;\r\n    }\r\n\r\n    /// @title Transaction History\r\n    /// @dev store transaction history\r\n    struct Transaction {\r\n        address payable from;\r\n        address payable to;\r\n        string transactionPurpose;\r\n        uint transactionAmount;\r\n        uint timestamp;\r\n        string transactionStatus;\r\n    }\r\n\r\n    mapping(address => Transaction[]) transactions;\r\n\r\n    /// @dev freelancer detail storage\r\n    /// @dev store personal details\r\n    /// @dev store each freelancer portfolio\r\n    /// @dev store freelancer experience\r\n    /// @dev store freelancer ratings;\r\n    /// @dev everybody is a freelancer \r\n    /// @dev current project milestones\r\n    mapping(address => Freelancer) freelancers;\r\n    mapping(address => FreelancerPortfolio[]) freelancerPortfolios;\r\n    mapping(address => FreelancerExperience[]) freelancerExperiences;\r\n    mapping(address => FreelancerRatings[]) freelancerRatings;\r\n    mapping(address => ProjectMilestones[]) milestonesInAccount;\r\n\r\n    /// @dev client detail storage\r\n    /// @dev store Client Jobs\r\n    /// @dev not everybody is a client\r\n    uint internal clientJobId;\r\n    ClientJobs[] public allClientJobs;\r\n    mapping(uint => FreelancerBids[]) allBidsForClientJobs;\r\n\r\n    /// @dev acceptedBidDetail\r\n    /// @dev storage done here if the data stored above has been validated\r\n    mapping(uint => ProjectMilestones[]) projectMilestonesForAcceptedBids;\r\n\r\n\r\n    /// @dev Chat storage;\r\n    mapping(address => Chats[]) freelancerChats;\r\n\r\n    /**\r\n    * @param _fullName full names for freelancer\r\n    * @param _profession he inputs his profession\r\n    * @param _preferredPayment he fills his preferred payment\r\n    * @param _skill he fills in his skills\r\n    * @dev rating is automatically filled for the first time as 0\r\n    * @notice after logging in for the first time update details here\r\n     */\r\n\r\n    function addNewFreelancer(string memory _fullName,string memory _profileImage, uint _hourlyRate,string memory _profession, string memory _preferredPayment, string[] memory _skill, bool _isProfilePublic)public{\r\n        /// @dev validate inputs\r\n        // require(_fullName.length > 0, \"enter_name\");\r\n        // require(_profession.length > 0, \"enter_profession\");\r\n        // require(_preferredPayment.length > 0, \"enter_preferred_payment\");\r\n        // require(_skill.length > 0, \"enter_one_skill\");\r\n\r\n        /// @dev make the storage\r\n        freelancers[msg.sender] = Freelancer(payable(msg.sender),_profileImage, _fullName,_hourlyRate,  _profession, _preferredPayment, _skill, 0, _isProfilePublic); \r\n    }\r\n\r\n    /**\r\n     * @notice Allows freelancers to update their profile information\r\n     * @param _fullName Updated full names for freelancer\r\n     * @param _hourlyRate Updated hourly rate\r\n     * @param _profession Updated profession\r\n     * @param _preferredPayment Updated preferred payment\r\n     * @param _skills Updated skills\r\n     */\r\n    function editFreelancerProfile(string memory _fullName, uint _hourlyRate, string memory _profession, string memory _preferredPayment, string[] memory _skills) public {\r\n        Freelancer storage freelancer = freelancers[msg.sender];\r\n        freelancer.fullName = _fullName;\r\n        freelancer.hourlyRate = _hourlyRate;\r\n        freelancer.profession = _profession;\r\n        freelancer.paymentPreference = _preferredPayment;\r\n        freelancer.skills = _skills;\r\n    }\r\n\r\n    /**\r\n     * @notice Allows freelancers to set their profile visibility status\r\n     * @param _isProfilePublic Boolean indicating if the profile is public (true) or private (false)\r\n     */\r\n    function setProfileVisibility(bool _isProfilePublic) public {\r\n        freelancers[msg.sender].isProfilePublic = _isProfilePublic;\r\n    }\r\n\r\n    function getFreelancer(address _freelancerAddress) public view returns (Freelancer memory) {\r\n        return freelancers[_freelancerAddress];\r\n    }\r\n\r\n    /**\r\n    * @notice adds portfolio to an existing freelancer profile\r\n    * @param _images images involved\r\n    * @param _description description involved | optional\r\n    * @param _taskurl url to the task | optional\r\n    * @param _videos videos involved if any\r\n    * \r\n     */\r\n\r\n     function addPortfolio(string[] memory _images, string[] memory _videos, string memory _taskurl, string memory _description) public {\r\n        freelancerPortfolios[msg.sender].push(FreelancerPortfolio(msg.sender, _images, _videos, _taskurl, _description));\r\n     }\r\n\r\n\r\n    function getPortfolio(address _freelancerAddress, uint256 _index) public view returns (FreelancerPortfolio memory) {\r\n        return freelancerPortfolios[_freelancerAddress][_index];\r\n    }\r\n     /**\r\n     * @notice adds experiences to a freelancer account\r\n     * @param _fromDate date started\r\n     * @param _toDate date ended, // optional if still working\r\n     * @param _jobTitle role of the freelancer\r\n     * @param _jobDescription description of the job\r\n     */\r\n\r\n     function addFreelancerExperience(string memory _fromDate, string memory _toDate, string memory _jobTitle, string memory _jobDescription)public{\r\n        freelancerExperiences[msg.sender].push(FreelancerExperience(msg.sender, _fromDate, _toDate, _jobTitle, _jobDescription));\r\n     }\r\n\r\n    function getExperience(address _freelancerAddress, uint256 _index) public view returns (FreelancerExperience memory) {\r\n        return freelancerExperiences[_freelancerAddress][_index];\r\n    }\r\n\r\n\r\n    /**\r\n    * @dev anyone can do this\r\n    * @dev one has to fully pay for the task when posting to ensure integrity of the DAPP\r\n    * @param _projectTitle title of the task\r\n    * @param _projectDescription description of the project\r\n    * @param _projectDuration should be in range of dates\r\n    * @param _projectBudget should be more than 0\r\n    * @param _skillRequirements at least one\r\n    * @param _images if any*/\r\n     function postAClientJob(string memory _projectTitle, string memory _projectDescription, string memory _projectDuration, uint _projectBudget, string[] memory _skillRequirements, string[] memory _images) public payable {\r\n        address payable contractAddress = payable(address(this));\r\n        (bool sent, bytes memory data) = contractAddress.call{value: msg.value}(\"\");\r\n        clientJobId++;\r\n        allClientJobs.push(ClientJobs(clientJobId, msg.sender, _projectTitle, _projectDescription, _projectDuration, _projectBudget, _skillRequirements, _images, true));\r\n        transactions[msg.sender].push(Transaction(payable(msg.sender), contractAddress, \"Project posting\", msg.value, block.timestamp, \"on_escrow\"));\r\n     }\r\n\r\n     function getAllClientJobs() public view returns (ClientJobs[] memory){\r\n        return allClientJobs;\r\n     } \r\n\r\n\r\n    function getClientJob(uint256 _jobId) public view returns (ClientJobs memory) {\r\n        require(_jobId > 0 && _jobId <= clientJobId, \"Invalid job ID\");\r\n        return allClientJobs[_jobId - 1];\r\n    }\r\n\r\n    /**\r\n    * @dev makeAbidding\r\n    * @dev only occurs on existing project id\r\n    * @param _jobid id for  the job description\r\n    * @param _bidDescription auto generated id for bid description\r\n    * @param _budget freelancer budget for bid description\r\n    * @param _relevantFiles if the freelancer needs to upload relevant files to justify his bidding */\r\n     function makeABidding(uint _jobid, string memory _bidDescription, uint _budget, string[] memory _relevantFiles) public {\r\n        uint internalBidCounter;\r\n        for(uint i = 0; i < allBidsForClientJobs[_jobid].length; i++){\r\n            if(allBidsForClientJobs[_jobid][i].accountId == msg.sender){\r\n                revert(\"allready_made_bid\");\r\n            }\r\n        }\r\n\r\n        for (uint i = 0; i < allClientJobs.length; i++) {\r\n            if(allClientJobs[i].jobId == _jobid){\r\n                clientBidId++;\r\n                internalBidCounter++;\r\n                allBidsForClientJobs[_jobid].push(FreelancerBids(_jobid, clientBidId, msg.sender, _bidDescription, _budget, _relevantFiles, false));\r\n            }\r\n        }\r\n\r\n        if(internalBidCounter < 1){\r\n            revert(\"bid_doesnt_exist\");\r\n        }\r\n     }\r\n\r\n    function getBid(uint256 _jobid, uint256 _bidId) public view returns (FreelancerBids memory) {\r\n        require(_bidId > 0 && _bidId <= clientBidId, \"Invalid bid ID\");\r\n        FreelancerBids[] memory bids = allBidsForClientJobs[_jobid];\r\n        for (uint256 i = 0; i < bids.length; i++) {\r\n            if (bids[i].bidId == _bidId) {\r\n                return bids[i];\r\n            }\r\n        }\r\n        revert(\"Bid not found\");\r\n    }\r\n\r\n    function getBids(uint256 _jobid) public view returns (FreelancerBids[] memory) {\r\n        return allBidsForClientJobs[_jobid];\r\n    }\r\n\r\n\r\n     function chat(address _receiver, string memory _message, string[] memory _attachedFiles) public {\r\n        freelancerChats[_receiver].push(Chats(block.timestamp, msg.sender, _receiver, _message, _attachedFiles, false));\r\n     }\r\n\r\n     function markAsRead(address _receiver)public{\r\n        for(uint i = 0; i < freelancerChats[_receiver].length; i++){\r\n            if(freelancerChats[_receiver][i].sender == msg.sender){\r\n                freelancerChats[_receiver][i].seen = true;\r\n            }\r\n        }\r\n     }\r\n\r\n    function getChat(address _receiver, uint _index) public view returns (\r\n        uint timestamp,\r\n        address sender,\r\n        address receiver,\r\n        string memory message,\r\n        string[] memory attachedFiles,\r\n        bool seen\r\n    ) {\r\n        Chats memory chat = freelancerChats[_receiver][_index];\r\n        return (\r\n            chat.timestamp,\r\n            chat.sender,\r\n            chat.receiver,\r\n            chat.message,\r\n            chat.attachedFiles,\r\n            chat.seen\r\n        );\r\n    }\r\n\r\n    function getChats(address _receiver) public view returns (Chats[] memory) {\r\n        return freelancerChats[_receiver];\r\n    }\r\n\r\n    function acceptBid(uint _jobId, uint _bidId) public {\r\n        for(uint i = 0; i < allBidsForClientJobs[_jobId].length; i++){\r\n            if(allBidsForClientJobs[_jobId][i].bidId  == _bidId){\r\n                if(allBidsForClientJobs[_jobId][i].bidApproved == true){\r\n                    revert(\"bid_allready_approved\");\r\n                }else{\r\n                    allBidsForClientJobs[_jobId][i].bidApproved = true;\r\n                }\r\n            }\r\n        }\r\n        for(uint i = 0; i < allClientJobs.length; i++){\r\n            if(allClientJobs[i].jobId == _jobId){\r\n\r\n                if(allClientJobs[i].bidAvailable == false){\r\n                    revert(\"bid not available\");\r\n                }else{\r\n                    allClientJobs[i].bidAvailable = false;\r\n                }\r\n            }\r\n        }\r\n    }\r\n\r\n    function addProjectMileStone(uint _jobId, uint _bidId, string memory _milestoneName, string memory _mileStoneDescription, uint _mileStoneBudget, uint _mileStoneDuration) public {\r\n        uint remaining_budget;\r\n        uint dataPosition;\r\n         for(uint i = 0; i < allBidsForClientJobs[_jobId].length; i++){\r\n           if(allBidsForClientJobs[_jobId][i].bidId == _bidId && allBidsForClientJobs[_jobId][i].bidApproved == true){\r\n            remaining_budget = allBidsForClientJobs[_jobId][i].budget;\r\n            dataPosition = i;\r\n           }\r\n        }\r\n\r\n\r\n\r\n        if(remaining_budget < _mileStoneBudget){\r\n            revert('budget_overpriced');\r\n        }else if(allBidsForClientJobs[_jobId][dataPosition].bidApproved == false){\r\n            revert('bid_not_approved');\r\n        }\r\n        else{\r\n            mileStoneId++;\r\n            allBidsForClientJobs[_jobId][dataPosition].budget -= _mileStoneBudget;\r\n            ///@dev will be used for freelancer rating purposes\r\n            milestonesInAccount[msg.sender].push(ProjectMilestones(_bidId,mileStoneId, _milestoneName, _mileStoneDescription, _mileStoneBudget, _mileStoneDuration, false));\r\n\r\n            ///@dev will be used for client project management\r\n            projectMilestonesForAcceptedBids[_bidId].push(ProjectMilestones(_bidId,mileStoneId, _milestoneName, _mileStoneDescription, _mileStoneBudget, _mileStoneDuration, false));\r\n        }\r\n    }\r\n\r\n    \r\n   \r\n\r\n    function approveProjectMilestone(address payable _freelancer, uint _mileStoneId)public {\r\n        uint bidId;\r\n        address jobOwner;\r\n        /// @dev making sure only the project owner can make the approval\r\n\r\n\r\n        for(uint i = 0; i < allClientJobs.length; i++){\r\n            if(allClientJobs[i].accountId == msg.sender){\r\n                jobOwner = msg.sender;\r\n            }\r\n        }\r\n\r\n        if(jobOwner != msg.sender){\r\n            revert(\"only_job_owner\");\r\n        }\r\n        \r\n\r\n        for(uint i = 0; i < milestonesInAccount[_freelancer].length; i++){\r\n            if(milestonesInAccount[_freelancer][i].mileStoneId == _mileStoneId && milestonesInAccount[_freelancer][i].milestoneWorkApproved == false && jobOwner == msg.sender) {\r\n                bidId = milestonesInAccount[_freelancer][i].bidId;\r\n                address payable contractAddress = payable(address(this));\r\n                milestonesInAccount[_freelancer][i].milestoneWorkApproved = true;\r\n                _freelancer.transfer(milestonesInAccount[_freelancer][i].milestoneBudget);\r\n                transactions[_freelancer].push(Transaction(contractAddress, _freelancer, \"Approval\",milestonesInAccount[_freelancer][i].milestoneBudget , block.timestamp, \"settled\"));\r\n            }\r\n        }\r\n\r\n\r\n\r\n        for(uint i = 0; i < projectMilestonesForAcceptedBids[bidId].length; i++){\r\n            if(projectMilestonesForAcceptedBids[bidId][i].mileStoneId == _mileStoneId){\r\n                projectMilestonesForAcceptedBids[bidId][i].milestoneWorkApproved = true;\r\n            }\r\n        } \r\n    }\r\n\r\n    /// @dev displays a freelancer milestone at profile Mode\r\n    function getFreelancerMileStones(address _accountId) public view returns(ProjectMilestones[] memory){\r\n        return milestonesInAccount[_accountId];\r\n    }\r\n\r\n    /// @dev displays freelancer milestone in Project mode\r\n    function getProjectMileStones(uint _bidId) public view returns (ProjectMilestones[] memory){\r\n        return projectMilestonesForAcceptedBids[_bidId];\r\n    }\r\n\r\n    /// @dev display freelancer transaction at profile Mode\r\n    function getFreelancerTransactions(address _accountId) public view returns(Transaction[] memory){\r\n        return transactions[_accountId];\r\n    }\r\n\r\n    /// @dev rate a freelancer\r\n    function rateAfreelancer(address _accountId, uint _bidId,string memory _projectName, string memory _feedBack, uint _ratingForCompletedProjects, uint _ratingForCommunicationSkills) public {\r\n        uint isRated = 0;\r\n        for(uint i = 0; i < freelancerRatings[_accountId].length; i++){\r\n            if(freelancerRatings[_accountId][i].bidId == _bidId){\r\n                isRated += 1;\r\n            }\r\n        }\r\n\r\n        if(isRated == 0){\r\n            freelancerRatings[_accountId].push(FreelancerRatings(_bidId, _projectName, _accountId, _feedBack, _ratingForCompletedProjects, _ratingForCommunicationSkills));\r\n        }else{\r\n            revert(\"allready rated\");\r\n        }\r\n    }\r\n    /// @dev view freelancer rating\r\n\r\n    function viewFreelancerRating(address _accountId) public view returns(FreelancerRatings[] memory){\r\n        return freelancerRatings[_accountId];\r\n    }\r\n\r\n    /// @dev disputes handling\r\n    function createDispute(string memory _disputeName, string memory _description, address _clientInvolved) public {\r\n        for(uint i = 0; i < disputes.length; i++){\r\n            if(disputes[i].disputor == msg.sender && disputes[i].resolved == false){\r\n                revert(\"solve_your_dispute_first\");\r\n            }\r\n        }\r\n        disputes.push(Disputes(_disputeName, _description, msg.sender, _clientInvolved, false));\r\n    }\r\n\r\n    modifier onlyOwner {\r\n        require(owner == msg.sender, \"only_owner\");\r\n        _;\r\n    }\r\n\r\n    function markDisputeAsResolved(address _disputor) public onlyOwner {\r\n        for(uint i = 0; i < disputes.length; i++){\r\n            if(disputes[i].disputor == _disputor && disputes[i].resolved == false){\r\n                disputes[i].resolved = true;\r\n            }\r\n        }\r\n    }\r\n\r\n\r\n    function getDispute(uint index) public view returns (Disputes memory) {\r\n        require(index < disputes.length, \"Invalid index\");\r\n        return disputes[index];\r\n    }\r\n\r\n    function getAllDisputes() public view returns (Disputes[] memory) {\r\n        return disputes;\r\n    }\r\n}",
  "sourcePath": "C:\\Users\\Felabs\\Desktop\\kazikrypto\\contract\\contracts\\KaziKrypto.sol",
  "compiler": {
    "name": "solc",
    "version": "0.8.11+commit.d7f03943.Emscripten.clang"
  },
  "schemaVersion": "3.4.13",
  "updatedAt": "2023-07-30T11:11:10.783Z",
  "devdoc": {
    "details": "user Registration and profilesJob posting and biddingSmart contract escrowmessaging and collaborationreputation and reviewspayment and escrow releasetransaction history and analyticsconflict resolution",
    "kind": "dev",
    "methods": {
      "addFreelancerExperience(string,string,string,string)": {
        "params": {
          "_fromDate": "date started",
          "_jobDescription": "description of the job",
          "_jobTitle": "role of the freelancer",
          "_toDate": "date ended, // optional if still working"
        }
      },
      "addNewFreelancer(string,string,uint256,string,string,string[],bool)": {
        "details": "rating is automatically filled for the first time as 0",
        "params": {
          "_fullName": "full names for freelancer",
          "_preferredPayment": "he fills his preferred payment",
          "_profession": "he inputs his profession",
          "_skill": "he fills in his skills"
        }
      },
      "addPortfolio(string[],string[],string,string)": {
        "params": {
          "_description": "description involved | optional",
          "_images": "images involved",
          "_taskurl": "url to the task | optional",
          "_videos": "videos involved if any "
        }
      },
      "createDispute(string,string,address)": {
        "details": "disputes handling"
      },
      "editFreelancerProfile(string,uint256,string,string,string[])": {
        "params": {
          "_fullName": "Updated full names for freelancer",
          "_hourlyRate": "Updated hourly rate",
          "_preferredPayment": "Updated preferred payment",
          "_profession": "Updated profession",
          "_skills": "Updated skills"
        }
      },
      "getFreelancerMileStones(address)": {
        "details": "displays a freelancer milestone at profile Mode"
      },
      "getFreelancerTransactions(address)": {
        "details": "display freelancer transaction at profile Mode"
      },
      "getProjectMileStones(uint256)": {
        "details": "displays freelancer milestone in Project mode"
      },
      "makeABidding(uint256,string,uint256,string[])": {
        "details": "makeAbiddingonly occurs on existing project id",
        "params": {
          "_bidDescription": "auto generated id for bid description",
          "_budget": "freelancer budget for bid description",
          "_jobid": "id for  the job description",
          "_relevantFiles": "if the freelancer needs to upload relevant files to justify his bidding "
        }
      },
      "postAClientJob(string,string,string,uint256,string[],string[])": {
        "details": "anyone can do thisone has to fully pay for the task when posting to ensure integrity of the DAPP",
        "params": {
          "_images": "if any",
          "_projectBudget": "should be more than 0",
          "_projectDescription": "description of the project",
          "_projectDuration": "should be in range of dates",
          "_projectTitle": "title of the task",
          "_skillRequirements": "at least one"
        }
      },
      "rateAfreelancer(address,uint256,string,string,uint256,uint256)": {
        "details": "rate a freelancer"
      },
      "setProfileVisibility(bool)": {
        "params": {
          "_isProfilePublic": "Boolean indicating if the profile is public (true) or private (false)"
        }
      },
      "viewFreelancerRating(address)": {
        "details": "view freelancer rating"
      }
    },
    "stateVariables": {
      "clientJobId": {
        "details": "client detail storagestore Client Jobsnot everybody is a client"
      },
      "freelancerChats": {
        "details": "Chat storage;"
      },
      "freelancers": {
        "details": "freelancer detail storagestore personal detailsstore each freelancer portfoliostore freelancer experiencestore freelancer ratings;everybody is a freelancer current project milestones"
      },
      "owner": {
        "details": "allow smart contract to receive payments"
      },
      "projectMilestonesForAcceptedBids": {
        "details": "acceptedBidDetailstorage done here if the data stored above has been validated"
      }
    },
    "title": "Kazi Krypto",
    "version": 1
  },
  "userdoc": {
    "kind": "user",
    "methods": {
      "addFreelancerExperience(string,string,string,string)": {
        "notice": "adds experiences to a freelancer account"
      },
      "addNewFreelancer(string,string,uint256,string,string,string[],bool)": {
        "notice": "after logging in for the first time update details here"
      },
      "addPortfolio(string[],string[],string,string)": {
        "notice": "adds portfolio to an existing freelancer profile"
      },
      "editFreelancerProfile(string,uint256,string,string,string[])": {
        "notice": "Allows freelancers to update their profile information"
      },
      "setProfileVisibility(bool)": {
        "notice": "Allows freelancers to set their profile visibility status"
      }
    },
    "notice": "The contract a freelancing platform on the Ethereum blockchainThe platform aims to connect freelancers and clients, facilitating secure and transparent transactions while leveraging the benefits of blockchain technology",
    "version": 1
  }
}